AFLY00Bo 0100732
HFDTE060116
HFFXA010
HFPLTPILOT:PGA             
HFCM2CREW2:NKN
HFGTYGLIDERTYPE:RS5             
HFGIDGLIDERID:NKN             
HFDTM100GPSDATUM:WGS84
HFRFWFIRMWAREVERSION: 1.2.12 EN
HFRHWHARDWAREVERSION:1.00
HFFTYFRTYPE:Flytec ,Element
HFGPS:FASTRAX,IT430,48
HFPRSPRESSALTSENSOR:INTERSEMA,MS5401BM,12000
HFALGALTGPS:GEO
HFALPALTPRESSURE:ISA
HFTZNUTCOFFSET: 11.00h
I033638FXA3940SIU4143TAS
C050116230833060116001800
C3321648S14755920E TAKEOFF
C3321648S14755920E START  FORBE            00000000010000000000360000AREA
C3156590S14712409E FINISH BUDDAB           00000000000400000000360000AREA
C3156590S14712409E LANDING
F024338020612131517192428
B0243383321365S14755980EA002390024300309000
F024406020612131517192428
B0244063321365S14755980EA002390024300409000
F024436020612131517192428
B0244363321365S14755980EA002390024300409000
F024506020612131517192428
B0245063321365S14755980EA002390024300409000
F0245360612131517192428
B0245363321365S14755980EA002390024300408000
F024606020612131517192428
B0246063321365S14755980EA002400024200309000
F024636020612131517192428
B0246363321365S14755979EA002400024200409000
F024706020612131517192428
B0247063321365S14755979EA002400024200409000
F024736020612131517192428
B0247363321369S14755983EA002390023900409000
E024758STA
E024758ATS1013.2
LFLYA1 00239
B0247583321388S14756004EA002400023800409000
B0248033321410S14756031EA002530024200709000
B0248083321425S14756058EA002690025100709000
B0248133321436S14756083EA002830026800609000
B0248183321448S14756113EA002960028300609000
B0248233321452S14756152EA003060030200509000
B0248283321450S14756197EA003200031900509000
B0248333321443S14756242EA003340033600609000
B0248383321441S14756282EA003510035700509000
B0248433321441S14756322EA003720038100509000
B0248483321443S14756359EA003910040200509000
B0248533321443S14756394EA004040042300509000
B0248583321432S14756430EA004120043400609000
B0249033321390S14756468EA004190043800509000
B0249083321329S14756478EA004310044600409000
B0249133321262S14756447EA004400045200509000
B0249183321217S14756382EA004500045901009000
B0249233321206S14756308EA004640047100909000
B0249283321217S14756245EA004860049100409000
B0249333321232S14756191EA005080051200409000
B0249383321252S14756148EA005370053900409000
B0249433321274S14756123EA005620056800509000
B0249483321292S14756117EA005790059500709000
B0249533321288S14756139EA005810060600809000
B0249583321255S14756164EA005770059800409000
B0250033321212S14756173EA005690059100509000
B0250083321157S14756151EA005560057600509000
B0250133321123S14756093EA005480056400709000
B0250183321126S14756042EA005590056501009000
B0250233321136S14756051EA005650057100809000
B0250283321099S14756060EA005630057201009000
B0250333321059S14756003EA005620057200909000
B0250383321064S14755959EA005730057901409000
B0250433321062S14755982EA005710058100909000
B0250483321013S14755976EA005790058801309000
B0250533321008S14755916EA005820059301609000
B0250583321021S14755924EA005840059501209000
B0251033320991S14755948EA005900060101009000
B0251083320939S14755916EA005890060101309000
B0251133320937S14755858EA005940060400909000
B0251183320953S14755825EA005900060200409000
B0251233320969S14755789EA005890060100409000
B0251283320989S14755775EA005900060200509000
B0251333321010S14755776EA005910060300309000
B0251383321029S14755780EA005950060400509000
B0251433321036S14755799EA006030060800509000
B0251483321002S14755812EA006130061700509000
B0251533320970S14755760EA006140062401109000
B0251583320987S14755735EA006200063601109000
B0252033320987S14755764EA006270064500609000
B0252083320945S14755759EA006330065401109000
B0252133320910S14755708EA006360065800909000
B0252183320907S14755655EA006460066300909000
B0252233320929S14755652EA006510066900609000
B0252283320940S14755670EA006620067800409000
B0252333320915S14755695EA006680068500509000
B0252383320866S14755686EA006760069200709000
B0252433320851S14755626EA006790069601109000
B0252483320878S14755601EA006860070100609000
B0252533320898S14755610EA006930070800809000
B0252583320881S14755642EA007060071500709000
B0253033320833S14755620EA007110072301209000
B0253083320824S14755558EA007170073201009000
B0253133320850S14755542EA007200073800809000
B0253183320860S14755568EA007270074200709000
B0253233320850S14755608EA007300074800609000
B0253283320803S14755614EA007390075500909000
B0253333320762S14755563EA007480076600609000
B0253383320758S14755505EA007520077600609000
B0253433320756S14755445EA007590078400609000
B0253483320717S14755400EA007640079101109000
F0253530206121517192428
B0253533320662S14755390EA007660078900608000
F025358020612131517192428
B0253583320611S14755384EA007740079100709000
B0254033320583S14755329EA007800079900709000
B0254083320596S14755288EA007850080600609000
B0254133320611S14755300EA007810080500509000
B0254183320607S14755331EA007830080400409000
B0254233320603S14755366EA007840080500409000
B0254283320583S14755399EA007990081200409000
B0254333320535S14755380EA008050081700909000
B0254383320530S14755320EA008130082601309000
B0254433320559S14755325EA008150083100609000
B0254483320567S14755350EA008280084000609000
B0254533320566S14755390EA008320084600509000
B0254583320567S14755424EA008430085400409000
B0255033320582S14755449EA008540086500409000
B0255083320572S14755482EA008640087500509000
B0255133320530S14755502EA008700088500409000
B0255183320497S14755527EA008560088700909000
B0255233320515S14755521EA008470087900809000
B0255283320521S14755482EA008360087100709000
B0255333320510S14755428EA008320086400709000
B0255383320497S14755377EA008460086500909000
B0255433320518S14755375EA008480086900709000
B0255483320505S14755407EA008360086800809000
B0255533320440S14755440EA008190085600609000
B0255583320371S14755437EA008080084000509000
B0256033320301S14755403EA007940082500509000
B0256083320240S14755354EA007920081600509000
B0256133320183S14755302EA007890080800509000
B0256183320128S14755250EA007840080600509000
B0256233320095S14755187EA007810080300709000
B0256283320101S14755133EA007800080100509000
B0256333320117S14755137EA007770080001109000
B0256383320115S14755162EA007870080200609000
B0256433320108S14755191EA007900080600409000
B0256483320108S14755214EA007910080700509000
B0256533320108S14755232EA007930080900509000
B0256583320110S14755246EA007940081000509000
B0257033320110S14755262EA007820081000509000
B0257083320106S14755288EA007760080800609000
B0257133320109S14755308EA007640080400409000
B0257183320100S14755330EA007480079300409000
B0257233320053S14755351EA007370077400509000
B0257283319995S14755330EA007320075900509000
B0257333319936S14755299EA007130073900409000
B0257383319886S14755248EA007030072600609000
B0257433319870S14755183EA006920071100709000
B0257483319888S14755153EA006800069900509000
B0257533319896S14755160EA006680068600509000
B0257583319890S14755185EA006530067400509000
B0258033319881S14755210EA006400066000509000
B0258083319873S14755233EA006350065100509000
B0258133319870S14755256EA006300064300509000
B0258183319877S14755279EA006090062800509000
B0258233319888S14755298EA005940061400409000
B0258283319894S14755316EA005810059900409000
B0258333319897S14755339EA005640058300409000
B0258383319890S14755365EA005470056400309000
B0258433319878S14755394EA005340055000309000
B0258483319878S14755423EA005230053600409000
B0258533319894S14755448EA005120052500409000
B0258583319894S14755471EA005000051800509000
B0259033319900S14755498EA004860050600509000
B0259083319918S14755518EA004770049900409000
B0259133319936S14755528EA004790049600409000
B0259183319951S14755493EA004820049700909000
B0259233319923S14755447EA004800051101209000
B0259283319871S14755436EA004700050400909000
B0259333319826S14755459EA004650049500509000
B0259383319803S14755495EA004720049300509000
B0259433319799S14755524EA004860049600509000
F0259480206121517192428
B0259483319820S14755516EA004890049901008000
F025953020612131517192428
B0259533319812S14755455EA004920050201209000
B0259583319763S14755441EA004980050400909000
B0300033319731S14755471EA005070051300409000
B0300083319738S14755493EA005070051601109000
B0300133319756S14755451EA005090052001209000
B0300183319711S14755408EA005170053101009000
B0300233319658S14755412EA005270053500509000
B0300283319617S14755428EA005270053900409000
B0300333319596S14755453EA005320054200609000
B0300383319613S14755465EA005290054100809000
B0300433319616S14755412EA005310054201309000
B0300483319569S14755380EA005330054400909000
B0300533319518S14755379EA005290054200509000
B0300583319471S14755382EA005280054100509000
B0301033319426S14755382EA005220053500409000
B0301083319400S14755409EA005130052601009000
B0301133319414S14755436EA005010051600609000
B0301183319443S14755436EA004920051100409000
B0301233319471S14755420EA004930051000409000
B0301283319484S14755375EA004920050500709000
B0301333319444S14755335EA004890050101509000
B0301383319401S14755343EA004900049900409000
B0301433319374S14755371EA004850049600309000
B0301483319362S14755405EA004830049300409000
B0301533319380S14755416EA004750049000609000
B0301583319407S14755392EA004670048700609000
B0302033319427S14755356EA004620048300409000
B0302083319447S14755310EA004550047500509000
B0302133319453S14755248EA004460046300609000
B0302183319436S14755179EA004480045700709000
B0302233319404S14755115EA004510045400609000
B0302283319417S14755076EA004510045601209000
B0302333319411S14755099EA004550045701209000
B0302383319369S14755061EA004590046100909000
B0302433319382S14755022EA004610046500909000
B0302483319395S14755047EA004660046900609000
B0302533319404S14755053EA004660047200909000
B0302583319402S14754997EA004590047301409000
B0303033319349S14754967EA004600047000809000
B0303083319307S14754970EA004580046700709000
B0303133319285S14754997EA004510046100809000
B0303183319294S14755011EA004520046300809000
B0303233319309S14754971EA004470046300709000
B0303283319291S14754903EA004390045501009000
B0303333319240S14754867EA004360044500809000
B0303383319192S14754878EA004300044100709000
B0303433319165S14754909EA004350044000409000
B0303483319153S14754930EA004340044000609000
B0303533319170S14754926EA004240043900809000
B0303583319184S14754879EA004150043100509000
B0304033319167S14754813EA004070042000709000
B0304083319135S14754744EA003980041200509000
B0304133319108S14754672EA003970040700509000
B0304183319075S14754607EA003970040700509000
B0304233319042S14754541EA003960040700509000
B0304283319022S14754473EA004000040800609000
F0304330206121315171928
B0304333318969S14754445EA004000040601008000
F030438020612131517192428
B0304383318949S14754476EA003940040401309000
B0304433318976S14754466EA003980040801009000
F0304480206121517192428
B0304483318969S14754399EA004000040701208000
B0304533318915S14754376EA003930040502008000
B0304583318891S14754413EA003930040200908000
B0305033318893S14754443EA003970040200908000
B0305083318903S14754461EA003960040400708000
B0305133318935S14754437EA003930040501008000
B0305183318961S14754394EA004010040600608000
B0305233318946S14754342EA003960040901508000
B0305283318897S14754352EA003980040701408000
B0305333318906S14754365EA004030040801208000
B0305383318926S14754325EA004040041101008000
B0305433318893S14754273EA004060041201108000
B0305483318855S14754285EA004030041101308000
B0305533318854S14754301EA004060041200708000
B0305583318870S14754300EA004020041000608000
B0306033318888S14754256EA003970040700908000
B0306083318865S14754193EA004030040901208000
B0306133318816S14754155EA004020040601008000
B0306183318779S14754167EA004050040801308000
B0306233318796S14754168EA004060041100908000
B0306283318799S14754104EA004050041001608000
B0306333318749S14754053EA004130041600708000
B0306383318697S14754028EA004110042101008000
B0306433318676S14754050EA004100042001108000
B0306483318697S14754023EA004050042101808000
B0306533318660S14753961EA003990041901408000
B0306583318600S14753960EA004030041500808000
B0307033318568S14753987EA004050041401608000
B0307083318592S14753964EA004100041502108000
B0307133318550S14753931EA004140042301508000
B0307183318524S14753964EA004250042701608000
B0307233318548S14753974EA004250043101408000
B0307283318534S14753912EA004250043401508000
B0307333318490S14753868EA004350044200808000
B0307383318436S14753843EA004470045001308000
B0307433318405S14753873EA004620046300908000
B0307483318426S14753883EA004590047301208000
B0307533318428S14753829EA004560047501708000
B0307583318372S14753820EA004720048101608000
B0308033318388S14753840EA004740048101708000
B0308083318378S14753782EA004750048601808000
B0308133318329S14753796EA004840049401408000
B0308183318354S14753791EA004820049501308000
B0308233318326S14753734EA004850049601408000
B0308283318279S14753745EA004960050300708000
B0308333318265S14753770EA004960050601208000
B0308383318285S14753725EA004930050501608000
B0308433318240S14753673EA005040051301408000
B0308483318209S14753695EA005060051901608000
B0308533318232S14753667EA005140052201508000
B0308583318192S14753611EA005280053501408000
B0309033318162S14753634EA005330054301408000
B0309083318181S14753597EA005450055201808000
B0309133318133S14753558EA005580056701708000
B0309183318109S14753590EA005680058001408000
B0309233318132S14753564EA005850059401708000
F03092802061517192428
B0309283318090S14753511EA005960061001107000
F0309330206121517192428
B0309333318043S14753524EA006050062201308000
B0309383318047S14753551EA006280063401508000
B0309433318042S14753496EA006350065401508000
B0309483317987S14753477EA006560067301008000
B0309533317953S14753508EA006700068800508000
B0309583317951S14753540EA006880070100908000
B0310033317979S14753518EA006950071501508000
B0310083317942S14753462EA007130073001008000
B0310133317888S14753467EA007330074700608000
B0310183317852S14753484EA007390076101208000
B0310233317860S14753503EA007410076700808000
B0310283317869S14753466EA007400076901608000
B0310333317813S14753430EA007490077200908000
B0310383317758S14753414EA007500077200508000
B0310433317720S14753431EA007450077101208000
B0310483317713S14753459EA007430076800708000
B0310533317736S14753440EA007390076501308000
B0310583317699S14753382EA007370076601408000
B0311033317644S14753374EA007410076801308000
B0311083317636S14753400EA007380076701108000
B0311133317662S14753378EA007430076900908000
B0311183317639S14753318EA007470076901408000
B0311233317583S14753304EA007510077100708000
B0311283317530S14753309EA007530077400608000
B0311333317475S14753313EA007510077400508000
B0311383317426S14753319EA007480077400508000
B0311433317380S14753338EA007470077300808000
B0311483317374S14753368EA007420077401008000
B0311533317399S14753339EA007530077501308000
B0311583317362S14753279EA007510077501008000
B0312033317306S14753273EA007560077800808000
B0312083317261S14753286EA007550077501008000
B0312133317233S14753321EA007430077000908000
B0312183317219S14753357EA007380076200508000
B0312233317244S14753341EA007220075501608000
B0312283317242S14753280EA007260075101208000
B0312333317195S14753250EA007280075501008000
B0312383317151S14753274EA007200074601108000
B0312433317164S14753291EA007190074600808000
B0312483317190S14753264EA007200074600708000
B0312533317188S14753198EA007210074501008000
B0312583317147S14753149EA007280074801608000
B0313033317106S14753175EA007350075201908000
B0313083317133S14753178EA007410075901508000
B0313133317122S14753112EA007550076901408000
B0313183317068S14753106EA007640077601008000
B0313233317060S14753140EA007690078401308000
B0313283317090S14753116EA007760079301208000
B0313333317083S14753055EA007770079501208000
B0313383317026S14753031EA007800079900808000
B0313433316981S14753045EA007950081000608000
B0313483316956S14753077EA007960081700808000
B0313533316977S14753081EA007950081801008000
B0313583316967S14753024EA007890081601508000
B0314033316913S14753013EA007910081800708000
B0314083316857S14753020EA007900081600508000
B0314113316834S14753038EA007870081401208000
B0314123316831S14753047EA007860081401108000
B0314133316831S14753055EA007860081400908000
B0314143316833S14753059EA007880081401208000
B0314153316838S14753060EA007920081501008000
B0314163316845S14753058EA007940081501508000
B0314173316852S14753050EA007940081501308000
B0314183316853S14753039EA007930081301608000
B0314213316843S14753002EA007900081301308000
B0314223316835S14752991EA007910081401208000
E031423TPC
B0314233316826S14752982EA007920081501208000
B0314243316817S14752975EA007910081401308000
B0314253316806S14752971EA007890081401408000
B0314263316793S14752972EA007860081000908000
B0314273316780S14752975EA007830080800808000
B0314283316767S14752976EA007820080700808000
B0314333316720S14752990EA007910080901008000
B0314383316719S14753015EA007900081201108000
B0314433316735S14752971EA007960081701208000
B0314483316694S14752923EA008000082701508000
B0314533316648S14752947EA008020082901508000
B0314583316648S14752975EA008070082900908000
B0315033316676S14752948EA008100082900808000
B0315083316657S14752891EA008140083601508000
B0315133316601S14752881EA008140083701508000
B0315183316595S14752911EA008210084001108000
B0315233316621S14752877EA008270084501108000
B0315283316625S14752823EA008270084900508000
B0315333316601S14752768EA008220084701308000
B0315383316546S14752789EA008210084300708000
B0315433316540S14752819EA008280084901608000
B0315483316559S14752784EA008250084901208000
B0315533316535S14752725EA008220084600908000
B0315583316487S14752690EA008200084300908000
B0316033316433S14752697EA008260084300508000
B0316083316404S14752726EA008340085101008000
B0316133316421S14752732EA008430085801008000
B0316183316407S14752672EA008510086501208000
B0316233316347S14752644EA008580087500908000
B0316283316304S14752668EA008650088601408000
B0316333316313S14752698EA008670088901408000
B0316383316324S14752653EA008750089501608000
B0316433316274S14752612EA008770089800908000
B0316483316220S14752622EA008770089900708000
B0316533316171S14752645EA008810090200508000
B0316583316114S14752648EA008870090800408000
B0317033316062S14752663EA008910091501108000
B0317083316064S14752689EA008940091900708000
B0317133316061S14752648EA008870091601608000
B0317183316001S14752616EA008890091400808000
B0317233315944S14752618EA008930091800608000
B0317283315889S14752611EA008980092100608000
B0317333315830S14752610EA009180093400608000
B0317383315808S14752638EA009300094601208000
B0317433315839S14752613EA009480096201608000
B0317483315798S14752562EA009590098101108000
B0317533315747S14752574EA009720099701608000
B0317583315746S14752604EA009870101401608000
B0318033315763S14752552EA010130103501708000
B0318083315713S14752502EA010270106001708000
B0318133315658S14752508EA010420107801208000
B0318183315647S14752543EA010560109201408000
B0318233315682S14752531EA010620110101108000
B0318283315661S14752465EA010720110901808000
B0318333315609S14752476EA010900112101408000
B0318383315629S14752495EA010940113001208000
B0318433315624S14752428EA011020114001408000
B0318483315567S14752389EA011200115701308000
B0318533315547S14752406EA011310116801308000
B0318583315571S14752370EA011510118001708000
B0319033315538S14752306EA011610120001208000
B0319083315473S14752291EA011760121201208000
B0319133315464S14752321EA011830122101808000
B0319183315488S14752277EA012030123401208000
B0319233315449S14752222EA012110124601608000
B0319283315391S14752235EA012170125201508000
B0319333315389S14752262EA012280125501408000
B0319383315419S14752228EA012400126601308000
B0319433315403S14752159EA012620129101308000
B0319483315342S14752137EA012680130501208000
B0319533315304S14752166EA012690131501308000
B0319583315324S14752182EA012750131701008000
B0320033315340S14752128EA012870132301308000
B0320083315294S14752077EA012990133601608000
B0320133315253S14752105EA013050134301708000
B0320183315271S14752123EA013100134900908000
B0320233315287S14752070EA013240136001308000
B0320283315242S14752025EA013370137601708000
B0320333315210S14752057EA013390138501708000
B0320383315224S14752073EA013560139201308000
B0320433315246S14752029EA013590141102508000
B0320483315179S14752006EA013690142201408000
B0320533315172S14752048EA013720142101008000
B0320583315203S14752044EA013880142601508000
B0321033315209S14751985EA013860143301508000
B0321083315153S14751967EA013960143901908000
B0321133315157S14751999EA014050144201908000
B0321183315185S14751957EA014060144801608000
B0321233315130S14751932EA014090145401108000
F03212802061217192428
B0321283315106S14751966EA014240146101407000
B0321333315136S14751964EA014310146501707000
B0321383315127S14751903EA014250147001407000
B0321433315066S14751899EA014290147501007000
B0321483315019S14751900EA014420148301007000
B0321533315004S14751927EA014390148501607000
B0321583315030S14751884EA014320148602307000
B0322033314993S14751849EA014390148902707000
B0322083314998S14751871EA014330148501407000
B0322133315000S14751814EA014390148601707000
B0322183314946S14751801EA014440148601407000
B0322233314939S14751826EA014320148302107000
B0322283314966S14751788EA014320148202207000
B0322333314917S14751746EA014360148101807000
B0322383314856S14751750EA014340148001007000
B0322433314807S14751740EA014410148301107000
B0322483314754S14751743EA014390148401107000
B0322533314702S14751752EA014430148500607000
B0322583314652S14751752EA014440148900607000
B0323033314607S14751769EA014360148701207000
B0323083314551S14751796EA014370148400807000
B0323133314497S14751798EA014480148800707000
B0323183314438S14751784EA014620149700807000
B0323233314382S14751774EA014730150800507000
B0323283314323S14751767EA014790151600707000
B0323333314273S14751763EA014940153101007000
B0323383314250S14751809EA015040154402007000
B0323433314279S14751797EA015030155301707000
B0323483314250S14751739EA015040155601307000
B0323533314189S14751708EA015160156401307000
B0323583314128S14751708EA015170156900707000
B0324033314065S14751716EA015290157500907000
B0324083313999S14751718EA015410158300907000
B0324133313953S14751672EA015540159800907000
B0324183313934S14751620EA015680161601307000
B0324233313944S14751600EA015840162900707000
B0324283313946S14751623EA015900163901807000
B0324333313909S14751664EA016040165301307000
B0324383313851S14751665EA016210166700907000
B0324433313796S14751624EA016310168001307000
B0324483313781S14751561EA016400169200907000
B0324533313788S14751511EA016540170300707000
B0324583313798S14751486EA016700171500607000
F0325030206121719242528
B0325033313808S14751491EA016740172401108000
B0325083313772S14751537EA016740172601408000
B0325133313715S14751565EA016860173601208000
B0325183313656S14751539EA016890174301508000
B0325233313646S14751477EA017000175301508000
B0325283313666S14751481EA017050175801108000
B0325333313653S14751524EA017130176500708000
B0325383313605S14751555EA017140176900608000
B0325433313544S14751527EA017190177500808000
B0325483313520S14751466EA017280178100908000
B0325533313521S14751412EA017410179400708000
B0325583313488S14751361EA017450180300808000
B0326033313426S14751367EA017510180901308000
B0326083313413S14751397EA017450180701008000
B0326133313434S14751387EA017530180800808000
B0326183313428S14751331EA017580181301308000
B0326233313376S14751284EA017620182000808000
B0326283313312S14751282EA017630182200808000
B0326333313255S14751300EA017660182500508000
B0326383313206S14751319EA017770183201008000
B0326433313194S14751347EA017830183801008000
B0326483313210S14751329EA017900184401008000
B0326533313193S14751272EA017890184701408000
B0326583313136S14751236EA017910184900908000
B0327033313075S14751248EA017980185300708000
B0327083313045S14751280EA017970185500708000
B0327133313042S14751307EA018030185800508000
B0327183313056S14751314EA018070186000708000
B0327233313056S14751268EA018160186701008000
B0327283313011S14751224EA018170187401208000
B0327333312950S14751244EA018120187601308000
B0327383312906S14751280EA018180188000808000
B0327433312868S14751316EA018220188300608000
B0327483312850S14751354EA018230188200408000
F03275302061219242528
B0327533312861S14751368EA018210188200807000
B0327583312877S14751330EA018150187800707000
F0328030206121719242528
B0328033312872S14751271EA018080187200708000
B0328083312851S14751207EA018070187000608000
B0328133312818S14751148EA018100187000408000
B0328183312770S14751097EA018070186800408000
B0328233312713S14751055EA018070186700408000
B0328283312670S14751003EA018090186800508000
B0328333312663S14750947EA018020186400608000
B0328383312681S14750916EA017970185900408000
B0328433312695S14750876EA017920185600408000
B0328483312698S14750827EA017930185400408000
B0328533312684S14750770EA017900185000708000
B0328583312632S14750723EA017810184300708000
B0329033312559S14750710EA017760183600508000
B0329083312491S14750711EA017680182900908000
B0329133312421S14750706EA017670182400508000
B0329183312358S14750705EA017620182001108000
B0329233312338S14750734EA017470180700808000
B0329283312358S14750736EA017390179700708000
B0329333312364S14750698EA017340179401408000
B0329383312310S14750654EA017230178601708000
B0329433312237S14750652EA017120177300708000
B0329483312173S14750649EA017030176300508000
B0329533312105S14750633EA016840174500608000
B0329583312035S14750628EA016680172500408000
B0330033311965S14750620EA016590171200308000
B0330083311899S14750615EA016570170600408000
B0330133311832S14750615EA016520170400308000
B0330183311766S14750612EA016490170100408000
B0330233311696S14750601EA016410169600408000
B0330283311625S14750591EA016310168800408000
B0330333311554S14750586EA016250168200408000
B0330383311480S14750578EA016170167500308000
B0330433311405S14750566EA016080166600308000
B0330483311331S14750560EA016030165800408000
B0330533311256S14750552EA015980165100308000
B0330583311183S14750547EA015910164400308000
B0331033311112S14750554EA015800163600708000
B0331083311039S14750564EA015740162800408000
B0331133310969S14750576EA015640162000508000
B0331183310897S14750581EA015600161300408000
B0331233310826S14750577EA015540160600408000
B0331283310755S14750576EA015480160000408000
B0331333310684S14750579EA015380159100408000
B0331383310613S14750588EA015270158200408000
B0331433310545S14750603EA015220157200708000
B0331483310482S14750620EA015100155900508000
B0331533310411S14750627EA015020154900408000
B0331583310341S14750625EA014970154300308000
B0332033310271S14750620EA014910153700308000
B0332083310205S14750619EA014910153500308000
B0332133310137S14750621EA014870153300408000
B0332183310073S14750628EA014810153000408000
B0332233310006S14750639EA014770152700308000
B0332283309939S14750650EA014700152200408000
B0332333309871S14750654EA014630151600308000
B0332383309802S14750655EA014570150900308000
B0332433309731S14750653EA014520150300308000
B0332483309660S14750653EA014490149900308000
B0332533309590S14750647EA014440149300408000
B0332583309521S14750643EA014360148500308000
B0333033309457S14750630EA014300147800408000
B0333083309394S14750624EA014110146400508000
B0333133309324S14750628EA013850144000508000
B0333183309257S14750622EA013720142100508000
B0333233309189S14750612EA013610140500408000
B0333283309126S14750587EA013570139800408000
B0333333309059S14750554EA013630139800608000
B0333383309007S14750561EA013830141301908000
B0333433309022S14750572EA013960141901908000
B0333483309008S14750503EA014070143301208000
B0333533308950S14750483EA014270145301108000
B0333583308918S14750515EA014430147601108000
B0334033308936S14750507EA014580149402208000
B0334083308914S14750441EA014710151501208000
B0334133308853S14750429EA014890153601508000
B0334183308824S14750470EA015000155001208000
B0334233308849S14750459EA015210156201808000
B0334283308823S14750400EA015290157601408000
B0334333308756S14750412EA015390158901408000
B0334383308725S14750446EA015560160601208000
B0334433308749S14750436EA015690162301408000
B0334483308720S14750376EA015830163501108000
B0334533308656S14750390EA015860164101308000
B0334583308631S14750427EA016040165001508000
B0335033308658S14750395EA016100165901708000
B0335083308623S14750335EA016270167201308000
B0335133308555S14750330EA016350168400708000
B0335183308509S14750355EA016470169801508000
B0335233308523S14750370EA016580170401408000
B0335283308535S14750320EA016650171601508000
B0335333308478S14750281EA016730172702008000
B0335383308430S14750314EA016820173500708000
B0335433308415S14750348EA016950174701208000
B0335483308431S14750307EA016920175401708000
B0335533308374S14750259EA016980175701208000
B0335583308314S14750265EA017080176301808000
B0336033308327S14750286EA017130176702008000
B0336083308327S14750231EA017180177001108000
B0336133308276S14750188EA017210177501608000
B0336183308215S14750210EA017240178001308000
B0336233308181S14750247EA017380179300908000
B0336283308192S14750230EA017480180101508000
B0336333308148S14750187EA017610181002008000
B0336383308093S14750216EA017650182001808000
B0336433308090S14750255EA017750182901708000
B0336483308103S14750224EA017800183501408000
B0336533308062S14750174EA017910184601408000
B0336583307999S14750199EA018010185901508000
B0337033307998S14750236EA018020186402208000
B0337083308008S14750199EA018110186501708000
B0337133307956S14750158EA018150187201908000
B0337183307896S14750185EA018240188101708000
B0337233307910S14750224EA018230188101908000
B0337283307918S14750187EA018240188301708000
B0337333307853S14750150EA018250188301908000
B0337383307799S14750191EA018320188801708000
B0337433307821S14750208EA018210188701508000
B0337483307808S14750147EA018240188401408000
B0337533307739S14750137EA018270188301808000
B0337583307697S14750187EA018300188401508000
B0338033307713S14750207EA018240188201108000
B0338083307720S14750156EA018150187801008000
B0338133307701S14750094EA018190187900908000
B0338183307637S14750070EA018260188201308000
B0338233307597S14750115EA018290188601608000
B0338283307614S14750123EA018310188701808000
B0338333307599S14750066EA018210188600708000
B0338383307563S14750009EA018310188800608000
B0338433307505S14750000EA018340189101008000
B0338483307454S14750035EA018320189201308000
B0338533307459S14750066EA018270189001608000
B0338583307468S14750020EA018200188600908000
B0339033307442S14749956EA018190188500508000
B0339083307394S14749906EA018220188600508000
B0339133307328S14749885EA018220188400608000
B0339183307261S14749878EA018170188100408000
B0339233307201S14749865EA018150187900408000
B0339283307139S14749872EA018050187000508000
B0339333307079S14749897EA017960186100608000
B0339383307013S14749893EA018020185800508000
B0339433306946S14749870EA017880185000608000
B0339483306880S14749844EA017800184000508000
B0339533306817S14749814EA017730183200508000
B0339583306757S14749782EA017680182600508000
B0340033306693S14749753EA017580181800408000
B0340083306632S14749721EA017610181400508000
B0340133306572S14749694EA017580181300508000
B0340183306519S14749667EA017680181800608000
B0340233306497S14749625EA017620181900508000
B0340283306515S14749610EA017500181000908000
B0340333306517S14749642EA017520180700808000
B0340383306485S14749683EA017570180701108000
B0340433306491S14749698EA017470180301808000
B0340483306476S14749645EA017350179901208000
B0340533306413S14749651EA017360179501108000
B0340583306422S14749667EA017240178701208000
B0341033306421S14749619EA017130178000908000
B0341083306365S14749568EA017020177000808000
B0341133306311S14749522EA016980176100508000
B0341183306248S14749492EA016940175100608000
B0341233306196S14749502EA016950174901508000
B0341283306202S14749527EA016920174501508000
B0341333306216S14749486EA016860173901608000
B0341383306189S14749426EA016720173201008000
B0341433306131S14749381EA016670172200908000
B0341483306071S14749343EA016630171800608000
B0341533306009S14749308EA016670171500708000
B0341583305956S14749274EA016790172501308000
B0342033305923S14749316EA016940173901508000
B0342083305952S14749311EA017050175201308000
F03421302061217192425
B0342133305926S14749256EA017150176301507000
B0342183305858S14749272EA017240177801907000
B0342233305867S14749309EA017370178901607000
B0342283305881S14749263EA017430180001507000
B0342333305823S14749222EA017470180701607000
B0342383305759S14749241EA017610181501407000
B0342433305752S14749284EA017700182002707000
B0342483305781S14749258EA017830182701707000
B0342533305749S14749200EA017920184001107000
B0342583305685S14749188EA018050185301407000
B0343033305645S14749230EA018110186202107000
B0343083305674S14749232EA018190187201707000
B0343133305662S14749175EA018320188601307000
B0343183305603S14749148EA018430189501307000
B0343233305555S14749178EA018480190201507000
B0343283305558S14749218EA018510190801007000
B0343333305582S14749225EA018560191100807000
B0343383305592S14749174EA018650191501207000
B0343433305552S14749128EA018710192101007000
B0343483305494S14749104EA018740192801607000
B0343533305448S14749147EA018700193101007000
B0343583305448S14749190EA018820194201707000
B0344033305470S14749169EA018820195001307000
B0344083305439S14749108EA018870195301107000
B0344133305381S14749066EA018880195100807000
B0344183305315S14749044EA018920195200607000
B0344233305248S14749036EA019010195600507000
B0344283305182S14749010EA019030195900507000
B0344333305115S14748979EA018960195900507000
B0344383305053S14748941EA019050196400507000
B0344433304994S14748901EA019070196700507000
B0344483304929S14748865EA019160197700607000
B0344533304866S14748831EA019110197900507000
B0344583304805S14748802EA019060197400507000
B0345033304742S14748770EA018950196400407000
B0345083304679S14748744EA018830195700407000
B0345133304620S14748712EA018760194600807000
B0345183304565S14748670EA018630193200507000
B0345233304502S14748635EA018630192500407000
B0345283304438S14748605EA018670192100307000
B0345333304379S14748566EA018700192500807000
B0345383304326S14748520EA018640192301007000
B0345433304269S14748474EA018620192001007000
B0345483304210S14748432EA018510191300607000
B0345533304144S14748391EA018420190500507000
B0345583304081S14748351EA018360189900407000
B0346033304019S14748312EA018300189100407000
B0346083303960S14748265EA018180188200507000
B0346133303903S14748221EA018150187300907000
B0346183303849S14748177EA018060186500807000
B0346233303797S14748136EA018020185900807000
B0346283303741S14748094EA017940185300807000
B0346333303684S14748051EA017940185000807000
B0346383303626S14748013EA017880184700507000
B0346433303569S14747969EA017750184000507000
B0346483303515S14747924EA017630182500807000
B0346533303453S14747886EA017460180900407000
B0346583303388S14747857EA017300179800407000
B0347033303322S14747823EA017170178200407000
B0347083303257S14747793EA017010176800407000
B0347133303201S14747740EA016960175301007000
B0347183303171S14747676EA016980174400607000
B0347233303168S14747625EA017060174500707000
B0347283303179S14747632EA017160175601507000
B0347333303155S14747674EA017240177001607000
B0347383303088S14747676EA017250177401007000
B0347433303033S14747626EA017280178101407000
B0347483302983S14747575EA017280178300707000
B0347533302929S14747535EA017260178501107000
B0347583302870S14747499EA017160177900507000
B0348033302805S14747494EA017070177301107000
F0348080205061217192425
B0348083302778S14747531EA016980176001508000
B0348133302801S14747534EA016930175000708000
B0348183302816S14747544EA016900174400808000
B0348233302826S14747567EA016940174400608000
B0348283302819S14747608EA016950174600608000
B0348333302774S14747652EA016970174901208000
B0348383302709S14747649EA016990175500808000
F03484302050612172425
B0348433302670S14747591EA016980175201007000
F0348480205061217192425
B0348483302660S14747541EA017010175300408000
B0348533302662S14747501EA017060175700308000
B0348583302665S14747460EA017080176000308000
B0349033302667S14747411EA017050176100508000
B0349083302654S14747352EA017020176200308000
B0349133302656S14747315EA016910175600908000
B0349183302669S14747329EA016890175200508000
B0349233302651S14747373EA016810174400708000
B0349283302608S14747418EA016880174200808000
B0349333302567S14747461EA016900174300408000
B0349383302533S14747506EA016940174500408000
B0349433302507S14747550EA016890174400408000
B0349483302492S14747589EA016820174200508000
B0349533302456S14747630EA016740173200608000
B0349583302415S14747667EA016690172500408000
B0350033302413S14747692EA016540171601208000
B0350083302429S14747660EA016400169900408000
F03501302061217192425
B0350133302424S14747610EA016340168900707000
F0350180205061217192425
B0350183302409S14747554EA016240168000608000
B0350233302381S14747502EA016230167400408000
B0350283302330S14747457EA016160166900608000
B0350333302265S14747423EA016130166400408000
B0350383302195S14747400EA016020165800508000
B0350433302149S14747356EA016020165401008000
B0350483302147S14747313EA015900164401008000
B0350533302166S14747317EA015850163700808000
B0350583302169S14747345EA015820163200308000
B0351033302161S14747378EA015780163000308000
B0351083302165S14747397EA015730162600308000
B0351133302173S14747372EA015620162100608000
B0351183302139S14747316EA015640161800608000
B0351233302078S14747284EA015610161300508000
B0351283302014S14747270EA015580160900408000
B0351333301944S14747261EA015430160000408000
B0351383301872S14747250EA015410159200408000
B0351433301799S14747230EA015280158100408000
B0351483301727S14747211EA015250157600408000
B0351533301655S14747188EA015140156700308000
B0351583301582S14747167EA015030155800308000
B0352033301505S14747149EA014950154700308000
B0352083301429S14747130EA014850153500308000
B0352133301356S14747104EA014730152100308000
B0352183301282S14747075EA014510150300408000
B0352233301216S14747037EA014450148800708000
B0352283301154S14746997EA014360147900308000
B0352333301085S14746974EA014320147500408000
B0352383301015S14746961EA014380147600308000
B0352433300969S14746980EA014340147700908000
B0352483300984S14746980EA014300147600508000
B0352533300964S14746926EA014270147401108000
B0352583300903S14746884EA014250147300508000
B0353033300833S14746862EA014220146900408000
B0353083300767S14746853EA014260146700508000
B0353133300702S14746854EA014390147500608000
B0353183300670S14746878EA014510148901408000
B0353233300685S14746860EA014600150001008000
B0353283300654S14746797EA014640150801108000
B0353333300590S14746763EA014740151800608000
B0353383300527S14746760EA014820152700708000
B0353433300486S14746793EA014860153400508000
B0353483300483S14746815EA014960154500508000
B0353533300492S14746778EA015080155900808000
B0353583300446S14746719EA015210157001008000
B0354033300379S14746716EA015310158200608000
B0354083300341S14746748EA015380158800508000
B0354133300342S14746764EA015530160100708000
B0354183300343S14746716EA015650161201008000
B0354233300289S14746668EA015790162401008000
B0354283300226S14746683EA015880164001208000
B0354333300206S14746717EA015970164600908000
B0354383300223S14746701EA016110165800808000
B0354433300182S14746634EA016200167101108000
B0354483300116S14746641EA016360169101508000
B0354533300100S14746674EA016500170401808000
B0354583300117S14746650EA016570171200908000
B0355033300075S14746586EA016740172200908000
B0355083300007S14746596EA016830173501308000
B0355133259961S14746637EA016960174700608000
B0355183259946S14746673EA017060176001008000
B0355233259963S14746660EA017120176700708000
B0355283259932S14746603EA017210177300908000
B0355333259862S14746594EA017310178600708000
B0355383259807S14746622EA017440180000908000
B0355433259784S14746668EA017490180400408000
B0355483259789S14746693EA017650181900408000
B0355533259797S14746668EA017750182900508000
B0355583259764S14746616EA017800183700708000
B0356033259691S14746606EA017910184500808000
B0356083259646S14746642EA018000185400408000
B0356133259638S14746677EA018130186200608000
B0356183259651S14746678EA018220187500408000
B0356233259646S14746629EA018200188100608000
B0356283259599S14746576EA018250188500608000
B0356333259538S14746542EA018360189400408000
B0356383259472S14746546EA018430190101008000
B0356433259432S14746591EA018480190800508000
B0356483259425S14746625EA018600191801208000
B0356533259436S14746611EA018580191900708000
B0356583259420S14746558EA018710192501208000
B0357033259363S14746528EA018790193501108000
B0357083259309S14746563EA018860194400608000
B0357133259288S14746606EA018980195100508000
B0357183259301S14746604EA018980195400808000
B0357233259277S14746542EA018970195601208000
B0357283259211S14746510EA019080196400708000
B0357333259149S14746535EA019110197000808000
B0357383259136S14746575EA019180197701308000
B0357433259151S14746558EA019210197900608000
B0357483259124S14746498EA019290198201108000
B0357533259062S14746471EA019320198800808000
B0357583258998S14746501EA019310199101308000
B0358033258975S14746541EA019390199701308000
B0358083258985S14746526EA019350199900708000
B0358133258967S14746469EA019390200000708000
B0358183258922S14746426EA019360199800408000
B0358233258858S14746396EA019340199200808000
B0358283258799S14746368EA019310199000608000
B0358333258746S14746325EA019210198000708000
B0358383258693S14746279EA019040196800308000
F03584302050612172425
B0358433258632S14746245EA018920195300307000
F0358480205061217192425
B0358483258571S14746216EA018770193900408000
B0358533258513S14746178EA018620192500308000
B0358583258462S14746134EA018510191000708000
B0359033258401S14746086EA018390189600308000
B0359083258343S14746057EA018460189800408000
B0359133258296S14746079EA018400189300608000
B0359183258297S14746106EA018330188800708000
B0359233258313S14746077EA018310188700508000
B0359283258298S14746018EA018220188500508000
B0359333258258S14745958EA018140187801008000
B0359383258211S14745906EA018150187400808000
B0359433258166S14745851EA018090187000808000
B0359483258117S14745814EA018090186800408000
B0359533258056S14745781EA018060186600308000
B0359583258000S14745756EA018250187500508000
B0400033257973S14745787EA018290188300908000
B0400083257994S14745780EA018350189200508000
B0400133257983S14745724EA018330189900908000
B0400183257937S14745672EA018440190300708000
B0400233257883S14745637EA018500190900508000
B0400283257837S14745661EA018600191900608000
B0400333257845S14745689EA018730193201008000
B0400383257846S14745637EA018820194201008000
B0400433257788S14745613EA018870194900808000
B0400483257741S14745650EA018990195700908000
B0400533257750S14745683EA019150197400908000
B0400583257765S14745649EA019250198301108000
B0401033257724S14745598EA019290199000808000
B0401083257656S14745602EA019350199601208000
B0401133257612S14745634EA019510200700608000
B0401183257621S14745656EA019540201300408000
B0401233257631S14745615EA019590201900708000
B0401283257604S14745558EA019750202900608000
B0401333257548S14745533EA019830204100608000
B0401383257497S14745565EA019950205701408000
B0401433257501S14745592EA020040206900508000
B0401483257517S14745561EA020140208001208000
B0401533257483S14745506EA020220209000908000
B0401583257424S14745483EA020330209900708000
B0402033257389S14745522EA020410210600908000
B0402083257413S14745515EA020460211000808000
B0402133257401S14745453EA020540211700808000
B0402183257361S14745395EA020560212100808000
B0402233257309S14745341EA020550212300608000
B0402283257251S14745287EA020530212400508000
B0402333257195S14745240EA020620212700708000
B0402383257134S14745198EA020540212600408000
B0402433257072S14745157EA020420211600408000
B0402483257004S14745118EA020300210300408000
B0402533256936S14745081EA020210209100408000
B0402583256874S14745050EA020050207600408000
B0403033256811S14745013EA019930206100408000
B0403083256747S14744974EA019740204300508000
B0403133256683S14744933EA019620202800408000
B0403183256619S14744892EA019410201000508000
B0403233256553S14744856EA019400200000408000
B0403283256491S14744820EA019350199300408000
F040333020506121719242529
B0403333256427S14744779EA019280198700309000
B0403383256361S14744743EA019240198300309000
B0403433256299S14744702EA019210198100309000
B0403483256241S14744654EA019150197500309000
B0403533256176S14744619EA019060196900309000
B0403583256115S14744591EA019060196400309000
B0404033256050S14744560EA018970195700309000
B0404083255991S14744530EA018900194900309000
B0404133255931S14744496EA018800194000309000
B0404183255872S14744462EA018700193100309000
B0404233255818S14744413EA018640192200509000
B0404283255759S14744375EA018610191700309000
B0404333255700S14744342EA018670192000309000
B0404383255630S14744316EA018580191800409000
B0404433255568S14744280EA018570191500709000
B0404483255513S14744240EA018480191000309000
B0404533255456S14744195EA018440190500709000
B0404583255401S14744155EA018380189900609000
B0405033255347S14744115EA018330189200409000
B0405083255290S14744078EA018240188300209000
B0405133255231S14744048EA018230187800309000
B0405183255187S14744005EA018260187600809000
B0405233255157S14743946EA018220187700609000
B0405283255094S14743912EA018150187400409000
F0405330205061217242529
B0405333255031S14743886EA018170187500608000
B0405383254970S14743854EA018100186800308000
B0405433254906S14743821EA018030186200308000
B0405483254843S14743792EA018000185700308000
B0405533254778S14743760EA017940185100308000
B0405583254720S14743726EA017910184700408000
B0406033254664S14743688EA017800183700708000
B0406083254601S14743653EA017660182500408000
B0406133254530S14743630EA017600181500308000
B0406183254464S14743606EA017510180500408000
B0406233254402S14743570EA017390179200508000
B0406283254352S14743523EA017290178100408000
B0406333254305S14743474EA017100176600908000
B0406383254239S14743435EA016890174400408000
B0406433254168S14743409EA016900173300608000
B0406483254138S14743367EA016960173600808000
B0406533254149S14743363EA017060174901208000
B0406583254142S14743399EA017160175901008000
B0407033254091S14743435EA017190177000708000
B0407083254025S14743431EA017140177000608000
B0407133253962S14743404EA017190176800508000
B0407183253914S14743417EA017160176700808000
B0407233253907S14743448EA016950175800608000
B0407283253918S14743423EA016800173600508000
B0407333253924S14743386EA016720172400408000
B0407383253911S14743330EA016700171800508000
B0407433253879S14743278EA016790172500608000
B0407483253809S14743283EA016760172901508000
B0407533253778S14743327EA016770172801008000
B0407583253769S14743355EA016730172700808000
B0408033253772S14743364EA016760172700508000
B0408083253773S14743325EA016730172400608000
B0408133253752S14743270EA016670172100608000
B0408183253722S14743224EA016750172200608000
B0408233253657S14743201EA016690171900608000
B0408283253603S14743234EA016620171500708000
B0408333253577S14743281EA016640170900908000
B0408383253575S14743257EA016520170701408000
B0408433253521S14743216EA016500170300708000
B0408483253461S14743241EA016320169200908000
B0408533253423S14743276EA016370168600708000
B0408583253427S14743283EA016330168200708000
B0409033253413S14743227EA016280168000908000
B0409083253365S14743175EA016250167500808000
B0409133253296S14743136EA016080166500608000
B0409183253243S14743102EA016060165900508000
B0409233253185S14743062EA015940164800408000
B0409283253128S14743019EA015790163300408000
B0409333253067S14742976EA015610161600408000
B0409383253008S14742941EA015550160300408000
B0409433252949S14742897EA015410158800408000
B0409483252886S14742853EA015310157600408000
B0409533252824S14742809EA015240156700608000
B0409583252767S14742770EA015270156400408000
B0410033252706S14742730EA015160155900308000
B0410083252639S14742697EA015170155800408000
B0410133252574S14742669EA015240156300308000
B0410183252511S14742642EA015220156500408000
B0410233252444S14742613EA015130156100408000
B0410283252379S14742581EA015050155300308000
B0410333252312S14742548EA014990154500308000
B0410383252248S14742514EA014910153700408000
B0410433252181S14742479EA014810153000308000
B0410483252116S14742446EA014690151900408000
B0410533252049S14742423EA014570150700408000
B0410583251980S14742397EA014430149100308000
B0411033251918S14742364EA014350147900408000
B0411083251860S14742322EA014270146900308000
B0411133251793S14742301EA014270146200508000
B0411183251716S14742297EA014240145800608000
B0411233251650S14742303EA014320146400508000
B0411283251620S14742340EA014300147000908000
B0411333251630S14742318EA014270146900708000
B0411383251594S14742274EA014290146900908000
B0411433251524S14742255EA014220146500508000
B0411483251455S14742253EA014240146500408000
B0411533251399S14742281EA014140146100608000
B0411583251365S14742320EA014200146100508000
B0412033251377S14742322EA014130145800808000
B0412083251356S14742272EA014120145600908000
B0412133251285S14742263EA014050145200608000
B0412183251231S14742290EA013980144500708000
B0412233251192S14742335EA013970144000508000
B0412283251166S14742383EA013940143500708000
B0412333251163S14742406EA013940143500608000
B0412383251160S14742361EA013860143001108000
B0412433251099S14742331EA013760142300708000
B0412483251030S14742333EA013770142100408000
B0412533250978S14742360EA013770141801008000
B0412583250939S14742404EA013760141600408000
B0413033250909S14742451EA013750141600608000
B0413083250882S14742494EA013700141300708000
B0413133250877S14742518EA013630140800608000
B0413183250872S14742480EA013600140201008000
B0413233250837S14742428EA013450139101008000
B0413283250805S14742374EA013410138200808000
B0413333250801S14742328EA013380137700508000
B0413383250780S14742286EA013340137600908000
B0413433250725S14742243EA013310136900708000
B0413483250659S14742250EA013290136600908000
B0413533250630S14742293EA013300136701408000
B0413583250626S14742264EA013200135501508000
B0414033250568S14742219EA013160134700608000
B0414083250493S14742207EA013230134800508000
B0414133250442S14742243EA013290136000908000
B0414183250445S14742260EA013250136200608000
B0414233250434S14742213EA013270136500808000
B0414283250374S14742179EA013320136800708000
B0414333250306S14742198EA013350137000708000
B0414383250262S14742244EA013340137201008000
B0414433250240S14742285EA013360137300708000
B0414483250247S14742287EA013310137200508000
B0414533250258S14742274EA013270136800508000
B0414583250247S14742236EA013230136500808000
B0415033250184S14742200EA013210136000708000
B0415083250130S14742233EA013160135401008000
B0415133250115S14742273EA013110134900708000
B0415183250110S14742297EA013110134700508000
B0415233250122S14742295EA013050134500608000
B0415283250108S14742256EA013000134301108000
B0415333250042S14742226EA012950133600608000
B0415383249981S14742250EA012880132700808000
B0415433249956S14742298EA012800132000508000
B0415483249949S14742337EA012790131600708000
B0415533249948S14742357EA012800131400408000
B0415583249943S14742325EA012740131301008000
B0416033249905S14742272EA012730131100708000
B0416083249846S14742243EA012730130800408000
B0416133249782S14742263EA012630130101208000
B0416183249743S14742309EA012610129700908000
B0416233249726S14742355EA012540129300408000
B0416283249701S14742402EA012510128800908000
B0416333249698S14742432EA012440128400408000
B0416383249702S14742457EA012460128200408000
B0416433249711S14742456EA012460128100408000
B0416483249703S14742412EA012410128000808000
B0416533249666S14742360EA012410127700708000
F04165802061217242529
B0416583249635S14742306EA012360127301007000
F0417030205061217242529
B0417033249598S14742262EA012370127200608000
B0417083249562S14742213EA012340127000408000
B0417133249527S14742158EA012250126300708000
B0417183249495S14742109EA012210125800408000
B0417233249459S14742052EA012080124700608000
B0417283249424S14742002EA012050123900608000
B0417333249386S14741941EA011930122700508000
B0417383249347S14741877EA011920122200708000
B0417433249310S14741818EA011990122100508000
B0417483249270S14741752EA011960122300808000
B0417533249228S14741691EA012020122700408000
B0417583249183S14741628EA012080123400408000
B0418033249128S14741587EA012200124400608000
B0418083249078S14741618EA012180125201008000
B0418133249072S14741647EA012300126100708000
B0418183249079S14741619EA012420127000908000
B0418233249037S14741565EA012440127900708000
B0418283248965S14741567EA012490128400808000
B0418333248925S14741600EA012580129101008000
B0418383248936S14741607EA012710129800908000
B0418433248912S14741545EA012790130900808000
B0418483248841S14741524EA012900131900708000
B0418533248796S14741549EA012900132401008000
B0418583248790S14741583EA012980133100708000
B0419033248801S14741584EA013180134300708000
B0419083248783S14741526EA013270135701308000
B0419133248712S14741519EA013390137401208000
B0419183248673S14741558EA013550139400808000
B0419233248682S14741569EA013690140900708000
B0419283248673S14741512EA013850142401308000
B0419333248604S14741488EA014000143800608000
B0419383248550S14741508EA014140145500908000
B0419433248536S14741548EA014260146900708000
B0419483248547S14741556EA014410148100608000
B0419533248538S14741507EA014460149101308000
B0419583248474S14741475EA014550149600508000
B0420033248414S14741491EA014750151401108000
B0420083248404S14741526EA014850153001408000
B0420133248418S14741503EA014980154101208000
B0420183248376S14741454EA015080155000808000
B0420233248313S14741473EA015240156901008000
B0420283248285S14741510EA015370158500708000
B0420333248292S14741527EA015400159300708000
B0420383248289S14741476EA015340158801408000
B0420433248219S14741449EA015370158600608000
B0420483248165S14741470EA015560160001108000
B0420533248155S14741506EA015540160100808000
B0420583248171S14741524EA015550160100508000
B0421033248183S14741498EA015530160201308000
B0421083248150S14741439EA015460159800708000
B0421133248082S14741416EA015440159500608000
B0421183248019S14741421EA015550159800808000
B0421233248003S14741451EA015570160201008000
B0421283248011S14741406EA015580160301408000
B0421333247944S14741379EA015510160300808000
B0421383247885S14741388EA015680161100708000
B0421433247856S14741424EA015730161801008000
F04214802050612242529
B0421483247873S14741408EA015790162201307000
B0421533247835S14741351EA015780162501007000
B0421583247764S14741344EA015860163100607000
B0422033247713S14741368EA016010164401107000
B0422083247720S14741378EA016050164602007000
B0422133247722S14741304EA016070164901407000
B0422183247667S14741278EA016120165501207000
B0422233247641S14741323EA016210166501807000
B0422283247645S14741289EA016210166602207000
B0422333247575S14741280EA016300167301907000
B0422383247571S14741299EA016270167202407000
B0422433247518S14741260EA016300167901907000
B0422483247501S14741290EA016270167801607000
B0422533247523S14741247EA016340167801507000
B0422583247529S14741255EA016360168201307000
B0423033247472S14741272EA016300168001807000
B0423083247450S14741215EA016260167501107000
B0423133247462S14741201EA016340168001407000
B0423183247449S14741241EA016330167900807000
B0423233247453S14741253EA016330168101607000
B0423283247446S14741193EA016320168101107000
B0423333247380S14741186EA016160167602007000
B0423383247351S14741226EA016220167101207000
B0423433247373S14741210EA016170166901307000
B0423483247357S14741154EA016130166501307000
B0423533247297S14741118EA016080165900707000
B0423583247233S14741119EA016010165200607000
B0424033247175S14741143EA016020164800907000
B0424083247157S14741173EA016030164900807000
B0424133247168S14741182EA015910164400507000
B0424183247179S14741189EA015880164100607000
B0424233247189S14741203EA015860163800407000
B0424283247203S14741216EA015790163400307000
B0424333247214S14741196EA015710162400507000
B0424383247199S14741148EA015680161800507000
B0424433247157S14741104EA015620161100807000
B0424483247103S14741067EA015580160500407000
F042453020506122425
B0424533247035S14741055EA015490159700906000
F04245802050612242529
B0424583246967S14741063EA015420158900507000
B0425033246898S14741074EA015370158100507000
B0425083246832S14741090EA015440158200507000
B0425133246793S14741118EA015370158001107000
B0425183246798S14741108EA015300157601107000
B0425233246765S14741051EA015260157500907000
B0425283246688S14741026EA015220156900707000
B0425333246618S14741024EA015380157200807000
B0425383246588S14741063EA015300157201107000
B0425433246601S14741045EA015360157601207000
B0425483246556S14740986EA015320157701107000
B0425533246488S14740977EA015400158000707000
B0425583246431S14741010EA015410158301307000
B0426033246426S14741031EA015420158301407000
B0426083246413S14740981EA015380158101607000
B0426133246346S14740948EA015370157900707000
B0426183246275S14740951EA015420158200707000
B0426233246218S14740966EA015470158701107000
B0426283246190S14741002EA015330158201307000
B0426333246206S14741020EA015320157901007000
B0426383246215S14741009EA015380158000807000
B0426433246200S14740963EA015270157901207000
B0426483246138S14740913EA015280157400707000
B0426533246087S14740940EA015250157101107000
B0426583246101S14740939EA015260157001807000
B0427033246077S14740879EA015260157101407000
B0427083246007S14740854EA015270157201007000
B0427133245956S14740878EA015240157201107000
B0427183245959S14740910EA015150156600907000
B0427233245979S14740898EA015150156101107000
B0427283245979S14740863EA015180156200907000
B0427333245952S14740804EA015270156401207000
B0427383245886S14740802EA015240156501007000
B0427433245855S14740835EA015210156201307000
B0427483245863S14740812EA015100155801707000
B0427533245800S14740757EA015070155500907000
B0427583245732S14740734EA015150155600707000
B0428033245669S14740733EA015150155800707000
B0428083245638S14740771EA015070155401207000
B0428133245649S14740763EA014950154801207000
B0428183245633S14740711EA014990154501407000
B0428233245573S14740687EA015030154502207000
B0428283245584S14740705EA014920154001807000
B0428333245563S14740648EA014960154101707000
B0428383245491S14740618EA014990153900907000
B0428433245429S14740636EA014960153901107000
B0428483245425S14740647EA014830153402507000
B0428533245395S14740580EA014830152801307000
B0428583245324S14740591EA014790152501607000
B0429033245299S14740638EA014790152001107000
B0429083245302S14740606EA014600150401607000
B0429133245243S14740561EA014670149900807000
B0429183245173S14740578EA014600149601607000
B0429233245122S14740623EA014570149300807000
B0429283245103S14740665EA014470148701307000
B0429333245121S14740663EA014300147701607000
B0429383245108S14740608EA014140146500907000
F042943020612242529
B0429433245072S14740551EA014110145701106000
F04294802050612242529
B0429483245030S14740498EA013990144601207000
B0429533244981S14740441EA013900143500807000
B0429583244935S14740393EA013990143000507000
B0430033244874S14740383EA013950143001407000
B0430083244833S14740425EA014010143500907000
B0430133244841S14740435EA013930143601307000
B0430183244836S14740387EA013890143201007000
B0430233244822S14740330EA013930143201207000
B0430283244797S14740280EA013840142600807000
B0430333244796S14740239EA013730141700907000
B0430383244765S14740196EA013760141301307000
B0430433244698S14740175EA013710140800907000
B0430483244635S14740180EA013790140900607000
B0430533244598S14740217EA013740140900807000
B0430583244601S14740243EA013810141101907000
B0431033244611S14740211EA013740141001107000
B0431083244614S14740179EA013670140701007000
B0431133244586S14740127EA013640140501007000
B0431183244532S14740084EA013670140200507000
B0431233244467S14740075EA013630140000607000
B0431283244425S14740108EA013620139901007000
B0431333244411S14740150EA013610139701007000
B0431383244414S14740181EA013540139100607000
B0431433244427S14740173EA013460138600807000
B0431483244409S14740123EA013520138700807000
B0431533244359S14740072EA013560139300707000
B0431583244302S14740036EA013580139800807000
B0432033244248S14739999EA013580139900507000
B0432083244191S14739960EA013510139500807000
B0432133244143S14739912EA013600139700907000
B0432183244102S14739872EA013610140000707000
B0432233244057S14739831EA013770140700907000
B0432283244001S14739832EA013930141801107000
B0432333243984S14739884EA013980142801507000
B0432383244006S14739876EA014080144001607000
B0432433243990S14739825EA014170145301507000
B0432483243938S14739787EA014330146800707000
B0432533243885S14739774EA014440148000707000
B0432583243846S14739820EA014470148801407000
B0433033243849S14739859EA014590149901607000
B0433083243868S14739840EA014730151100907000
B0433133243850S14739795EA014860152701307000
B0433183243793S14739776EA014980153800807000
B0433233243738S14739800EA015040154500807000
B0433283243715S14739852EA015090155101007000
B0433333243731S14739879EA015230155901307000
B0433383243744S14739842EA015310156801307000
B0433433243717S14739791EA015390157900907000
B0433483243653S14739773EA015530159201207000
B0433533243595S14739788EA015580160100807000
B0433583243569S14739837EA015620160701207000
B0434033243588S14739847EA015700161101607000
B0434083243575S14739792EA015670161201407000
B0434133243521S14739761EA015750161701107000
B0434183243461S14739744EA015830162400507000
B0434233243411S14739766EA015810162801207000
B0434283243390S14739821EA015820162901007000
B0434333243391S14739866EA015890163101007000
B0434383243407S14739848EA015910163401507000
B0434433243383S14739800EA015990163900907000
B0434483243322S14739788EA016040164500907000
B0434533243260S14739802EA016100165100707000
B0434583243221S14739843EA016170166000807000
B0435033243222S14739875EA016260166400907000
B0435083243240S14739855EA016290167001207000
B0435133243222S14739801EA016320167801007000
B0435183243181S14739765EA016470168800707000
B0435233243124S14739783EA016480169301207000
B0435283243116S14739828EA016500169801407000
B0435333243129S14739802EA016470169701507000
B0435383243099S14739750EA016600170101307000
B0435433243042S14739722EA016670170900807000
B0435483242988S14739751EA016690171501207000
B0435533242990S14739788EA016740172001807000
B0435583243006S14739756EA016730172001207000
B0436033242985S14739705EA016870173001407000
B0436083242925S14739680EA017030174200807000
B0436133242881S14739720EA017100175401107000
B0436183242887S14739745EA017210176301607000
B0436233242898S14739713EA017310177701507000
B0436283242864S14739660EA017430179100807000
B0436333242807S14739635EA017600180600907000
B0436383242758S14739669EA017650182001007000
B0436433242750S14739712EA017790183400707000
B0436483242768S14739710EA017850183901307000
B0436533242762S14739666EA018000185001607000
B0436583242705S14739635EA018090186000807000
B0437033242646S14739660EA018150186901307000
B0437083242619S14739703EA018290188001107000
B0437133242629S14739725EA018300188501207000
B0437183242645S14739694EA018420188801407000
B0437233242616S14739641EA018500189601407000
B0437283242557S14739613EA018570190600807000
B0437333242492S14739622EA018650191500707000
B0437383242433S14739605EA018760192801207000
B0437433242410S14739558EA018880193900807000
B0437483242421S14739534EA018930194701007000
B0437533242433S14739545EA019020195501007000
B0437583242424S14739585EA019110196301107000
B0438033242390S14739627EA019180197200807000
B0438083242332S14739640EA019260197901107000
B0438133242273S14739611EA019320198900807000
B0438183242225S14739572EA019430200000507000
B0438233242203S14739525EA019440200600807000
B0438283242206S14739492EA019450200700907000
B0438333242221S14739491EA019490200800907000
B0438383242219S14739528EA019520200800807000
B0438433242186S14739577EA019570201100907000
B0438483242144S14739619EA019640201800607000
B0438533242087S14739636EA019710202500907000
B0438583242026S14739619EA019740203100907000
B0439033241980S14739579EA019800203400707000
B0439083241944S14739529EA019750203300807000
B0439133241891S14739486EA019650202500707000
B0439183241829S14739447EA019510201100607000
B0439233241771S14739401EA019410199600407000
B0439283241719S14739358EA019350198400607000
B0439333241661S14739314EA019260197600807000
B0439383241597S14739278EA019130196600607000
B0439433241532S14739248EA019050195800707000
B0439483241469S14739217EA018920194800607000
B0439533241404S14739179EA018820193900607000
B0439583241340S14739147EA018770193200607000
B0440033241281S14739108EA018690192400607000
B0440083241221S14739059EA018650191600507000
B0440133241149S14739016EA018510190600907000
B0440183241087S14738974EA018630191200907000
B0440233241020S14738959EA018680192201207000
B0440283240993S14739001EA018680192401207000
B0440333241010S14738998EA018690192501407000
B0440383241009S14738957EA018760192801007000
B0440433240984S14738899EA018800193101107000
B0440483240934S14738862EA018910193900807000
B0440533240874S14738894EA018780193801407000
B0440583240834S14738936EA018900194100907000
B0441033240823S14738970EA018920194401007000
B0441083240836S14738963EA018940194601107000
B0441133240822S14738914EA018940194500607000
B0441183240779S14738860EA019060195001007000
B0441233240715S14738846EA019100195601507000
B0441283240662S14738882EA019150196401107000
B0441333240648S14738913EA019140196601007000
B0441383240654S14738899EA019170196901007000
B0441433240624S14738852EA019230197301107000
B0441483240553S14738840EA019160197300907000
B0441533240502S14738866EA019150197101407000
B0441583240486S14738901EA019190197200907000
B0442033240491S14738892EA019240197601007000
B0442083240472S14738847EA019350198101307000
B0442133240416S14738808EA019350198600707000
B0442183240359S14738824EA019280198701307000
B0442233240331S14738864EA019190198001507000
B0442283240327S14738896EA019290198201807000
B0442333240316S14738854EA019270198201607000
B0442383240246S14738844EA019290198401707000
B0442433240221S14738886EA019240198201307000
B0442483240225S14738907EA019270198101207000
B0442533240228S14738875EA019220197801007000
B0442583240208S14738829EA019320198200907000
B0443033240156S14738793EA019370198900807000
B0443083240105S14738820EA019320199001707000
B0443133240103S14738844EA019330199001507000
B0443183240102S14738804EA019360199101507000
B0443233240051S14738758EA019320198901107000
B0443283239995S14738714EA019270198600607000
B0443333239935S14738670EA019170198000907000
B0443383239878S14738620EA019130197200707000
B0443433239825S14738566EA019200197300707000
B0443483239774S14738521EA019230197600807000
B0443533239717S14738479EA019140197200507000
B0443583239660S14738445EA019030196500807000
B0444033239599S14738404EA018980195800607000
B0444083239538S14738362EA018820194400607000
B0444133239479S14738321EA018750193300707000
B0444183239421S14738279EA018730192700707000
B0444233239363S14738236EA018730192400607000
B0444283239305S14738196EA018650192000707000
B0444333239246S14738152EA018520191100707000
B0444383239190S14738106EA018460190200707000
B0444433239132S14738071EA018450189600807000
B0444483239067S14738029EA018360188800707000
B0444533239009S14737989EA018350188400707000
B0444583238950S14737947EA018240187800707000
B0445033238890S14737908EA018110186700707000
B0445083238826S14737874EA018010185600607000
B0445133238761S14737838EA017940184700607000
B0445183238698S14737803EA018020184900607000
B0445233238639S14737769EA018020185200607000
B0445283238580S14737737EA017970185100607000
B0445333238522S14737704EA017930184700607000
B0445383238458S14737680EA017870184300707000
B0445433238390S14737678EA017820183700607000
B0445483238324S14737692EA017710182800607000
B0445533238260S14737696EA017650182100607000
B0445583238204S14737656EA017530180900707000
B0446033238166S14737600EA017450179900507000
B0446083238145S14737543EA017380179000907000
B0446133238126S14737493EA017370178500807000
B0446183238104S14737441EA017330178100807000
B0446233238074S14737386EA017210177500707000
B0446283238053S14737332EA017150176900707000
B0446333238028S14737273EA017090176300807000
B0446383238015S14737219EA017150176200807000
B0446433237990S14737176EA017300176901307000
B0446483237929S14737172EA017360177701407000
B0446533237899S14737220EA017480179001407000
B0446583237910S14737221EA017510179901607000
B0447033237902S14737170EA017560180301307000
B0447083237851S14737137EA017670181301007000
B0447133237787S14737156EA017740182301307000
B0447183237754S14737199EA017880183501307000
B0447233237766S14737214EA017930184201407000
B0447283237774S14737179EA018000184900907000
B0447333237740S14737129EA018050185501107000
B0447383237680S14737103EA018150186300707000
B0447433237623S14737115EA018250187301107000
B0447483237611S14737168EA018320188000807000
B0447533237625S14737170EA018430189101407000
B0447583237609S14737118EA018460189701607000
B0448033237556S14737076EA018560190400707000
B0448083237497S14737064EA018660191400707000
B0448133237446S14737095EA018690192100907000
B0448183237428S14737146EA018750192501007000
B0448233237434S14737179EA018820193201007000
B0448283237451S14737173EA018900193801007000
B0448333237455S14737134EA018960194400807000
B0448383237445S14737085EA019020195000907000
B0448433237415S14737030EA019060195601007000
B0448483237372S14736982EA019130196400807000
B0448533237329S14736938EA019190197300707000
B0448583237298S14736887EA019230197800607000
B0449033237267S14736834EA019270198100607000
F044908020612242529
B0449083237232S14736779EA019310198400806000
F04491302050612242529
B0449133237205S14736725EA019380199000807000
B0449183237176S14736668EA019440199700807000
B0449233237141S14736619EA019580200800707000
B0449283237081S14736598EA019610201501307000
B0449333237046S14736639EA019640202101407000
B0449383237049S14736663EA019710202501107000
B0449433237063S14736641EA019710202600907000
B0449483237060S14736594EA019810203000707000
B0449533237040S14736534EA019800203300807000
B0449583237001S14736481EA019930204200807000
B0450033236937S14736472EA019900204701507000
B0450083236898S14736515EA019900205001207000
B0450133236892S14736549EA019920205000807000
B0450183236909S14736537EA019880204801107000
B0450233236909S14736488EA019900204901107000
B0450283236881S14736431EA019940205200907000
B0450333236837S14736380EA019870205100807000
B0450383236790S14736329EA019880205000807000
B0450433236746S14736276EA019890204800807000
B0450483236702S14736220EA019880204700607000
B0450533236668S14736165EA019930204800907000
B0450583236649S14736101EA019850204601007000
B0451033236629S14736041EA019770204100607000
B0451083236600S14735977EA019660203000907000
B0451133236570S14735915EA019600202000607000
B0451183236539S14735856EA019610201700807000
B0451233236501S14735797EA019570201400807000
B0451283236464S14735740EA019550201000507000
B0451333236439S14735681EA019520200800707000
B0451383236413S14735614EA019330200000807000
B0451433236380S14735556EA019230198800707000
B0451483236339S14735512EA019210197800507000
B0451533236305S14735463EA019100196800707000
B0451583236270S14735416EA019000195700707000
B0452033236225S14735370EA018800194300807000
B0452083236182S14735320EA018600192200807000
B0452133236148S14735267EA018480190400907000
B0452183236109S14735211EA018340188800807000
B0452233236065S14735158EA018280187800907000
B0452283236020S14735111EA018280187500807000
B0452333235973S14735057EA018230187100807000
B0452383235930S14735004EA018250187000807000
B0452433235894S14734949EA018320187500707000
B0452483235854S14734899EA018430188800907000
B0452533235815S14734854EA018530190000807000
B0452583235774S14734806EA018600191000707000
B0453033235732S14734755EA018700192200407000
F045308020612242529
B0453083235699S14734705EA018760193000806000
F04531302050612242529
B0453133235686S14734654EA018810193500707000
B0453183235684S14734608EA018920194300907000
B0453233235696S14734588EA018980194901007000
B0453283235711S14734609EA019110195300807000
B0453333235731S14734600EA019190195901007000
B0453383235739S14734557EA019300196901207000
B0453433235694S14734507EA019370198101107000
B0453483235638S14734526EA019490199601307000
B0453533235625S14734569EA019630201101207000
B0453583235644S14734579EA019730202701207000
B0454033235657S14734542EA019820203700707000
B0454083235633S14734491EA019930204700907000
B0454133235574S14734471EA019990205500707000
B0454183235516S14734477EA020080206500607000
B0454233235470S14734507EA020150207401107000
B0454283235450S14734548EA020320208601107000
B0454333235466S14734552EA020420210001207000
B0454383235465S14734504EA020510211001107000
B0454433235417S14734464EA020590211701207000
B0454483235359S14734478EA020700212700907000
B0454533235344S14734518EA020750213501207000
B0454583235359S14734533EA020920214801207000
B0455033235367S14734497EA020950215500907000
B0455083235335S14734445EA021010216100807000
B0455133235275S14734425EA021080216700707000
B0455183235224S14734440EA021160217201207000
B0455233235220S14734480EA021210217901307000
B0455283235239S14734466EA021270218501107000
B0455333235224S14734410EA021350219501307000
B0455383235181S14734357EA021390220001007000
B0455433235124S14734316EA021370220300907000
B0455483235060S14734296EA021410220400407000
B0455533234994S14734285EA021420220600407000
B0455583234927S14734270EA021380220600807000
B0456033234859S14734247EA021270219700707000
B0456083234792S14734222EA021210218800607000
B0456133234722S14734198EA021120217900707000
B0456183234657S14734167EA021060217300607000
B0456233234595S14734139EA021010216700607000
B0456283234526S14734113EA020870215600507000
B0456333234462S14734088EA020850214700607000
B0456383234393S14734062EA020790213900607000
B0456433234322S14734043EA020690213200607000
B0456483234253S14734024EA020620212300607000
B0456533234186S14734002EA020550211600607000
B0456583234122S14733975EA020500211000507000
B0457033234059S14733941EA020400210200607000
B0457083234007S14733897EA020380209900807000
B0457133233961S14733851EA020320209500807000
B0457183233904S14733813EA020210208400807000
B0457233233837S14733786EA020160207600607000
B0457283233769S14733759EA020030206700607000
B0457333233707S14733726EA019970205800607000
B0457383233644S14733692EA019860204700607000
B0457433233584S14733662EA019770203700707000
B0457483233518S14733634EA019650202500607000
B0457533233448S14733612EA019530201300607000
B0457583233383S14733583EA019430200200607000
B0458033233320S14733546EA019270198800507000
B0458083233258S14733516EA019230197800707000
B0458133233194S14733479EA019090196700607000
B0458183233136S14733440EA019020195600507000
B0458233233071S14733417EA018920194800707000
B0458283232998S14733392EA018760193700607000
B0458333232934S14733353EA018640192300707000
B0458383232880S14733308EA018550191300707000
B0458433232826S14733262EA018430190000607000
B0458483232771S14733218EA018360188900607000
B0458533232713S14733177EA018250187800607000
B0458583232654S14733135EA018110186600707000
B0459033232604S14733087EA018030185300807000
F045908020512242529
B0459083232549S14733045EA017890184300806000
F04591302050612242529
B0459133232485S14733013EA017740183000707000
F0459180205061220242529
B0459183232421S14732980EA017590181500708000
B0459233232360S14732944EA017460180000608000
B0459283232303S14732903EA017320178500708000
B0459333232247S14732863EA017180177300608000
B0459383232189S14732826EA017060176000608000
B0459433232130S14732788EA016910174600608000
B0459483232074S14732744EA016770173200608000
B0459533232013S14732711EA016690171900708000
B0459583231945S14732683EA016520170400608000
B0500033231878S14732654EA016400169000508000
B0500083231811S14732620EA016210167400508000
B0500133231746S14732590EA016070166000508000
B0500183231684S14732555EA015920164600608000
B0500233231618S14732525EA015750162800608000
B0500283231554S14732502EA015650161300608000
B0500333231492S14732476EA015520159800508000
B0500383231431S14732445EA015430158500508000
B0500433231367S14732415EA015280157200608000
B0500483231302S14732387EA015190156100608000
B0500533231244S14732348EA015090155000708000
B0500583231190S14732312EA015070154700708000
B0501033231131S14732274EA014950154000608000
B0501083231073S14732233EA014920153400808000
B0501133231010S14732227EA015010153600708000
B0501183230982S14732264EA015030153901508000
B0501233230996S14732265EA015030154201308000
B0501283230986S14732214EA014960154001108000
B0501333230935S14732164EA014990153901108000
B0501383230870S14732155EA015030154400808000
B0501433230851S14732199EA015060154601308000
B0501483230862S14732205EA015110155101208000
B0501533230862S14732162EA015150155200608000
B0501583230831S14732109EA015240156200908000
B0502033230772S14732080EA015350157300908000
B0502083230711S14732100EA015360158000608000
B0502133230686S14732137EA015410158400608000
B0502183230698S14732150EA015440158701308000
B0502233230698S14732113EA015450158700808000
B0502283230646S14732066EA015480159101408000
B0502333230586S14732057EA015610159901108000
B0502383230539S14732078EA015660160600608000
B0502433230540S14732096EA015650161001408000
B0502483230536S14732052EA015670161300808000
B0502533230496S14732006EA015740161700908000
B0502583230441S14732000EA015790162400708000
B0503033230417S14732031EA015810162600708000
B0503083230417S14732049EA015830162801008000
B0503133230425S14732018EA015840162801208000
B0503183230382S14731973EA015880163201008000
B0503233230327S14731981EA015890163700708000
B0503283230312S14732012EA015860163401308000
B0503333230329S14731989EA015840163101008000
B0503383230305S14731932EA015840163201208000
B0503433230253S14731898EA015980164101108000
B0503483230202S14731919EA015910163800808000
B0503533230186S14731946EA015900163600608000
B0503583230196S14731959EA015860163501008000
B0504033230207S14731935EA015880163600508000
B0504083230185S14731884EA016010164301008000
B0504133230125S14731881EA016080165300908000
B0504183230096S14731916EA016250166500708000
B0504233230104S14731934EA016270167301208000
F05042802051220242529
B0504283230119S14731909EA016280167400707000
F0504330205061220242529
B0504333230097S14731857EA016460168101208000
B0504383230033S14731857EA016530169201008000
B0504433230025S14731891EA016650171101508000
B0504483230040S14731869EA016750172200808000
B0504533230017S14731815EA016900173301108000
B0504583229956S14731803EA017020174801308000
B0505033229922S14731837EA017150176100808000
B0505083229932S14731851EA017270177401308000
B0505133229936S14731808EA017370178601108000
B0505183229888S14731762EA017500180001208000
B0505233229833S14731772EA017640181500708000
B0505283229818S14731804EA017740182601208000
B0505333229834S14731786EA017840183800708000
B0505383229807S14731733EA017930184501208000
B0505433229744S14731709EA018070185900708000
B0505483229692S14731727EA018170187100708000
B0505533229687S14731757EA018290188201508000
B0505583229696S14731714EA018360189000908000
B0506033229663S14731659EA018430189801208000
B0506083229600S14731629EA018510190501008000
B0506133229537S14731624EA018570191101108000
B0506183229496S14731659EA018590191400708000
B0506233229488S14731690EA018750192201408000
B0506283229503S14731667EA018850193400908000
B0506333229476S14731614EA018910194401108000
B0506383229412S14731593EA018920195101108000
B0506433229359S14731614EA018960195200708000
B0506483229331S14731653EA019100195700608000
B0506533229328S14731669EA019070196201308000
B0506583229343S14731650EA019120196400908000
B0507033229322S14731595EA019180196701508000
B0507083229260S14731582EA019230197500808000
B0507133229227S14731615EA019310198000708000
B0507183229238S14731616EA019320198501008000
B0507233229237S14731569EA019310198401208000
B0507283229192S14731525EA019440199301308000
B0507333229130S14731536EA019470200000708000
B0507383229097S14731570EA019500200400508000
B0507433229087S14731601EA019570201100608000
B0507483229100S14731604EA019590201400908000
B0507533229107S14731567EA019610201600608000
B0507583229074S14731511EA019610201901008000
B0508033229019S14731469EA019690202700808000
B0508083228959S14731448EA019710203300708000
B0508133228904S14731464EA019740203500508000
B0508183228884S14731498EA019730203200608000
B0508233228887S14731515EA019800203500708000
B0508283228900S14731499EA019850203800808000
B0508333228890S14731453EA019890204201008000
B0508383228837S14731412EA019910204600908000
B0508433228773S14731412EA019910205101008000
B0508483228732S14731440EA019930205300408000
B0508533228724S14731469EA019920205200608000
B0508583228734S14731476EA019960205300808000
B0509033228742S14731446EA019990205400408000
B0509083228716S14731388EA020000205901008000
B0509133228660S14731341EA020060206500808000
B0509183228592S14731307EA020000206600608000
B0509233228524S14731276EA020030206600708000
B0509283228456S14731249EA020000206400508000
B0509333228381S14731233EA019880205500608000
B0509383228307S14731207EA019810204500608000
B0509433228238S14731174EA019760203700608000
B0509483228169S14731144EA019680203000608000
B0509533228103S14731107EA019670202700608000
B0509583228042S14731065EA019600202100708000
B0510033227976S14731033EA019500201300608000
B0510083227902S14731001EA019230198900708000
B0510133227837S14730964EA019150197000808000
B0510183227770S14730945EA019100196500708000
B0510233227702S14730932EA019040195800608000
B0510283227634S14730917EA018960195100708000
B0510333227569S14730898EA018910194400608000
B0510383227505S14730866EA018790193700608000
B0510433227449S14730832EA018770193200608000
B0510483227393S14730794EA018690192500608000
B0510533227330S14730764EA018580191800608000
B0510583227265S14730745EA018510191100608000
B0511033227200S14730721EA018410190200408000
B0511083227136S14730693EA018360189400508000
B0511133227070S14730666EA018270188400608000
B0511183227004S14730638EA018200187700708000
B0511233226939S14730609EA018110186700708000
B0511283226875S14730583EA018010185600608000
B0511333226809S14730548EA017870184400608000
B0511383226744S14730517EA017770183200608000
B0511433226675S14730488EA017650181800508000
B0511483226608S14730458EA017540180600608000
B0511533226542S14730428EA017430179300508000
B0511583226472S14730407EA017300178100408000
B0512033226404S14730387EA017190176900408000
B0512083226336S14730359EA017070175700608000
B0512133226270S14730332EA016960174700508000
B0512183226202S14730309EA016840173500508000
B0512233226134S14730287EA016690172100508000
B0512283226068S14730261EA016590170900508000
B0512333226003S14730234EA016450169500408000
B0512383225939S14730208EA016360168100508000
B0512433225876S14730184EA016250166900508000
B0512483225808S14730165EA016120165700408000
B0512533225746S14730150EA016060164800308000
B0512583225679S14730132EA015900163700508000
B0513033225615S14730104EA015860163000508000
B0513083225550S14730079EA015810162400508000
B0513133225484S14730057EA015780161900708000
B0513183225426S14730025EA015790161900608000
B0513233225374S14729978EA015710161500708000
B0513283225308S14729950EA015640161400908000
B0513333225240S14729944EA015670161400508000
B0513383225172S14729932EA015730161700508000
B0513433225105S14729912EA015720161800608000
B0513483225040S14729882EA015680161900608000
B0513533224971S14729860EA015710162000608000
B0513583224894S14729841EA015670161700508000
B0514033224819S14729824EA015610161000508000
B0514083224751S14729801EA015510160100708000
B0514133224684S14729768EA015380158800708000
B0514183224613S14729743EA015240157200708000
B0514233224549S14729723EA015100155600708000
B0514283224481S14729698EA014910153600508000
B0514333224414S14729680EA014770152100608000
B0514383224344S14729674EA014550150300508000
B0514433224274S14729666EA014390148300708000
B0514483224204S14729648EA014150145800708000
B0514533224141S14729627EA013990143700608000
B0514583224075S14729605EA013850142000508000
B0515033224006S14729590EA013740140600608000
B0515083223936S14729573EA013600139200608000
B0515133223868S14729564EA013510138000608000
B0515183223804S14729547EA013430137200808000
B0515233223738S14729522EA013330136200408000
B0515283223674S14729499EA013310135500608000
B0515333223614S14729467EA013270135400608000
B0515383223555S14729435EA013270135400608000
B0515433223486S14729411EA013230135300608000
B0515483223411S14729400EA013220135300608000
B0515533223341S14729369EA013210135200908000
B0515583223277S14729341EA013270135500808000
B0516033223215S14729356EA013200135500908000
B0516083223215S14729383EA013100134501508000
B0516133223219S14729349EA013070133900708000
B0516183223190S14729298EA013070133900908000
B0516233223137S14729251EA013090133900808000
B0516283223076S14729213EA013070133900708000
B0516333223016S14729175EA013070134100608000
B0516383222955S14729136EA012980133500708000
B0516433222889S14729100EA012880132500708000
B0516483222821S14729068EA012790131500708000
B0516533222755S14729036EA012760130800508000
B0516583222686S14729005EA012690130100708000
B0517033222617S14728977EA012670129700608000
B0517083222549S14728951EA012630129300608000
B0517133222486S14728914EA012580129000608000
B0517183222418S14728888EA012500128600408000
B0517233222345S14728872EA012410127800708000
B0517283222281S14728844EA012310126600708000
B0517333222214S14728814EA012240125500608000
B0517383222148S14728793EA012160124600608000
B0517433222079S14728774EA012060123800508000
B0517483222005S14728759EA011930122600608000
B0517533221934S14728752EA011910121900608000
B0517583221864S14728745EA011900121500708000
B0518033221804S14728763EA011920121500708000
B0518083221798S14728806EA011850121101408000
B0518133221807S14728793EA011800120600808000
B0518183221773S14728750EA011720120101208000
B0518233221730S14728706EA011730119900808000
B0518283221664S14728697EA011650119601308000
B0518333221613S14728727EA011560118700808000
B0518383221614S14728758EA011480118001408000
B0518433221621S14728728EA011480117700708000
B0518483221602S14728683EA011520117800808000
B0518533221562S14728642EA011430117100808000
B0518583221515S14728606EA011380116300608000
B0519033221456S14728600EA011210115200608000
B0519083221397S14728630EA011030113200708000
B0519133221337S14728658EA010880111800608000
B0519183221292S14728697EA010810110200508000
B0519233221263S14728739EA010720109100608000
B0519283221242S14728787EA010760108800808000
B0519333221253S14728784EA010770109000908000
B0519383221228S14728738EA010790109301208000
B0519433221166S14728721EA010760109201208000
B0519483221108S14728748EA010790109500508000
B0519533221089S14728790EA010810109700608000
B0519583221092S14728813EA010940110500808000
B0520033221087S14728774EA010950110801508000
B0520083221029S14728745EA010990111701008000
B0520133220967S14728760EA011000112300708000
B0520183220919S14728798EA011010112400508000
B0520233220886S14728843EA010900111300508000
B0520283220878S14728889EA010870110600808000
B0520333220897S14728913EA010800110000908000
B0520383220899S14728883EA010710109101508000
B0520433220851S14728840EA010650108701408000
B0520483220804S14728861EA010680108601008000
B0520533220810S14728889EA010600108101408000
B0520583220805S14728846EA010420107501608000
B0521033220747S14728809EA010370106101108000
B0521083220697S14728809EA010300105101008000
B0521133220689S14728850EA010280104301008000
B0521183220698S14728817EA010230104201208000
B0521233220666S14728768EA010160103901108000
B0521283220616S14728741EA010050102600708000
B0521333220558S14728717EA009970101600808000
B0521383220497S14728695EA009900100700708000
B0521433220437S14728683EA009870099900808000
B0521483220369S14728674EA009860099501108000
B0521533220316S14728667EA009790099401008000
B0521583220309S14728703EA009670098601408000
B0522033220324S14728686EA009630098101408000
B0522083220286S14728637EA009630097901008000
B0522133220229S14728608EA009560097500508000
B0522183220174S14728591EA009610097600908000
B0522233220112S14728577EA009470097000608000
B0522283220054S14728572EA009450096400708000
B0522333219990S14728569EA009340095800708000
B0522383219929S14728568EA009340095400608000
B0522433219865S14728572EA009340095001108000
B0522483219840S14728526EA009500095800908000
B0522533219857S14728525EA009670097900908000
B0522583219830S14728573EA009620097801208000
B0523033219778S14728611EA009690098500608000
B0523083219718S14728623EA009800099200808000
B0523133219656S14728589EA009840099901008000
B0523183219636S14728537EA009930100800808000
B0523233219652S14728521EA010000101600708000
B0523283219651S14728547EA010210103501608000
B0523333219592S14728560EA010340105001008000
B0523383219553S14728508EA010490106901408000
B0523433219558S14728476EA010630108600908000
B0523483219563S14728507EA010780109401608000
B0523533219513S14728526EA010960111201408000
B0523583219480S14728479EA011170113401408000
B0524033219491S14728466EA011240115101108000
B0524083219481S14728512EA011440116701208000
B0524133219429S14728528EA011580118401208000
B0524183219383S14728489EA011770120101308000
B0524233219372S14728445EA011890121700808000
B0524283219385S14728444EA012010122701308000
B0524333219361S14728490EA012120123901308000
B0524383219309S14728500EA012340125501308000
B0524433219262S14728462EA012450127800908000
B0524483219244S14728415EA012550129100808000
B0524533219266S14728411EA012560129401008000
B0524583219265S14728452EA012670129900808000
B0525033219227S14728494EA012750130701108000
B0525083219174S14728489EA012830130900908000
B0525133219141S14728446EA012970132301108000
B0525183219150S14728424EA013060133300908000
B0525233219176S14728437EA013200134300908000
B0525283219181S14728402EA013170134401108000
B0525333219157S14728355EA013080133800708000
B0525383219110S14728325EA012970133101108000
B0525433219061S14728350EA012960132800808000
B0525483219040S14728391EA013070133500508000
B0525533219052S14728417EA013130134400808000
B0525583219054S14728380EA013120134801408000
B0526033219008S14728358EA013060134101308000
B0526083218964S14728394EA012970132900908000
B0526133218947S14728444EA013000133000708000
B0526183218950S14728471EA012980132901208000
B0526233218966S14728482EA012950132600608000
B0526283218977S14728458EA012870132000508000
B0526333218961S14728418EA012790131300808000
B0526383218909S14728411EA012660130100908000
B0526433218857S14728434EA012570129200508000
B0526483218831S14728478EA012540128200508000
B0526533218819S14728524EA012480127700508000
B0526583218823S14728548EA012390127300708000
B0527033218836S14728550EA012350126800508000
B0527083218848S14728526EA012160124800508000
B0527133218840S14728488EA012050123400608000
B0527183218833S14728452EA012000122400408000
F05272302051220242529
B0527233218830S14728416EA011900121800507000
F0527280205061220242529
B0527283218835S14728375EA011860121300408000
B0527333218824S14728336EA011960121700808000
B0527383218770S14728334EA012030122501008000
B0527433218734S14728377EA012090123100508000
B0527483218740S14728414EA012070123101108000
B0527533218759S14728406EA012090123200608000
B0527583218764S14728374EA012130123400608000
B0528033218742S14728334EA012110123300708000
B0528083218685S14728329EA011990122801408000
B0528133218650S14728380EA011990122600808000
B0528183218661S14728406EA012050122801008000
B0528233218680S14728397EA012030122800808000
B0528283218691S14728373EA011990122600408000
B0528333218703S14728339EA011850121900608000
B0528383218716S14728317EA011830121200608000
B0528433218732S14728285EA011740120400408000
B0528483218741S14728257EA011670119500608000
B0528533218753S14728226EA011460118000508000
B0528583218774S14728202EA011390116500708000
B0529033218793S14728163EA011200115200408000
B0529083218811S14728135EA011190114300608000
B0529133218819S14728107EA011060113401008000
B0529183218819S14728062EA010970112000508000
B0529233218834S14728030EA010750110400608000
B0529283218852S14728008EA010650108500508000
B0529333218867S14727974EA010500106900508000
B0529383218868S14727924EA010380105700608000
B0529433218849S14727868EA010330105000508000
B0529483218820S14727816EA010270104100508000
B0529533218787S14727768EA010180103300508000
B0529583218755S14727719EA010120102600608000
B0530033218731S14727667EA010030101700508000
B0530083218706S14727613EA009910100900408000
B0530133218686S14727560EA009890100800408000
B0530183218674S14727510EA009900100700408000
B0530233218666S14727460EA009900100500308000
B0530283218649S14727402EA009750099400808000
B0530333218620S14727346EA009650098400508000
B0530383218588S14727294EA009620097700608000
B0530433218557S14727238EA009570097100708000
B0530483218517S14727194EA009720097701008000
B0530533218468S14727215EA009850099201108000
B0530583218482S14727247EA009970100801308000
B0531033218498S14727213EA010020101201308000
B0531083218450S14727167EA010030101901408000
B0531133218390S14727167EA010210103501108000
B0531183218373S14727212EA010370105001208000
B0531233218398S14727205EA010400105801308000
B0531283218382S14727153EA010520106701108000
B0531333218324S14727136EA010610107901308000
B0531383218286S14727172EA010660108601108000
B0531433218292S14727200EA010860110301008000
B0531483218306S14727170EA010820110701308000
B0531533218266S14727126EA010810110700908000
B0531583218215S14727102EA010920111101108000
B0532033218170S14727126EA011060112201008000
B0532083218182S14727157EA011090113001308000
B0532133218199S14727124EA011050113101108000
B0532183218169S14727069EA011100113101508000
B0532233218110S14727063EA011180114001008000
B0532283218078S14727092EA011320115200808000
B0532333218084S14727103EA011480117100908000
B0532383218090S14727053EA011410117401308000
B0532433218045S14727002EA011450117801408000
B0532483217990S14727003EA011620118700808000
B0532533217965S14727037EA011740119800708000
B0532583217982S14727048EA011860121001108000
B0533033217980S14726993EA011940121901608000
B0533083217916S14726960EA011940122601508000
B0533133217856S14726957EA012120124100708000
B0533183217820S14726986EA012250125000708000
F053323020506122024252931
B0533233217826S14727006EA012360125800809000
B0533283217829S14726959EA012430126300809000
B0533333217774S14726921EA012580127401409000
B0533383217716S14726934EA012740129801109000
B0533433217698S14726969EA012870131600709000
B0533483217714S14726967EA013010133300709000
B0533533217704S14726914EA013080134400709000
B0533583217647S14726883EA013190135701109000
B0534033217601S14726914EA013310136700809000
B0534083217598S14726946EA013470138400709000
B0534133217617S14726936EA013600139800709000
B0534183217612S14726882EA013700140800609000
B0534233217567S14726832EA013760141600909000
B0534283217507S14726812EA013920142800809000
B0534333217451S14726828EA014000143900809000
B0534383217413S14726856EA014150145200509000
B0534433217401S14726892EA014240146300609000
B0534483217414S14726893EA014390147600509000
B0534533217423S14726853EA014510148700609000
B0534583217393S14726796EA014610149900609000
B0535033217331S14726784EA014720151201109000
B0535083217305S14726821EA014840152500609000
B0535133217309S14726831EA014980154000809000
B0535183217322S14726796EA015080155200609000
B0535233217301S14726741EA015200156300709000
B0535283217242S14726721EA015300157301209000
B0535333217199S14726746EA015410158500609000
B0535383217193S14726774EA015470159000609000
B0535433217205S14726777EA015540159900509000
B0535483217214S14726771EA015680161200409000
B0535533217212S14726729EA015740162101409000
B0535583217161S14726683EA015840162801009000
B0536033217095S14726686EA015850163301009000
B0536083217056S14726717EA015990164200509000
B0536133217021S14726747EA016030165000409000
B0536183217012S14726768EA016030165300809000
B0536233217026S14726766EA016060165400409000
B0536283217034S14726718EA016110165700609000
B0536333217007S14726663EA016310166900609000
B0536383216945S14726643EA016400168200709000
B0536433216898S14726665EA016440169200509000
B0536483216884S14726693EA016500169400709000
B0536533216894S14726704EA016520169600709000
B0536583216911S14726677EA016640170700609000
B0537033216899S14726621EA016760171900509000
B0537083216850S14726570EA016820173000909000
B0537133216788S14726560EA016880173800609000
B0537183216735S14726577EA016890174000509000
B0537233216699S14726607EA016860173700409000
B0537283216678S14726634EA016860173500309000
B0537333216674S14726656EA016850173400509000
B0537383216679S14726665EA016860173300509000
B0537433216694S14726663EA016870173400509000
B0537483216706S14726633EA017020174300509000
B0537533216687S14726576EA017090175000509000
B0537583216631S14726552EA017210176001209000
B0538033216580S14726571EA017260177100509000
B0538083216569S14726604EA017350178000709000
B0538133216581S14726615EA017460179300609000
B0538183216598S14726591EA017590180500609000
B0538233216590S14726543EA017700181500809000
B0538283216535S14726506EA017740182101309000
B0538333216491S14726534EA017780182700609000
B0538383216479S14726570EA017880183800509000
B0538433216492S14726582EA017950184500609000
B0538483216505S14726555EA018040185300509000
B0538533216497S14726503EA018130185800709000
B0538583216449S14726458EA018140186501209000
B0539033216392S14726457EA018180187100609000
B0539083216344S14726486EA018250187800609000
B0539133216331S14726518EA018320188400609000
B0539183216345S14726533EA018330188600509000
B0539233216365S14726518EA018370189100509000
B0539283216383S14726493EA018430189600409000
B0539333216401S14726478EA018510190200509000
B0539383216415S14726479EA018590190800409000
B0539433216431S14726479EA018570190900409000
B0539483216449S14726475EA018440190500609000
B0539533216447S14726428EA018280189200709000
B0539583216415S14726372EA018140187700709000
B0540033216373S14726320EA018050186300709000
B0540083216325S14726275EA017920184800309000
B0540133216281S14726224EA017790183000609000
B0540183216232S14726181EA017720181900309000
B0540233216178S14726147EA017690181400309000
B0540283216130S14726100EA017640181000309000
B0540333216085S14726047EA017600180800709000
B0540383216043S14725993EA017540180300509000
B0540433216001S14725942EA017480179800509000
B0540483215962S14725886EA017390179000609000
B0540533215910S14725832EA017260177900309000
B0540583215855S14725786EA017210177000309000
B0541033215806S14725733EA017110176100309000
B0541083215763S14725675EA017050175300309000
B0541133215707S14725625EA016980174500409000
B0541183215646S14725581EA016930173800509000
B0541233215582S14725540EA016860173200309000
B0541283215524S14725492EA016770172600409000
B0541333215477S14725442EA016710171700309000
B0541383215429S14725391EA016570170600409000
B0541433215381S14725345EA016460169700309000
B0541483215334S14725301EA016380168700309000
B0541533215289S14725255EA016300167800509000
B0541583215242S14725207EA016220166800309000
B0542033215192S14725165EA016180166200309000
B0542083215138S14725124EA016180165800409000
B0542133215078S14725092EA016140165500409000
B0542183215020S14725060EA016070165200309000
B0542233214963S14725017EA016010164700309000
B0542283214918S14724968EA016000164300609000
B0542333214874S14724914EA015950164000609000
B0542383214829S14724863EA015860163300609000
B0542433214786S14724813EA015790162500609000
B0542483214743S14724760EA015670161300609000
B0542533214697S14724708EA015560159900209000
B0542583214656S14724657EA015460158700709000
B0543033214625S14724607EA015370157700509000
B0543083214592S14724559EA015280156700509000
B0543133214546S14724514EA015180155500309000
B0543183214498S14724467EA015080154400509000
B0543233214459S14724413EA014950153200609000
B0543283214424S14724356EA014840152000509000
B0543333214380S14724303EA014730150900609000
B0543383214330S14724257EA014610149700309000
B0543433214274S14724215EA014460148100409000
B0543483214225S14724164EA014330146700509000
B0543533214186S14724109EA014190145100509000
B0543583214146S14724052EA014050143700609000
B0544033214103S14724000EA014030143100309000
B0544083214045S14723959EA013990142800809000
B0544133214001S14723920EA014080143801009000
B0544183214009S14723889EA014070144500809000
B0544233214008S14723920EA014210145700809000
B0544283213956S14723958EA014240146101309000
B0544333213889S14723952EA014250146300509000
B0544383213858S14723907EA014270146300709000
B0544433213867S14723887EA014280146300709000
B0544483213860S14723927EA014290146000809000
B0544533213824S14723977EA014300146200509000
B0544583213826S14723995EA014300146300709000
B0545033213805S14723955EA014220145900909000
B0545083213730S14723942EA014140145500709000
B0545133213664S14723947EA014190145500609000
B0545183213595S14723950EA014090144900609000
B0545233213529S14723955EA014020144100509000
B0545283213465S14723948EA013920143100409000
B0545333213416S14723904EA013840142100609000
B0545383213382S14723853EA013820141700309000
B0545433213356S14723802EA013890141900309000
B0545483213317S14723748EA013840141500509000
B0545533213275S14723698EA014000142100509000
B0545583213214S14723690EA014110143501109000
B0546033213190S14723726EA014240145100809000
B0546083213205S14723718EA014300146300509000
B0546133213189S14723665EA014370147000709000
B0546183213131S14723635EA014570149200909000
B0546233213082S14723664EA014650150400709000
B0546283213085S14723690EA014700151001009000
B0546333213094S14723667EA014840152100809000
B0546383213063S14723617EA015000153600609000
B0546433213003S14723609EA015060154601109000
B0546483212986S14723653EA015190155800809000
B0546533212997S14723647EA015290157500609000
B0546583212970S14723598EA015390158600709000
B0547033212910S14723604EA015480159500709000
B0547083212872S14723640EA015650160700609000
B0547133212875S14723657EA015780162000609000
B0547183212871S14723613EA015850162601309000
B0547233212820S14723576EA015950163500809000
B0547283212754S14723583EA016060164900609000
B0547333212710S14723615EA016080165400709000
B0547383212709S14723640EA016130165900809000
B0547433212714S14723616EA016230167100409000
B0547483212683S14723566EA016340168100509000
B0547533212619S14723550EA016440168900809000
B0547583212565S14723579EA016410168800509000
B0548033212524S14723615EA016440169100409000
B0548083212521S14723641EA016460169100709000
B0548133212533S14723615EA016470169300509000
B0548183212508S14723567EA016570170200609000
B0548233212447S14723553EA016690171500709000
B0548283212406S14723585EA016710171400709000
B0548333212417S14723603EA016670171300909000
B0548383212428S14723585EA016770171800509000
B0548433212400S14723536EA016830172600709000
B0548483212337S14723517EA016890173400709000
B0548533212280S14723535EA016930173900509000
B0548583212251S14723572EA016940174100409000
B0549033212252S14723599EA016940174100709000
B0549083212268S14723590EA016910174000509000
B0549133212268S14723560EA017000174200809000
B0549183212231S14723512EA017020174600509000
B0549233212171S14723506EA017050175000709000
B0549283212121S14723537EA017040175200409000
B0549333212065S14723555EA017120175800809000
B0549383211997S14723533EA017090176000609000
B0549433211935S14723544EA017070176000709000
B0549483211875S14723561EA017100176100509000
B0549533211826S14723593EA017090175800709000
B0549583211777S14723621EA017120175900409000
B0550033211749S14723660EA017030175300609000
B0550083211761S14723670EA017020175000309000
F0550130205122024252931
B0550133211771S14723636EA016990174700508000
F055018020506122024252931
B0550183211763S14723590EA017000174600709000
B0550233211741S14723531EA016910174000409000
B0550283211720S14723475EA016950174100309000
B0550333211695S14723416EA016900173700309000
B0550383211668S14723358EA016900173600209000
B0550433211635S14723301EA016820173000309000
B0550483211601S14723245EA016810172800509000
B0550533211576S14723187EA016740172200509000
B0550583211555S14723128EA016670171300309000
B0551033211520S14723068EA016540170200309000
B0551083211483S14723016EA016480169400309000
B0551133211448S14722962EA016400168300409000
B0551183211407S14722905EA016240166900609000
B0551233211379S14722858EA016190166200709000
B0551283211350S14722802EA016030165000309000
B0551333211318S14722753EA015900163500609000
B0551383211287S14722703EA015760162000309000
B0551433211251S14722659EA015660160500509000
B0551483211211S14722616EA015570159300309000
