AFLY00C6 0100750
HFDTE020116
HFFXA010
HFPLTPILOT:PETER_ BURKITT  
HFCM2CREW2:NKN
HFGTYGLIDERTYPE:RX5             
HFGIDGLIDERID:003             
HFDTM100GPSDATUM:WGS84
HFRFWFIRMWAREVERSION: 1.1.04 EN
HFRHWHARDWAREVERSION:1.00
HFFTYFRTYPE:Flytec ,Element
HFGPS:FASTRAX,IT430,48
HFPRSPRESSALTSENSOR:INTERSEMA,MS5401BM,12000
HFALGALTGPS:GEO
HFALPALTPRESSURE:ISA
HFTZNUTCOFFSET: 11.00h
I033638FXA3940SIU4143TAS
C020116014137020116001903
C3321648S14755920E TAKEOFF
C3321648S14755920E START  FORBE            00000000005000000000360000AREA
C3317535S14742651E TURN   GUNNIN           00000000000400000000360000AREA
C3257216S14733274E TURN   SKULLS           00000000000400000000360000AREA
C3307555S14754626E TURN   BOGAN            00000000000400000000360000AREA
C3321648S14755920E FINISH FORBE            00000000000400000000360000AREA
C3321648S14755920E LANDING
F032636
B0326360000000N00000000EV002620000000000000
F0326380215171924
E032638TPC
B0326383321349S14756055EA002620024302905000
F0326390215171924
B0326393321349S14756055EA002630024302905000
F0326400215171924
B0326403321349S14756056EA002630024202305000
F0326410215171924
B0326413321349S14756056EA002620024202305000
F0326420215171924
B0326423321349S14756056EA002620024102505000
F0327060215171924
B0327063321347S14756059EA002630023701205000
F03273602121517192428
B0327363321347S14756059EA002630023700707000
F03280602121517192428
B0328063321349S14756061EA002630023600307000
E032818STA
E032818ATS1010.0
LFLYA1 00234
B0328183321374S14756066EA002610023600407000
F0328230206121517192428
B0328233321407S14756076EA002730024000508000
B0328283321435S14756083EA002910025500608000
B0328333321463S14756093EA003030027100608000
B0328383321487S14756109EA003160028800508000
B0328433321501S14756137EA003260030300508000
B0328483321498S14756174EA003370031600508000
B0328533321475S14756213EA003460032700408000
B0328583321429S14756238EA003520033700708000
B0329033321373S14756242EA003640034900608000
B0329083321313S14756239EA003780036200608000
B0329133321251S14756234EA003840037000608000
B0329183321191S14756221EA003940037900408000
B0329233321129S14756212EA003990038600408000
B0329283321069S14756211EA004060039300408000
B0329333321011S14756213EA004150040200608000
B0329383320952S14756208EA004280041300408000
B0329433320894S14756202EA004440043000408000
B0329483320833S14756195EA004520044300708000
B0329533320773S14756176EA004620045300408000
B0329583320718S14756135EA004730046300408000
B0330033320676S14756076EA004800047400508000
B0330083320645S14756013EA004940048800408000
B0330133320626S14755945EA005070050000508000
B0330183320606S14755873EA005180051500608000
B0330233320578S14755802EA005260052500608000
B0330283320557S14755733EA005380053700508000
B0330333320547S14755660EA005480054900508000
B0330383320543S14755588EA005610056000408000
B0330433320534S14755512EA005690056900608000
B0330483320532S14755435EA005790057900408000
B0330533320528S14755357EA005900059000508000
B0330583320521S14755280EA006050060300608000
B0331033320513S14755204EA006230062300508000
B0331083320506S14755126EA006380064000508000
B0331133320494S14755045EA006520065600508000
B0331183320475S14754968EA006740067600608000
B0331233320458S14754888EA006870069400708000
B0331283320455S14754810EA006990070800408000
B0331333320470S14754742EA007110072200508000
B0331383320498S14754693EA007250073400608000
B0331433320531S14754666EA007380074700308000
B0331483320561S14754656EA007540076200308000
B0331533320590S14754661EA007700078000408000
B0331583320610S14754687EA007870079800408000
B0332033320615S14754720EA008110082000408000
B0332083320596S14754757EA008290084200408000
B0332133320554S14754780EA008490086200408000
B0332183320502S14754785EA008650087900408000
B0332233320451S14754751EA008860089900408000
B0332283320423S14754685EA009040091900808000
B0332333320432S14754624EA009160093500608000
B0332383320459S14754592EA009340095200608000
B0332433320484S14754569EA009330096000808000
B0332483320505S14754566EA009360096100408000
B0332533320514S14754588EA009340095600608000
B0332583320506S14754622EA009320095200408000
B0333033320482S14754656EA009310095000408000
B0333083320458S14754688EA009290094600408000
B0333133320432S14754720EA009310094600608000
B0333183320393S14754736EA009330094600308000
B0333233320345S14754720EA009290094400608000
B0333283320310S14754675EA009320094600408000
B0333333320309S14754630EA009390095000608000
B0333383320328S14754614EA009360095000408000
B0333433320334S14754639EA009320094800508000
B0333483320308S14754667EA009320094600708000
B0333533320257S14754658EA009330094600408000
B0333583320225S14754609EA009360094900608000
B0334033320221S14754557EA009420096200608000
B0334083320237S14754532EA009410096500808000
B0334133320247S14754554EA009370096200608000
B0334183320215S14754576EA009380095900608000
B0334233320168S14754549EA009380095500408000
B0334283320144S14754496EA009410095800408000
B0334333320145S14754446EA009410095600608000
B0334383320163S14754422EA009390095500408000
B0334433320187S14754417EA009350095300308000
B0334483320205S14754421EA009380095400408000
B0334533320204S14754448EA009390095300608000
B0334583320172S14754475EA009330095200408000
B0335033320126S14754488EA009360095200408000
B0335083320075S14754482EA009280094500508000
B0335133320023S14754456EA009250093900508000
B0335183319975S14754421EA009290093900408000
B0335233319943S14754370EA009350094600408000
B0335283319933S14754312EA009340095100408000
B0335333319938S14754263EA009390095300808000
B0335383319957S14754244EA009380095200308000
B0335433319970S14754251EA009420095400508000
B0335483319972S14754274EA009420095400608000
B0335533319951S14754300EA009450095800408000
B0335583319909S14754322EA009410095600408000
B0336033319855S14754316EA009350094900908000
B0336083319810S14754267EA009360095200908000
B0336133319785S14754211EA009420095500508000
B0336183319788S14754157EA009380095900808000
B0336233319806S14754134EA009420095800308000
B0336283319816S14754143EA009470096000408000
B0336333319800S14754168EA009470095900508000
B0336383319750S14754165EA009510096501008000
B0336433319719S14754112EA009530097300908000
B0336483319724S14754061EA009550097500708000
B0336533319745S14754048EA009550097500508000
B0336583319752S14754072EA009510097200708000
B0337033319753S14754094EA009500096700508000
B0337083319726S14754115EA009480096600408000
B0337133319675S14754110EA009420096100508000
B0337183319622S14754080EA009440096100608000
F03372302061217192428
B0337233319580S14754025EA009420095900807000
B0337283319569S14753962EA009410095800707000
B0337333319577S14753912EA009390095500607000
B0337383319598S14753893EA009360095200607000
B0337433319593S14753910EA009380095200507000
B0337483319558S14753924EA009370095100907000
B0337533319507S14753903EA009340094600607000
B0337583319480S14753840EA009300094200907000
B0338033319482S14753786EA009240093700807000
B0338083319501S14753749EA009190093300607000
B0338133319515S14753740EA009170093200507000
B0338183319514S14753755EA009140093000607000
B0338233319488S14753773EA009100092700607000
B0338283319438S14753771EA009050091800807000
B0338333319382S14753740EA009040091401007000
B0338383319338S14753689EA008980090900507000
B0338433319308S14753628EA008940090500507000
B0338483319290S14753562EA008850089800807000
B0338533319278S14753495EA008760088900507000
B0338583319266S14753426EA008640087800807000
B0339033319258S14753358EA008600087000507000
B0339083319247S14753295EA008530086300507000
B0339133319231S14753231EA008460085600807000
B0339183319210S14753169EA008420085000507000
B0339233319185S14753107EA008400084700507000
B0339283319159S14753044EA008360084600407000
B0339333319130S14752982EA008350084300707000
B0339383319092S14752927EA008340084300707000
B0339433319053S14752876EA008320084200807000
B0339483319013S14752825EA008300083900407000
B0339533318977S14752771EA008270083700607000
B0339583318954S14752715EA008320083600507000
B0340033318960S14752669EA008310083600807000
B0340083318978S14752666EA008270083600707000
B0340133318979S14752690EA008220083400607000
B0340183318967S14752715EA008190083300607000
B0340233318953S14752735EA008180083000607000
B0340283318930S14752755EA008130082700507000
B0340333318897S14752769EA008100082301007000
B0340383318850S14752774EA008060081800907000
B0340433318806S14752781EA008030081500907000
B0340483318766S14752793EA008020081100907000
B0340533318728S14752804EA008010080800707000
B0340583318684S14752805EA007980080600507000
B0341033318640S14752780EA007900080100807000
B0341083318605S14752740EA007900079800507000
B0341133318588S14752688EA007890079600707000
B0341183318602S14752653EA007860079501307000
B0341233318623S14752657EA007860079401307000
B0341283318617S14752685EA007870079300607000
B0341333318588S14752704EA007830079301307000
B0341383318544S14752692EA007800078800807000
B0341433318507S14752656EA007760078100707000
F0341480206121719242528
B0341483318479S14752603EA007730077800308000
B0341533318464S14752545EA007740077800408000
B0341583318467S14752495EA007740077600508000
B0342033318488S14752483EA007700077300508000
B0342083318496S14752502EA007660077100508000
B0342133318481S14752525EA007660077100608000
B0342183318453S14752540EA007680077000908000
B0342233318407S14752536EA007640077200508000
B0342283318360S14752518EA007690077500308000
B0342333318330S14752468EA007690077800708000
B0342383318347S14752427EA007690077800708000
B0342433318366S14752427EA007670077400508000
B0342483318372S14752442EA007720077400508000
B0342533318361S14752468EA007700077400408000
B0342583318322S14752474EA007700077400608000
B0343033318285S14752426EA007700077500708000
B0343083318300S14752388EA007710077601108000
B0343133318307S14752405EA007730077700508000
B0343183318282S14752425EA007740077900508000
B0343233318237S14752425EA007730077800508000
B0343283318194S14752387EA007730077900408000
B0343333318176S14752331EA007740077800508000
B0343383318195S14752298EA007740077801408000
B0343433318214S14752309EA007750077800508000
B0343483318213S14752329EA007790078000508000
B0343533318176S14752338EA007790078201108000
B0343583318143S14752287EA007770078200908000
B0344033318164S14752255EA007760078000608000
B0344083318179S14752265EA007790078000508000
B0344133318168S14752289EA007780078100408000
B0344183318127S14752295EA007780078200408000
B0344233318086S14752255EA007790078300408000
B0344283318089S14752202EA007790078400708000
B0344333318111S14752178EA007800078600608000
B0344383318130S14752169EA007810078600508000
B0344433318147S14752174EA007770078300408000
B0344483318162S14752181EA007780078300408000
B0344533318180S14752181EA007760078200508000
B0344583318198S14752182EA007720077800408000
B0345033318214S14752189EA007670078100408000
B0345083318233S14752188EA007640078100408000
B0345133318252S14752186EA007580077500408000
B0345183318271S14752182EA007520076800408000
B0345233318292S14752171EA007450076000408000
B0345283318312S14752132EA007340075300508000
F03453302061217242528
B0345333318315S14752072EA007290074900507000
F0345380206121719242528
B0345383318313S14752009EA007240074200408000
B0345433318314S14751947EA007190073300408000
B0345483318315S14751884EA007130072600408000
B0345533318317S14751819EA007100071900408000
B0345583318320S14751755EA007070071500308000
B0346033318324S14751689EA007000070900308000
B0346083318324S14751621EA006960070500408000
B0346133318325S14751554EA006900070100408000
B0346183318326S14751490EA006880069700408000
B0346233318330S14751425EA006840069300308000
B0346283318338S14751361EA006790068900308000
B0346333318345S14751298EA006730068500408000
B0346383318351S14751234EA006700068000308000
B0346433318358S14751171EA006670067500308000
B0346483318366S14751109EA006620066900308000
B0346533318372S14751046EA006580066400308000
B0346583318376S14750982EA006530066000308000
B0347033318378S14750917EA006490065400308000
B0347083318379S14750852EA006450064800308000
B0347133318380S14750786EA006410064200408000
B0347183318376S14750720EA006390063800408000
B0347233318366S14750654EA006350063500308000
B0347283318350S14750591EA006360063200508000
B0347333318344S14750536EA006370063100808000
B0347383318365S14750503EA006330063000408000
B0347433318386S14750498EA006300062800508000
B0347483318389S14750519EA006270062600408000
B0347533318361S14750530EA006230062300808000
B0347583318318S14750510EA006200061800408000
B0348033318289S14750457EA006180061500508000
B0348083318273S14750398EA006150061300508000
B0348133318262S14750341EA006140061300508000
B0348183318251S14750282EA006110061100408000
B0348233318242S14750225EA006040060800408000
B0348283318239S14750169EA006020060500408000
B0348333318236S14750111EA005970060000308000
B0348383318226S14750055EA005930059600508000
B0348433318218S14749998EA005910059200508000
B0348483318215S14749936EA005850058700508000
B0348533318212S14749874EA005820058200408000
B0348583318204S14749808EA005740057600408000
B0349033318196S14749752EA005760057300408000
F03490802061217192428
B0349083318186S14749695EA005710056800507000
F0349130206121719242528
B0349133318183S14749636EA005650056400508000
B0349183318186S14749580EA005600055900408000
B0349233318184S14749521EA005500055200408000
B0349283318179S14749461EA005430054400408000
B0349333318176S14749406EA005400054100508000
B0349383318175S14749353EA005360053700408000
B0349433318160S14749298EA005340053100508000
B0349483318129S14749257EA005280052900608000
B0349533318093S14749222EA005260052200508000
B0349583318073S14749173EA005220051700508000
B0350033318074S14749118EA005200051500408000
B0350083318080S14749065EA005210051200408000
B0350133318092S14749011EA005170051000408000
B0350183318103S14748960EA005190051100408000
B0350233318120S14748919EA005210051200608000
B0350283318148S14748912EA005170050800408000
B0350333318162S14748933EA005130050400608000
B0350383318155S14748962EA005100050200408000
B0350433318125S14748977EA005090050201008000
B0350483318085S14748974EA005070049900508000
B0350533318048S14748952EA005120050200608000
B0350583318047S14748911EA005080050101208000
B0351033318067S14748921EA005110050000608000
B0351083318060S14748954EA005160050000508000
B0351133318037S14748976EA005160050100908000
B0351183317999S14748953EA005110050100508000
B0351233317990S14748902EA005110050100608000
B0351283318010S14748870EA005130050400608000
B0351333318038S14748859EA005170050600608000
B0351383318049S14748874EA005150050500608000
B0351433318011S14748874EA005080050301108000
B0351483317998S14748820EA005080050201008000
B0351533318027S14748794EA005080050000608000
B0351583318052S14748797EA005070049600608000
B0352033318073S14748806EA005010049200808000
B0352083318062S14748828EA004970048900608000
B0352133318022S14748827EA004900048200608000
B0352183317990S14748787EA004830047500508000
B0352233317987S14748728EA004780047100508000
B0352283318003S14748685EA004720046900608000
B0352333318022S14748651EA004710046600508000
B0352383318032S14748600EA004670046300508000
B0352433318031S14748544EA004640045900608000
B0352483318029S14748487EA004580045500508000
B0352533318027S14748431EA004530045000508000
B0352583318027S14748375EA004470044400408000
B0353033318029S14748321EA004400043500408000
B0353083318034S14748267EA004360042800308000
B0353133318037S14748209EA004310042100408000
B0353183318048S14748154EA004220041200308000
B0353233318056S14748102EA004160040500408000
B0353283318062S14748050EA004130039900408000
B0353333318066S14747996EA004100039500408000
B0353383318071S14747947EA004060038900408000
B0353433318094S14747912EA004010038700508000
B0353483318125S14747893EA003930038200508000
B0353533318150S14747871EA003910038000408000
B0353583318168S14747831EA003830037500408000
B0354033318189S14747799EA003790036700908000
B0354083318214S14747786EA003720036000508000
B0354133318242S14747778EA003610035200508000
B0354183318251S14747800EA003560034400508000
B0354233318232S14747833EA003470033400608000
B0354283318218S14747869EA003430033000508000
B0354333318213S14747900EA003400032400508000
B0354383318244S14747879EA003260032201208000
B0354433318245S14747826EA003380032100708000
B0354483318250S14747777EA003340031700608000
B0354533318268S14747732EA003260031100708000
B0354583318289S14747701EA003210030400808000
B0355033318318S14747699EA003130029400508000
B0355083318339S14747717EA003050028300408000
B0355133318351S14747752EA003030027700408000
B0355183318375S14747784EA002970027200508000
B0355233318398S14747815EA002990026800408000
B0355283318383S14747853EA002720025901308000
B0355333318345S14747878EA002770025500708000
B0355383318317S14747916EA002640024600808000
B0355433318319S14747955EA002590023800708000
B0355483318323S14747985EA002570023300808000
F03555302061217192425
B0355533318323S14747990EA002570023100807000
F0355580206121719242528
B0355583318322S14747993EA002570023000508000
B0356033318320S14747996EA002570022900408000
B0356083318318S14748000EA002570022900408000
B0356133318317S14748005EA002570022900308000
B0356183318316S14748010EA002570022900308000
F03562302061217192425
B0356233318313S14748014EA002570022800907000
F0356280206121719242528
B0356283318312S14748018EA002570022800408000
B0356333318310S14748022EA002570022700308000
B0356383318308S14748027EA002580022600308000
B0356433318306S14748032EA002570022600308000
B0356483318304S14748036EA002570022500308000
B0356533318302S14748041EA002570022500308000
GDAE2F991D1981E4F4B0942731F3A07F8A05CAECB98D5C2F72A2080AC6226C333
