AFLY00Bo 0100732
HFDTE020116
HFFXA010
HFPLTPILOT:PGA             
HFCM2CREW2:NKN
HFGTYGLIDERTYPE:RS5             
HFGIDGLIDERID:NKN             
HFDTM100GPSDATUM:WGS84
HFRFWFIRMWAREVERSION: 1.2.12 EN
HFRHWHARDWAREVERSION:1.00
HFFTYFRTYPE:Flytec ,Element
HFGPS:FASTRAX,IT430,48
HFPRSPRESSALTSENSOR:INTERSEMA,MS5401BM,12000
HFALGALTGPS:GEO
HFALPALTPRESSURE:ISA
HFTZNUTCOFFSET: 10.00h
I033638FXA3940SIU4143TAS
C020116000657020116001303
C3321648S14755920E TAKEOFF
C3321648S14755920E START  FORBE            00000000005000000000360000AREA
C3317535S14742651E TURN   GUNNIN           00000000000400000000360000AREA
C3257216S14733274E TURN   SKULLS           00000000000400000000360000AREA
C3307555S14754626E TURN   BOGAN            00000000000400000000360000AREA
C3321648S14755920E FINISH FORBE            00000000000400000000360000AREA
C3321648S14755920E LANDING
F0332060206121517192428
B0332063321341S14755995EA002650024000508000
F0332360206121517192428
B0332363321341S14755995EA002650024000808000
F0333060206121517192428
B0333063321341S14755995EA002660023900608000
F03333602061215171928
B0333363321345S14755998EA002660023700307000
F0334060206121517192428
B0334063321345S14755998EA002660023600308000
F0334360206121517192428
B0334363321344S14755997EA002650023600308000
F0335060206121517192428
B0335063321344S14755998EA002660023600208000
F0335360206121517192428
B0335363321345S14755998EA002660023600308000
F0336060206121517192428
B0336063321345S14755998EA002660023600408000
E033628STA
E033628ATS1009.7
LFLYA1 00242
B0336283321402S14756037EA002720024900908000
B0336333321442S14756045EA002790026200708000
B0336383321484S14756043EA002930027400608000
B0336433321529S14756022EA003050028700508000
B0336483321567S14755973EA003130029800508000
B0336533321585S14755907EA003240030900508000
B0336583321584S14755834EA003330031800508000
B0337033321563S14755764EA003400032400708000
B0337083321530S14755707EA003540033300508000
B0337133321484S14755659EA003600033900608000
F03371802061217192428
B0337183321437S14755609EA003740034800707000
B0337233321392S14755553EA003790035600507000
B0337283321346S14755504EA003870036600607000
B0337333321299S14755459EA003990037900707000
B0337383321250S14755410EA004080038800507000
B0337433321201S14755360EA004160039500607000
B0337483321148S14755322EA004260040500507000
B0337533321094S14755284EA004340041500507000
B0337583321041S14755253EA004460042800607000
B0338033320983S14755231EA004560043800507000
B0338083320925S14755216EA004640044600507000
B0338133320870S14755213EA004730045600607000
B0338183320826S14755223EA004820046500707000
B0338233320795S14755249EA004910047300707000
B0338283320775S14755285EA004960047900707000
B0338333320765S14755325EA005010048300707000
B0338383320768S14755364EA005080048700607000
B0338403320775S14755396EA005160049400707000
B0338453320785S14755431EA005240050400707000
B0338503320800S14755465EA005310051300707000
B0338553320820S14755494EA005370052300707000
B0339003320836S14755520EA005490053300807000
B0339053320853S14755547EA005560054100807000
B0339103320868S14755571EA005660054900707000
B0339153320882S14755595EA005760056000707000
B0339203320892S14755625EA005880057400507000
B0339253320899S14755660EA005980058800807000
B0339303320905S14755693EA006150060500807000
B0339353320910S14755727EA006320062100807000
B0339403320910S14755766EA006300062700807000
B0339453320917S14755800EA006290062700807000
B0339503320925S14755833EA006310062700407000
B0339553320930S14755873EA006300062500707000
B0340003320937S14755911EA006290062300707000
B0340053320949S14755942EA006370062600607000
B0340103320962S14755968EA006330062500607000
B0340153320978S14755984EA006260062200607000
B0340203321005S14755981EA006160061800507000
B0340253321032S14755981EA006090061300907000
B0340303321042S14755997EA006080060800507000
B0340353321016S14756018EA006020060200907000
B0340403320972S14756010EA005970059700607000
B0340453320934S14755975EA005940059200907000
B0340503320914S14755919EA005890058700607000
B0340553320908S14755861EA005830058400607000
B0341003320931S14755823EA005730057800807000
B0341053320956S14755820EA005680057100507000
B0341103320976S14755829EA005620056600507000
B0341153320996S14755844EA005570056000507000
B0341203321005S14755866EA005510055300707000
B0341253321008S14755891EA005470055000707000
B0341303321006S14755918EA005390054100807000
B0341353321016S14755942EA005290053300907000
B0341403321035S14755957EA005230052600507000
B0341453321053S14755972EA005170051800507000
F0341500206121719242528
B0341503321066S14755990EA005100051000408000
B0341553321081S14756004EA005020050000408000
B0342003321098S14756016EA004920048700408000
B0342053321109S14756033EA004840047700408000
B0342103321119S14756051EA004770046700408000
B0342153321121S14756074EA004730046000708000
B0342203321130S14756096EA004670045300408000
B0342253321150S14756109EA004590044700508000
B0342303321162S14756126EA004530044200408000
B0342353321177S14756143EA004470043700308000
B0342403321202S14756149EA004390043200408000
B0342453321228S14756152EA004350042900408000
B0342503321254S14756157EA004250042200308000
B0342553321275S14756165EA004150041200408000
B0343003321288S14756183EA004070040000408000
B0343053321304S14756200EA003970038900408000
B0343103321330S14756210EA003890037900408000
B0343153321362S14756209EA003820036800408000
B0343203321369S14756232EA003730036001208000
B0343253321324S14756235EA003670035400808000
B0343303321281S14756228EA003570034400508000
B0343353321237S14756220EA003470033100508000
B0343403321191S14756197EA003380031800408000
B0343453321150S14756164EA003290030700508000
B0343503321121S14756111EA003250029800508000
B0343553321136S14756055EA003120028500908000
B0344003321180S14756039EA003000026900708000
B0344053321214S14756047EA002930025700608000
B0344103321248S14756059EA002800024600508000
B0344153321274S14756078EA002730023800508000
B0344203321293S14756102EA002660023100808000
B0344253321306S14756112EA002660022900908000
B0344303321306S14756111EA002650023001208000
B0344353321305S14756110EA002650023000708000
B0344403321305S14756110EA002650023000608000
B0344453321306S14756110EA002660023100908000
B0344503321310S14756112EA002660023200408000
B0344553321314S14756114EA002650023200708000
B0345003321318S14756116EA002650023200708000
B0345053321322S14756117EA002650023100308000
B0345103321326S14756119EA002650023200608000
B0345153321329S14756123EA002650023200608000
B0345203321332S14756127EA002650023200408000
B0345253321335S14756130EA002650023300308000
B0345303321338S14756133EA002650023300308000
B0345353321342S14756137EA002650023300308000
B0345403321345S14756140EA002650023300308000
B0345453321347S14756143EA002650023300308000
B0345503321350S14756141EA002660023200308000
B0345553321350S14756141EA002660023200308000
B0346003321350S14756141EA002650023200308000
B0346053321350S14756141EA002660023200408000
B0346103321350S14756141EA002650023200308000
B0346153321350S14756141EA002650023200308000
B0346203321350S14756141EA002650023200308000
B0346253321350S14756141EA002650023200308000
B0346303321350S14756141EA002650023200308000
B0346353321350S14756141EA002650023200408000
B0346403321350S14756141EA002660023200308000
B0346453321350S14756141EA002650023200308000
B0346503321350S14756141EA002650023200408000
G103B15C3BD58D9D81ED112B6275929F7288A34C7201B084FFF4F7FD2E98A64C0
