AFLY000o 0100050
HFDTE030116
HFFXA010
HFPLTPILOT:GARY WRIGHT     
HFCM2CREW2:NKN
HFGTYGLIDERTYPE:RX_3.5          
HFGIDGLIDERID:63355           
HFDTM100GPSDATUM:WGS84
HFRFWFIRMWAREVERSION: 1.2.12 EN
HFRHWHARDWAREVERSION:1.00
HFFTYFRTYPE:Flytec ,Element
HFGPS:FASTRAX,IT430,48
HFPRSPRESSALTSENSOR:INTERSEMA,MS5401BM,12000
HFALGALTGPS:GEO
HFALPALTPRESSURE:ISA
HFTZNUTCOFFSET:  0.00h
I033638FXA3940SIU4143TAS
C020116234255030116001201
C3321648S14755920E TAKEOFF
C3321648S14755920E START  FORBE            00000000005000000000360000AREA
C3325914S14731144E TURN   SUCK             00000000000400000000360000AREA
C3326923S14643302E FINISH TULLIB           00000000000400000000360000AREA
C3326923S14643302E LANDING
F0201590102061213151719242830
B0201593321219S14756019EA002440023200311000
F0202290102061213151719242830
B0202293321219S14756021EA002440023200211000
F0202590102061213151719242830
B0202593321219S14756021EA002440023200211000
F0203290102061213151719242830
B0203293321219S14756021EA002440023200211000
F0203590102061213151719242830
B0203593321219S14756021EA002440023200211000
F0204290102061213151719242830
B0204293321219S14756021EA002440023200211000
F0204590102061213151719242830
B0204593321219S14756023EA002440023200311000
F0205290102061213151719242830
B0205293321219S14756023EA002440023200511000
F0205590102061213151719242830
B0205593321219S14756025EA002440023100311000
E020630STA
E020630ATS1011.7
LFLYA1 00231
B0206303321212S14756052EA002450023200511000
B0206353321204S14756095EA002590023800611000
B0206403321189S14756139EA002720025000511000
B0206453321173S14756179EA002870026600511000
B0206503321160S14756217EA003080028700511000
B0206553321150S14756257EA003210030700511000
B0207003321138S14756297EA003330032500411000
B0207053321119S14756334EA003490034400511000
B0207103321101S14756372EA003730036400411000
B0207153321077S14756408EA003850038200411000
B0207203321054S14756437EA003910039600511000
B0207253321034S14756465EA004090041300311000
B0207303321011S14756490EA004300043100511000
B0207353320979S14756508EA004570045500411000
B0207403320941S14756521EA004780048200411000
B0207453320899S14756528EA004980050400311000
B0207503320856S14756522EA005160052400411000
B0207553320813S14756513EA005380054500411000
B0208003320771S14756510EA005630056500411000
B0208053320731S14756516EA005900058700311000
B0208103320695S14756531EA006040060200311000
B0208153320666S14756556EA006160061600311000
B0208203320643S14756587EA006330063200411000
B0208253320629S14756618EA006310063800611000
B0208303320626S14756652EA006480065000611000
B0208353320635S14756687EA006580066400511000
B0208403320659S14756715EA006730067900511000
B0208453320697S14756726EA006910069500611000
B0208503320743S14756726EA007030071000311000
B0208553320797S14756709EA007130072200411000
B0209003320850S14756670EA007240073400411000
B0209053320897S14756616EA007350074400511000
B0209103320931S14756554EA007360075100511000
B0209153320961S14756483EA007460075800511000
B0209203320984S14756403EA007650077000611000
B0209253320993S14756315EA007770078000511000
B0209303320985S14756230EA007870079200511000
B0209353320963S14756155EA008090080800411000
B0209403320928S14756094EA008330083200411000
B0209453320888S14756041EA008550085400411000
B0209503320844S14755996EA008610087100411000
B0209553320798S14755960EA008630087700611000
B0210003320749S14755939EA008680088400311000
B0210053320703S14755923EA008700088800311000
B0210103320664S14755879EA008760089400311000
F02101502061213151719242830
B0210153320637S14755821EA008770089500510000
B0210203320627S14755753EA008810089500410000
B0210253320642S14755682EA008830089600510000
B0210303320678S14755620EA008860089900510000
B0210353320728S14755573EA008890090200510000
B0210403320784S14755540EA008880090300710000
B0210453320843S14755516EA008920090700410000
B0210503320901S14755495EA009000091400310000
B0210553320959S14755478EA009100092300410000
B0211003321016S14755469EA009240093200510000
B0211053321070S14755466EA009500095400710000
B0211103321092S14755477EA009690097900910000
B0211153321057S14755467EA009740099601310000
B0211203321037S14755406EA009820100701110000
B0211253321061S14755346EA009880101101010000
B0211303321098S14755323EA009940101500510000
B0211353321128S14755323EA009940101600810000
B0211403321125S14755345EA010040101800510000
B0211453321104S14755357EA010120102300510000
B0211503321075S14755319EA010210102701210000
B0211553321106S14755261EA010270103401310000
B0212003321134S14755281EA010300104201210000
B0212053321115S14755290EA010400105301010000
B0212103321101S14755230EA010460106101310000
B0212153321135S14755192EA010490106601210000
B0212203321153S14755214EA010620107400910000
B0212253321124S14755204EA010690108201310000
B0212303321134S14755144EA010770108901210000
B0212353321165S14755151EA010840109701310000
B0212403321140S14755159EA010930110700910000
B0212453321117S14755113EA011040111701010000
B0212503321146S14755070EA011090112101210000
B0212553321173S14755087EA011180113101010000
B0213003321150S14755094EA011270114400910000
B0213053321114S14755078EA011410115700510000
B0213103321102S14755095EA011480116700610000
B0213153321127S14755103EA011590117700610000
B0213203321157S14755058EA011670118500810000
B0213253321144S14755001EA011790119601010000
B0213303321111S14754979EA011940121100810000
B0213353321096S14754992EA012050122300510000
B0213403321112S14755007EA012130123200810000
B0213453321148S14754989EA012140123400510000
B0213503321175S14754941EA012200124100610000
B0213553321162S14754886EA012360125401110000
B0214003321136S14754896EA012460126701010000
B0214053321165S14754901EA012500127600910000
B0214103321191S14754848EA012610128400710000
B0214153321165S14754799EA012690129001110000
B0214203321133S14754808EA012820130200710000
B0214253321153S14754828EA012850130800910000
B0214303321189S14754790EA012940131400810000
B0214353321173S14754728EA012970131901010000
B0214403321134S14754715EA013070133200710000
B0214453321110S14754733EA013170134000410000
B0214503321126S14754755EA013180134400810000
B0214553321164S14754738EA013190134400610000
B0215003321186S14754681EA013230134900710000
B0215053321167S14754625EA013290135500610000
B0215103321131S14754587EA013370136300510000
B0215153321096S14754574EA013480137201110000
B0215203321110S14754596EA013500137700910000
B0215253321144S14754558EA013500137900610000
B0215303321135S14754497EA013620138901110000
B0215353321107S14754496EA013690139701110000
B0215403321135S14754516EA013680139901010000
B0215453321169S14754475EA013780140300710000
B0215503321167S14754412EA013900141201110000
B0215553321130S14754383EA013930141900810000
B0216003321104S14754391EA014000142700510000
B0216053321116S14754417EA014010143000910000
B0216103321154S14754406EA014010143200610000
B0216153321182S14754355EA014080143800610000
B0216203321163S14754307EA014170145001110000
B0216253321156S14754328EA014250145401110000
B0216303321184S14754299EA014350145800810000
B0216353321162S14754254EA014380145901110000
B0216403321140S14754272EA014420146500810000
B0216453321170S14754276EA014490147200610000
B0216503321197S14754229EA014500147600510000
B0216553321183S14754172EA014540147901010000
B0217003321150S14754153EA014550147900610000
B0217053321128S14754178EA014530148000710000
B0217103321126S14754206EA014600148400710000
B0217153321145S14754226EA014570148400610000
B0217203321183S14754208EA014510148200610000
B0217253321205S14754152EA014460147800610000
B0217303321217S14754090EA014400147400710000
B0217353321223S14754027EA014400147300610000
B0217403321231S14753961EA014380146900510000
B0217453321251S14753902EA014310146400410000
B0217503321276S14753849EA014190145600410000
B0217553321307S14753807EA014100144700510000
B0218003321334S14753763EA014040143900610000
B0218053321367S14753727EA013970143100710000
B0218103321402S14753682EA013800141900510000
B0218153321428S14753627EA013720140900610000
B0218203321441S14753565EA013700140000610000
B0218253321445S14753506EA013650139500610000
B0218303321444S14753449EA013570139000510000
B0218353321446S14753395EA013540138600710000
B0218403321444S14753331EA013470138300510000
B0218453321444S14753269EA013470138100510000
B0218503321441S14753207EA013600138400610000
B0218553321417S14753204EA013610138801010000
B0219003321442S14753226EA013700139401110000
B0219053321484S14753198EA013830140100610000
B0219103321492S14753132EA013860140501010000
B0219153321459S14753116EA013870141000910000
B0219203321463S14753140EA013960141801010000
B0219253321501S14753117EA014030142600610000
B0219303321507S14753054EA014100143300910000
B0219353321475S14753033EA014160144200910000
B0219403321471S14753054EA014270144700910000
B0219453321510S14753056EA014360146000610000
B0219503321529S14753002EA014440146801010000
B0219553321496S14752982EA014460147201210000
B0220003321499S14753012EA014520147900910000
B0220053321531S14753009EA014600148600810000
B0220103321553S14752949EA014630149100710000
B0220153321528S14752904EA014680149400910000
B0220203321504S14752914EA014710150100810000
B0220253321512S14752938EA014780150600710000
B0220303321545S14752936EA014850151200510000
B0220353321577S14752890EA014840151500410000
B0220403321582S14752829EA014950152200710000
B0220453321555S14752796EA015010152901110000
B0220503321561S14752821EA014990153201010000
B0220553321600S14752805EA015070154200610000
B0221003321625S14752753EA015190155000710000
B0221053321605S14752701EA015250155501010000
B0221103321577S14752702EA015350156200710000
B0221153321595S14752725EA015340156500910000
B0221203321633S14752699EA015450157100710000
B0221253321640S14752639EA015540158000710000
B0221303321612S14752601EA015640159300710000
B0221353321593S14752609EA015700160000410000
B0221403321604S14752637EA015750160600410000
B0221453321638S14752651EA015870161700510000
B0221503321666S14752610EA016010162900910000
B0221553321641S14752567EA016120164001310000
B0222003321623S14752588EA016190165200910000
B0222053321654S14752590EA016300166600610000
B0222103321673S14752535EA016400167600810000
B0222153321647S14752489EA016500168401010000
B0222203321618S14752500EA016550169000910000
B0222253321637S14752523EA016660169900710000
B0222303321666S14752484EA016770170400710000
B0222353321654S14752422EA016800171001010000
B0222403321618S14752392EA016860171700610000
B0222453321592S14752397EA016860172000510000
B0222503321595S14752424EA016850172200710000
B0222553321627S14752421EA016900172600610000
B0223003321645S14752371EA016930172800510000
B0223053321630S14752321EA016990173400810000
B0223103321595S14752301EA016960173500810000
B0223153321571S14752313EA016930173300410000
B0223203321572S14752337EA016900173100510000
B0223253321602S14752339EA016910173100810000
B0223303321634S14752299EA016930173000610000
B0223353321649S14752242EA016940173100610000
B0223403321653S14752181EA016900173000510000
B0223453321657S14752119EA016890173000710000
B0223503321669S14752045EA016830172600610000
B0223553321675S14751971EA016770172100710000
B0224003321681S14751900EA016710171600610000
B0224053321679S14751831EA016600171000610000
B0224103321674S14751763EA016490170100610000
B0224153321683S14751693EA016420169400510000
B0224203321699S14751625EA016400168500510000
B0224253321713S14751552EA016330167700610000
B0224303321732S14751482EA016270167000510000
B0224353321749S14751413EA016150166100510000
B0224403321763S14751339EA016050165200410000
B0224453321779S14751266EA015940164100410000
B0224503321796S14751197EA015810162700410000
B0224553321808S14751126EA015680161400410000
B0225003321813S14751059EA015610160000610000
B0225053321819S14750992EA015530159000510000
B0225103321830S14750932EA015510158500310000
B0225153321839S14750867EA015380157500610000
B0225203321858S14750803EA015310156600410000
B0225253321876S14750740EA015220155700410000
B0225303321891S14750674EA015160154900410000
B0225353321907S14750603EA015140154600410000
B0225403321927S14750541EA015210154700510000
B0225453321941S14750478EA015140154600510000
B0225503321949S14750411EA015080154200410000
B0225553321956S14750346EA015000153800410000
B0226003321965S14750279EA014910153100410000
B0226053321975S14750213EA014850152500410000
B0226103321987S14750148EA014770151700610000
B0226153322006S14750090EA014670150600610000
B0226203322026S14750031EA014570149300510000
B0226253322039S14749970EA014430148100410000
B0226303322045S14749908EA014260146700310000
B0226353322055S14749845EA014130145100610000
B0226403322071S14749780EA014020143700410000
B0226453322095S14749718EA013940142500510000
B0226503322117S14749658EA013830141400410000
B0226553322139S14749591EA013680140400510000
B0227003322160S14749525EA013590139300510000
B0227053322183S14749465EA013530138400410000
B0227103322204S14749402EA013350137100410000
B0227153322222S14749338EA013270136000410000
B0227203322239S14749272EA013130134800410000
B0227253322256S14749209EA013030133600510000
B0227303322275S14749137EA012840132200510000
B0227353322293S14749067EA012750130900610000
B0227403322309S14749000EA012640129500410000
B0227453322327S14748933EA012560128400310000
B0227503322338S14748864EA012430127500510000
B0227553322354S14748797EA012320126200510000
B0228003322373S14748726EA012190124900510000
B0228053322395S14748659EA012110123800510000
B0228103322421S14748593EA012050123000510000
B0228153322448S14748527EA011970122100510000
B0228203322467S14748455EA011890121100510000
B0228253322478S14748381EA011810120400510000
B0228303322486S14748311EA011740119700510000
B0228353322493S14748240EA011640118800510000
B0228403322501S14748171EA011550117900510000
B0228453322513S14748102EA011470117000510000
B0228503322526S14748031EA011410116300410000
B0228553322540S14747959EA011320115500410000
B0229003322557S14747888EA011220114700410000
B0229053322573S14747817EA011160113900510000
B0229103322587S14747747EA011080113100510000
B0229153322603S14747680EA010970112200410000
B0229203322616S14747611EA010840111000510000
B0229253322625S14747541EA010710109500510000
B0229303322635S14747472EA010540107800410000
B0229353322650S14747402EA010410106300510000
B0229403322664S14747330EA010310105200510000
B0229453322671S14747257EA010220104000510000
B0229503322678S14747182EA010140103100510000
B0229553322683S14747112EA010060102100510000
B0230003322683S14747043EA009960101000610000
B0230053322679S14746973EA009830099700510000
B0230103322678S14746905EA009750098500510000
B0230153322670S14746838EA009590097300510000
B0230203322659S14746771EA009460095900410000
B0230253322654S14746701EA009320094600510000
B0230303322656S14746631EA009220093500410000
B0230353322657S14746566EA009130092400510000
B0230403322650S14746506EA009000091300510000
B0230453322642S14746443EA008910090300410000
B0230503322635S14746379EA008830089500510000
B0230553322626S14746322EA008790089000510000
B0231003322612S14746268EA008720088200410000
B0231053322592S14746214EA008540087000510000
B0231103322577S14746161EA008460085900310000
B0231153322562S14746107EA008300084700310000
B0231203322558S14746049EA008160083000510000
B0231253322557S14745986EA007980081200510000
B0231303322560S14745922EA007840079400410000
B0231353322557S14745862EA007700077800610000
B0231403322555S14745801EA007640076600510000
B0231453322549S14745737EA007470075200510000
B0231503322540S14745668EA007380074400610000
B0231553322523S14745606EA007330074100610000
B0232003322490S14745570EA007330074100510000
B0232053322454S14745555EA007430074600610000
B0232103322434S14745558EA007590075300610000
B0232153322450S14745581EA007600075700610000
B0232203322493S14745561EA007650076700510000
B0232253322496S14745507EA007790078501310000
B0232303322475S14745521EA007870080301210000
B0232353322513S14745525EA007940081201210000
B0232403322521S14745471EA008120082101210000
B0232453322497S14745484EA008210083400710000
B0232503322527S14745499EA008300084301010000
B0232553322559S14745453EA008400084400610000
B0233003322539S14745419EA008470085301110000
B0233053322529S14745446EA008600086401110000
B0233103322569S14745441EA008660087100610000
B0233153322589S14745389EA008750087800910000
B0233203322566S14745360EA008920089201110000
B0233253322566S14745385EA009090090701110000
B0233303322605S14745372EA009140092300610000
B0233353322619S14745317EA009260093601010000
B0233403322594S14745285EA009390095001010000
B0233453322588S14745312EA009520096701110000
B0233503322622S14745301EA009650098000610000
B0233553322627S14745248EA009820099200810000
B0234003322600S14745230EA009890100600910000
B0234053322605S14745259EA010040101700910000
B0234103322646S14745238EA010150102900510000
B0234153322651S14745185EA010320104700810000
B0234203322627S14745175EA010470106900810000
B0234253322649S14745195EA010610108700710000
B0234303322682S14745155EA010800110400910000
B0234353322669S14745111EA010920112100810000
B0234403322653S14745127EA010990112601110000
B0234453322686S14745144EA011160113301110000
B0234503322719S14745101EA011320114201110000
B0234553322696S14745072EA011420115701110000
B0235003322682S14745094EA011550117101010000
B0235053322720S14745097EA011650118400910000
B0235103322739S14745048EA011780119501110000
B0235153322713S14745019EA011830120300710000
B0235203322693S14745033EA011970121700610000
B0235253322719S14745053EA012090123000810000
B0235303322760S14745022EA012210124300510000
B0235353322767S14744974EA012320125101010000
B0235403322734S14744974EA012400126000910000
B0235453322744S14745004EA012480127000810000
B0235503322768S14745029EA012650128300610000
B0235553322807S14745016EA012680129300810000
B0236003322806S14744961EA012790130101110000
B0236053322780S14744964EA012930131300810000
B0236103322798S14744992EA013040132800710000
B0236153322835S14744966EA013090133400610000
B0236203322829S14744916EA013190134201010000
B0236253322802S14744909EA013330135500710000
B0236303322792S14744937EA013410136500610000
B0236353322824S14744949EA013510137800910000
B0236403322852S14744911EA013580138300510000
B0236453322836S14744863EA013630138900610000
B0236503322806S14744859EA013730139700710000
B0236553322793S14744883EA013820140400610000
B0237003322800S14744922EA013830140600610000
B0237053322831S14744943EA013850141000510000
B0237103322866S14744949EA013770140700410000
B0237153322900S14744919EA013620139800510000
B0237203322917S14744869EA013460138500710000
B0237253322929S14744814EA013440137700610000
B0237303322939S14744755EA013480137500910000
B0237353322918S14744725EA013580138201110000
B0237403322930S14744762EA013680138901110000
B0237453322972S14744739EA013750139700610000
B0237503322971S14744684EA013760140300810000
B0237553322941S14744665EA013770140600710000
B0238003322928S14744689EA013870141200710000
B0238053322957S14744711EA013930141900610000
B0238103323001S14744691EA013890142200510000
B0238153323033S14744643EA013920142300410000
B0238203323028S14744588EA013800141800710000
B0238253322999S14744563EA013750141300710000
B0238303322969S14744564EA013770141300510000
B0238353322959S14744521EA013790141400610000
B0238403322991S14744484EA013850141700610000
B0238453323029S14744492EA013890141900810000
B0238503323031S14744519EA013940142100710000
B0238553323004S14744529EA013940142400610000
B0239003322982S14744492EA014010142800510000
B0239053322963S14744452EA014130143500810000
B0239103322942S14744479EA014130144001010000
B0239153322966S14744506EA014200144800810000
B0239203322997S14744482EA014260145200710000
B0239253322989S14744437EA014330146300710000
B0239303322955S14744425EA014410147100510000
B0239353322937S14744449EA014450147300610000
B0239403322954S14744482EA014400147300710000
B0239453322990S14744468EA014430147500510000
B0239503323011S14744424EA014490148000710000
B0239553323005S14744373EA014530148400710000
B0240003322972S14744371EA014650149300910000
B0240053322967S14744402EA014720150200610000
B0240103322997S14744413EA014730150500910000
B0240153323029S14744381EA014760151000610000
B0240203323049S14744335EA014770151300310000
B0240253323058S14744284EA014880151600610000
B0240303323035S14744258EA014930151801210000
B0240353323033S14744296EA014970152200810000
B0240403323068S14744281EA015050153001010000
B0240453323057S14744231EA015100153601110000
B0240503323021S14744238EA015120154300910000
B0240553323019S14744269EA015200155000610000
B0241003323057S14744266EA015230155300710000
B0241053323077S14744218EA015240155600810000
B0241103323062S14744171EA015300156200710000
B0241153323028S14744162EA015360156800610000
B0241203323018S14744186EA015430157400810000
B0241253323049S14744167EA015450157900710000
B0241303323047S14744110EA015550158300910000
B0241353323013S14744090EA015530158700610000
B0241403322992S14744111EA015530158700710000
B0241453323020S14744123EA015520158700710000
B0241503323042S14744078EA015520158600510000
B0241553323043S14744017EA015580159000410000
B0242003323042S14743964EA015610159400410000
B0242053323041S14743905EA015600159600310000
B0242103323025S14743860EA015590159500610000
B0242153323005S14743863EA015530159100610000
B0242203323030S14743880EA015450158600910000
B0242253323072S14743835EA015370158200610000
B0242303323085S14743767EA015360158000710000
B0242353323101S14743701EA015500158600410000
B0242403323138S14743641EA015610159100710000
B0242453323136S14743578EA015680160100910000
B0242503323107S14743565EA015690160201110000
B0242553323128S14743586EA015780160800810000
B0243003323176S14743553EA015830161600510000
B0243053323202S14743494EA015880162100910000
B0243103323184S14743440EA015870162400810000
B0243153323155S14743401EA015810162200810000
B0243203323145S14743418EA015830162000810000
B0243253323180S14743414EA015910162300910000
B0243303323202S14743359EA016030162900910000
B0243353323174S14743342EA015990163301310000
F024340020612131517192428
B0243403323188S14743368EA016110163801009000
B0243453323232S14743330EA016150164400909000
B0243503323251S14743271EA016220164900809000
B0243553323245S14743208EA016170165100709000
B0244003323233S14743154EA016160165000709000
B0244053323223S14743095EA016030164400709000
B0244103323222S14743027EA015970163800509000
B0244153323230S14742963EA015870162900509000
B0244203323245S14742898EA015780161900409000
B0244253323259S14742833EA015710161000509000
B0244303323272S14742766EA015620160200409000
B0244353323281S14742698EA015610159600509000
B0244403323291S14742635EA015600159300509000
B0244453323298S14742569EA015570159000409000
B0244503323305S14742509EA015580158900409000
B0244553323311S14742450EA015520158600409000
B0245003323319S14742391EA015450157900509000
B0245053323335S14742334EA015400157200509000
B0245103323350S14742272EA015330156600509000
B0245153323359S14742211EA015290156100409000
B0245203323368S14742150EA015260155500509000
B0245253323374S14742087EA015190154900609000
B0245303323386S14742023EA015190154600609000
B0245353323392S14741960EA015170154500509000
B0245403323395S14741897EA015170154700409000
B0245453323405S14741836EA015150154300609000
B0245503323419S14741771EA015130154300709000
B0245553323428S14741712EA015190154500609000
B0246003323434S14741652EA015190154700509000
B0246053323441S14741593EA015210155000509000
B0246103323455S14741536EA015210154800509000
B0246153323464S14741478EA015150154500509000
B0246203323470S14741417EA015050153900509000
B0246253323470S14741356EA014960153000609000
B0246303323469S14741292EA014830151700609000
B0246353323468S14741223EA014680150300509000
B0246403323473S14741157EA014510148700509000
B0246453323488S14741091EA014350147100509000
B0246503323516S14741033EA014200145500709000
B0246553323542S14740971EA014080143900609000
B0247003323563S14740905EA013920142300409000
B0247053323585S14740844EA013800140800509000
B0247103323607S14740785EA013690139700609000
B0247153323631S14740734EA013620138800409000
B0247203323656S14740683EA013500137700609000
B0247253323686S14740630EA013440136900409000
B0247303323714S14740574EA013360136200609000
B0247353323740S14740516EA013300135500409000
B0247403323766S14740458EA013250135000509000
B0247453323789S14740400EA013190134300409000
B0247503323809S14740338EA013050133200509000
B0247553323831S14740272EA012940132000409000
B0248003323854S14740212EA012870130900509000
B0248053323879S14740154EA012740129500709000
B0248103323903S14740092EA012540128000709000
B0248153323921S14740018EA012270125800809000
B0248203323932S14739948EA012180124200709000
B0248253323937S14739879EA012080123100709000
B0248303323948S14739811EA011980122000609000
B0248353323961S14739751EA011930121200609000
B0248403323979S14739690EA011810120100609000
B0248453323999S14739624EA011630118400509000
B0248503324020S14739557EA011530117100509000
B0248553324041S14739494EA011470116100509000
B0249003324060S14739427EA011410115400409000
B0249053324074S14739362EA011420115300609000
B0249103324079S14739303EA011460115600609000
B0249153324082S14739240EA011480116000609000
B0249203324065S14739181EA011630116700709000
B0249253324035S14739192EA011670117601009000
B0249303324027S14739210EA011780118500609000
B0249353324053S14739223EA011840119200509000
B0249403324088S14739179EA011860119800809000
B0249453324081S14739123EA011970120801309000
B0249503324065S14739134EA012080122001109000
B0249553324098S14739132EA012140122901109000
B0250003324125S14739072EA012170123600709000
B0250053324115S14739012EA012350124800809000
B0250103324102S14739019EA012370125801109000
B0250153324139S14739016EA012530127001209000
B0250203324149S14738953EA012660128201309000
B0250253324116S14738930EA012790129501009000
B0250303324122S14738952EA012890130700809000
B0250353324156S14738925EA013070132600909000
B0250403324139S14738875EA013180134101209000
B0250453324116S14738881EA013310135600809000
B0250503324143S14738889EA013440137200509000
B0250553324163S14738840EA013630139101009000
B0251003324133S14738816EA013740140101009000
B0251053324132S14738837EA013900141400809000
B0251103324167S14738824EA014020143100909000
B0251153324186S14738771EA014170144400809000
B0251203324153S14738740EA014320145501309000
B0251253324148S14738767EA014490147101009000
B0251303324183S14738745EA014640149100909000
B0251353324183S14738688EA014790150701109000
B0251403324152S14738681EA014910152101209000
B0251453324160S14738706EA015040153600809000
B0251503324196S14738679EA015200154700909000
B0251553324194S14738619EA015290155601409000
B0252003324161S14738604EA015460156901009000
B0252053324150S14738632EA015560158200509000
B0252103324165S14738658EA015660159200509000
B0252153324196S14738665EA015700159900409000
B0252203324236S14738635EA015710160400809000
B0252253324258S14738587EA015930161401009000
B0252303324229S14738554EA016050163101309000
B0252353324230S14738578EA016180165000809000
B0252403324259S14738549EA016320166601109000
B0252453324264S14738493EA016490167900909000
B0252503324228S14738470EA016580169201109000
B0252553324221S14738489EA016710170900709000
B0253003324253S14738471EA016830172200809000
B0253053324259S14738420EA016980173401109000
B0253103324228S14738387EA017110174900809000
B0253153324212S14738403EA017210176000809000
B0253203324235S14738413EA017280176500609000
B0253253324264S14738375EA017400177500809000
B0253303324257S14738324EA017550178700709000
B0253353324223S14738319EA017600179601109000
B0253403324236S14738339EA017690180700909000
B0253453324264S14738313EA017810181701109000
B0253503324257S14738261EA017860182301009000
B0253553324215S14738247EA017900182700809000
B0254003324202S14738276EA017970183500709000
B0254053324228S14738290EA017940184000609000
B0254103324260S14738296EA018050184600509000
B0254153324286S14738273EA018060184700809000
B0254203324300S14738223EA018060184800509000
B0254253324309S14738164EA018090184900509000
B0254303324322S14738109EA018160185300409000
B0254353324346S14738059EA018230185800609000
B0254403324357S14738001EA018300186700609000
B0254453324323S14737964EA018390187601109000
B0254503324313S14737990EA018450188401009000
B0254553324346S14737985EA018480188701309000
B0255003324360S14737920EA018460188800509000
B0255053324344S14737857EA018570189600609000
B0255103324311S14737837EA018620190201209000
B0255153324329S14737855EA018620190500909000
B0255203324364S14737810EA018660190900909000
B0255253324366S14737747EA018750191600909000
B0255303324334S14737717EA018830192200909000
B0255353324327S14737737EA018880192700709000
B0255403324359S14737734EA018870192800909000
B0255453324389S14737685EA018950193100909000
B0255503324397S14737616EA018970193600609000
B0255553324394S14737542EA018950193800509000
B0256003324396S14737472EA018940193700609000
B0256053324399S14737403EA018910193200609000
B0256103324400S14737324EA018760192400609000
B0256153324410S14737255EA018770191700509000
B0256203324426S14737185EA018620190800609000
B0256253324440S14737120EA018590190300409000
B0256303324460S14737058EA018480189400509000
B0256353324478S14736998EA018450188400509000
B0256403324495S14736939EA018340187400509000
B0256453324515S14736882EA018230186600409000
B0256503324528S14736832EA018210185900409000
B0256553324537S14736779EA018110185100409000
B0257003324548S14736724EA018040184400609000
B0257053324558S14736669EA018010183900409000
B0257103324570S14736614EA017930183400509000
B0257153324583S14736561EA017920183100309000
B0257203324596S14736506EA017880182800409000
B0257253324600S14736445EA017860182500509000
B0257303324596S14736380EA017850182500309000
B0257353324596S14736323EA017940183000509000
B0257403324592S14736270EA017950183500609000
B0257453324588S14736219EA017980183900509000
B0257503324585S14736162EA017950183900509000
B0257553324583S14736104EA018050184400509000
B0258003324582S14736046EA018120185000409000
B0258053324577S14735983EA018140185200609000
B0258103324567S14735917EA018160185800609000
B0258153324563S14735848EA018190186200509000
B0258203324554S14735781EA018170186400709000
B0258253324544S14735719EA018220186600509000
B0258303324543S14735656EA018220186600509000
B0258353324549S14735589EA018080186100709000
B0258403324556S14735524EA017940184700509000
B0258453324555S14735452EA017820183200609000
B0258503324567S14735385EA017780182100609000
B0258553324587S14735324EA017790181500609000
B0259003324610S14735260EA017750181000609000
B0259053324629S14735192EA017710180700509000
B0259103324627S14735118EA017660180700609000
B0259153324636S14735051EA017660180600609000
B0259203324651S14734982EA017510179800609000
B0259253324670S14734917EA017410178700609000
B0259303324686S14734852EA017340177600509000
B0259353324696S14734782EA017250176700409000
B0259403324697S14734711EA017110175400509000
B0259453324706S14734643EA017070174500409000
B0259503324722S14734574EA016990173700309000
B0259553324735S14734507EA016930172900309000
B0300003324749S14734434EA016850172200309000
B0300053324756S14734363EA016820171800409000
B0300103324762S14734295EA016740171000409000
B0300153324774S14734229EA016650170000609000
B0300203324791S14734162EA016570169200409000
B0300253324812S14734105EA016550168800409000
B0300303324828S14734041EA016460168200409000
B0300353324835S14733974EA016420167600409000
B0300403324838S14733909EA016350167100509000
B0300453324846S14733847EA016300166600409000
B0300503324862S14733790EA016230165900309000
B0300553324878S14733730EA016150164900309000
B0301003324889S14733666EA016070164000309000
B0301053324898S14733601EA015980163000409000
B0301103324904S14733536EA015860161900409000
B0301153324907S14733468EA015730160600509000
B0301203324920S14733400EA015660159700409000
B0301253324943S14733339EA015610159200409000
B0301303324970S14733285EA015570158800509000
B0301353324996S14733223EA015530158500509000
B0301403325022S14733162EA015530158500409000
B0301453325049S14733105EA015560158600509000
B0301503325080S14733051EA015540158600509000
B0301553325110S14733000EA015550159000509000
B0302003325140S14732950EA015640159700509000
B0302053325157S14732893EA015710160200709000
B0302103325142S14732833EA015790161000409000
B0302153325108S14732809EA015830161600609000
B0302203325092S14732835EA015850161500809000
B0302253325117S14732851EA015870161900709000
B0302303325155S14732835EA015900162200309000
B0302353325188S14732798EA015980162900309000
B0302403325204S14732742EA016050163500509000
B0302453325200S14732684EA016100164000509000
B0302503325182S14732635EA016110164300609000
B0302553325150S14732609EA016100164300609000
B0303003325127S14732624EA016080164300609000
B0303053325139S14732647EA016110164501109000
B0303103325175S14732647EA016140164700509000
B0303153325216S14732620EA016160164800409000
B0303203325252S14732576EA016200165300409000
B0303253325270S14732515EA016190165600509000
B0303303325274S14732452EA016230166000509000
B0303353325287S14732393EA016210166100609000
B0303403325325S14732353EA016160165500409000
B0303453325365S14732327EA016110165000409000
B0303503325399S14732284EA016030164300409000
B0303553325423S14732230EA015990163600409000
B0304003325437S14732165EA015870162800509000
B0304053325452S14732103EA015860162300309000
B0304103325468S14732044EA015830161800509000
B0304153325484S14731982EA015820161400409000
B0304203325503S14731921EA015820161500509000
B0304253325523S14731864EA015850161500509000
B0304303325543S14731798EA015840161600309000
B0304353325559S14731733EA015870161800409000
B0304403325577S14731675EA015870161900309000
B0304453325602S14731613EA015760161300409000
B0304503325632S14731555EA015700160500509000
B0304553325664S14731501EA015650159900509000
B0305003325689S14731446EA015580159300309000
B0305053325709S14731383EA015500158500409000
B0305103325736S14731325EA015450157800409000
B0305113325742S14731314EA015440157600409000
B0305123325748S14731304EA015430157500409000
E030513TPC
B0305133325754S14731293EA015410157300409000
B0305143325760S14731283EA015390157100409000
B0305153325767S14731272EA015370157000409000
B0305163325773S14731262EA015350156800309000
B0305173325779S14731252EA015340156700409000
B0305183325785S14731242EA015340156600409000
B0305203325795S14731220EA015330156200309000
B0305253325817S14731160EA015220155300309000
B0305303325844S14731108EA015130154400309000
B0305353325873S14731051EA015010153400509000
B0305403325896S14730991EA014940152500409000
B0305453325913S14730930EA014850151500509000
B0305503325919S14730866EA014740150500309000
B0305553325921S14730801EA014650149700609000
B0306003325927S14730738EA014550148500709000
B0306053325935S14730676EA014460147600409000
B0306103325952S14730618EA014380146600409000
B0306153325953S14730556EA014330145900309000
B0306203325939S14730493EA014260145300409000
B0306253325930S14730427EA014210144800409000
B0306303325931S14730361EA014170144400409000
B0306353325945S14730295EA014130144000409000
B0306403325963S14730229EA014120143900309000
B0306453325977S14730167EA014120144000309000
B0306503325984S14730100EA014070143700409000
B0306553325990S14730033EA014010143300409000
B0307003326000S14729969EA013960142700409000
B0307053326022S14729907EA013880142000309000
B0307103326047S14729848EA013840141400409000
B0307153326064S14729784EA013770140700409000
B0307203326076S14729719EA013720140000609000
B0307253326089S14729656EA013680139400409000
B0307303326110S14729599EA013620138700309000
B0307353326138S14729541EA013520137800309000
B0307403326165S14729482EA013470137200409000
B0307453326189S14729423EA013430136600309000
B0307503326213S14729366EA013350135900409000
B0307553326233S14729305EA013280135200309000
B0308003326245S14729241EA013180134200409000
B0308053326257S14729177EA013080133100309000
B0308103326285S14729118EA012970131800309000
B0308153326320S14729061EA012920130900509000
B0308203326360S14729023EA012870130500409000
B0308253326406S14728988EA012820130300709000
B0308303326446S14728956EA012830130500609000
B0308353326473S14728914EA012870130800809000
B0308403326499S14728857EA012880130900509000
B0308453326526S14728809EA013050131800709000
B0308503326502S14728763EA012980132301209000
B0308553326465S14728767EA013090133101309000
B0309003326485S14728790EA013200133900709000
B0309053326510S14728752EA013230134600909000
B0309103326496S14728698EA013300135500809000
B0309153326462S14728682EA013380136401109000
B0309203326443S14728706EA013450137200709000
B0309253326439S14728738EA013440137200409000
B0309303326441S14728769EA013440137000609000
B0309353326440S14728804EA013420136900609000
B0309403326437S14728836EA013530137100709000
B0309453326463S14728834EA013650138301209000
B0309503326456S14728780EA013740139601209000
B0309553326419S14728773EA013790140601109000
B0310003326419S14728802EA013910141900809000
B0310053326445S14728794EA013990142900609000
B0310103326474S14728749EA014080143600709000
B0310153326466S14728690EA014200144501109000
B0310203326426S14728677EA014230144901109000
B0310253326412S14728706EA014230145100809000
B0310303326416S14728729EA014330146100509000
B0310353326448S14728719EA014310146300709000
B0310403326483S14728684EA014340146600309000
B0310453326501S14728629EA014470147400709000
B0310503326475S14728582EA014560148300909000
B0310553326436S14728567EA014570148800909000
B0311003326420S14728590EA014600149200809000
B0311053326445S14728585EA014670150100709000
B0311103326474S14728541EA014700150500409000
B0311153326502S14728496EA014820151200609000
B0311203326500S14728443EA014840151701409000
B0311253326469S14728443EA014780151400909000
B0311303326473S14728471EA014830152000709000
B0311353326495S14728477EA014940152500509000
B0311403326518S14728424EA014950153001009000
B0311453326486S14728380EA014990153101209000
B0311503326465S14728397EA015040153900809000
B0311553326485S14728405EA015080154200709000
B0312003326520S14728382EA015060154000609000
B0312053326554S14728345EA015100154200509000
B0312103326579S14728293EA015150154400809000
B0312153326589S14728229EA015190154900609000
B0312203326596S14728172EA015180155000409000
B0312253326599S14728113EA015150154800709000
B0312303326596S14728058EA015150154500509000
B0312353326590S14727996EA015100154200409000
B0312403326582S14727934EA015090153900309000
B0312453326576S14727869EA015040153400509000
B0312503326570S14727801EA014970152900509000
B0312553326557S14727729EA014900152400509000
B0313003326549S14727657EA014860151800609000
B0313053326547S14727584EA014780151000609000
B0313103326548S14727511EA014610149700609000
B0313153326545S14727434EA014440148000509000
B0313203326529S14727365EA014300146500409000
B0313253326508S14727300EA014180145300409000
B0313303326492S14727234EA014100144100309000
B0313353326481S14727170EA014020143000509000
B0313403326471S14727102EA013880141700409000
B0313453326460S14727034EA013770140500309000
B0313503326453S14726964EA013670139300609000
B0313553326445S14726892EA013550138100309000
B0314003326432S14726828EA013500137500409000
B0314053326417S14726768EA013460137000409000
B0314103326407S14726707EA013350136200309000
B0314153326397S14726646EA013260135300409000
B0314203326391S14726583EA013180134300409000
B0314253326391S14726514EA013080133500709000
B0314303326393S14726441EA013010132400309000
B0314353326393S14726373EA013010132000609000
B0314403326389S14726315EA013000132000309000
B0314453326385S14726260EA012940131800409000
B0314503326386S14726199EA012890131500409000
B0314553326382S14726141EA012850131300609000
B0315003326371S14726087EA012810130900509000
B0315053326357S14726024EA012810130600409000
B0315103326341S14725964EA012850130400509000
B0315153326315S14725912EA012840130400609000
B0315203326281S14725875EA012910131200609000
B0315253326247S14725845EA013060132300409000
B0315303326227S14725851EA013190133600909000
B0315353326253S14725867EA013110133900809000
B0315403326286S14725824EA013100133600809000
B0315453326288S14725762EA013150133900509000
B0315503326276S14725705EA013250134700609000
B0315553326249S14725706EA013320135301309000
B0316003326270S14725731EA013420136200809000
B0316053326307S14725690EA013480137300609000
B0316103326296S14725636EA013560138201009000
B0316153326267S14725626EA013670139200809000
B0316203326271S14725652EA013690139600509000
B0316253326314S14725651EA013700140000709000
B0316303326349S14725607EA013770140400809000
B0316353326339S14725551EA013800140800809000
B0316403326309S14725533EA013830141300409000
B0316453326292S14725548EA013920142000609000
B0316503326314S14725570EA013930141900609000
B0316553326357S14725539EA013930142000609000
B0317003326383S14725485EA013970142200709000
F0317050206121517192428
B0317053326388S14725422EA014000142700608000
B0317103326375S14725366EA014050143000708000
B0317153326337S14725352EA014010143001208000
B0317203326306S14725356EA014080143400908000
B0317253326274S14725357EA014120143500708000
B0317303326246S14725377EA014100143700708000
B0317353326217S14725380EA014240144200608000
B0317403326220S14725405EA014290144700908000
B0317453326266S14725389EA014350145301208000
B0317503326280S14725336EA014400146000808000
B0317553326256S14725301EA014400146301008000
B0318003326223S14725301EA014470147000908000
B0318053326226S14725329EA014570147700608000
B0318103326263S14725294EA014630149100808000
B0318153326240S14725257EA014720149901308000
B0318203326220S14725279EA014800150701008000
B0318253326244S14725302EA014780151001208000
B0318303326286S14725265EA014800151101108000
B0318353326298S14725217EA014850151300808000
B0318403326301S14725162EA014840151200808000
B0318453326284S14725106EA014870151500708000
B0318503326269S14725053EA014900151700708000
B0318553326263S14724997EA014920151900608000
B0319003326261S14724941EA015090152600408000
B0319053326230S14724911EA015310154601008000
B0319103326211S14724933EA015490156200908000
B0319153326252S14724934EA015560157401508000
B0319203326270S14724880EA015700159001008000
B0319253326260S14724837EA016010162001008000
B0319303326243S14724860EA016170164700908000
B0319353326275S14724872EA016430167500808000
B0319403326316S14724837EA016500169200708000
B0319453326309S14724779EA016580169301108000
B0319503326277S14724763EA016690170201108000
B0319553326255S14724800EA016920171701108000
B0320003326292S14724802EA017070173601208000
B0320053326292S14724747EA017110175001208000
B0320103326260S14724748EA017330176701308000
B0320153326267S14724781EA017510178601408000
B0320203326307S14724762EA017560179801208000
B0320253326331S14724704EA017600180300608000
B0320303326338S14724634EA017620180400608000
B0320353326340S14724573EA017820181500508000
B0320403326323S14724523EA018000183201208000
B0320453326293S14724529EA018200185501008000
B0320503326280S14724565EA018400187400908000
B0320553326305S14724581EA018480189001008000
B0321003326346S14724565EA018610190100908000
B0321053326379S14724525EA018690191200808000
B0321103326369S14724465EA018730191801108000
B0321153326338S14724423EA018950193200908000
B0321203326305S14724401EA019100194501108000
B0321253326306S14724433EA019140195401008000
B0321303326346S14724420EA019250196501308000
B0321353326355S14724371EA019390197801208000
B0321403326325S14724378EA019480198601008000
B0321453326353S14724393EA019560199301208000
B0321503326368S14724346EA019650200201308000
B0321553326333S14724330EA019740201001408000
B0322003326342S14724362EA019750201701408000
B0322053326382S14724340EA019790202101008000
B0322103326378S14724287EA019850202601208000
B0322153326350S14724257EA019880203201008000
B0322203326319S14724233EA019860203200708000
B0322253326301S14724193EA019880203200508000
B0322303326310S14724138EA019870203001108000
B0322353326319S14724079EA019890203000608000
B0322403326333S14724021EA019970203500708000
B0322453326368S14723971EA020000204200708000
B0322503326372S14723911EA020120205301408000
B0322553326342S14723892EA020230206301208000
B0323003326341S14723920EA020320207500808000
B0323053326379S14723901EA020340208301208000
B0323103326398S14723848EA020440209201008000
B0323153326385S14723792EA020490209700608000
B0323203326370S14723734EA020510210000508000
B0323253326362S14723664EA020450209800608000
B0323303326356S14723594EA020360208900708000
B0323353326347S14723522EA020340208200308000
B0323403326335S14723456EA020340208100408000
B0323453326322S14723393EA020300207700408000
B0323503326313S14723328EA020240207100508000
B0323553326308S14723261EA020180206400508000
B0324003326303S14723197EA020130205800308000
B0324053326295S14723129EA020060205100308000
B0324103326287S14723063EA020020204600508000
B0324153326276S14722997EA019990204100408000
B0324203326265S14722934EA019960203700408000
B0324253326255S14722870EA019910203300408000
B0324303326255S14722807EA019900203000308000
B0324353326262S14722746EA019880202800508000
B0324403326267S14722684EA019860202700308000
B0324453326266S14722621EA019850202700408000
B0324503326263S14722559EA019850202700508000
B0324553326261S14722497EA019840202700508000
B0325003326259S14722435EA019840202600408000
B0325053326257S14722372EA019830202400508000
B0325103326250S14722308EA019820202400208000
B0325153326240S14722249EA019830202500308000
B0325203326234S14722186EA019830202500408000
B0325253326240S14722123EA019820202500208000
B0325303326249S14722061EA019820202500308000
B0325353326255S14721999EA019820202400508000
B0325403326251S14721937EA019790202100308000
B0325453326239S14721877EA019750201800408000
B0325503326231S14721817EA019700201400408000
B0325553326225S14721756EA019640200700308000
B0326003326216S14721696EA019570200100308000
B0326053326213S14721635EA019520199400408000
B0326103326219S14721576EA019470198800308000
B0326153326231S14721517EA019420198200308000
B0326203326242S14721456EA019380197600308000
B0326253326253S14721395EA019340197200308000
B0326303326264S14721334EA019280196600408000
B0326353326270S14721270EA019210196000408000
B0326403326271S14721208EA019140195200408000
B0326453326271S14721146EA019070194500208000
B0326503326274S14721083EA018980193600308000
B0326553326281S14721016EA018900192500308000
B0327003326291S14720949EA018770191400308000
B0327053326301S14720879EA018660190300308000
B0327103326298S14720809EA018560189300308000
B0327153326290S14720739EA018480188500308000
B0327203326283S14720668EA018400187700408000
B0327253326274S14720599EA018350187200408000
B0327303326264S14720534EA018320186900408000
B0327353326251S14720470EA018230186300508000
B0327403326236S14720408EA018180185500308000
B0327453326216S14720349EA018070184700408000
B0327503326204S14720285EA018000184100608000
B0327553326206S14720216EA017950183300708000
B0328003326213S14720146EA017860182600608000
B0328053326218S14720079EA017810182000508000
B0328103326223S14720012EA017770181300308000
B0328153326227S14719941EA017690180700608000
B0328203326231S14719874EA017650180200608000
B0328253326235S14719807EA017600179500408000
B0328303326232S14719740EA017540179000508000
B0328353326220S14719676EA017470178400308000
B0328403326201S14719615EA017390177900408000
B0328453326185S14719554EA017320177200508000
B0328503326177S14719488EA017220176300508000
B0328553326174S14719420EA017150175300508000
B0329003326174S14719351EA017050174300408000
B0329053326169S14719284EA016990173400408000
B0329103326155S14719219EA016910172800408000
B0329153326142S14719160EA016890172300408000
B0329203326127S14719098EA016840171700608000
B0329253326111S14719035EA016790171100508000
B0329303326098S14718971EA016740170500508000
B0329353326091S14718903EA016680170000408000
B0329403326080S14718836EA016650169500408000
B0329453326065S14718774EA016630169100508000
B0329503326053S14718715EA016570168600608000
B0329553326044S14718652EA016490167900508000
B0330003326032S14718589EA016440167200508000
B0330053326015S14718525EA016340166300608000
B0330103326001S14718460EA016290165900608000
B0330153326000S14718390EA016290165800808000
B0330203326002S14718319EA016260165600608000
B0330253326002S14718255EA016260165600508000
B0330303326008S14718194EA016280166000408000
B0330353326003S14718138EA016320166300408000
B0330403326000S14718078EA016310166300508000
B0330453326014S14718019EA016280166100408000
B0330503326036S14717963EA016320166300408000
B0330553326057S14717903EA016340166400408000
B0331003326079S14717845EA016370166700408000
B0331053326099S14717787EA016420167200408000
B0331103326134S14717743EA016480167700508000
B0331153326174S14717736EA016660168400608000
B0331203326216S14717707EA016630169201008000
B0331253326230S14717635EA016660169600808000
B0331303326215S14717571EA016700170301208000
B0331353326181S14717537EA016800171100908000
B0331403326157S14717545EA016760171100908000
B0331453326160S14717574EA016810171301008000
B0331503326183S14717586EA016960172100608000
B0331553326219S14717542EA017100173500908000
B0332003326223S14717479EA017140174501208000
B0332053326197S14717438EA017250175601208000
B0332103326189S14717455EA017280176201408000
B0332153326234S14717453EA017340177201408000
B0332203326255S14717397EA017480178300908000
B0332253326228S14717361EA017590179101408000
B0332303326222S14717378EA017640179901108000
B0332353326258S14717383EA017670180501308000
B0332403326288S14717327EA017710181200908000
B0332453326276S14717265EA017720181300908000
B0332503326260S14717208EA017830181800908000
B0332553326239S14717210EA017790181801208000
B0333003326273S14717210EA017770181701308000
B0333053326311S14717155EA017830182000608000
B0333103326339S14717091EA017850182300608000
B0333153326367S14717029EA017920182800908000
B0333203326388S14716966EA017910182900508000
B0333253326393S14716907EA017840182500508000
B0333303326390S14716838EA017690181100508000
B0333353326375S14716778EA017580179700608000
B0333403326340S14716729EA017390178100608000
B0333453326310S14716680EA017280176600408000
B0333503326292S14716620EA017190175400508000
B0333553326292S14716554EA017080174200408000
B0334003326296S14716485EA016990173100408000
B0334053326289S14716417EA016910172400408000
B0334103326268S14716355EA016840171700408000
B0334153326245S14716295EA016780171200708000
B0334203326230S14716238EA016710170700508000
B0334253326242S14716175EA016640169800708000
B0334303326269S14716115EA016580169100808000
B0334353326284S14716052EA016500168400408000
F03344002061217192428
B0334403326284S14715986EA016430167800407000
B0334453326273S14715922EA016370167100407000
B0334503326255S14715859EA016270166400507000
B0334553326240S14715798EA016200165800607000
B0335003326228S14715732EA016140165600607000
B0335053326214S14715669EA016090165000507000
B0335103326194S14715608EA016050164400507000
B0335153326167S14715558EA015990163800707000
B0335203326144S14715505EA015930163100507000
B0335253326138S14715442EA015870162600707000
B0335303326146S14715377EA015820162001107000
B0335353326151S14715315EA015760161500607000
B0335403326145S14715252EA015660160600407000
B0335453326133S14715189EA015580159800607000
B0335503326119S14715126EA015500158900907000
F0335550206121719242528
B0335553326104S14715063EA015430158000508000
B0336003326095S14715006EA015410157500508000
B0336053326075S14714945EA015280156500608000
B0336103326060S14714883EA015190155400708000
B0336153326041S14714825EA015110154200808000
B0336203326017S14714767EA014980153100608000
B0336253326006S14714704EA014910152200608000
B0336303325997S14714642EA014890151600808000
B0336353325980S14714585EA014860151200608000
B0336403325966S14714528EA014760150600608000
B0336453325962S14714461EA014670150000708000
B0336503325960S14714397EA014630149400508000
B0336553325956S14714336EA014620149200508000
B0337003325946S14714280EA014600149000508000
B0337053325940S14714223EA014550148600608000
B0337103325943S14714161EA014540148500908000
B0337153325942S14714099EA014500147900508000
B0337203325938S14714041EA014390147400408000
B0337253325937S14713980EA014290146600808000
B0337303325942S14713915EA014160145200608000
B0337353325943S14713849EA014050144000908000
B0337403325940S14713788EA013930142800408000
B0337453325931S14713724EA013770141400508000
B0337503325920S14713665EA013670140200508000
B0337553325916S14713606EA013590139000808000
B0338003325921S14713543EA013490137800808000
B0338053325934S14713487EA013430136800808000
B0338103325939S14713424EA013270135800808000
B0338153325933S14713365EA013180134800908000
B0338203325923S14713303EA013080133900708000
B0338253325911S14713242EA013080133400608000
B0338303325895S14713184EA013000132700608000
B0338353325880S14713119EA012940132200608000
B0338403325864S14713058EA012960131601108000
B0338453325835S14713018EA012880131001108000
B0338503325803S14712983EA012850130700608000
B0338553325771S14712948EA012780130100508000
B0339003325740S14712906EA012620129300508000
B0339053325714S14712862EA012600128600508000
B0339103325696S14712814EA012510128000508000
B0339153325676S14712762EA012410127300608000
B0339203325656S14712701EA012230126100808000
B0339253325628S14712652EA012170125600608000
B0339303325599S14712617EA012120124201008000
B0339353325572S14712578EA012070123400808000
B0339403325552S14712535EA012030122900408000
B0339453325538S14712488EA011960122500508000
B0339503325527S14712436EA011870122000608000
B0339553325518S14712382EA011770121300608000
B0340003325503S14712329EA011690120201008000
B0340053325484S14712284EA011610119700808000
B0340103325472S14712229EA011540118900708000
B0340153325474S14712168EA011470118000608000
B0340203325476S14712110EA011380117300608000
B0340253325470S14712047EA011300116600608000
B0340303325465S14711986EA011230115600708000
B0340353325459S14711925EA011180114800508000
B0340403325456S14711863EA011130114200608000
B0340453325451S14711803EA011100113800608000
B0340503325438S14711744EA010990113000508000
B0340553325432S14711684EA010900112100508000
B0341003325433S14711622EA010750110800508000
B0341053325452S14711564EA010620109500508000
B0341103325472S14711507EA010520108300708000
B0341153325485S14711446EA010390106900608000
B0341203325491S14711385EA010280105300508000
B0341253325497S14711323EA010180104000708000
B0341303325504S14711266EA010070102900808000
B0341353325507S14711210EA009940101500708000
B0341403325522S14711151EA009840100101208000
B0341453325564S14711100EA009730099001308000
B0341503325601S14711063EA009670097901008000
B0341553325641S14711028EA009590097000708000
B0342003325670S14710986EA009620096701208000
B0342053325673S14710922EA009520096401608000
B0342103325643S14710881EA009530096501208000
B0342153325615S14710860EA009460096300808000
B0342203325593S14710870EA009420095900508000
B0342253325596S14710895EA009380095701008000
B0342303325624S14710909EA009420095801108000
B0342353325661S14710885EA009440095701008000
F03424002121719242528
B0342403325679S14710828EA009390095800707000
F0342450206121719242528
B0342453325662S14710777EA009400095801108000
B0342503325633S14710758EA009330095301308000
B0342553325616S14710777EA009250094801208000
B0343003325641S14710795EA009240094601408000
B0343053325682S14710778EA009250094801108000
B0343103325725S14710766EA009200094301108000
B0343153325766S14710747EA009200094000808000
B0343203325797S14710708EA009130093301008000
B0343253325807S14710651EA009010092600808000
B0343303325793S14710593EA008960091900608000
F03433502061217192528
B0343353325774S14710538EA008870091100607000
F0343400206121719242528
B0343403325758S14710484EA008830090900908000
B0343453325751S14710428EA008760090900808000
B0343503325745S14710367EA008660089500708000
B0343553325737S14710305EA008550088100608000
B0344003325729S14710242EA008500087300908000
B0344053325721S14710176EA008460086600508000
B0344103325710S14710110EA008580086301308000
B0344153325689S14710096EA008600086401008000
B0344203325715S14710121EA008630086701908000
B0344253325767S14710092EA008720087601508000
B0344303325763S14710038EA008790088801808000
B0344353325760S14710063EA008860089001108000
B0344403325803S14710063EA008960090001608000
B0344453325827S14710011EA008980091100908000
B0344503325801S14709974EA009110092401808000
B0344553325804S14709998EA009190093801508000
B0345003325846S14710005EA009290094301508000
B0345053325880S14709954EA009330094800808000
B0345103325863S14709904EA009450096001908000
B0345153325852S14709924EA009600097501308000
B0345203325894S14709928EA009700098202008000
B0345253325921S14709874EA009780099400908000
B0345303325904S14709832EA009950100901808000
B0345353325896S14709854EA010040102001508000
B0345403325941S14709854EA010140103001708000
B0345453325963S14709805EA010280104201208000
B0345503325935S14709793EA010400105301308000
B0345553325947S14709818EA010500106401608000
B0346003325992S14709788EA010590107801708000
B0346053325994S14709737EA010680108801708000
B0346103325966S14709737EA010810109701008000
B0346153325992S14709758EA010900110501808000
B0346203326025S14709718EA011020111701008000
B0346253326008S14709679EA011130112801808000
B0346303325998S14709699EA011210113601008000
B0346353326030S14709712EA011340114901508000
B0346403326062S14709669EA011460116201008000
B0346453326046S14709627EA011500116901708000
B0346503326030S14709642EA011610118200908000
B0346553326053S14709668EA011710119201608000
B0347003326094S14709660EA011810120001108000
B0347053326112S14709610EA011880121001208000
B0347103326088S14709572EA011920121601708000
B0347153326059S14709542EA012050122600808000
B0347203326039S14709542EA012100123300708000
B0347253326046S14709579EA012110123501408000
B0347303326084S14709595EA012180123801208000
B0347353326122S14709560EA012220124101408000
B0347403326119S14709506EA012260124801708000
B0347453326096S14709505EA012350125400808000
B0347503326104S14709536EA012440126201408000
B0347553326144S14709543EA012530127301408000
B0348003326173S14709493EA012500128001808000
B0348053326154S14709451EA012550128301708000
B0348103326131S14709465EA012640129001508000
B0348153326158S14709494EA012770129601008000
B0348203326206S14709476EA012810130101308000
B0348253326224S14709421EA012820130801108000
B0348303326203S14709381EA012870131001708000
B0348353326186S14709400EA012910131301608000
B0348403326211S14709433EA012930131600908000
B0348453326256S14709436EA012970132100908000
B0348503326298S14709407EA012990132500708000
B0348553326328S14709353EA012980132600908000
B0349003326349S14709293EA012990132400608000
B0349053326353S14709223EA012920132200708000
B0349103326358S14709161EA012950132300508000
B0349153326369S14709101EA012940132100608000
B0349203326386S14709042EA012880131700608000
B0349253326410S14708986EA012850131001108000
B0349303326446S14708944EA012760130400908000
B0349353326486S14708938EA012700129600608000
B0349403326511S14708965EA012630128800808000
B0349453326519S14708992EA012560128301008000
B0349503326519S14709012EA012570128200608000
B0349553326516S14709035EA012560128200808000
B0350003326503S14709060EA012660128601008000
B0350053326501S14709086EA012750129101108000
B0350103326533S14709094EA012800129401208000
B0350153326569S14709050EA012840130401208000
B0350203326557S14708997EA012890131101708000
B0350253326523S14708985EA012960132100808000
B0350303326501S14708992EA013030132900808000
B0350353326504S14709014EA013070133201208000
B0350403326536S14709023EA013080133301208000
B0350453326577S14709008EA013150133701208000
B0350503326598S14708960EA013150134201008000
B0350553326577S14708909EA013160134501308000
B0351003326541S14708899EA013220134600908000
B0351053326529S14708916EA013230134700808000
B0351103326555S14708941EA013210134901208000
B0351153326593S14708944EA013290135401008000
B0351203326627S14708904EA013270135700608000
B0351253326626S14708844EA013290135701108000
B0351303326602S14708799EA013300136001108000
B0351353326572S14708791EA013360136001208000
B0351403326579S14708823EA013310135800908000
B0351453326610S14708841EA013370136000808000
B0351503326650S14708841EA013390136200908000
B0351553326691S14708828EA013410136401008000
F03520002061217192425
B0352003326719S14708782EA013390136501407000
B0352053326696S14708725EA013260136201807000
B0352103326658S14708704EA013290136001307000
B0352153326624S14708698EA013300135901007000
B0352203326592S14708683EA013320135901507000
B0352253326563S14708659EA013330136101307000
B0352303326533S14708632EA013360136301007000
B0352353326504S14708606EA013320136001307000
B0352403326471S14708583EA013280135601307000
B0352453326452S14708544EA013250135300807000
B0352503326452S14708484EA013240135100807000
B0352553326458S14708418EA013200134701007000
B0353003326468S14708351EA013170134301007000
B0353053326471S14708283EA013100133800607000
B0353103326460S14708223EA013060133300707000
B0353153326436S14708171EA012970132700807000
B0353203326409S14708122EA012920132100707000
B0353253326386S14708073EA012890131600807000
B0353303326360S14708016EA012830131100607000
B0353353326327S14707967EA012890131201107000
B0353403326298S14707930EA012970131800707000
B0353453326270S14707893EA012920131700907000
B0353503326240S14707857EA012840131000707000
B0353553326211S14707814EA012790130600907000
B0354003326188S14707764EA012750130300507000
B0354053326166S14707707EA012700130000607000
B0354103326140S14707661EA012700129700707000
B0354153326109S14707623EA012560128700707000
F035420020612171925
B0354203326079S14707579EA012470127600806000
F03542502061217192425
B0354253326054S14707535EA012350126400907000
B0354303326030S14707492EA012270125300907000
B0354353326006S14707446EA012180124200507000
B0354403325983S14707399EA012090123100607000
B0354453325957S14707351EA011990121901007000
B0354503325934S14707302EA011910120700907000
B0354553325910S14707249EA011790119700707000
B0355003325883S14707199EA011740119000707000
B0355053325858S14707151EA011730118600607000
B0355103325831S14707101EA011620117800807000
B0355153325817S14707038EA011550117201207000
B0355203325807S14706969EA011580116901107000
B0355253325780S14706917EA011730117600907000
B0355303325749S14706886EA011890119002207000
B0355353325747S14706912EA011860119601407000
B0355403325783S14706921EA011950120801707000
B0355453325823S14706892EA012070121901007000
B0355503325855S14706853EA012260123401507000
B0355553325835S14706816EA012330124902407000
B0356003325825S14706839EA012450126302207000
B0356053325859S14706833EA012610127902007000
B0356103325875S14706783EA012740129901907000
B0356153325847S14706758EA012880131202307000
B0356203325835S14706783EA012960132001807000
B0356253325867S14706787EA013080133101707000
B0356303325888S14706739EA013250134402207000
B0356353325862S14706713EA013370135602207000
B0356403325848S14706743EA013480136802207000
B0356453325879S14706755EA013610138002107000
B0356503325910S14706711EA013700139402007000
B0356553325902S14706660EA013790140402107000
B0357003325876S14706673EA013970141201607000
B0357053325902S14706691EA014060142302207000
B0357103325931S14706641EA014190143702307000
B0357153325896S14706615EA014200144902107000
B0357203325874S14706637EA014370146101807000
B0357253325904S14706655EA014460147202507000
B0357303325934S14706605EA014510147902007000
B0357353325906S14706572EA014640148702407000
B0357403325888S14706600EA014760149701907000
B0357453325917S14706615EA014770150302207000
B0357503325944S14706565EA014820150801607000
B0357553325915S14706515EA014850151202007000
B0358003325876S14706509EA014960152202107000
B0358053325874S14706546EA015120153201807000
B0358103325919S14706531EA015220154301907000
B0358153325921S14706478EA015190154802107000
B0358203325882S14706494EA015280155101307000
B0358253325903S14706513EA015400156002007000
B0358303325935S14706467EA015470156902407000
B0358353325917S14706419EA015510157701907000
B0358403325878S14706408EA015630159002307000
B0358453325848S14706418EA015810160401907000
B0358503325858S14706447EA015880161302107000
B0358553325897S14706423EA015900162202107000
B0359003325905S14706365EA015980162902307000
B0359053325874S14706335EA016090164002207000
B0359103325859S14706363EA016180164601507000
B0359153325901S14706364EA016280165602107000
B0359203325919S14706317EA016390166701807000
B0359253325890S14706292EA016490167602607000
B0359303325878S14706321EA016550168402307000
B0359353325915S14706331EA016590169302107000
B0359403325942S14706289EA016690170202207000
B0359453325922S14706253EA016760171001507000
B0359503325895S14706264EA016850171801907000
B0359553325899S14706299EA016880172201807000
B0400003325939S14706297EA016850172301807000
B0400053325969S14706257EA016850172401707000
B0400103325973S14706206EA016880172601407000
B0400153325966S14706161EA016930172901007000
B0400203325950S14706119EA016980173400707000
B0400253325947S14706066EA016970173600707000
B0400303325956S14706007EA017000173701107000
B0400353325973S14705949EA017030174001207000
B0400403325981S14705885EA017100174601107000
B0400453325963S14705838EA017250175302507000
B0400503325937S14705843EA017320176101907000
B0400553325964S14705853EA017390176602107000
B0401003325999S14705804EA017460177502107000
B0401053325980S14705757EA017550178402707000
B0401103325955S14705775EA017620179402007000
B0401153325985S14705788EA017710180402207000
B0401203326013S14705736EA017780181502007000
B0401253326005S14705679EA017900182701407000
B0401303325977S14705645EA018030183801507000
B0401353325961S14705666EA018110184702407000
B0401403325997S14705669EA018270186202407000
B0401453326031S14705620EA018320187502107000
B0401503326014S14705566EA018440188701807000
B0401553325987S14705567EA018530189601407000
B0402003325995S14705591EA018680190701607000
B0402053326036S14705572EA018780191902107000
B0402103326047S14705513EA018890192702207000
F0402150205061217192425
B0402153326018S14705474EA018990193601108000
B0402203325989S14705483EA019060194501008000
B0402253325992S14705513EA019170196001208000
B0402303326030S14705508EA019340197801208000
B0402353326037S14705452EA019420199001108000
B0402403326005S14705439EA019560200201408000
B0402453326016S14705459EA019670201401508000
B0402503326051S14705425EA019740202101308000
B0402553326036S14705368EA019880203201508000
B0403003326009S14705376EA019940204101008000
B0403053326024S14705402EA020030204901408000
B0403103326060S14705389EA020130205900708000
B0403153326069S14705330EA020190206700908000
B0403203326039S14705299EA020280207401308000
B0403253326020S14705319EA020330207901208000
B0403303326047S14705339EA020400208701508000
B0403353326070S14705292EA020490209501508000
B0403403326041S14705272EA020560210101208000
B0403453326050S14705302EA020630211001608000
B0403503326085S14705279EA020680211701508000
B0403553326090S14705220EA020730212101108000
B0404003326060S14705193EA020780212601308000
B0404053326044S14705216EA020830213101508000
B0404103326065S14705238EA020870213801208000
B0404153326100S14705234EA020950214300908000
B0404203326125S14705190EA020890214401408000
B0404253326122S14705136EA020930214600508000
B0404303326097S14705094EA020930214800408000
B0404353326080S14705053EA020970215000408000
B0404403326081S14704997EA020950215000908000
B0404453326103S14704931EA020940214900808000
B0404503326112S14704864EA020960215000508000
B0404553326105S14704799EA020930214800508000
F04050002050612192425
B0405003326096S14704733EA020870214000407000
F0405050205061217192425
B0405053326093S14704663EA020770212900508000
B0405103326080S14704595EA020640211700608000
B0405153326069S14704534EA020640211100708000
B0405203326056S14704474EA020580210600508000
B0405253326035S14704419EA020470210000908000
B0405303326015S14704368EA020410209300408000
B0405353326018S14704304EA020350208600708000
B0405403326039S14704241EA020310208100508000
B0405453326051S14704178EA020270207500608000
B0405503326057S14704115EA020210207000808000
B0405553326064S14704045EA020160206200708000
B0406003326068S14703978EA020100205700708000
B0406053326069S14703916EA020070205300408000
B0406103326068S14703855EA019980204501008000
B0406153326064S14703793EA019900203700808000
B0406203326058S14703729EA019810202700908000
B0406253326054S14703661EA019760201900508000
B0406303326049S14703595EA019720201300408000
B0406353326038S14703529EA019650200700808000
B0406403326024S14703460EA019600200100608000
B0406453326008S14703390EA019540199600708000
B0406503325995S14703323EA019500199200508000
B0406553325989S14703256EA019450198800608000
B0407003325986S14703185EA019410198500508000
B0407053325983S14703118EA019370198100808000
B0407103325972S14703055EA019310197500408000
B0407153325955S14702998EA019270197100508000
B0407203325945S14702941EA019240196700508000
B0407253325944S14702878EA019160196100908000
B0407303325944S14702813EA019090195600608000
B0407353325934S14702757EA019050195100508000
B0407403325924S14702701EA019010194500608000
B0407453325915S14702639EA018920193700608000
B0407503325905S14702580EA018800192800708000
B0407553325891S14702523EA018710191800808000
B0408003325878S14702469EA018640190700508000
B0408053325862S14702410EA018540189800608000
B0408103325849S14702350EA018470189100508000
B0408153325833S14702293EA018410188400508000
B0408203325816S14702240EA018350187600408000
B0408253325798S14702192EA018260186800408000
B0408303325780S14702143EA018160185800408000
B0408353325763S14702090EA018070184800708000
B0408403325752S14702030EA018000184000408000
B0408453325749S14701969EA017940183300608000
B0408503325741S14701904EA017840182300608000
B0408553325723S14701841EA017750181400508000
F04090002050612171924
B0409003325703S14701784EA017680180500407000
F0409050205061217192425
B0409053325689S14701723EA017550179400508000
B0409103325684S14701654EA017450178400708000
B0409153325677S14701589EA017380177600508000
B0409203325660S14701528EA017300176800608000
B0409253325647S14701470EA017230176100508000
B0409303325640S14701406EA017090174900808000
B0409353325632S14701337EA016960173600508000
B0409403325622S14701275EA016850172400408000
B0409453325602S14701217EA016750171300508000
B0409503325582S14701155EA016670170400608000
B0409553325564S14701099EA016610169700508000
B0410003325542S14701046EA016460168600608000
B0410053325519S14700993EA016360167400608000
B0410103325499S14700939EA016280166500808000
B0410153325486S14700880EA016230165700608000
B0410203325485S14700813EA016150165101108000
B0410253325489S14700745EA016200165200708000
F04103002050612172425
B0410303325492S14700682EA016190165200607000
B0410353325503S14700619EA016160165100707000
B0410403325513S14700556EA016130164800407000
B0410453325511S14700495EA016040164200807000
B0410503325503S14700432EA015920163101007000
B0410553325495S14700367EA015800162000707000
B0411003325486S14700301EA015750161200507000
B0411053325479S14700238EA015710160600707000
B0411103325466S14700173EA015630159900507000
B0411153325450S14700114EA015540158900607000
B0411203325441S14700053EA015460158000507000
B0411253325442S14659989EA015390157100807000
B0411303325438S14659929EA015290156100807000
B0411353325436S14659868EA015170154900907000
B0411403325437S14659802EA015050153700707000
B0411453325435S14659733EA014950152500607000
B0411503325429S14659667EA014910151800807000
B0411553325422S14659607EA014870151500807000
B0412003325415S14659544EA014810151000707000
B0412053325408S14659482EA014710150300807000
B0412103325402S14659415EA014520148900607000
B0412153325399S14659348EA014380147100907000
B0412203325394S14659274EA014180145000807000
F041225020512172425
B0412253325386S14659211EA014090143400906000
F04123002050612172425
B0412303325377S14659143EA013930141700807000
B0412353325360S14659076EA013800140201007000
B0412403325337S14659023EA013660138600607000
B0412453325299S14658993EA013610137801107000
B0412503325268S14658955EA013600137800707000
B0412553325240S14658911EA013580137700607000
B0413003325208S14658879EA013600138000507000
B0413053325176S14658853EA013590138200707000
B0413103325152S14658816EA013590138400707000
B0413153325134S14658763EA013610138600507000
B0413203325124S14658705EA013630138800707000
B0413253325120S14658646EA013640138800807000
B0413303325086S14658608EA013560138601207000
B0413353325048S14658605EA013600138700907000
B0413403325024S14658608EA013640139000807000
B0413453325017S14658623EA013600138801007000
B0413503325039S14658650EA013610138801107000
F0413550205061217242529
B0413553325076S14658649EA013590138201208000
B0414003325110S14658602EA013560137900808000
B0414053325133S14658553EA013560137500608000
B0414103325160S14658500EA013470136900808000
B0414153325198S14658449EA013440136601008000
B0414203325215S14658385EA013500137200508000
B0414253325215S14658322EA013640138600808000
B0414303325207S14658267EA013720139600508000
B0414353325175S14658227EA013780140401308000
B0414403325153S14658246EA013860141001008000
B0414453325153S14658262EA013950142000608000
B0414503325184S14658275EA013810141801008000
B0414553325219S14658282EA013830141500808000
B0415003325255S14658273EA013910141601108000
B0415053325274S14658215EA014030142401008000
B0415103325244S14658175EA014120143301608000
B0415153325230S14658192EA014260144401708000
B0415203325267S14658184EA014270145001208000
B0415253325302S14658144EA014400145901408000
B0415303325294S14658082EA014470146901208000
B0415353325257S14658063EA014460147101308000
B0415403325239S14658071EA014590147701108000
B0415453325269S14658083EA014560148001108000
B0415503325315S14658061EA014600148400908000
B0415553325349S14658019EA014670149101008000
B0416003325394S14657985EA014660149200508000
B0416053325438S14657949EA014580148800508000
B0416103325477S14657916EA014450147500408000
B0416153325509S14657937EA014210145501008000
B0416203325522S14657976EA014040143200708000
B0416253325514S14658005EA013930141600608000
B0416303325493S14658030EA013860140600808000
B0416353325476S14658042EA013860140100908000
B0416403325455S14658075EA013890140401108000
B0416453325442S14658108EA013970141301708000
B0416503325483S14658097EA014060142201908000
B0416553325484S14658039EA014110143401408000
B0417003325450S14658034EA014180144301208000
B0417053325430S14658056EA014270145000708000
B0417103325403S14658074EA014350145700708000
B0417153325372S14658076EA014440146600508000
B0417203325347S14658085EA014620148000808000
F04172502050612172529
B0417253325346S14658112EA014710149601507000
F0417300205061217242529
B0417303325387S14658109EA014840151101308000
B0417353325415S14658058EA014910151901208000
B0417403325397S14658015EA015060153001708000
B0417453325373S14658030EA015160154300808000
B0417503325390S14658054EA015230155201308000
B0417553325431S14658050EA015350156500608000
B0418003325470S14658017EA015470157400708000
B0418053325487S14657966EA015570158701008000
B0418103325461S14657932EA015620159301308000
B0418153325437S14657945EA015730160101008000
B0418203325430S14657969EA015860161200808000
B0418253325451S14657998EA015930162401608000
B0418303325495S14657984EA016020163200708000
B0418353325517S14657940EA016130164300908000
B0418403325509S14657895EA016210165200908000
B0418453325482S14657884EA016280165900708000
B0418503325467S14657911EA016350166600908000
B0418553325473S14657949EA016450167600908000
B0419003325511S14657965EA016500168101008000
B0419053325557S14657948EA016540168500508000
B0419103325587S14657902EA016540168800908000
B0419153325583S14657848EA016600169200808000
B0419203325558S14657817EA016710169900908000
B0419253325535S14657833EA016740170301108000
B0419303325536S14657869EA016820171100908000
B0419353325574S14657882EA016780171301108000
B0419403325614S14657849EA016770171301008000
B0419453325643S14657805EA016840171700808000
B0419503325660S14657760EA016920172400808000
B0419553325664S14657709EA016910172400408000
B0420003325668S14657662EA016980172800708000
B0420053325671S14657612EA017030173301008000
B0420103325648S14657603EA017100173901208000
B0420153325651S14657634EA017100174101408000
B0420203325691S14657649EA017120174700908000
B0420253325730S14657631EA017210175300708000
B0420303325762S14657587EA017170175200708000
B0420353325776S14657535EA017080174501208000
B0420403325777S14657476EA016980173800508000
B0420453325770S14657434EA016960173200808000
B0420503325738S14657414EA016750172100908000
B0420553325710S14657387EA016730171400508000
B0421003325708S14657334EA016750171100608000
B0421053325720S14657275EA016770170901008000
B0421103325696S14657245EA016570169600608000
B0421153325668S14657221EA016420168001008000
B0421203325669S14657169EA016260166001008000
B0421253325692S14657115EA016170164700808000
B0421303325702S14657062EA016070163500908000
B0421353325695S14657006EA015900162100408000
B0421403325685S14656959EA015810160800908000
B0421453325682S14656906EA015630159200808000
B0421503325683S14656853EA015550158100808000
B0421553325686S14656801EA015620158201008000
B0422003325678S14656746EA015560158100608000
B0422053325678S14656689EA015450157501008000
B0422103325673S14656627EA015300156300608000
B0422153325667S14656567EA015250155500708000
B0422203325664S14656504EA015110154200808000
B0422253325665S14656435EA014960152400608000
B0422303325657S14656370EA014790150700508000
B0422353325655S14656304EA014670149300708000
B0422403325662S14656240EA014590148200508000
B0422453325655S14656177EA014530147300708000
B0422503325637S14656116EA014430146401008000
B0422553325630S14656053EA014310145200808000
B0423003325631S14655987EA014140143800408000
B0423053325635S14655920EA014040142600908000
B0423103325643S14655853EA013970141400608000
B0423153325636S14655789EA013880140500808000
B0423203325619S14655730EA013770139800508000
B0423253325598S14655674EA013700139000508000
B0423303325594S14655607EA013480137500908000
B0423353325594S14655543EA013320135600708000
B0423403325587S14655482EA013070133200908000
B0423453325577S14655410EA012780129600508000
B0423503325568S14655332EA012500126500908000
B0423553325558S14655250EA012230123300708000
B0424003325547S14655168EA012030121000808000
B0424053325539S14655087EA011890119500708000
B0424103325533S14655017EA011770118400608000
B0424153325520S14654944EA011550116900708000
B0424203325514S14654875EA011430115500808000
B0424253325516S14654806EA011210113800608000
B0424303325518S14654738EA011070112100408000
B0424353325518S14654671EA010930110500708000
B0424403325513S14654605EA010790109000808000
B0424453325502S14654538EA010680107800408000
B0424503325494S14654469EA010550106500808000
B0424553325500S14654401EA010400104800608000
B0425003325510S14654327EA010260103300408000
B0425053325515S14654256EA010250102700808000
B0425103325515S14654184EA010170102000808000
B0425153325515S14654114EA010130101700708000
B0425203325513S14654042EA009930100701208000
B0425253325506S14653983EA009750099000608000
B0425303325485S14653927EA009530096501008000
B0425353325466S14653872EA009430094600908000
B0425403325444S14653818EA009400093901008000
B0425453325423S14653768EA009460094601008000
B0425503325399S14653726EA009530095600508000
B0425553325376S14653683EA009550096200508000
B0426003325353S14653638EA009620096700708000
B0426053325325S14653599EA009720097700708000
B0426103325302S14653557EA009930099700608000
B0426153325278S14653543EA010140102101008000
B0426203325288S14653573EA010280104201008000
B0426253325331S14653574EA010540106601508000
B0426303325349S14653521EA010660108601108000
B0426353325323S14653491EA010840110201408000
B0426403325311S14653510EA011060112501108000
B0426453325352S14653521EA011270114501208000
B0426503325364S14653470EA011410116300908000
B0426553325339S14653436EA011650118401408000
B0427003325328S14653460EA011810120501508000
B0427053325368S14653466EA012050122401608000
B0427103325380S14653414EA012220124401408000
B0427153325352S14653401EA012410126301408000
B0427203325361S14653435EA012590128401308000
B0427253325401S14653411EA012790130301308000
B0427303325395S14653365EA012950132001608000
B0427353325368S14653367EA013130133501008000
B0427403325377S14653399EA013310135401408000
B0427453325412S14653382EA013480137301308000
B0427503325406S14653335EA013600138900908000
B0427553325375S14653316EA013810140801008000
B0428003325355S14653337EA013990142601208000
B0428053325380S14653359EA014140144101008000
F04281002050612242529
B0428103325408S14653314EA014290145600807000
F0428150205061217242529
B0428153325392S14653267EA014460147201208000
B0428203325364S14653246EA014670149101208000
B0428253325358S14653269EA014780150601508000
B0428303325399S14653266EA014930152300908000
B0428353325411S14653220EA015120154100908000
B0428403325385S14653218EA015220155301208000
B0428453325409S14653239EA015320156001308000
B0428503325447S14653224EA015470157501208000
B0428553325476S14653189EA015650159300708000
B0429003325474S14653137EA015780160901208000
B0429053325444S14653121EA015900162101208000
B0429103325427S14653140EA016060163500608000
B0429153325454S14653162EA016090164200808000
B0429203325493S14653137EA016200165201308000
B0429253325502S14653083EA016270166100608000
B0429303325486S14653042EA016390167001208000
B0429353325456S14653042EA016470168101008000
B0429403325441S14653064EA016650169601008000
B0429453325462S14653086EA016770170801208000
B0429503325504S14653077EA016790171601008000
B0429553325533S14653042EA016930172501008000
B0430003325540S14652991EA016920173100908000
B0430053325536S14652941EA016970173500808000
B0430103325537S14652891EA017000173700708000
B0430153325532S14652841EA017040174000708000
B0430203325515S14652788EA017100174400608000
B0430253325496S14652739EA017180174800708000
B0430303325477S14652689EA017240175700908000
B0430353325461S14652638EA017330176400708000
B0430403325448S14652579EA017340177000408000
B0430453325446S14652507EA017370177400708000
B0430503325449S14652437EA017420177800608000
B0430553325446S14652372EA017460178200708000
B0431003325436S14652309EA017500178600508000
B0431053325424S14652244EA017450178300808000
B0431103325413S14652177EA017420178000708000
B0431153325410S14652107EA017340177300808000
B0431203325409S14652036EA017260176500808000
B0431253325404S14651965EA017190175800708000
B0431303325410S14651897EA017150175200608000
B0431353325422S14651834EA017120174600808000
B0431403325439S14651764EA017090174100708000
B0431453325444S14651693EA017050173800908000
B0431503325441S14651618EA017010173400908000
B0431553325436S14651542EA016900172500808000
B0432003325436S14651465EA016850171900808000
B0432053325438S14651384EA016660170600708000
B0432103325443S14651304EA016640169601108000
B0432153325436S14651225EA016450168200608000
B0432203325436S14651149EA016360166900808000
B0432253325441S14651072EA016210165200708000
B0432303325452S14650995EA016080163700708000
B0432353325466S14650918EA015980162600608000
B0432403325477S14650839EA015890161600508000
F04324502050612242529
B0432453325472S14650763EA015800160700807000
B0432503325465S14650686EA015710159700707000
B0432553325455S14650610EA015620158800707000
B0433003325447S14650537EA015600158600707000
B0433053325436S14650465EA015530158200607000
B0433103325435S14650389EA015510157800707000
B0433153325436S14650312EA015450157200707000
B0433203325426S14650238EA015350156500707000
B0433253325415S14650167EA015270155700507000
B0433303325416S14650091EA015200155000807000
B0433353325425S14650017EA015120153900707000
B0433403325429S14649941EA015040153000807000
B0433453325426S14649864EA014960152100407000
B0433503325426S14649788EA014890151400707000
B0433553325433S14649711EA014810150500707000
B0434003325438S14649633EA014710149700807000
B0434053325440S14649555EA014600148700707000
B0434103325442S14649478EA014520147700607000
B0434153325443S14649402EA014420146600707000
B0434203325446S14649325EA014310145500707000
B0434253325453S14649250EA014230144500707000
B0434303325457S14649175EA014080143200807000
B0434353325461S14649097EA013940141800507000
B0434403325467S14649022EA013920141100907000
F043445020506122425
B0434453325472S14648953EA013910140700906000
F04345002050612242529
B0434503325469S14648883EA013850140300807000
B0434553325464S14648819EA013770139800907000
B0435003325460S14648754EA013690139100707000
B0435053325453S14648691EA013550137801007000
B0435103325444S14648620EA013390136300807000
B0435153325432S14648551EA013280135000607000
B0435203325425S14648482EA013170133801107000
B0435253325414S14648411EA013200133401007000
B0435303325399S14648344EA013230133501107000
B0435353325378S14648278EA013190133501107000
B0435403325366S14648207EA013190133201107000
B0435453325359S14648132EA013160133100907000
B0435503325356S14648063EA013160133100907000
B0435553325357S14647995EA013090132500707000
B0436003325359S14647931EA012960131701007000
B0436053325367S14647870EA012920131100807000
B0436103325379S14647807EA012840130200707000
B0436153325388S14647741EA012700129200907000
B0436203325398S14647675EA012580128100807000
B0436253325412S14647606EA012470126800807000
B0436303325426S14647538EA012420125800407000
B0436353325437S14647466EA012360125000707000
B0436403325448S14647397EA012300124300707000
B0436453325454S14647335EA012310124200607000
B0436503325465S14647277EA012280124100707000
B0436553325482S14647222EA012290124300507000
B0437003325502S14647162EA012300124400507000
B0437053325521S14647105EA012420125100907000
B0437103325526S14647056EA012530126101207000
B0437153325531S14646998EA012650127501007000
B0437203325548S14646947EA012840129200807000
B0437253325568S14646890EA012960130800807000
B0437303325580S14646836EA012960131600907000
B0437353325589S14646777EA012950131700907000
B0437403325597S14646715EA012920131401007000
B0437453325597S14646651EA012980131401107000
B0437503325604S14646586EA013030131900807000
B0437553325599S14646522EA013150132800707000
B0438003325592S14646462EA013290134300907000
B0438053325584S14646398EA013360135400807000
B0438103325593S14646335EA013470136300907000
B0438153325623S14646283EA013520137200707000
B0438203325660S14646238EA013580137800907000
B0438253325692S14646184EA013570138200907000
B0438303325718S14646118EA013520137800907000
B0438353325741S14646054EA013550137800607000
B0438403325771S14645996EA013460137201007000
B0438453325806S14645937EA013350135700507000
B0438503325839S14645882EA013210134200907000
B0438553325874S14645822EA012990132200607000
B0439003325911S14645759EA012760129400907000
B0439053325939S14645696EA012580127101007000
B0439103325954S14645639EA012440125400607000
B0439153325973S14645581EA012310123900607000
B0439203325994S14645520EA012140122300807000
B0439253326014S14645463EA012050121400807000
B0439303326031S14645410EA012020120900707000
B0439353326048S14645348EA011940120300607000
B0439403326070S14645287EA011890119800807000
B0439453326106S14645234EA011810119500707000
B0439503326135S14645181EA011830119500907000
B0439553326162S14645126EA011850119300907000
B0440003326188S14645062EA011890119300707000
B0440053326206S14644991EA011890119600807000
B0440103326228S14644919EA011970120201207000
B0440153326253S14644851EA012060120900707000
B0440203326281S14644784EA012220122201207000
B0440253326306S14644721EA012360123801007000
B0440303326338S14644662EA012330124401007000
B0440353326364S14644602EA012270124400907000
B0440403326394S14644538EA012100123600907000
B0440453326425S14644485EA012160123001007000
B0440503326449S14644425EA011990122000907000
B0440553326478S14644365EA011930121000807000
B0441003326511S14644308EA011760119500907000
B0441053326544S14644253EA011640117901007000
B0441103326554S14644184EA011560116900807000
B0441153326575S14644116EA011500116000707000
B0441203326603S14644050EA011420115300507000
B0441253326630S14643982EA011340114500607000
B0441303326652S14643913EA011320114200607000
B0441353326671S14643843EA011210113200807000
B0441403326688S14643774EA011110112300707000
B0441453326703S14643709EA011040111401007000
B0441503326742S14643680EA010960110600907000
B0441553326781S14643676EA010910109700807000
B0442003326816S14643642EA010770108700907000
B0442053326840S14643584EA010600107400907000
B0442083326855S14643548EA010550106700507000
B0442093326860S14643537EA010540106500807000
E044210TPC
B0442103326866S14643526EA010510106300807000
B0442113326872S14643515EA010490106000807000
B0442123326878S14643505EA010470105800507000
B0442133326885S14643495EA010460105600507000
B0442143326891S14643485EA010440105400707000
B0442153326898S14643475EA010430105200707000
B0442203326929S14643422EA010320104100707000
B0442253326958S14643363EA010220102900607000
B0442303326988S14643306EA010130102000707000
B0442353327021S14643258EA010080101200607000
B0442403327054S14643217EA009990100300507000
B0442453327088S14643179EA009890099400607000
B0442473327101S14643163EA009860099000607000
B0442483327108S14643155EA009840098800607000
B0442493327115S14643147EA009820098500607000
B0442503327123S14643139EA009770098300707000
B0442513327131S14643131EA009740098000607000
B0442523327139S14643123EA009720097900607000
B0442533327146S14643115EA009710097700607000
B0442543327152S14643107EA009710097600607000
B0442553327158S14643100EA009700097500607000
B0443003327195S14643068EA009630096900807000
B0443053327235S14643071EA009550096201107000
B0443103327251S14643096EA009510095800807000
B0443153327236S14643116EA009450095200707000
B0443203327202S14643103EA009360094401107000
B0443253327173S14643072EA009280093600407000
B0443303327140S14643056EA009160092400507000
B0443353327109S14643053EA009050091300607000
B0443403327074S14643043EA008900089500807000
B0443453327041S14643025EA008790088100807000
B0443503327012S14643022EA008690086800607000
B0443553326990S14643035EA008550085400707000
B0443593326980S14643051EA008470084500807000
B0444003326979S14643056EA008450084200707000
B0444013326978S14643061EA008430084000507000
B0444023326978S14643066EA008400083800507000
B0444033326978S14643071EA008350083600507000
B0444043326977S14643077EA008320083300507000
B0444053326977S14643083EA008290083100407000
B0444063326976S14643089EA008280082800407000
B0444103326972S14643111EA008210082100607000
B0444153326957S14643135EA008100081000507000
B0444203326925S14643141EA007980079900707000
B0444253326890S14643119EA007930079100507000
B0444303326853S14643096EA007840078300507000
B0444353326822S14643100EA007770077501107000
B0444403326826S14643128EA007640076301207000
B0444453326853S14643139EA007510075200907000
B0444503326889S14643127EA007400074000907000
B0444553326927S14643096EA007290072900807000
B0445003326968S14643085EA007180071700507000
B0445053326998S14643099EA007040070301107000
B0445103326990S14643129EA006920069100907000
B0445153326961S14643132EA006830068001007000
B0445203326938S14643091EA006810067500907000
B0445233326930S14643054EA006740067001007000
B0445243326926S14643041EA006720066801507000
B0445253326921S14643033EA006710066901307000
B0445263326914S14643026EA006690066701507000
B0445273326906S14643022EA006660066501607000
B0445283326901S14643023EA006610066202007000
B0445293326897S14643030EA006550065901807000
B0445303326895S14643038EA006500065601507000
B0445313326895S14643049EA006480065301607000
B0445323326895S14643057EA006490065101207000
B0445333326897S14643065EA006520065101207000
B0445343326898S14643073EA006560065001107000
B0445353326900S14643079EA006570065001007000
B0445363326901S14643085EA006570064801307000
B0445373326903S14643091EA006550064701307000
B0445403326910S14643110EA006510064401107000
B0445453326921S14643138EA006450064100707000
B0445503326926S14643175EA006300063100707000
B0445553326930S14643211EA006200062000707000
B0446003326942S14643240EA006160061001007000
B0446053326955S14643276EA006090060300807000
B0446103326951S14643310EA006050059900507000
B0446153326933S14643331EA006060059900807000
B0446203326900S14643326EA006120060200907000
B0446253326869S14643315EA006160060600807000
B0446303326856S14643339EA006140060601607000
B0446353326886S14643352EA006180060701107000
B0446403326916S14643325EA006230060901307000
B0446453326919S14643268EA006200061301207000
B0446503326896S14643230EA006250061501007000
B0446553326865S14643209EA006260061601107000
B0447003326833S14643202EA006220061400807000
B0447053326804S14643202EA006220061400607000
B0447103326786S14643223EA006230061500607000
B0447153326788S14643250EA006220061401007000
B0447203326815S14643256EA006210061400907000
B0447253326845S14643237EA006190061301007000
B0447303326874S14643230EA006240061500907000
B0447353326881S14643249EA006210061601107000
B0447403326848S14643254EA006160061101107000
B0447453326824S14643283EA006160060801207000
B0447503326834S14643307EA006170060800707000
B0447553326847S14643324EA006160060800707000
B0448003326856S14643338EA006150060801007000
B0448053326867S14643351EA006160060701007000
B0448103326897S14643346EA006110060601007000
B0448153326931S14643311EA006100060500807000
B0448203326950S14643254EA006090060301007000
B0448253326948S14643190EA006080060100907000
B0448303326915S14643141EA005990059501007000
B0448353326876S14643122EA005930058801307000
B0448403326847S14643125EA005870058000907000
B0448453326831S14643143EA005890057701207000
B0448503326829S14643171EA005840057500907000
B0448553326829S14643200EA005850057501207000
B0449003326826S14643224EA005890057700507000
B0449053326823S14643244EA005900057800507000
B0449103326824S14643259EA005920057900807000
B0449153326834S14643275EA005890057801007000
B0449203326864S14643275EA005780057501007000
B0449253326899S14643244EA005680056700807000
B0449303326924S14643197EA005610055800707000
B0449353326939S14643137EA005540054900807000
B0449403326962S14643083EA005470054100907000
B0449443326991S14643072EA005380053401407000
B0449453326998S14643076EA005360053201507000
B0449463327001S14643082EA005360053101507000
B0449473327001S14643086EA005360053001407000
B0449483326998S14643092EA005340052901307000
B0449493326994S14643096EA005320052701507000
B0449503326990S14643099EA005300052601107000
B0449553326961S14643103EA005230051300907000
B0450003326938S14643118EA005070050101007000
B0450053326900S14643088EA004950049101207000
B0450103326866S14643070EA004850047801207000
B0450113326861S14643074EA004820047501307000
B0450123326860S14643080EA004790047001607000
B0450133326860S14643086EA004760046901407000
B0450143326863S14643092EA004740046701807000
B0450153326868S14643097EA004720046502107000
B0450203326894S14643114EA004640045500807000
B0450253326926S14643116EA004550044501107000
F045030020506122529
B0450303326957S14643115EA004510043801006000
F04503502050612242529
B0450353326984S14643135EA004410042901107000
B0450403327006S14643154EA004300042101007000
B0450453327022S14643174EA004280041600807000
B0450503327011S14643191EA004250041201207000
B0450553326979S14643161EA004170040701307000
B0451003326987S14643102EA004170040401207000
B0451033327010S14643078EA004150040101307000
B0451043327019S14643073EA004160040201507000
B0451053327025S14643073EA004160040001507000
B0451063327030S14643075EA004160039901507000
B0451073327035S14643077EA004160039801307000
B0451083327040S14643080EA004140039601207000
B0451093327045S14643084EA004130039601107000
B0451103327050S14643088EA004110039500907000
B0451113327055S14643093EA004110039501207000
B0451123327059S14643097EA004100039601107000
B0451133327062S14643101EA004110039600807000
B0451143327063S14643105EA004110039601007000
B0451153327064S14643109EA004110039600907000
B0451163327064S14643114EA004100039500707000
B0451173327061S14643118EA004080039500807000
B0451183327056S14643121EA004060039400807000
B0451193327049S14643121EA004060039301307000
B0451203327042S14643118EA004060039201407000
B0451213327035S14643114EA004070039201407000
B0451253327009S14643092EA004050039100807000
B0451303326973S14643077EA003990038801307000
B0451353326943S14643087EA004000038801007000
B0451403326913S14643087EA003950038300907000
B0451453326886S14643093EA003890037601007000
B0451503326865S14643112EA003810036901007000
B0451553326851S14643130EA003780036500807000
B0452003326832S14643142EA003710035700807000
B0452053326822S14643163EA003580034900607000
B0452103326821S14643187EA003500034200707000
B0452153326843S14643199EA003430033201107000
B0452203326886S14643187EA003300032301107000
B0452253326924S14643167EA003230031501007000
B0452303326960S14643148EA003200030701107000
B0452353326987S14643156EA003120029401507000
B0452403326979S14643183EA003010028500907000
B0452453326971S14643210EA002920027500707000
B0452503326954S14643231EA002840026600607000
B0452553326946S14643249EA002810026100907000
B0453003326946S14643254EA002800026100907000
B0453053326947S14643255EA002800026000707000
B0453103326947S14643259EA002800025900707000
B0453153326947S14643263EA002800025900507000
B0453203326947S14643268EA002800025900407000
B0453253326948S14643272EA002810025900607000
B0453303326950S14643277EA002810025800707000
B0453353326950S14643281EA002810025900407000
B0453403326951S14643285EA002810025900607000
B0453453326951S14643288EA002810025800607000
B0453503326951S14643292EA002810025800507000
B0453553326951S14643295EA002810025700507000
B0454003326951S14643298EA002810025700607000
B0454053326952S14643302EA002820025700607000
B0454103326952S14643305EA002820025600607000
B0454153326953S14643309EA002820025600307000
B0454203326954S14643313EA002820025700607000
B0454253326955S14643317EA002820025700707000
B0454303326956S14643321EA002820025700407000
B0454353326956S14643322EA002820025800507000
GFEB6090B19EF407D0FB473B0372584EE3014CE91DC4B042F23A48A0895B345A4
