AFLY00Bo 0100732
HFDTE030116
HFFXA010
HFPLTPILOT:PGA             
HFCM2CREW2:NKN
HFGTYGLIDERTYPE:RS5             
HFGIDGLIDERID:NKN             
HFDTM100GPSDATUM:WGS84
HFRFWFIRMWAREVERSION: 1.2.12 EN
HFRHWHARDWAREVERSION:1.00
HFFTYFRTYPE:Flytec ,Element
HFGPS:FASTRAX,IT430,48
HFPRSPRESSALTSENSOR:INTERSEMA,MS5401BM,12000
HFALGALTGPS:GEO
HFALPALTPRESSURE:ISA
HFTZNUTCOFFSET: 11.00h
I033638FXA3940SIU4143TAS
C020116233824030116001501
C3321648S14755920E TAKEOFF
C3321648S14755920E START  FORBE            00000000010010000000360000AREA
C3325914S14731144E TURN   SUCK             00000000000400000000360000AREA
C3326923S14643302E FINISH TULLIB           00000000000400000000360000AREA
C3326923S14643302E LANDING
F02443802121719
B0244383321252S14756032EA002320019605304000
F024508020612131719
B0245083321248S14756031EA002310024600806000
E024513STA
E024513ATS1012.0
LFLYA1 00222
B0245133321236S14756052EA002330024501406000
B0245183321220S14756090EA002440025200906000
F02452302061213171928
B0245233321213S14756125EA002560026200707000
B0245283321207S14756157EA002680027100707000
B0245333321204S14756196EA002810028600607000
B0245383321201S14756229EA003000030300507000
B0245433321204S14756261EA003250032600607000
B0245483321212S14756296EA003450034900607000
B0245533321230S14756329EA003580036900807000
B0245583321228S14756357EA003700038500607000
B0246033321215S14756383EA003710039200807000
B0246083321185S14756387EA003800040200807000
B0246133321145S14756364EA003910040800807000
B0246183321113S14756308EA003970041401007000
B0246233321106S14756239EA004100042301207000
B0246283321127S14756161EA004320044601007000
B0246333321149S14756085EA004580047000707000
B0246383321178S14756014EA004710048900807000
B0246433321222S14755955EA004880050800607000
B0246483321277S14755934EA005060052600907000
F0246530206121317192428
B0246533321314S14755958EA005240054400908000
B0246583321315S14755995EA005470056500808000
B0247033321296S14756022EA005550057900608000
B0247083321264S14756032EA005720059700608000
B0247133321230S14756012EA005920061600808000
B0247183321211S14755947EA006080063101108000
B0247233321216S14755869EA006240064701008000
B0247283321238S14755795EA006470067200608000
B0247333321267S14755726EA006620069100708000
B0247383321300S14755664EA006760070800508000
B0247433321332S14755601EA006890072400608000
B0247483321357S14755541EA007030073700608000
B0247533321380S14755480EA007120074800608000
B0247583321404S14755420EA007230075800508000
B0248033321434S14755359EA007270076500408000
B0248083321461S14755300EA007350076900408000
B0248133321487S14755235EA007350077100408000
B0248183321514S14755169EA007420077500408000
B0248233321545S14755106EA007540078200408000
B0248283321572S14755040EA007600079000508000
B0248333321604S14754976EA007710079900408000
B0248383321638S14754904EA007790080800408000
B0248433321675S14754837EA008000082400508000
B0248483321715S14754777EA008350085100508000
B0248533321759S14754733EA008560087800508000
B0248583321810S14754703EA008600089500508000
B0249033321850S14754706EA008620090400908000
B0249083321853S14754737EA008670090900708000
B0249133321841S14754753EA008720091300608000
B0249183321813S14754748EA008760091500608000
B0249233321780S14754741EA008840092200608000
B0249283321757S14754710EA009040093300908000
B0249333321782S14754650EA009100094401108000
B0249383321827S14754650EA009220095501308000
B0249433321816S14754676EA009350096700908000
B0249483321787S14754651EA009490098500808000
B0249533321790S14754593EA009540099400908000
B0249583321833S14754552EA009630100200908000
B0250033321873S14754564EA009750101200608000
B0250083321872S14754592EA009850101900508000
B0250133321845S14754598EA009960102900908000
B0250183321822S14754562EA010020103900808000
B0250233321830S14754504EA010050104600708000
B0250283321834S14754434EA010080105100808000
B0250333321871S14754392EA010190105901108000
B0250383321906S14754406EA010230106500908000
B0250433321888S14754427EA010290106801108000
B0250483321854S14754409EA010400107500708000
B0250533321830S14754366EA010390107900608000
B0250583321844S14754308EA010400108100808000
B0251033321890S14754281EA010410108300508000
B0251083321920S14754302EA010430108300908000
B0251113321915S14754332EA010570108800608000
B0251163321925S14754359EA010630109200608000
B0251213321969S14754354EA010680109501508000
B0251263321984S14754292EA010650109701208000
B0251313321956S14754245EA010730110301208000
B0251363321926S14754237EA010790111000708000
B0251413321901S14754250EA010820111300908000
B0251463321903S14754275EA010760111300808000
B0251513321945S14754278EA010680111000808000
B0251563321986S14754244EA010680110800708000
B0252013321996S14754188EA010690110700908000
B0252063321972S14754140EA010740110900908000
B0252113321942S14754109EA010740111200608000
B0252163321921S14754117EA010670110800708000
F025221020612131517192428
B0252213321926S14754149EA010600110500609000
B0252263321932S14754177EA010550110100509000
B0252313321954S14754201EA010520109800409000
B0252363321985S14754215EA010500109300409000
B0252413322019S14754215EA010440108800409000
B0252463322063S14754201EA010420108400309000
B0252513322103S14754182EA010430108100609000
B0252563322130S14754132EA010400107700509000
B0253013322126S14754075EA010340107200609000
B0253063322098S14754034EA010270106600509000
B0253113322069S14754008EA010290106300609000
B0253163322043S14753979EA010220105600609000
B0253213322017S14753965EA010140104900409000
B0253263321995S14753980EA010090104500409000
B0253313321991S14754006EA010090104300509000
B0253363322014S14754028EA010050104100609000
B0253413322050S14754037EA010000103700509000
B0253463322092S14754020EA010010103600509000
B0253513322125S14753977EA009980103400409000
B0253563322142S14753919EA009950103100609000
B0254013322135S14753865EA009890102600809000
B0254063322108S14753828EA009770101600609000
B0254113322077S14753803EA009730100900609000
B0254163322045S14753770EA009770100700709000
B0254213322014S14753732EA009680100400609000
B0254263321986S14753689EA009650099800409000
B0254313321957S14753655EA009680099700509000
B0254363321936S14753617EA009590099300609000
B0254413321920S14753576EA009510098600509000
B0254463321906S14753531EA009420097600509000
B0254513321890S14753484EA009210096200809000
B0254563321865S14753442EA009090094400609000
B0255013321846S14753401EA009030093400609000
B0255063321824S14753357EA008910092400609000
B0255113321793S14753323EA008900091800309000
B0255163321763S14753299EA008810091300309000
B0255213321733S14753296EA008640089700509000
B0255263321699S14753295EA008470087800509000
B0255313321684S14753328EA008400086501209000
B0255363321718S14753359EA008300085601009000
B0255413321759S14753368EA008160084600509000
B0255463321776S14753396EA008070083600409000
B0255513321774S14753424EA007960082500309000
B0255563321761S14753446EA007880081600409000
B0256013321755S14753474EA007740080600309000
B0256063321748S14753498EA007610079400309000
B0256113321744S14753524EA007440078000309000
B0256163321742S14753549EA007320076500309000
B0256213321744S14753574EA007160075100309000
B0256263321746S14753600EA007000073400309000
B0256313321743S14753632EA006820071500309000
B0256363321744S14753658EA006650069600309000
B0256413321745S14753687EA006500068100309000
B0256463321743S14753708EA006390066600309000
B0256513321743S14753731EA006290065400309000
B0256563321743S14753755EA006220064600309000
B0257013321750S14753777EA006120064000309000
B0257063321763S14753801EA006080063500409000
B0257113321783S14753824EA006020063000409000
B0257163321800S14753845EA006000062600409000
B0257213321818S14753867EA005960062200409000
B0257263321844S14753891EA006020062200509000
B0257313321857S14753911EA006140062500509000
B0257363321858S14753929EA006220062900609000
B0257413321897S14753931EA006260063400609000
F0257460206121315192428
B0257463321942S14753880EA006240063800808000
F025751020612131517192428
B0257513321969S14753810EA006320064500709000
B0257563321954S14753755EA006290064801009000
B0258013321934S14753764EA006300064900609000
B0258063321960S14753782EA006370065400909000
B0258113322014S14753761EA006430065900709000
B0258163322046S14753703EA006480066300709000
B0258213322038S14753642EA006410066401209000
B0258263322011S14753623EA006390066200609000
B0258313321997S14753631EA006400066200409000
B0258363321989S14753653EA006440066300409000
B0258413322010S14753673EA006500066701009000
B0258463322059S14753639EA006500066801209000
B0258513322057S14753576EA006520067201509000
B0258563322036S14753565EA006570067600709000
B0259013322022S14753578EA006620068100409000
B0259063322015S14753594EA006780068700409000
B0259113322042S14753611EA006760069300909000
B0259163322087S14753573EA006770069401009000
B0259213322092S14753508EA006740069400909000
B0259263322070S14753479EA006820070100709000
B0259313322063S14753497EA006920070600709000
B0259363322100S14753496EA006990071001009000
B0259413322136S14753439EA006980071500909000
B0259463322134S14753371EA007030072101009000
B0259513322111S14753356EA007140073101409000
B0259563322136S14753378EA007220074001209000
B0300013322180S14753324EA007280074501009000
B0300063322165S14753270EA007370075501509000
B0300113322148S14753282EA007490076601309000
B0300163322189S14753287EA007580077901109000
B0300213322228S14753228EA007670079001009000
B0300263322216S14753171EA007770080401109000
B0300313322193S14753171EA007820080901009000
B0300363322217S14753194EA007930081701209000
B0300413322259S14753146EA008000082301109000
B0300463322239S14753105EA008070082801309000
B0300513322247S14753137EA008150083301009000
B0300563322298S14753117EA008250083901009000
B0301013322302S14753056EA008260084801209000
B0301063322279S14753045EA008300085400709000
B0301113322280S14753065EA008350085800909000
B0301163322319S14753074EA008460086400509000
B0301213322364S14753044EA008510087100809000
B0301263322374S14752986EA008510087700909000
B0301313322350S14752945EA008570088300509000
B0301363322329S14752932EA008670088800609000
B0301413322345S14752955EA008730089200909000
B0301463322396S14752931EA008810090001109000
B0301513322415S14752867EA008900091100809000
B0301563322395S14752820EA009000092301109000
B0302013322376S14752818EA009030092800809000
B0302063322406S14752839EA009090093300909000
B0302113322457S14752810EA009170094001009000
F0302160206121315171928
B0302163322477S14752749EA009270095100908000
F030221020612131517192428
B0302213322461S14752696EA009340096200909000
B0302263322439S14752699EA009410096900709000
B0302313322459S14752722EA009500097600909000
B0302363322508S14752710EA009570098500409000
B0302413322554S14752671EA009670099400409000
B0302463322577S14752616EA009720100300609000
B0302513322565S14752569EA009750100900909000
B0302563322538S14752569EA009760100900709000
B0303013322544S14752600EA009840101000909000
B0303063322590S14752594EA009870101301209000
B0303113322630S14752547EA009940102100509000
B0303163322645S14752490EA010020103000609000
B0303213322625S14752447EA010140104100809000
B0303263322602S14752452EA010240105300809000
B0303313322634S14752476EA010240106000809000
B0303363322677S14752450EA010350106900609000
B0303413322689S14752390EA010490108001009000
B0303463322665S14752344EA010690109701109000
B0303513322653S14752358EA010790111201209000
B0303563322688S14752378EA010850112001109000
B0304013322733S14752346EA010990113100609000
B0304063322738S14752290EA011080114901209000
B0304113322703S14752269EA011230116300809000
B0304163322695S14752290EA011350117301309000
B0304213322737S14752304EA011450118100809000
B0304263322778S14752269EA011550119200809000
B0304313322783S14752210EA011620120100909000
B0304363322755S14752172EA011710121101109000
B0304413322734S14752187EA011860122400909000
B0304463322764S14752211EA011910123000909000
B0304513322805S14752191EA012020123900609000
B0304563322825S14752138EA012080124700609000
B0305013322812S14752084EA012160125700609000
B0305063322788S14752050EA012240126500609000
B0305113322773S14752060EA012330127100509000
B0305163322803S14752083EA012380127900909000
B0305213322845S14752061EA012490128800509000
B0305263322867S14752011EA012540129400709000
B0305313322865S14751956EA012530129600609000
F0305360206121315172428
B0305363322834S14751926EA012570129800508000
F030541020612131517192428
B0305413322805S14751913EA012650130500409000
B0305463322785S14751917EA012650130800409000
B0305513322774S14751939EA012630130800309000
B0305563322766S14751961EA012680131100309000
B0306013322760S14751988EA012780131400309000
B0306063322775S14752016EA012890131900709000
B0306113322821S14752000EA012940132601109000
B0306163322835S14751942EA013010133800909000
B0306213322812S14751900EA013140135301009000
B0306263322785S14751900EA013280136700609000
B0306313322787S14751930EA013330137600609000
B0306363322819S14751954EA013410138400409000
B0306413322865S14751948EA013460139100509000
B0306463322904S14751906EA013520139600409000
B0306513322929S14751850EA013560140100509000
B0306563322944S14751795EA013660140900509000
B0307013322931S14751746EA013660141500809000
B0307063322903S14751737EA013720141900509000
B0307113322901S14751766EA013800142400909000
B0307163322938S14751779EA013860143000809000
B0307213322979S14751752EA013880143100609000
B0307263322999S14751698EA013880143300709000
B0307313322994S14751644EA013920143800609000
B0307363322970S14751605EA013950144100809000
B0307413322941S14751588EA014000144500509000
B0307463322919S14751591EA014000144800409000
B0307513322923S14751620EA013980144601209000
B0307563322965S14751629EA013960144400709000
B0308013323003S14751593EA014000144500609000
B0308063323006S14751538EA014000144801109000
B0308113322978S14751501EA013960144500709000
B0308163322952S14751465EA013930144300609000
B0308213322923S14751427EA013900144100509000
B0308263322893S14751390EA013840143700509000
B0308313322865S14751356EA013800143300509000
B0308363322832S14751318EA013700142400509000
B0308413322800S14751276EA013630141400509000
B0308463322769S14751233EA013540140300409000
B0308513322750S14751181EA013420139200609000
F0308560206121315171924
B0308563322741S14751112EA013300138000808000
F030901020612131517192428
B0309013322715S14751063EA013230137200509000
B0309063322691S14751015EA013180136500409000
B0309113322665S14750961EA013030135500509000
B0309163322642S14750905EA012900134200509000
B0309213322624S14750849EA012860133400609000
B0309263322603S14750798EA012770132700509000
B0309313322585S14750745EA012700131800409000
B0309363322570S14750694EA012610130900509000
B0309413322553S14750645EA012550130100409000
B0309463322535S14750604EA012440129100409000
B0309513322512S14750564EA012350128100609000
B0309563322502S14750514EA012310127600409000
B0310013322492S14750462EA012260127100409000
B0310063322473S14750414EA012210126600409000
B0310113322446S14750383EA012340127001209000
B0310163322431S14750412EA012430127801309000
B0310213322461S14750440EA012490128401409000
B0310263322504S14750408EA012460128600909000
B0310313322506S14750356EA012470129001009000
B0310363322476S14750340EA012500129201209000
B0310413322456S14750360EA012570129600509000
B0310463322461S14750391EA012530129500409000
B0310513322480S14750426EA012350128900409000
B0310563322516S14750428EA012150127800909000
B0311013322547S14750369EA011910124801009000
B0311063322573S14750309EA011780122600609000
B0311113322618S14750272EA011730121600409000
B0311163322662S14750243EA011670120900509000
B0311213322703S14750206EA011700120800409000
B0311263322738S14750158EA011740120900609000
B0311313322777S14750154EA011910121901009000
B0311363322764S14750184EA012010123301209000
B0311413322734S14750149EA012110124801009000
B0311463322747S14750099EA012180125801009000
B0311513322793S14750081EA012330127400609000
B0311563322821S14750095EA012500129000609000
B0312013322800S14750116EA012620130400609000
B0312063322768S14750091EA012690131300809000
B0312113322771S14750034EA012760132000909000
B0312163322812S14750003EA012840132800709000
B0312213322852S14750016EA012970133800409000
B0312263322854S14750049EA013110135000509000
B0312313322846S14750082EA013290136900509000
B0312363322879S14750081EA013250137700709000
B0312413322894S14750023EA013280138001009000
B0312463322877S14749968EA013340138200909000
B0312513322845S14749956EA013450138900809000
B0312563322838S14749986EA013500139601209000
B0313013322872S14750001EA013610140400709000
B0313063322902S14749966EA013640141001009000
B0313113322892S14749914EA013730142000909000
B0313163322861S14749907EA013800142500709000
B0313213322846S14749941EA013840143001009000
B0313263322861S14749981EA013920143800509000
B0313313322883S14750014EA013890143700509000
B0313363322911S14750033EA013780143200609000
B0313413322954S14750000EA013670142100709000
B0313463322972S14749942EA013680141600709000
B0313513322952S14749892EA013680141501009000
B0313563322927S14749898EA013670141401409000
B0314013322949S14749920EA013650141300809000
B0314063322987S14749884EA013570140800609000
B0314113323008S14749833EA013550140400909000
B0314163323001S14749778EA013600140500809000
B0314213322968S14749758EA013550140301309000
B0314263322954S14749791EA013560140400909000
B0314313322988S14749806EA013460140100809000
B0314363323024S14749760EA013440139501009000
B0314413323017S14749698EA013420139001109000
B0314443323004S14749670EA013420138700809000
F0314450206121315171924
B0314453322998S14749661EA013400138700908000
F031446020612131517192428
B0314463322992S14749652EA013390138600509000
E031447TPC
B0314473322987S14749644EA013390138600409000
B0314483322983S14749636EA013390138600509000
B0314493322979S14749628EA013390138500509000
B0314503322974S14749621EA013390138500609000
B0314513322970S14749612EA013390138400409000
B0314523322965S14749604EA013370138400309000
B0314563322945S14749573EA013390138300409000
B0315013322918S14749535EA013320137900309000
B0315063322895S14749497EA013300137600609000
B0315113322872S14749453EA013270137300509000
B0315163322845S14749420EA013310137400409000
B0315213322822S14749386EA013300137500509000
B0315263322801S14749359EA013240137300509000
B0315313322784S14749317EA013150136700609000
B0315363322789S14749258EA013140136300709000
B0315413322792S14749198EA013160136200509000
B0315463322792S14749136EA013140136300509000
B0315513322790S14749075EA013260136700609000
B0315563322780S14749023EA013330137400709000
B0316013322753S14748985EA013300137500609000
B0316063322738S14748998EA013310137500509000
B0316113322764S14749017EA013330137600709000
B0316163322802S14749026EA013380137900409000
B0316213322843S14749034EA013430138700409000
B0316263322874S14749056EA013500139300409000
B0316313322902S14749087EA013470139600409000
B0316363322905S14749122EA013510139900309000
B0316413322902S14749155EA013540140100309000
B0316463322903S14749191EA013580140400209000
B0316513322911S14749228EA013550140500309000
F0316560206121517192428
B0316563322931S14749260EA013400139700508000
B0317013322968S14749278EA013270138200508000
B0317063323010S14749281EA013220137200408000
B0317113323039S14749238EA013080135800908000
B0317163323043S14749179EA012920134300708000
B0317213323024S14749133EA012790132800508000
B0317263323007S14749083EA012740131600708000
B0317313322997S14749036EA012690130900408000
B0317363322984S14748990EA012650130600408000
B0317413322979S14748937EA012680130600408000
F03174602061517192428
B0317463322968S14748891EA012640130500507000
F0317510206121517192428
B0317513322941S14748874EA012580130100408000
B0317563322910S14748860EA012520129700408000
B0318013322899S14748809EA012490129300608000
B0318063322908S14748748EA012480129300608000
B0318113322928S14748696EA012520129400508000
B0318163322967S14748654EA012520129200408000
F03182102061215172428
B0318213323011S14748618EA012620129800407000
F0318260206121517192428
B0318263323047S14748575EA012710130700508000
B0318313323049S14748516EA012720131301008000
B0318363323021S14748504EA012770131700808000
B0318413323025S14748531EA012760131800708000
B0318463323054S14748549EA012860132201108000
B0318513323098S14748528EA012870132601108000
B0318563323122S14748467EA012920133100608000
B0319013323124S14748403EA012950133700708000
B0319063323113S14748342EA012950133900608000
B0319113323093S14748292EA012930133700808000
B0319163323066S14748288EA012870133300608000
B0319213323051S14748310EA012860133100408000
B0319263323047S14748337EA012880133000508000
B0319313323050S14748360EA012950133400408000
B0319363323079S14748370EA013000133700808000
B0319413323121S14748336EA013010134000908000
B0319463323129S14748275EA013050134601208000
B0319513323107S14748233EA013010134500808000
B0319563323080S14748226EA013020134500708000
B0320013323068S14748257EA012950134200408000
F03200602061517192428
B0320063323067S14748290EA012980134200407000
F0320110206121517192428
B0320113323060S14748311EA013070134600408000
B0320163323051S14748326EA013170135200608000
B0320213323077S14748343EA013150135200608000
B0320263323123S14748318EA013090135100808000
B0320313323137S14748254EA013050134600908000
B0320363323113S14748214EA013020134501008000
B0320413323088S14748224EA013050134601208000
B0320463323096S14748253EA013050134900808000
B0320513323110S14748283EA013060135000508000
B0320563323122S14748314EA013080135300408000
B0321013323134S14748343EA013180135900408000
B0321063323145S14748373EA013320137200508000
B0321113323168S14748398EA013470138600508000
B0321163323218S14748391EA013570140000908000
B0321213323255S14748336EA013620140700808000
B0321263323245S14748285EA013650141101408000
B0321313323219S14748283EA013760141800608000
B0321363323222S14748307EA013860143001008000
B0321413323270S14748311EA013960144001008000
B0321463323306S14748255EA014040144801008000
B0321513323297S14748200EA014120145701308000
B0321563323272S14748190EA014190146500808000
B0322013323269S14748218EA014310147700908000
B0322063323307S14748237EA014410148601108000
B0322113323355S14748193EA014500149801308000
B0322163323357S14748131EA014600150801008000
B0322213323333S14748110EA014670151200908000
B0322263323341S14748137EA014770152201008000
B0322313323392S14748136EA014890153400708000
B0322363323426S14748080EA014960154300908000
B0322413323418S14748024EA014990154901008000
B0322463323395S14748020EA015030155301208000
B0322513323385S14748041EA015160156000508000
B0322563323397S14748067EA015280157000908000
B0323013323445S14748067EA015420158500708000
B0323063323482S14748014EA015480159901108000
B0323113323464S14747961EA015520160701708000
B0323163323451S14747966EA015680161801408000
B0323213323493S14747978EA015820163001708000
B0323263323529S14747925EA015860163901108000
B0323313323513S14747866EA015920164500908000
B0323363323490S14747856EA016020165201308000
B0323413323506S14747886EA016120166101408000
B0323463323556S14747872EA016260167200908000
B0323513323582S14747815EA016290168100908000
B0323563323569S14747750EA016290168500708000
B0324013323546S14747716EA016380169100408000
B0324063323527S14747724EA016400169500608000
B0324113323548S14747752EA016480169900708000
B0324163323602S14747739EA016550170800708000
B0324213323636S14747681EA016680172100608000
B0324263323631S14747624EA016710172900908000
B0324313323604S14747609EA016770173000508000
B0324363323601S14747628EA016830173400508000
B0324413323641S14747644EA016900174100508000
B0324463323696S14747623EA016970174800508000
B0324513323722S14747565EA017010175500908000
B0324563323699S14747520EA017010175600908000
B0325013323673S14747513EA017070176000808000
B0325063323669S14747529EA017140176500408000
B0325113323696S14747547EA017240177000708000
B0325163323746S14747522EA017330178100808000
B0325213323765S14747458EA017310178501008000
B0325263323751S14747408EA017330178900908000
F03253102061215192428
B0325313323727S14747392EA017320179000407000
F0325360206121517192428
B0325363323715S14747409EA017300178900408000
B0325413323728S14747434EA017390179300708000
B0325463323776S14747422EA017440179800608000
B0325513323802S14747360EA017510180700708000
B0325563323784S14747310EA017540181101108000
B0326013323758S14747303EA017540181301008000
B0326063323766S14747328EA017600181600608000
B0326113323810S14747332EA017650182100508000
B0326163323851S14747287EA017720182700508000
B0326213323846S14747221EA017660182700908000
B0326263323814S14747209EA017730182900908000
B0326313323830S14747238EA017750183401208000
B0326363323871S14747247EA017850184000808000
B0326413323898S14747192EA017890184501408000
B0326463323867S14747155EA017900184800708000
B0326513323861S14747175EA017940185100708000
B0326563323899S14747190EA017970185600908000
B0327013323945S14747164EA018000186000508000
B0327063323971S14747101EA018030186100608000
B0327113323969S14747035EA018030186200508000
B0327163323945S14746991EA018020186200608000
B0327213323919S14746986EA017990186000308000
B0327263323907S14747002EA018040186200308000
B0327313323927S14747023EA018050186400308000
B0327363323970S14747019EA018050186400308000
B0327413324012S14746975EA018060186600708000
B0327463324025S14746910EA018090186700608000
B0327513324007S14746853EA018080186700708000
B0327563323977S14746832EA018070186600408000
B0328013323966S14746846EA018070186500408000
B0328063323991S14746865EA018060186500508000
B0328113324038S14746854EA018050186400508000
B0328163324073S14746799EA018050186300508000
B0328213324070S14746734EA018010185900508000
B0328263324035S14746697EA017960185100508000
B0328313324007S14746693EA017960185000308000
B0328363323992S14746710EA017930184900308000
B0328413324011S14746729EA017930185000508000
B0328463324058S14746714EA017940185000308000
B0328513324092S14746656EA017910184700408000
B0328563324095S14746586EA017860184300408000
B0329013324079S14746525EA017840184000508000
B0329063324054S14746481EA017760183500608000
B0329113324025S14746472EA017630182500308000
B0329163324008S14746487EA017530181400308000
B0329213324028S14746507EA017470180700408000
B0329263324072S14746489EA017420180200408000
B0329313324103S14746434EA017420180000608000
B0329363324103S14746366EA017360179400408000
B0329413324087S14746302EA017230178400308000
B0329463324068S14746245EA017110177200308000
B0329513324055S14746184EA017000175900508000
B0329563324041S14746121EA016860174500308000
B0330013324025S14746061EA016770173300308000
B0330063324002S14746003EA016620171900308000
B0330113323981S14745946EA016530170700308000
B0330163323965S14745879EA016380169300308000
B0330213323948S14745816EA016340168500308000
B0330263323926S14745756EA016260167700308000
B0330313323906S14745694EA016200167100408000
B0330363323889S14745628EA016130166600308000
B0330413323867S14745563EA016060165900208000
B0330463323844S14745499EA015960165000408000
B0330513323819S14745436EA015850163900308000
B0330563323794S14745376EA015760162900308000
B0331013323777S14745311EA015650161800308000
B0331063323767S14745244EA015550160700308000
B0331113323753S14745178EA015440159600508000
B0331163323738S14745110EA015330158300308000
B0331213323722S14745045EA015230157300308000
B0331263323703S14744979EA015150156400508000
B0331313323685S14744915EA015090155800508000
B0331363323665S14744858EA015050155400308000
B0331413323645S14744801EA015000155000308000
B0331463323622S14744749EA014930154500208000
B0331513323598S14744695EA014820153600308000
B0331563323578S14744643EA014730152600308000
B0332013323565S14744582EA014590151000308000
B0332063323551S14744529EA014460149500308000
B0332113323528S14744477EA014300147900308000
B0332163323508S14744426EA014140146200208000
B0332213323486S14744378EA014000144700408000
B0332263323474S14744329EA013890143400508000
B0332313323463S14744275EA013790142300308000
B0332363323449S14744218EA013710141400408000
B0332413323430S14744163EA013620140600408000
B0332463323406S14744106EA013490139400308000
B0332513323386S14744051EA013380138200308000
B0332563323372S14743995EA013280137200308000
B0333013323362S14743938EA013210136200508000
B0333063323355S14743877EA013100135200308000
B0333113323346S14743823EA013100135100508000
B0333163323336S14743774EA013120135200308000
B0333213323314S14743735EA013140135400308000
B0333263323291S14743703EA013080135200308000
B0333313323262S14743677EA012980134600308000
F03333602061217192428
B0333363323231S14743648EA012850133600407000
B0333413323200S14743611EA012720132700307000
B0333463323165S14743586EA012570131600507000
B0333513323125S14743567EA012460130100507000
B0333563323087S14743545EA012410129100507000
B0334013323052S14743527EA012370128600307000
B0334063323018S14743505EA012300128000407000
B0334113322985S14743481EA012280127600507000
B0334163322955S14743445EA012200126900507000
B0334213322931S14743392EA012160126400407000
B0334263322912S14743330EA012190126400307000
B0334313322899S14743263EA012220126700407000
B0334363322893S14743196EA012320127100407000
B0334413322876S14743157EA012380127701007000
B0334463322869S14743176EA012390127801807000
B0334513322916S14743184EA012470128100707000
B0334563322961S14743140EA012500128401007000
B0335013322972S14743072EA012470128700707000
B0335063322970S14743005EA012450128800607000
B0335113322959S14742946EA012450128900407000
B0335163322932S14742915EA012440128800807000
B0335213322914S14742935EA012470129001207000
B0335263322952S14742953EA012450128900907000
B0335313322991S14742899EA012410128801307000
B0335363322986S14742836EA012400128600607000
B0335413322971S14742782EA012430128800507000
B0335463322958S14742738EA012470128900507000
B0335513322931S14742716EA012430128900807000
B0335563322918S14742732EA012410128701207000
B0336013322953S14742750EA012350128200907000
B0336063323001S14742718EA012290127700707000
B0336113323048S14742701EA012300127700807000
B0336163323083S14742724EA012280127501307000
B0336213323101S14742756EA012350127601007000
B0336263323137S14742763EA012310127700707000
B0336313323167S14742711EA012220127401007000
B0336363323152S14742663EA012220126901207000
B0336413323136S14742680EA012280126801707000
B0336463323177S14742685EA012270126700907000
B0336513323197S14742623EA012230126801007000
B0336563323168S14742583EA012280126901607000
F0337010206121719242528
B0337013323155S14742607EA012280127000708000
B0337063323161S14742643EA012290127100508000
B0337113323160S14742675EA012280127200408000
B0337163323161S14742699EA012340127400308000
B0337213323181S14742722EA012340127500508000
B0337263323177S14742737EA012330127500508000
B0337313323152S14742728EA012240127100308000
B0337363323128S14742682EA012160126500308000
B0337413323121S14742620EA012160126300308000
B0337463323123S14742556EA012180126400308000
B0337513323132S14742495EA012230126500508000
B0337563323174S14742466EA012200126301008000
B0338013323205S14742484EA012170126100408000
B0338063323211S14742510EA012210126300308000
B0338113323206S14742530EA012230126400408000
B0338163323178S14742521EA012220126500408000
B0338213323149S14742482EA012230126600408000
B0338263323129S14742434EA012250126600508000
B0338313323116S14742384EA012230126500408000
B0338363323099S14742334EA012230126500308000
B0338413323085S14742287EA012250126500308000
B0338463323070S14742239EA012200126100408000
B0338513323057S14742185EA012130125700408000
B0338563323044S14742129EA012140125600308000
B0339013323038S14742070EA012180125700308000
B0339063323045S14742005EA012130125600408000
B0339113323061S14741942EA012070125100408000
B0339163323074S14741878EA011960124300708000
B0339213323076S14741813EA011850123400308000
B0339263323065S14741753EA011730122200408000
B0339313323046S14741701EA011650121000308000
B0339363323019S14741661EA011520119800308000
B0339413322991S14741652EA011440118600708000
B0339463322990S14741669EA011340117300708000
B0339513323035S14741678EA011260116100708000
B0339563323082S14741676EA011180115400508000
B0340013323131S14741650EA011100114800408000
B0340063323179S14741612EA011080114500508000
B0340113323229S14741576EA011050114100508000
B0340163323273S14741559EA011130115000308000
B0340213323302S14741519EA011130114800408000
B0340263323289S14741468EA011100114500708000
B0340313323272S14741483EA011060114100608000
B0340363323297S14741504EA011050114000608000
B0340413323331S14741504EA011000113600508000
B0340463323365S14741467EA010960113200508000
B0340513323377S14741402EA010980113500708000
B0340563323372S14741334EA010960113600408000
B0341013323351S14741265EA010960113700408000
B0341063323327S14741200EA011010113900408000
B0341113323298S14741138EA011010114000308000
B0341163323265S14741079EA011020114000408000
B0341213323238S14741035EA011060114400508000
B0341263323223S14741048EA011080114500908000
B0341313323259S14741038EA011050114400808000
B0341363323273S14740970EA011090114901108000
B0341413323246S14740922EA011080115100608000
B0341463323215S14740909EA011040114500508000
B0341513323202S14740918EA010950114000608000
B0341563323226S14740939EA010880113300508000
B0342013323268S14740933EA010850112600508000
B0342063323308S14740900EA010860112200508000
B0342113323319S14740840EA010830112100508000
B0342163323290S14740796EA010800111800508000
B0342213323259S14740765EA010800111800408000
B0342263323235S14740760EA010680111101108000
B0342313323230S14740785EA010520109300508000
B0342363323221S14740806EA010470107901008000
B0342413323214S14740833EA010310106500408000
B0342463323195S14740858EA010260106100808000
B0342513323169S14740877EA010250105800508000
B0342563323138S14740886EA010150105500508000
B0343013323118S14740905EA010050104800408000
B0343063323116S14740931EA009970103700408000
B0343113323124S14740957EA009890102500408000
B0343163323136S14740984EA009830101500708000
B0343213323172S14740993EA009730100800608000
F03432602061217242528
B0343263323218S14740965EA009630100001007000
F0343310206121719242528
B0343313323240S14740903EA009570099200808000
B0343363323220S14740858EA009540098900908000
B0343413323204S14740877EA009500098701208000
B0343463323240S14740885EA009420097800908000
B0343513323282S14740835EA009300096700908000
B0343563323293S14740767EA009300096400508000
B0344013323300S14740700EA009300096100508000
B0344063323307S14740632EA009250095800408000
B0344113323315S14740564EA009210095400508000
B0344163323321S14740498EA009150095300408000
B0344213323314S14740433EA009080094400408000
B0344263323306S14740372EA008960093300308000
B0344313323302S14740309EA008870092300308000
B0344363323288S14740248EA008740091000308000
B0344413323262S14740201EA008620089600308000
B0344463323234S14740168EA008500088000308000
B0344513323204S14740139EA008410086800308000
B0344563323176S14740114EA008280085600308000
B0345013323143S14740093EA008130084300308000
B0345063323114S14740064EA007970083100408000
B0345113323086S14740022EA007890082000308000
B0345163323057S14739989EA007730080700408000
B0345213323033S14739952EA007640079600408000
B0345263323009S14739913EA007450077700308000
B0345313322974S14739889EA007310076000408000
B0345363322937S14739871EA007210074800308000
B0345413322903S14739845EA007170074000308000
B0345463322865S14739826EA007110073300308000
B0345513322827S14739809EA007080073100308000
B0345563322792S14739789EA006990072400408000
B0346013322761S14739762EA006860071400408000
B0346063322733S14739736EA006750070600308000
B0346113322696S14739719EA006580069500408000
B0346163322663S14739692EA006470067800408000
B0346213322634S14739656EA006320066400308000
B0346263322606S14739623EA006200065000308000
B0346313322575S14739588EA006060063800308000
B0346363322546S14739554EA005990062700308000
B0346413322510S14739526EA005930061400308000
B0346463322473S14739494EA005890060600408000
B0346513322436S14739455EA005910060300408000
B0346563322410S14739443EA006030060800908000
B0347013322440S14739470EA005960060800908000
B0347063322484S14739445EA006080061401008000
B0347113322458S14739412EA006010061601108000
B0347163322447S14739441EA006140062901408000
B0347213322483S14739460EA006160062800808000
B0347263322516S14739422EA006110063001008000
B0347313322519S14739367EA006110063001108000
B0347363322493S14739348EA006000062501308000
B0347413322480S14739385EA006000062400608000
B0347463322483S14739422EA006030062400508000
B0347513322506S14739451EA006050062400408000
B0347563322549S14739447EA006050062400408000
B0348013322573S14739400EA006050062300608000
B0348063322549S14739373EA005980061501108000
B0348113322532S14739400EA005940061501108000
B0348163322523S14739428EA005900061301008000
B0348213322516S14739454EA005870061000708000
B0348263322506S14739477EA005840060700608000
B0348313322501S14739508EA005840060700708000
B0348363322504S14739539EA005840060500508000
B0348413322543S14739546EA005760059700508000
B0348463322583S14739501EA005730059300508000
B0348513322605S14739445EA005720059000608000
B0348563322604S14739386EA005660058800308000
B0349013322592S14739342EA005670058700408000
B0349063322570S14739334EA005620058200508000
B0349113322567S14739361EA005590057700508000
B0349163322605S14739368EA005560057300708000
B0349213322637S14739322EA005530057000808000
B0349263322653S14739268EA005480056600508000
B0349313322655S14739217EA005410056100508000
B0349363322629S14739179EA005320055600508000
B0349413322599S14739148EA005290054900508000
B0349463322565S14739133EA005240054100408000
B0349513322525S14739115EA005220053700508000
B0349563322495S14739074EA005170053200808000
B0350013322477S14739021EA005120052700308000
B0350063322463S14738979EA005050052300308000
B0350113322431S14738954EA004990051700508000
B0350163322419S14738976EA005070051500808000
B0350213322458S14738975EA005070051500808000
B0350263322475S14738926EA005030051700708000
B0350313322447S14738897EA005060051800608000
B0350363322417S14738898EA005100052000908000
B0350413322432S14738932EA005160052200908000
B0350463322467S14738904EA005180052800908000
B0350513322438S14738880EA005220053201308000
B0350563322442S14738913EA005280053601008000
B0351013322487S14738890EA005280054200808000
B0351063322485S14738836EA005350054801208000
B0351113322462S14738852EA005380055101508000
B0351163322497S14738868EA005440055500908000
B0351213322519S14738818EA005480056301008000
B0351263322488S14738796EA005540056901108000
B0351313322491S14738824EA005580057200908000
B0351363322534S14738807EA005610057200708000
B0351413322551S14738756EA005670058000708000
B0351463322522S14738740EA005700058401408000
B0351513322530S14738772EA005710058500908000
B0351563322572S14738744EA005750058801108000
B0352013322570S14738690EA005810059500708000
B0352063322549S14738690EA005840059801408000
B0352113322576S14738709EA005860060000908000
B0352163322604S14738655EA005900060700708000
B0352213322588S14738613EA005990061301008000
B0352263322567S14738630EA006010061701508000
B0352313322604S14738639EA006040061900808000
B0352363322638S14738590EA006080062400808000
B0352413322642S14738533EA006170063300508000
B0352463322615S14738522EA006150063501208000
B0352513322614S14738552EA006190063500508000
B0352563322654S14738554EA006210063500608000
B0353013322681S14738507EA006250063900708000
B0353063322662S14738465EA006230063700908000
B0353113322639S14738475EA006220063701208000
B0353163322666S14738490EA006250063800808000
B0353213322695S14738444EA006270064100908000
F03532602061217192425
B0353263322677S14738396EA006200063900907000
B0353313322641S14738380EA006160063900507000
B0353363322621S14738386EA006120063401307000
B0353413322632S14738406EA005980061901107000
B0353463322678S14738390EA005910060500707000
B0353513322712S14738339EA005890060100807000
B0353563322733S14738274EA005810059600607000
B0354013322745S14738208EA005750059101007000
B0354063322757S14738144EA005720059000907000
B0354113322758S14738086EA005670058700507000
B0354163322740S14738079EA005510058001507000
B0354213322743S14738108EA005420057000807000
B0354263322732S14738126EA005340056100607000
B0354313322747S14738142EA005230055301407000
B0354363322796S14738113EA005090054400807000
B0354413322821S14738058EA005060053300707000
B0354463322827S14737995EA004920052400607000
B0354513322808S14737944EA004830051000607000
B0354563322784S14737905EA004660050000507000
B0355013322759S14737870EA004500048300507000
B0355063322730S14737839EA004310046800407000
B0355113322697S14737816EA004180044400507000
B0355163322665S14737798EA004060042600407000
B0355213322630S14737779EA003970041400607000
B0355263322603S14737762EA003780040200507000
B0355313322568S14737748EA003560038600607000
B0355363322538S14737727EA003470036500507000
B0355413322507S14737711EA003260035100407000
B0355463322477S14737703EA003130033600407000
B0355513322445S14737697EA003010031300707000
B0355563322413S14737667EA002920029800407000
B0356013322384S14737648EA002970029500607000
B0356063322378S14737673EA002920029300907000
B0356113322420S14737669EA002830029101307000
B0356163322414S14737631EA002780028801407000
B0356213322379S14737644EA002750028400907000
B0356263322360S14737671EA002710028001007000
B0356313322340S14737685EA002730027901107000
B0356363322322S14737655EA002630027600707000
B0356413322303S14737667EA002500026901307000
B0356463322328S14737714EA002380025400907000
B0356513322360S14737756EA002330024201107000
B0356563322358S14737789EA002290023201207000
B0357013322339S14737816EA002230022400807000
B0357063322330S14737829EA002240022201507000
B0357113322330S14737828EA002230022001307000
B0357163322330S14737829EA002230021900507000
B0357213322328S14737832EA002230021900507000
B0357263322328S14737832EA002230021900607000
B0357313322327S14737835EA002230021900507000
B0357363322327S14737839EA002230021900707000
B0357413322328S14737842EA002230021900307000
B0357463322329S14737846EA002230021900407000
B0357513322329S14737851EA002230021800407000
B0357563322329S14737855EA002230021800407000
B0358013322328S14737859EA002230021800407000
B0358063322325S14737861EA002230021800407000
B0358113322321S14737861EA002230021800407000
B0358163322317S14737862EA002230021900807000
B0358213322313S14737863EA002230021900407000
GFA41E4A45C459BE6553612DB73DDF6F9C0830ECAD0CC3BBBD81EF472033DBFA4
