AFLY00C6 0100750
HFDTE090116
HFFXA010
HFPLTPILOT:PETER_ BURKITT  
HFCM2CREW2:NKN
HFGTYGLIDERTYPE:RX5             
HFGIDGLIDERID:003             
HFDTM100GPSDATUM:WGS84
HFRFWFIRMWAREVERSION: 1.1.04 EN
HFRHWHARDWAREVERSION:1.00
HFFTYFRTYPE:Flytec ,Element
HFGPS:FASTRAX,IT430,48
HFPRSPRESSALTSENSOR:INTERSEMA,MS5401BM,12000
HFALGALTGPS:GEO
HFALPALTPRESSURE:ISA
HFTZNUTCOFFSET: 11.00h
I033638FXA3940SIU4143TAS
C090116015129090116002403
C3321648S14755920E TAKEOFF
C3321648S14755920E START  FORBE            00000000005000000000360000AREA
C3337108S14824538E TURN   GOOLOO           00000000000400000000360000AREA
C3319823S14808889E TURN   FORRES           00000000000400000000360000AREA
C3317535S14742651E TURN   GUNNIN           00000000000400000000360000AREA
C3321648S14755920E FINISH FORBE            00000000000400000000360000AREA
C3321648S14755920E LANDING
F02190902061213151719242830
B0219093321352S14756029EA001980024000510000
F021939020612131517192428
B0219393321352S14756029EA001980024000609000
F022009020612131517192428
B0220093321352S14756029EA001980024000609000
F022039020612131517192428
B0220393321352S14756029EA001980024000509000
F022109020612131517192428
B0221093321352S14756029EA001980024000609000
F022139020612131517192428
B0221393321352S14756029EA001980024000509000
F022209020612131517192428
B0222093321352S14756029EA001990024000609000
F022239020612131517192428
B0222393321352S14756029EA001980023900309000
F022309020612131517192428
B0223093321338S14756016EA001990024000409000
E022311STA
E022311ATS1018.0
LFLYA1 00239
B0223113321329S14756005EA001990024000409000
B0223163321298S14755972EA002070024300509000
B0223213321271S14755947EA002230025200709000
B0223263321245S14755915EA002330026500609000
B0223313321220S14755880EA002420027700509000
B0223363321212S14755837EA002550029400609000
B0223393321212S14755790EA002690031300709000
B0223443321218S14755748EA002760032400609000
B0223493321226S14755708EA002830033100609000
B0223543321235S14755672EA003000034200509000
B0223593321248S14755628EA003050034900609000
B0224043321258S14755589EA003140035700609000
B0224093321272S14755554EA003260036700509000
B0224143321287S14755506EA003400038100709000
B0224193321303S14755462EA003510039500709000
B0224243321324S14755423EA003690041400609000
B0224293321345S14755382EA003820043000509000
B0224343321358S14755343EA004020045100609000
B0224393321366S14755301EA004280048200709000
B0224443321378S14755260EA004520051000509000
B0224493321411S14755229EA004620052700409000
B0224543321459S14755219EA004770054100309000
B0224593321511S14755241EA004930055500409000
B0225043321554S14755283EA005050056700409000
B0225093321577S14755348EA005190058100409000
B0225143321572S14755421EA005340059400409000
B0225193321544S14755479EA005600061400509000
B0225243321497S14755529EA005890064600709000
B0225293321445S14755560EA006030066600609000
B0225343321394S14755578EA006360069300609000
B0225393321356S14755568EA006630072000509000
B0225443321332S14755540EA006860074600509000
B0225493321328S14755505EA007050077400609000
B0225543321357S14755469EA007230079700609000
B0225593321409S14755459EA007400081500609000
B0226043321463S14755476EA007510082500509000
B0226093321511S14755518EA007660084200309000
B0226143321540S14755577EA007870086500509000
B0226193321541S14755643EA008170089100409000
B0226243321534S14755707EA008370091500709000
B0226293321505S14755733EA008520093100709000
B0226343321493S14755708EA008590093800909000
B0226393321517S14755685EA008660094200409000
B0226443321546S14755667EA008730094700809000
B0226493321533S14755649EA008820095300709000
B0226543321505S14755668EA008780095400809000
B0226593321479S14755699EA008800095500609000
B0227043321456S14755742EA008840096000509000
B0227093321442S14755789EA008920096600609000
B0227143321449S14755845EA008980097200609000
B0227193321487S14755880EA009130098300809000
B0227243321511S14755862EA009220099400709000
B0227293321501S14755837EA009320100900609000
B0227343321477S14755846EA009440102000709000
B0227393321459S14755880EA009620103600609000
B0227443321450S14755931EA009730105300709000
B0227493321476S14755985EA009920107300609000
B0227543321504S14755978EA010150109600909000
B0227593321485S14755969EA010240111001209000
B0228043321475S14756022EA010390112400909000
B0228093321492S14756077EA010560114000709000
B0228143321522S14756107EA010710115700709000
B0228193321564S14756131EA010760116700509000
B0228243321596S14756117EA010970118200709000
B0228293321601S14756082EA011160120300609000
B0228343321575S14756086EA011320122300909000
B0228393321575S14756148EA011460124001309000
B0228443321620S14756176EA011710126100909000
B0228493321664S14756172EA011910128500409000
B0228543321701S14756151EA012140131300709000
B0228593321703S14756127EA012350133700709000
B0229043321678S14756141EA012490135500509000
B0229093321681S14756200EA012690137400709000
B0229143321723S14756246EA012890139400709000
B0229193321771S14756247EA013070141200709000
B0229243321786S14756216EA013230143100709000
B0229293321769S14756204EA013390144700709000
B0229343321747S14756228EA013560146400409000
B0229393321745S14756287EA013710148000909000
B0229443321779S14756346EA013870149600809000
B0229493321830S14756368EA014030151200509000
B0229543321863S14756350EA014210152900709000
B0229593321857S14756332EA014390155200709000
B0230043321835S14756342EA014570157200609000
B0230093321820S14756388EA014720158900509000
B0230143321832S14756449EA014900160500609000
B0230193321879S14756487EA015040162200909000
B0230243321906S14756465EA015190163601109000
B0230293321892S14756454EA015330165000809000
B0230343321871S14756476EA015460166400809000
B0230393321867S14756531EA015540167000709000
B0230443321893S14756599EA015650168000709000
B0230493321938S14756631EA015810169400509000
B0230543321973S14756615EA015860170500609000
B0230593321969S14756592EA015960171500809000
B0231043321950S14756597EA016080172300509000
B0231093321929S14756628EA016210173400609000
B0231143321924S14756680EA016340174700609000
B0231193321951S14756728EA016460176000609000
B0231243321991S14756725EA016480176900909000
B0231293321992S14756695EA016550177700809000
B0231343321971S14756686EA016730178900609000
B0231393321946S14756698EA016820180200509000
B0231443321920S14756721EA016920181500409000
B0231493321898S14756761EA016970182200609000
B0231543321896S14756812EA017080182800409000
B0231593321926S14756863EA017100183500709000
B0232043321966S14756865EA017180184100909000
B0232093321978S14756835EA017250184700609000
B0232143321960S14756812EA017310185300709000
B0232193321932S14756804EA017430186000409000
B0232243321908S14756795EA017660187900709000
B0232293321886S14756802EA017880190500409000
B0232343321873S14756859EA018070193101009000
B0232393321909S14756913EA018250195700909000
B0232443321949S14756903EA018420198001009000
B0232493321941S14756874EA018620200200509000
B0232543321915S14756878EA018860202400409000
B0232593321891S14756911EA019020204100509000
B0233043321886S14756968EA019200205800709000
B0233093321921S14757017EA019410207900809000
B0233143321965S14757027EA019580209600709000
B0233193321984S14756999EA019740211700709000
B0233243321973S14756975EA019920213700409000
B0233293321949S14756976EA020040215100709000
B0233343321919S14757001EA020320217700809000
B0233393321900S14757050EA020510219800609000
B0233443321916S14757114EA020710221700809000
B0233493321951S14757171EA020860223600909000
B0233543321995S14757181EA021010225200709000
B0233593322022S14757153EA021140226600709000
B0234043322016S14757121EA021350228700609000
B0234093321988S14757120EA021560230800409000
B0234143321967S14757162EA021720232100509000
B0234193321980S14757225EA021850233800909000
B0234243322022S14757263EA022010235400709000
B0234293322067S14757256EA022090236501009000
B0234343322081S14757213EA022250237900909000
B0234393322065S14757190EA022460239600709000
B0234443322034S14757202EA022660241600409000
B0234493322022S14757256EA022810243200409000
B0234543322044S14757308EA022990245000509000
B0234593322088S14757332EA023120246600709000
B0235043322120S14757301EA023200248000809000
B0235093322115S14757265EA023350249400609000
B0235143322088S14757246EA023490250900409000
B0235193322057S14757252EA023770253400609000
B0235243322028S14757285EA024000256200609000
B0235293322028S14757339EA024210258500609000
B0235343322069S14757372EA024310259700809000
B0235393322105S14757347EA024480261400909000
B0235443322102S14757306EA024660263300609000
B0235493322072S14757294EA024870265200809000
B0235543322041S14757308EA025070267400409000
B0235593322016S14757350EA025200268900609000
B0236043322003S14757401EA025380270500309000
B0236093322016S14757455EA025520271800409000
B0236143322053S14757492EA025660273300509000
B0236193322096S14757488EA025800274900509000
B0236243322119S14757454EA025970276600409000
B0236293322114S14757414EA026100278300509000
B0236343322091S14757384EA026240279900409000
B0236393322065S14757371EA026390281300409000
B0236443322030S14757385EA026480282100609000
B0236493322004S14757428EA026560282900609000
B0236543321997S14757480EA026650283600409000
B0236593322009S14757532EA026730284400509000
B0237043322045S14757573EA026820285300609000
B0237093322086S14757576EA026920286000309000
B0237143322114S14757544EA027010287000709000
B0237193322110S14757500EA027160288500309000
B0237243322085S14757473EA027240289700409000
B0237293322047S14757472EA027280290300309000
B0237343322012S14757486EA027330290800509000
B0237393321980S14757522EA027400291500409000
B0237443321963S14757576EA027450292000509000
B0237493321965S14757634EA027530292800509000
B0237543321983S14757682EA027570293300509000
B0237593322021S14757701EA027570293400409000
B0238043322054S14757680EA027560293200509000
B0238093322063S14757637EA027570293300309000
B0238143322061S14757595EA027630293800509000
B0238193322059S14757554EA027680294400509000
B0238243322055S14757507EA027770295100609000
B0238293322047S14757467EA028050297300609000
B0238343322029S14757432EA028240299700509000
B0238393321993S14757428EA028400301600409000
B0238443321962S14757463EA028510303400609000
B0238493321961S14757513EA028690305300509000
B0238543321985S14757558EA028880307100509000
B0238593322025S14757582EA029040309100309000
B0239043322063S14757580EA029220310700309000
B0239093322095S14757555EA029400312400609000
B0239143322111S14757512EA029510313600609000
B0239193322107S14757471EA029650315100509000
B0239243322087S14757442EA029780316300509000
B0239293322055S14757429EA029860317200409000
B0239343322019S14757438EA029940318100409000
B0239393321994S14757474EA030030319000509000
B0239443321997S14757524EA030150320000509000
B0239493322027S14757567EA030290321300509000
B0239543322071S14757588EA030410322800309000
B0239593322115S14757585EA030500323900309000
B0240043322150S14757558EA030560324500409000
B0240093322173S14757516EA030500324200609000
B0240143322176S14757471EA030480323900509000
B0240193322153S14757439EA030460323500509000
B0240243322115S14757429EA030360322700509000
B0240293322075S14757440EA030300322000309000
B0240343322044S14757470EA030270321600509000
B0240393322017S14757511EA030240321300409000
B0240443322004S14757556EA030340321900609000
B0240493322008S14757597EA030420322700609000
B0240543322044S14757629EA030410323200609000
B0240593322086S14757630EA030450323500309000
B0241043322117S14757604EA030550324000509000
B0241093322127S14757566EA030570324200409000
B0241143322110S14757529EA030420323500609000
B0241193322075S14757516EA030350322500409000
B0241243322036S14757526EA030270321600609000
B0241293322003S14757556EA030210320800509000
B0241343321979S14757595EA030230320600409000
B0241393321970S14757646EA030190320500509000
B0241443321985S14757691EA030250321100709000
B0241493322010S14757730EA030240321200709000
B0241543322049S14757765EA030210321100309000
B0241593322091S14757783EA030270321500509000
B0242043322132S14757774EA030330322000409000
B0242093322157S14757734EA030350322400709000
B0242143322154S14757694EA030290322000609000
B0242193322126S14757669EA030200321100409000
B0242243322089S14757674EA030110319900609000
B0242293322057S14757696EA030050319100509000
B0242343322024S14757715EA029970318500509000
B0242393322001S14757745EA029910317800509000
B0242443321984S14757797EA029870317500509000
B0242493321964S14757847EA029800316900609000
B0242543321959S14757895EA029870317100509000
B0242593321972S14757944EA029880317400509000
B0243043321996S14757987EA029890317500309000
B0243093322023S14758029EA029810317300609000
B0243143322049S14758086EA029770316800609000
B0243193322080S14758133EA029800316700509000
B0243243322120S14758170EA029790316600309000
B0243293322164S14758181EA029850317200509000
B0243343322203S14758173EA029910317700309000
B0243393322232S14758149EA029960318100509000
B0243443322250S14758110EA029920318100509000
B0243493322250S14758065EA029930318200509000
B0243543322232S14758026EA029990318800409000
B0243593322205S14757994EA030050319300309000
B0244043322169S14757973EA030070319600309000
B0244093322128S14757969EA030060319400209000
B0244143322086S14757981EA030040319200309000
B0244193322051S14758008EA030010318700209000
B0244243322032S14758052EA029960318300409000
B0244293322039S14758105EA029910317700309000
B0244343322062S14758149EA029830317100609000
B0244393322103S14758183EA029730316200409000
B0244443322143S14758206EA029810316500309000
B0244493322182S14758222EA029790316400309000
B0244543322222S14758250EA029820316900309000
B0244593322264S14758261EA029890317600309000
B0245043322298S14758253EA030020318700309000
B0245093322321S14758225EA030110319700509000
B0245143322311S14758187EA030210320900509000
B0245193322280S14758161EA030290321700409000
B0245243322239S14758169EA030290321800409000
B0245293322211S14758209EA030290321700609000
B0245343322204S14758265EA030320322100309000
B0245393322214S14758319EA030390322600309000
B0245443322226S14758373EA030410322900509000
B0245493322242S14758426EA030430323200609000
B0245543322271S14758474EA030410323200509000
B0245593322312S14758511EA030400323300609000
B0246043322350S14758546EA030410323200309000
B0246093322392S14758571EA030440323400309000
B0246143322433S14758570EA030430323300209000
B0246193322466S14758544EA030420323200509000
B0246243322474S14758513EA030570324100609000
B0246293322461S14758482EA030650325000309000
B0246343322432S14758469EA030700325600309000
B0246393322392S14758480EA030700325900309000
B0246443322363S14758514EA030730325900609000
B0246493322360S14758572EA030590324700409000
B0246543322382S14758631EA030540323900609000
B0246593322403S14758684EA030510323600309000
B0247043322424S14758741EA030450323200309000
B0247093322449S14758795EA030420322800509000
B0247143322475S14758844EA030360322300509000
B0247193322504S14758893EA030250321300509000
B0247243322532S14758946EA030220320900609000
B0247263322543S14758966EA030210320700509000
B0247273322549S14758976EA030200320500509000
B0247283322556S14758985EA030190320400409000
B0247293322562S14758995EA030180320400509000
B0247303322569S14759005EA030170320300509000
B0247313322576S14759015EA030160320200509000
B0247323322583S14759024EA030150320100509000
B0247333322590S14759034EA030140320000509000
B0247343322597S14759043EA030130319900509000
B0247393322637S14759086EA030080319400309000
B0247443322673S14759134EA030100319500509000
B0247493322703S14759185EA030060319300409000
B0247543322729S14759237EA030040319000509000
B0247593322756S14759290EA029900318100609000
B0248043322786S14759342EA029830317100509000
B0248093322823S14759391EA029630315300509000
B0248143322856S14759444EA029520314000409000
B0248193322883S14759502EA029450313000509000
B0248243322910S14759560EA029380312100409000
B0248293322940S14759613EA029230310700509000
B0248343322977S14759663EA029110309300509000
B0248393323017S14759714EA028970307900309000
B0248443323059S14759761EA028920307000309000
B0248493323098S14759812EA028800305800509000
B0248543323132S14759869EA028750305400609000
B0248593323168S14759921EA028630304300409000
B0249043323206S14759975EA028500303100609000
B0249093323240S14800036EA028390301900409000
B0249143323274S14800101EA028290300900509000
B0249193323307S14800163EA028210300000509000
B0249243323345S14800215EA028120299100509000
B0249293323387S14800264EA028110298900409000
B0249343323430S14800311EA028140299100509000
B0249393323471S14800360EA028200299600409000
B0249443323515S14800408EA028250300200509000
B0249493323559S14800454EA028210300400609000
B0249543323604S14800510EA028070299700309000
B0249593323649S14800562EA028090299000309000
B0250043323697S14800614EA028050298500309000
B0250093323744S14800662EA028070298500509000
B0250143323784S14800714EA028000298000209000
B0250193323826S14800769EA027950297600509000
B0250243323873S14800815EA027920297200209000
B0250293323919S14800869EA027890296900209000
B0250343323956S14800927EA027870296600509000
B0250393323985S14800997EA027820296100409000
B0250443324018S14801065EA027820296100409000
B0250493324054S14801128EA027790295900509000
B0250543324089S14801193EA027800295900309000
B0250593324125S14801259EA027760295600509000
B0251043324161S14801323EA027720295100509000
B0251093324199S14801381EA027710294900509000
B0251143324233S14801444EA027630294200309000
B0251193324271S14801511EA027530293200509000
B0251243324316S14801576EA027370291800309000
B0251293324359S14801634EA027320290700309000
B0251343324402S14801691EA027160289200409000
B0251393324447S14801741EA027050287700609000
B0251443324494S14801793EA026820286100309000
B0251493324536S14801843EA026660284200209000
B0251543324575S14801888EA026550282900209000
B0251593324612S14801931EA026390281200309000
B0252043324648S14801978EA026190279200309000
F0252090206121517192428
B0252093324686S14802029EA025990276900308000
B0252143324725S14802089EA025810274800608000
B0252193324767S14802143EA025800274300308000
B0252243324803S14802203EA025790274400508000
B0252293324837S14802268EA025830274700608000
B0252343324875S14802327EA025870275100508000
B0252393324914S14802387EA025850275200508000
B0252443324947S14802451EA025880275600608000
B0252493324981S14802505EA025950276200508000
B0252543325015S14802557EA025930276400508000
B0252593325052S14802604EA025920276300508000
B0253043325090S14802650EA025960276500308000
B0253093325131S14802691EA025930276400308000
B0253143325168S14802734EA025910276100508000
B0253193325202S14802777EA025850275700308000
B0253243325243S14802826EA025780275200608000
B0253293325279S14802876EA025810274900508000
B0253343325315S14802926EA025790274800308000
B0253393325353S14802968EA025800274700308000
B0253443325397S14803011EA025730274300508000
B0253493325435S14803064EA025720274100308000
B0253543325472S14803123EA025700274100508000
B0253593325511S14803180EA025760274400508000
B0254043325546S14803226EA025800274800308000
B0254093325587S14803274EA025700274500408000
B0254143325635S14803311EA025650273900408000
B0254193325676S14803355EA025620273400508000
B0254243325710S14803409EA025580272900308000
B0254293325749S14803459EA025470271800608000
B0254343325789S14803504EA025410270800308000
B0254393325830S14803550EA025330270100308000
B0254443325869S14803600EA025300269600308000
B0254493325906S14803653EA025220268800308000
B0254543325943S14803705EA025110268000308000
B0254593325978S14803760EA025040267200308000
B0255043326011S14803815EA025000266600308000
B0255093326045S14803865EA024950266000208000
B0255143326082S14803914EA024890265600508000
B0255193326121S14803961EA024870265400208000
B0255243326166S14804002EA024820265000308000
B0255293326209S14804041EA024770264400408000
B0255343326256S14804085EA024700264000308000
B0255393326302S14804130EA024780264200308000
B0255443326348S14804173EA024800264500208000
B0255493326392S14804217EA024850264900508000
B0255543326438S14804262EA024900265500308000
B0255593326476S14804317EA024920265900608000
B0256043326512S14804366EA024890265800308000
B0256093326557S14804399EA024840265500408000
B0256143326599S14804400EA024860265300608000
B0256193326632S14804376EA024950265800708000
B0256243326647S14804338EA024950266100708000
B0256293326638S14804305EA024950266200608000
B0256343326610S14804293EA024930265900708000
B0256393326576S14804319EA024870265300708000
B0256443326551S14804364EA024820264700608000
B0256493326532S14804415EA024890265100408000
B0256543326518S14804472EA024910265200408000
B0256593326512S14804536EA024920265300508000
B0257043326509S14804600EA024950265700608000
B0257093326517S14804664EA024980266000508000
B0257143326539S14804723EA024950265900408000
B0257193326560S14804788EA024900265700608000
B0257243326577S14804846EA024960266000608000
B0257293326608S14804884EA024990266400308000
B0257343326652S14804893EA025030267000308000
B0257393326693S14804875EA025150268100708000
B0257443326726S14804844EA025280269500708000
B0257493326770S14804843EA025330270300408000
B0257543326801S14804882EA025360270200608000
B0257593326800S14804937EA025380270500708000
B0258043326779S14804982EA025360270400508000
B0258093326748S14805004EA025320270200608000
B0258143326712S14805013EA025370270300608000
B0258193326675S14805010EA025460270900508000
B0258243326642S14804988EA025610271800408000
B0258293326637S14804955EA025750273000508000
B0258343326676S14804935EA025770273700508000
B0258393326720S14804971EA025880274500608000
B0258443326733S14805029EA026010276800408000
B0258493326718S14805072EA026190279100808000
B0258543326685S14805080EA026330280500708000
B0258593326664S14805051EA026470282400408000
B0259043326685S14805019EA026570283300708000
B0259093326732S14805022EA026630284100508000
B0259143326764S14805063EA026770285900408000
B0259193326764S14805113EA026930287800608000
B0259243326733S14805132EA027060288400608000
B0259293326702S14805113EA027230289500408000
B0259343326714S14805078EA027390291000708000
B0259393326758S14805070EA027430291500408000
B0259443326790S14805110EA027530293000708000
B0259493326792S14805161EA027690294700408000
B0259543326767S14805191EA027830296200408000
B0259593326736S14805165EA027830296600508000
B0300043326745S14805129EA028040297700908000
B0300093326790S14805120EA028030297600508000
B0300143326821S14805168EA028090298100808000
B0300193326811S14805220EA028300299900608000
B0300243326783S14805248EA028350300600708000
B0300293326744S14805233EA028330300900508000
B0300343326734S14805194EA028420301800708000
B0300393326764S14805171EA028440302100508000
B0300443326809S14805195EA028430301900408000
B0300493326825S14805244EA028490302800708000
B0300543326809S14805294EA028500303400708000
B0300593326775S14805320EA028540303500608000
B0301043326736S14805318EA028530303400308000
B0301093326706S14805296EA028540303500308000
B0301143326698S14805258EA028500303200608000
B0301193326724S14805232EA028530303200708000
B0301243326768S14805244EA028550303000408000
B0301293326800S14805291EA028530303100708000
B0301343326819S14805345EA028490303000508000
B0301393326837S14805403EA028450302600608000
B0301443326858S14805461EA028470302600608000
B0301493326880S14805513EA028620303500708000
B0301543326898S14805567EA028710304600608000
B0301593326885S14805619EA028840305700408000
B0302043326849S14805640EA028900306700608000
B0302093326824S14805619EA029030307700308000
B0302143326837S14805582EA029160309600608000
B0302193326875S14805582EA029300310900408000
B0302243326910S14805614EA029430312100608000
B0302293326915S14805671EA029490313100808000
B0302343326894S14805719EA029570313800808000
B0302393326860S14805747EA029600314300408000
B0302443326827S14805742EA029680315300408000
B0302493326818S14805711EA029780316400408000
B0302543326847S14805685EA029860317100408000
B0302593326882S14805705EA029960317600908000
B0303043326907S14805754EA029990318200608000
B0303093326924S14805805EA030030318700608000
B0303143326941S14805857EA030100319300408000
B0303193326963S14805910EA030120319600608000
B0303243326980S14805963EA030170320200608000
B0303293327000S14806012EA030220320700608000
B0303343327021S14806072EA030250321200608000
B0303393327040S14806134EA030270321400508000
B0303443327058S14806192EA030190320900408000
B0303493327077S14806263EA030080320400408000
B0303543327099S14806334EA030070319600608000
B0303593327128S14806398EA030110319501008000
B0304043327154S14806452EA030290320700708000
B0304093327186S14806502EA030430322400608000
B0304143327218S14806546EA030500323700608000
B0304193327248S14806601EA030500324100708000
B0304243327276S14806664EA030570324600608000
B0304293327306S14806725EA030660325400608000
B0304343327334S14806785EA030780326400508000
B0304393327362S14806838EA030890327500608000
B0304443327390S14806888EA030910328000308000
B0304493327420S14806949EA030890328100508000
B0304543327450S14807004EA030980328500608000
B0304593327482S14807060EA030870328000708000
B0305043327517S14807119EA030740326600608000
B0305093327551S14807179EA030680325700608000
B0305143327589S14807232EA030670325400708000
B0305193327629S14807280EA030730325600308000
B0305243327670S14807326EA030680325200308000
B0305293327707S14807386EA030650324900308000
B0305343327738S14807444EA030670325000508000
B0305393327767S14807507EA030600324500608000
B0305443327798S14807568EA030590324400608000
B0305493327832S14807625EA030610324400308000
B0305543327872S14807677EA030600324400608000
B0305593327907S14807733EA030580324200308000
B0306043327940S14807797EA030480323800608000
B0306093327974S14807855EA030410323100308000
B0306143328005S14807913EA030400322800208000
B0306193328034S14807972EA030380322400608000
B0306243328063S14808028EA030400322400308000
B0306293328090S14808085EA030330322200608000
B0306343328110S14808147EA030350322000608000
B0306393328134S14808207EA030320321700508000
B0306443328158S14808267EA030300321500508000
B0306493328188S14808326EA030270321300508000
B0306543328219S14808381EA030290321400508000
B0306593328251S14808441EA030210321000308000
B0307043328283S14808501EA030180320600308000
B0307093328318S14808557EA030150320200308000
B0307143328351S14808612EA030120319900608000
B0307193328383S14808670EA030080319400208000
B0307243328414S14808724EA030040318900308000
B0307293328447S14808780EA029950318100508000
B0307343328480S14808836EA029880317400208000
B0307393328511S14808898EA029780316400508000
B0307443328543S14808963EA029700315400508000
F03074902061217192428
B0307493328577S14809029EA029580314300507000
B0307543328610S14809095EA029490313200607000
B0307593328642S14809162EA029360312000607000
B0308043328672S14809227EA029240310700607000
B0308093328707S14809287EA029170309700707000
B0308143328742S14809345EA029060308700607000
B0308193328775S14809405EA028960307600607000
B0308243328809S14809464EA028870306700607000
B0308293328841S14809522EA028830306200507000
B0308343328879S14809576EA028780305600607000
B0308393328915S14809629EA028710305200607000
B0308443328947S14809683EA028680304800507000
B0308493328980S14809744EA028610304300607000
B0308543329011S14809800EA028590304000607000
B0308593329041S14809854EA028530303400607000
B0309043329074S14809907EA028450302800607000
B0309093329109S14809959EA028410302200507000
B0309143329143S14810011EA028360301800507000
B0309193329174S14810060EA028330301300507000
B0309243329207S14810115EA028260300800607000
B0309293329241S14810170EA028210300200707000
B0309343329274S14810230EA028170299800607000
B0309393329305S14810282EA028230299900607000
B0309443329346S14810320EA028220300000707000
B0309493329382S14810360EA028100299300507000
B0309543329410S14810417EA028050298800607000
B0309593329436S14810471EA028090298800707000
B0310043329455S14810531EA028120299100707000
B0310093329453S14810589EA028170299400807000
B0310143329426S14810630EA028160299300807000
B0310193329389S14810654EA028080298700807000
B0310243329351S14810688EA027990297800607000
B0310293329340S14810753EA027930296900907000
B0310343329373S14810807EA028030297201507000
B0310393329422S14810815EA028080297701107000
B0310443329469S14810822EA028070298100807000
B0310493329513S14810838EA028040297900907000
B0310543329554S14810874EA027960297500607000
B0310593329592S14810921EA027840296400707000
B0311043329631S14810972EA027740295100507000
B0311093329670S14811025EA027650293900707000
B0311143329711S14811078EA027500292500707000
B0311193329751S14811127EA027340290900507000
B0311243329789S14811178EA027210289500507000
B0311293329826S14811233EA027070288100407000
B0311343329859S14811293EA026950286900607000
B0311393329891S14811352EA026860285800407000
B0311443329924S14811411EA026780284800607000
B0311493329959S14811463EA026690283900607000
B0311543329996S14811514EA026590283000507000
B0311593330029S14811565EA026510282100607000
B0312043330060S14811622EA026410281100607000
B0312093330094S14811677EA026340280400607000
B0312143330129S14811728EA026270279700607000
B0312193330164S14811780EA026200279000607000
B0312243330201S14811830EA026100278100607000
B0312293330238S14811877EA026000277200607000
B0312343330276S14811925EA025900276100607000
B0312393330314S14811972EA025790275200507000
F0312440206121719242528
B0312443330348S14812019EA025690273900608000
B0312493330384S14812072EA025550272400608000
B0312543330421S14812125EA025450271300308000
B0312593330456S14812180EA025370270300508000
B0313043330493S14812235EA025260269300408000
B0313093330527S14812288EA025160268300608000
B0313143330562S14812341EA025030267200308000
B0313193330596S14812393EA024960266200508000
B0313243330632S14812444EA024850265100508000
B0313293330665S14812494EA024770264200608000
B0313343330698S14812551EA024640263100308000
B0313393330731S14812610EA024520261900208000
B0313443330764S14812664EA024450260900508000
B0313493330797S14812711EA024360259800608000
B0313543330830S14812761EA024220258500308000
B0313593330864S14812809EA024140257400608000
B0314043330906S14812851EA024010256200508000
B0314093330941S14812901EA023940255300608000
B0314143330973S14812950EA023840254400608000
B0314193331006S14813002EA023730253400508000
B0314243331040S14813057EA023620252300608000
B0314293331074S14813113EA023550251600608000
B0314343331107S14813167EA023500251000408000
B0314393331139S14813222EA023430250300608000
B0314443331180S14813272EA023330249300608000
B0314493331217S14813316EA023290248600308000
B0314543331257S14813353EA023210247800608000
B0314593331300S14813391EA023100246800408000
B0315043331341S14813427EA023010245900608000
B0315093331382S14813468EA022920244900508000
B0315143331421S14813516EA022820243900508000
B0315193331453S14813571EA022840243300408000
B0315243331480S14813629EA022740242600308000
B0315293331511S14813683EA022730242100708000
B0315343331542S14813739EA022610241400808000
B0315393331571S14813795EA022510240500308000
B0315443331599S14813857EA022430239800308000
B0315493331634S14813911EA022380239100708000
B0315543331674S14813956EA022410239200408000
B0315593331717S14813995EA022410239300308000
B0316043331757S14814048EA022350238900608000
B0316093331787S14814110EA022320238900308000
B0316143331795S14814170EA022360239300308000
B0316193331782S14814229EA022320239100408000
B0316243331760S14814275EA022300238800608000
B0316293331727S14814306EA022300238600808000
B0316343331694S14814331EA022360238800708000
B0316393331662S14814338EA022400239200408000
B0316443331649S14814316EA022490239700408000
B0316493331675S14814292EA022490240100508000
B0316543331722S14814317EA022600240800808000
B0316593331738S14814379EA022720242200708000
B0317043331707S14814410EA022730243000508000
B0317093331692S14814397EA022800243800508000
B0317143331705S14814368EA022840244300508000
B0317193331740S14814354EA022870244500508000
B0317243331779S14814355EA022990244800508000
B0317293331821S14814392EA022960245100708000
B0317343331825S14814456EA022960245200808000
B0317393331802S14814499EA022980245500408000
B0317443331771S14814522EA023050246200408000
B0317493331743S14814532EA023080246700508000
B0317543331721S14814525EA023150247100408000
B0317593331717S14814504EA023190247600308000
B0318043331721S14814481EA023250247900408000
B0318093331734S14814457EA023230248000608000
B0318143331770S14814450EA023180247800708000
B0318193331813S14814464EA023190247700708000
B0318243331859S14814488EA023150247500708000
B0318293331903S14814509EA023170247300908000
B0318343331950S14814532EA023140247200808000
B0318393331994S14814538EA023130247300808000
B0318443332035S14814539EA023120247100708000
B0318493332078S14814552EA023120247100808000
B0318543332117S14814592EA023070246700608000
B0318593332135S14814652EA022960245800308000
B0319043332120S14814712EA022820244300908000
B0319093332089S14814747EA022740243400708000
B0319143332060S14814759EA022670242400508000
B0319193332040S14814745EA022580241800308000
B0319243332039S14814721EA022570241500408000
B0319293332062S14814708EA022530241000408000
B0319343332107S14814720EA022430240100408000
B0319393332155S14814745EA022420239700708000
B0319443332195S14814782EA022420239600708000
B0319493332237S14814827EA022390239400708000
B0319543332276S14814875EA022420239400408000
B0319593332314S14814931EA022400239400708000
B0320043332350S14814988EA022310238900608000
B0320093332388S14815042EA022190237700508000
B0320143332420S14815097EA022130236900308000
B0320193332446S14815161EA022060236100308000
B0320243332475S14815223EA022030235600408000
B0320293332513S14815279EA022060235600408000
B0320343332556S14815326EA022070235700308000
B0320393332599S14815373EA022110235900708000
B0320443332637S14815427EA022100236000208000
B0320493332672S14815482EA022090236200408000
B0320543332705S14815536EA022100236400308000
B0320593332740S14815591EA022010235900308000
B0321043332771S14815645EA021920235300408000
B0321093332799S14815706EA021850234500408000
B0321143332829S14815759EA021850234000308000
B0321193332862S14815818EA021880233800308000
B0321243332898S14815874EA021850233600408000
B0321293332933S14815929EA021820233300608000
B0321343332968S14815987EA021670232100608000
B0321393332998S14816048EA021500230300408000
B0321443333028S14816114EA021250227600708000
B0321493333058S14816177EA021120225500708000
B0321543333089S14816240EA020920223400608000
B0321593333117S14816306EA020730221300308000
B0322043333147S14816371EA020520219300308000
B0322093333176S14816437EA020340217400308000
B0322143333205S14816500EA020170215600308000
B0322193333236S14816568EA020020213900408000
B0322243333267S14816623EA019910212500508000
B0322293333300S14816674EA019800211500408000
B0322343333336S14816725EA019650210400508000
B0322393333367S14816777EA019600209600708000
B0322443333397S14816833EA019510208700308000
B0322493333425S14816891EA019440207900308000
B0322543333454S14816947EA019400207400308000
B0322593333485S14817006EA019420207400308000
B0323043333523S14817055EA019430207700708000
B0323093333563S14817093EA019420207800408000
B0323143333602S14817140EA019360207400608000
B0323193333633S14817188EA019330207100608000
B0323243333650S14817241EA019440207500508000
B0323293333644S14817296EA019410207800308000
B0323343333611S14817327EA019460208500408000
B0323393333573S14817337EA019440208600508000
B0323443333545S14817336EA019320208100508000
B0323493333547S14817308EA019220206900908000
B0323543333585S14817304EA019050204001008000
B0323593333626S14817322EA018930202000608000
B0324043333666S14817348EA018860200800808000
B0324093333711S14817364EA018900201700708000
B0324143333752S14817363EA018980203200408000
B0324193333789S14817358EA019060204000408000
B0324243333835S14817371EA019050204100708000
B0324293333881S14817398EA019030204100508000
B0324343333909S14817447EA019050204300308000
B0324393333933S14817500EA019110204600608000
B0324443333953S14817552EA019170205000408000
B0324493333972S14817608EA019080204700408000
B0324543333991S14817663EA019100204400508000
B0324593334012S14817720EA019190204900908000
B0325043334028S14817777EA019210205600308000
B0325093333996S14817802EA019260206300708000
B0325143333964S14817789EA019400207900708000
B0325193333949S14817765EA019480209000508000
B0325243333977S14817742EA019440209100708000
B0325293334018S14817757EA019470209001008000
B0325343334041S14817808EA019500209200308000
B0325393334017S14817842EA019490209600708000
B0325443333987S14817834EA019620210800608000
B0325493333986S14817801EA019630211001108000
B0325543334018S14817789EA019680210900608000
B0325593334054S14817828EA019710211000608000
B0326043334066S14817883EA019750211100508000
B0326093334077S14817942EA019790211600508000
B0326143334089S14817997EA019890212600308000
B0326193334075S14818037EA019940213500808000
B0326243334042S14818056EA019870213200608000
B0326293334013S14818072EA019880213200308000
B0326343333990S14818065EA019810212900408000
B0326393333983S14818034EA019790212800408000
B0326443333995S14818005EA019830212800408000
B0326493334028S14817991EA019920213000608000
B0326543334057S14818031EA019960213500608000
B0326593334035S14818070EA020000213900608000
B0327043334008S14818086EA020040214400708000
B0327093333976S14818100EA020090214800308000
B0327143333951S14818098EA020100215100308000
B0327193333949S14818071EA019980214500308000
B0327243333955S14818045EA019900213700408000
B0327293333989S14818023EA019700212200908000
B0327343334008S14817993EA019660211100808000
B0327393334006S14817961EA019740211100408000
B0327443334011S14817933EA019700210900508000
B0327493334029S14817900EA019740210900408000
B0327543334066S14817878EA019740211000508000
B0327593334106S14817887EA019830211600808000
B0328043334125S14817932EA019870212200408000
B0328093334106S14817969EA019890212900708000
B0328143334076S14817962EA019930213600808000
B0328193334066S14817930EA019970213900308000
B0328243334073S14817894EA020050214200308000
B0328293334080S14817854EA020120214900508000
B0328343334072S14817819EA020210215800408000
B0328393334069S14817784EA020270216600308000
B0328443334101S14817760EA020290216900508000
B0328493334143S14817772EA020330217200608000
B0328543334168S14817813EA020360217200408000
B0328593334161S14817860EA020360217400308000
B0329043334133S14817869EA020380217800408000
B0329093334122S14817839EA020420218200308000
B0329143334134S14817801EA020470218400408000
B0329193334163S14817778EA020490218800608000
B0329243334204S14817799EA020420218401008000
B0329293334219S14817849EA020390217900508000
B0329343334196S14817890EA020350217801008000
B0329393334167S14817905EA020410218200508000
B0329443334137S14817921EA020460218800608000
B0329493334108S14817937EA020540219700408000
B0329543334083S14817928EA020610220500508000
B0329593334090S14817888EA020650221100508000
B0330043334127S14817883EA020750221701008000
B0330093334148S14817922EA020820222600308000
B0330143334135S14817964EA020880223500708000
B0330193334105S14817979EA020980224600408000
B0330243334081S14817967EA021060225700308000
B0330293334089S14817930EA021120226400408000
B0330343334128S14817920EA021250227100908000
B0330393334159S14817957EA021320227900408000
F03304402061217192425
B0330443334154S14818006EA021430229000807000
B0330493334132S14818033EA021530229900707000
B0330543334106S14818025EA021560230200707000
B0330593334082S14818004EA021570230300807000
B0331043334070S14817979EA021680230800807000
B0331093334084S14817945EA021680231100707000
B0331143334124S14817954EA021710231400607000
B0331193334145S14818003EA021720231800407000
B0331243334137S14818051EA021820232900707000
B0331293334122S14818084EA021920233900807000
B0331343334093S14818087EA021870234000407000
B0331393334078S14818059EA021860233900807000
B0331443334091S14818028EA021880233800507000
B0331493334130S14818023EA021890233600707000
B0331543334171S14818047EA021900233601007000
B0331593334191S14818092EA021980234100607000
B0332043334196S14818143EA022070234900607000
B0332093334203S14818198EA022090235400407000
B0332143334206S14818248EA022190236300607000
B0332193334194S14818290EA022220237000707000
B0332243334166S14818307EA022250237500407000
B0332293334139S14818297EA022320238000807000
B0332343334117S14818272EA022340238300807000
B0332393334107S14818241EA022370238700807000
B0332443334139S14818216EA022320238400907000
B0332493334182S14818223EA022360238601007000
B0332543334226S14818230EA022400238800507000
B0332593334269S14818231EA022460239300807000
B0333043334309S14818245EA022540240100907000
B0333093334337S14818287EA022600240700407000
B0333143334341S14818339EA022670241600407000
B0333193334319S14818378EA022710242200807000
B0333243334288S14818378EA022740242500407000
B0333293334281S14818345EA022810243100607000
B0333343334310S14818320EA022870243600707000
B0333393334349S14818317EA022970244301107000
B0333443334388S14818336EA023060245200807000
B0333493334410S14818380EA023140246200507000
B0333543334408S14818430EA023210247300507000
B0333593334386S14818465EA023250248000907000
B0334043334353S14818470EA023310248400407000
B0334093334342S14818437EA023340248901107000
B0334143334362S14818404EA023390249300607000
B0334193334390S14818379EA023490250000607000
B0334243334429S14818378EA023570250800907000
B0334293334459S14818418EA023620251300507000
B0334343334456S14818470EA023670252100907000
B0334393334429S14818500EA023770253400807000
B0334443334398S14818492EA023820254200807000
B0334493334393S14818458EA023870254601007000
B0334543334422S14818433EA023890254800607000
B0334593334463S14818434EA023930255100907000
B0335043334502S14818448EA023980255300607000
B0335093334539S14818474EA024060255800807000
B0335143334569S14818514EA024130256300507000
B0335193334576S14818567EA024160256800507000
B0335243334563S14818611EA024220257300907000
B0335293334533S14818631EA024190257600607000
B0335343334510S14818605EA024300258601107000
B0335393334519S14818566EA024360259300607000
B0335443334547S14818540EA024440259901007000
B0335493334587S14818554EA024480260300607000
B0335543334613S14818603EA024550260900507000
B0335593334624S14818656EA024590261500507000
B0336043334614S14818710EA024670262600807000
B0336093334593S14818750EA024790263900907000
B0336143334561S14818772EA024860265300507000
B0336193334535S14818759EA024910265900607000
B0336243334538S14818719EA024900265600707000
B0336293334558S14818687EA025030266000707000
B0336343334594S14818682EA025100266701007000
B0336393334616S14818728EA025160267200607000
B0336443334609S14818782EA025230268000807000
B0336493334589S14818823EA025340269400907000
B0336543334558S14818851EA025350270000407000
B0336593334523S14818848EA025420270600507000
B0337043334494S14818827EA025450271100807000
B0337093334489S14818793EA025550271600507000
F0337140205061217192425
B0337143334511S14818759EA025570271800408000
B0337193334549S14818756EA025580272100808000
B0337243334579S14818787EA025590272300408000
B0337293334589S14818841EA025570272300308000
B0337343334571S14818891EA025590272700708000
B0337393334543S14818935EA025690273400708000
B0337443334509S14818964EA025720273900308000
B0337493334479S14818965EA025770274300408000
B0337543334459S14818936EA025650273700708000
B0337593334474S14818898EA025580272600308000
B0338043334510S14818880EA025560272200508000
B0338093334552S14818882EA025600272400608000
B0338143334594S14818876EA025560272000408000
B0338193334634S14818891EA025520271800708000
B0338243334668S14818930EA025400270700608000
B0338293334694S14818979EA025330269800608000
B0338343334712S14819037EA025330269600308000
B0338393334734S14819095EA025450270400508000
B0338443334746S14819153EA025520271100608000
B0338493334724S14819194EA025590271900508000
B0338543334693S14819205EA025620272500508000
B0338593334667S14819195EA025720273600408000
B0339043334654S14819169EA025850275100508000
B0339093334670S14819141EA025960275900308000
B0339143334713S14819140EA026040277000808000
B0339193334754S14819171EA026120278000508000
B0339243334768S14819225EA026220278900408000
B0339293334755S14819280EA026300279600908000
B0339343334728S14819319EA026390280900808000
B0339393334699S14819331EA026500282000208000
B0339443334684S14819308EA026610283300708000
B0339493334690S14819275EA026700284300308000
B0339543334709S14819244EA026820285200308000
B0339593334736S14819222EA026860285900508000
B0340043334775S14819219EA026880286200608000
B0340093334816S14819243EA026880286100708000
B0340143334847S14819290EA026870286000408000
B0340193334870S14819344EA026840285600508000
B0340243334889S14819401EA026820285300408000
B0340293334902S14819460EA026850285300308000
B0340343334909S14819521EA026850285500308000
B0340393334923S14819580EA026860285700308000
B0340443334951S14819637EA026830285600408000
B0340493334982S14819688EA026840285500608000
B0340543335015S14819740EA026740284900608000
B0340593335049S14819795EA026650283900608000
B0341043335085S14819839EA026630283300408000
B0341093335122S14819883EA026540282300408000
B0341143335153S14819933EA026460281500408000
B0341193335183S14819984EA026380280600308000
B0341243335226S14820022EA026200278500708000
B0341293335268S14820063EA026100277000408000
B0341343335304S14820119EA025920275500608000
B0341393335334S14820180EA025810274300608000
B0341443335363S14820243EA025710273200508000
B0341493335394S14820302EA025630272400208000
B0341543335428S14820358EA025500271200308000
B0341593335461S14820416EA025370269800608000
B0342043335497S14820466EA025250268600208000
B0342093335531S14820517EA025140267400508000
B0342143335563S14820575EA025040266400208000
B0342193335592S14820636EA024940265600308000
B0342243335622S14820694EA024890265000308000
B0342293335653S14820747EA024830264500308000
B0342343335681S14820802EA024790263900308000
B0342393335705S14820865EA024700263300308000
B0342443335730S14820924EA024630262600308000
B0342493335755S14820987EA024550261800308000
B0342543335779S14821055EA024430260800408000
B0342593335801S14821117EA024340259700308000
B0343043335828S14821168EA024210258400308000
B0343093335867S14821207EA024140257500808000
B0343143335893S14821248EA024220258000408000
B0343193335915S14821288EA024340259300308000
B0343243335922S14821339EA024410260200308000
B0343293335899S14821383EA024490261000208000
B0343343335858S14821404EA024560261700308000
B0343393335819S14821401EA024650262600308000
B0343443335796S14821379EA024710263400608000
B0343493335793S14821345EA024730263600308000
B0343543335811S14821318EA024780263800408000
B0343593335848S14821312EA024810264200808000
B0344043335883S14821309EA024880264700408000
B0344093335913S14821320EA024960265500708000
B0344143335923S14821362EA025000265800408000
B0344193335904S14821408EA025070266400408000
B0344243335862S14821434EA025110267300608000
B0344293335821S14821429EA025150268000308000
B0344343335803S14821398EA025230269000708000
B0344393335812S14821362EA025300269400308000
B0344443335841S14821348EA025350269900708000
B0344493335866S14821374EA025340270000408000
B0344543335883S14821412EA025310269900408000
B0344593335901S14821452EA025340269800808000
B0345043335928S14821488EA025390269900808000
B0345093335953S14821529EA025340269900508000
B0345143335969S14821578EA025380270100508000
B0345193335966S14821634EA025460270500608000
B0345243335932S14821673EA025430270900508000
B0345293335891S14821670EA025440271000408000
B0345343335866S14821634EA025380270500708000
B0345393335871S14821599EA025420270500408000
B0345443335891S14821574EA025440270500408000
B0345493335921S14821565EA025520271200508000
B0345543335953S14821566EA025540271700508000
B0345593335985S14821586EA025610272300708000
B0346043336009S14821628EA025660273000508000
B0346093336023S14821676EA025720273600308000
B0346143336013S14821728EA025810274500608000
B0346193335975S14821736EA025880275100308000
B0346243335955S14821703EA025890275300708000
B0346293335965S14821666EA025900275500408000
B0346343335992S14821650EA025970275900608000
B0346393336026S14821643EA025920276000908000
B0346443336058S14821682EA025870275301108000
B0346493336071S14821740EA025900275100908000
B0346543336067S14821796EA025880274900508000
B0346593336052S14821855EA025960276000408000
B0347043336036S14821910EA026080277200608000
B0347093336002S14821944EA026140278200408000
B0347143335965S14821938EA026170278700408000
B0347193335955S14821902EA026160278500308000
B0347243335987S14821889EA026090278000708000
B0347293336020S14821900EA026200278400408000
B0347343336055S14821920EA026300279300708000
B0347393336080S14821951EA026420280400508000
B0347443336075S14821998EA026500281200708000
B0347493336037S14822017EA026490281600308000
B0347543336010S14821994EA026500281800708000
B0347593336003S14821959EA026600282500408000
B0348043336017S14821926EA026650283000308000
B0348093336040S14821906EA026650283200408000
B0348143336070S14821908EA026670283500608000
B0348193336101S14821925EA026640283400608000
B0348243336136S14821945EA026470282200708000
B0348293336165S14821975EA026470281600308000
B0348343336195S14822007EA026430281100608000
B0348393336228S14822048EA026420281000608000
B0348443336261S14822085EA026440281200308000
B0348493336293S14822128EA026540281700308000
B0348543336323S14822184EA026520281800308000
B0348593336352S14822239EA026600282500308000
B0349043336382S14822294EA026650283100208000
B0349093336412S14822354EA026740284000308000
B0349143336437S14822415EA026860285100408000
B0349193336463S14822477EA026990286600608000
B0349243336487S14822528EA027070287700708000
B0349293336518S14822581EA027060288000508000
B0349343336549S14822626EA027110288300408000
B0349393336568S14822677EA027100288200408000
B0349443336584S14822735EA027040287800408000
B0349493336604S14822790EA027020287400508000
B0349543336626S14822847EA026930286700408000
B0349593336652S14822907EA026890286000608000
B0350043336678S14822959EA026790284900308000
B0350093336702S14823017EA026690283900308000
B0350143336725S14823070EA026640283200608000
B0350193336751S14823118EA026510281900508000
B0350243336778S14823170EA026300279900408000
B0350293336804S14823227EA026140278100308000
B0350343336821S14823281EA026100277200608000
B0350393336834S14823339EA026000276200308000
B0350443336844S14823399EA025980275900608000
B0350493336858S14823454EA026030276300508000
B0350543336877S14823501EA026030276600608000
B0350593336895S14823545EA026040276800508000
B0351043336912S14823593EA026010276600308000
B0351093336928S14823647EA025990276400308000
B0351143336939S14823700EA026010276200308000
B0351193336955S14823757EA026000276200308000
B0351243336973S14823817EA026000276200408000
B0351293336994S14823873EA025980276000608000
B0351343337016S14823931EA025960276100408000
B0351393337034S14823982EA025900275700608000
B0351443337050S14824039EA025870275200608000
B0351493337063S14824098EA025840274900408000
B0351543337075S14824160EA025870274800308000
B0351593337086S14824224EA025890274900508000
B0352043337092S14824291EA025930275300508000
B0352093337100S14824359EA025870275100508000
B0352143337108S14824431EA025770274200508000
B0352193337125S14824497EA025660273300508000
B0352243337143S14824559EA025590272400508000
B0352293337146S14824626EA025490271500408000
B0352343337106S14824672EA025320270000408000
B0352393337060S14824673EA025240268900408000
B0352443337018S14824661EA025110267600308000
B0352493336982S14824639EA025020266500308000
B0352543336941S14824623EA024920265400208000
B0352593336896S14824609EA024770264000308000
B0353043336855S14824590EA024670262900308000
B0353093336822S14824572EA024580261900308000
B0353143336780S14824563EA024380260100308000
B0353193336737S14824564EA024330258900308000
B0353243336695S14824567EA024270258000308000
B0353293336656S14824551EA024190257400308000
B0353343336620S14824528EA024130256800308000
F035339020506121719242529
B0353393336582S14824507EA023980255700309000
B0353443336544S14824489EA023900254700309000
B0353493336507S14824476EA023840253900509000
B0353543336468S14824460EA023740253200309000
B0353593336429S14824445EA023700252500309000
B0354043336387S14824432EA023660251900309000
B0354093336346S14824422EA023570251200309000
B0354143336309S14824406EA023510250800409000
B0354193336277S14824384EA023390249600209000
B0354243336249S14824349EA023290248400309000
B0354293336214S14824317EA023210247500609000
B0354343336182S14824290EA023130246500309000
B0354393336147S14824261EA023030245700409000
B0354443336111S14824243EA022960244800309000
B0354493336074S14824220EA022890244200209000
B0354543336041S14824201EA022880244000309000
B0354593336010S14824186EA022830243700209000
B0355043335979S14824166EA022780243300209000
B0355093335948S14824146EA022730242700309000
B0355143335912S14824139EA022690242200209000
B0355193335870S14824134EA022600241400309000
B0355243335832S14824123EA022520240500309000
B0355293335791S14824113EA022430239400209000
B0355343335755S14824096EA022390238800309000
B0355393335723S14824072EA022330238200309000
B0355443335689S14824041EA022260237500609000
B0355493335658S14824011EA022230237100309000
B0355543335623S14823988EA022200236800209000
B0355593335589S14823963EA022150236400309000
B0356043335557S14823939EA022150236300209000
B0356093335525S14823912EA022050235600209000
B0356143335495S14823887EA021990234800309000
B0356193335465S14823866EA021900233800209000
B0356243335432S14823843EA021780232600209000
B0356293335401S14823820EA021700231500209000
B0356343335371S14823801EA021700231400609000
B0356393335343S14823787EA021680231500209000
B0356443335314S14823769EA021630231100209000
B0356493335286S14823747EA021570230500309000
B0356543335262S14823725EA021500229800209000
B0356593335235S14823701EA021400228800209000
B0357043335207S14823682EA021340228000309000
B0357093335180S14823662EA021240227100209000
B0357143335153S14823642EA021170226300209000
B0357193335123S14823620EA021060225300309000
B0357243335093S14823593EA020910223800309000
B0357293335066S14823567EA020780222200309000
B0357343335035S14823542EA020660220800209000
B0357393335005S14823519EA020550219500209000
B0357443334981S14823499EA020470218400309000
B0357493334960S14823470EA020270216600309000
B0357543334943S14823444EA020100214700209000
B0357593334921S14823417EA019850212100309000
B0358043334892S14823397EA019690210100409000
B0358093334863S14823379EA019550208600309000
B0358143334834S14823363EA019440207400309000
B0358193334808S14823339EA019260205700309000
B0358243334781S14823313EA019100204000209000
B0358293334755S14823287EA018980202700209000
B0358343334724S14823261EA018750200400309000
B0358393334697S14823235EA018640199200309000
B0358443334670S14823215EA018470197600309000
B0358493334637S14823187EA018220195200409000
B0358543334600S14823163EA017970192700309000
B0358593334564S14823140EA017800190400709000
B0359043334532S14823123EA017580188100309000
B0359093334504S14823108EA017430186100309000
B0359143334477S14823089EA017210183900309000
B0359193334448S14823073EA016990181500209000
B0359243334416S14823055EA016730178600209000
B0359293334383S14823041EA016510176100209000
B0359343334355S14823027EA016340174500309000
B0359393334328S14823006EA016210173300309000
B0359443334299S14822993EA016090172100309000
B0359493334271S14822974EA015900170600309000
B0359543334245S14822957EA015800169300209000
B0359593334219S14822937EA015640167800209000
B0400043334191S14822911EA015520166400309000
B0400093334165S14822894EA015500165600309000
B0400143334136S14822877EA015400164700309000
B0400193334113S14822852EA015340164400309000
B0400243334084S14822826EA015230163800309000
B0400293334056S14822802EA015220163600409000
B0400343334028S14822782EA015180163200209000
B0400393334005S14822760EA015170163100309000
B0400443333978S14822736EA015030162100209000
B0400493333953S14822713EA014940161000309000
B0400543333927S14822687EA014850159800209000
B0400593333902S14822662EA014760158700609000
B0401043333876S14822635EA014640157400209000
B0401093333847S14822612EA014550156200209000
B0401143333820S14822589EA014450155200209000
B0401193333792S14822562EA014350154300209000
B0401243333768S14822533EA014350154200309000
B0401293333743S14822507EA014320153900309000
B0401343333721S14822477EA014280153600209000
B0401393333703S14822444EA014290153600309000
B0401443333684S14822419EA014260153100309000
B0401493333659S14822396EA014290153500709000
B0401543333638S14822370EA014320153800209000
B0401593333617S14822346EA014340154000309000
B0402043333591S14822330EA014400154400609000
B0402093333559S14822329EA014540155400209000
B0402143333528S14822322EA014660156800309000
F0402190205061217242529
B0402193333529S14822292EA014770157800508000
B0402243333576S14822286EA014820157901008000
B0402293333602S14822336EA014930159500608000
B0402343333587S14822386EA015040161000808000
B0402393333557S14822404EA015190162400408000
B0402443333524S14822390EA015180162500508000
B0402493333516S14822353EA015290163200608000
B0402543333535S14822310EA015340164000608000
B0402593333570S14822288EA015420165300708000
B0403043333608S14822293EA015440165800708000
B0403093333643S14822335EA015400165600608000
B0403143333635S14822393EA015370165301008000
B0403193333603S14822425EA015420165400708000
B0403243333564S14822428EA015480165600908000
B0403293333531S14822410EA015520166100808000
B0403343333501S14822383EA015650167400408000
B0403393333468S14822365EA015850169000408000
B0403443333448S14822329EA015990170700608000
B0403493333475S14822309EA016160172300808000
B0403543333492S14822348EA016270173501008000
B0403593333465S14822381EA016400175301008000
B0404043333433S14822363EA016560177300708000
B0404093333427S14822319EA016660178900408000
B0404143333449S14822288EA016850180800708000
B0404193333480S14822304EA016970182300808000
B0404243333460S14822347EA017090183501208000
B0404293333422S14822345EA017190184300608000
B0404343333408S14822307EA017290185400708000
B0404393333433S14822286EA017350185800808000
B0404443333459S14822321EA017450186301008000
B0404493333439S14822362EA017590188200508000
B0404543333404S14822371EA017680189200408000
B0404593333380S14822347EA017750189800608000
B0405043333394S14822318EA017770190000608000
B0405093333430S14822318EA017800190500708000
B0405143333455S14822355EA017910191700308000
B0405193333454S14822405EA017980192700708000
B0405243333425S14822434EA018100193500408000
B0405293333398S14822420EA018220194700508000
B0405343333405S14822387EA018240194900608000
B0405393333441S14822380EA018270195500808000
B0405443333480S14822399EA018380196400708000
B0405493333503S14822437EA018490197400508000
B0405543333474S14822474EA018530198000808000
B0405593333446S14822461EA018630199000508000
B0406043333410S14822452EA018580199200708000
B0406093333379S14822444EA018770200200508000
B0406143333378S14822410EA018720200500808000
B0406193333418S14822396EA018820201101008000
B0406243333454S14822430EA018800200700608000
B0406293333462S14822489EA018820201100408000
B0406343333443S14822542EA018890201800408000
B0406393333407S14822570EA019060203300708000
B0406443333373S14822580EA019200204800408000
B0406493333345S14822564EA019190205700608000
B0406543333353S14822528EA019280205900808000
B0406593333392S14822521EA019270206000708000
B0407043333426S14822560EA019280206200308000
B0407093333440S14822613EA019390206700608000
B0407143333427S14822665EA019480207900608000
B0407193333393S14822695EA019530208700808000
B0407243333365S14822687EA019630209600308000
B0407293333363S14822649EA019690210800508000
B0407343333397S14822627EA019770211400608000
B0407393333440S14822649EA019810212000308000
B0407443333459S14822696EA019940212900408000
B0407493333444S14822746EA019950213100708000
B0407543333414S14822777EA020010213500708000
B0407593333380S14822801EA020080214200308000
B0408043333344S14822812EA020150214900608000
B0408093333310S14822818EA020270215900808000
B0408143333283S14822805EA020300216500608000
B0408193333284S14822770EA020290216400508000
B0408243333306S14822743EA020330216500608000
B0408293333335S14822719EA020270216400308000
B0408343333370S14822708EA020230215900508000
B0408393333411S14822733EA020200215700308000
B0408443333434S14822780EA020240216200408000
B0408493333434S14822831EA020330217100508000
B0408543333421S14822877EA020450218300408000
B0408593333389S14822898EA020500219000508000
B0409043333368S14822875EA020580219600408000
B0409093333374S14822840EA020600219700408000
B0409143333402S14822821EA020660220300708000
B0409193333438S14822849EA020670220600508000
B0409243333444S14822895EA020770221400708000
B0409293333416S14822929EA020820221900408000
B0409343333388S14822918EA020870222400408000
B0409393333383S14822887EA020880222700408000
B0409443333419S14822876EA020890222700708000
B0409493333456S14822904EA020930223000408000
B0409543333482S14822950EA020990223600408000
B0409593333504S14822994EA021070224400408000
B0410043333530S14823038EA021090224900308000
B0410093333542S14823086EA021150225600708000
B0410143333519S14823120EA021230226700408000
B0410193333497S14823098EA021260226800908000
B0410243333516S14823064EA021270226700508000
B0410293333554S14823069EA021320227600508000
B0410343333575S14823114EA021360228100508000
B0410393333558S14823156EA021430228500508000
B0410443333526S14823149EA021480228900508000
B0410493333524S14823109EA021480229200808000
B0410543333537S14823071EA021490229400408000
B0410593333556S14823034EA021520229700708000
B0411043333575S14823000EA021590230200408000
B0411093333590S14822961EA021580230100508000
B0411143333602S14822924EA021570229900608000
B0411193333621S14822887EA021520229600708000
B0411243333637S14822852EA021560229700408000
B0411293333641S14822816EA021610230000608000
B0411343333657S14822780EA021590230200408000
B0411393333676S14822751EA021650230600308000
B0411443333702S14822731EA021680230900608000
B0411493333742S14822747EA021680231100608000
B0411543333763S14822799EA021740231400508000
B0411593333755S14822854EA021760232000808000
B0412043333728S14822886EA021770232000508000
B0412093333695S14822888EA021810232300308000
B0412143333670S14822872EA021800232400308000
B0412193333643S14822859EA021810232500308000
F04122402050612242529
B0412243333610S14822856EA021800232300707000
B0412293333575S14822851EA021820232400607000
B0412343333539S14822842EA021820232200707000
B0412393333499S14822834EA021660231100807000
B0412443333461S14822814EA021440229000707000
B0412493333428S14822794EA021280227100507000
B0412543333395S14822765EA021140225500707000
B0412593333364S14822740EA021100224800707000
B0413043333335S14822711EA021000223900607000
B0413093333305S14822681EA020910223200707000
B0413143333274S14822661EA020840222400807000
B0413193333245S14822645EA020800221600607000
B0413243333214S14822628EA020710220800607000
B0413293333186S14822614EA020590219700707000
B0413343333160S14822592EA020370217700607000
B0413393333133S14822574EA020130215100807000
B0413443333103S14822556EA019900212200707000
B0413493333075S14822534EA019660209400507000
B0413543333051S14822513EA019470207100707000
B0413593333025S14822491EA019250205000507000
B0414043332998S14822472EA019060202900607000
B0414093332971S14822454EA018880200900607000
B0414143332941S14822438EA018660199000507000
B0414193332915S14822428EA018490197200607000
B0414243332889S14822405EA018290195400707000
B0414293332866S14822384EA018170194000707000
B0414343332843S14822362EA018090192900607000
B0414393332816S14822345EA017980191800507000
B0414443332791S14822327EA017840190500307000
B0414493332760S14822307EA017680188800507000
B0414543332729S14822282EA017530187100607000
B0414593332695S14822257EA017360185300707000
B0415043332666S14822236EA017330184500607000
B0415093332634S14822218EA017140183300807000
B0415143332604S14822194EA016980181900607000
B0415193332567S14822183EA016900180700907000
B0415243332535S14822174EA016930180500807000
B0415293332500S14822167EA017010181200707000
B0415343332467S14822163EA017030181600807000
B0415393332451S14822134EA016950181200507000
B0415443332440S14822103EA016930181000407000
B0415493332431S14822073EA016930181100407000
B0415543332421S14822048EA016940181200707000
B0415593332409S14822019EA016930181200607000
B0416043332388S14821997EA017010181800707000
B0416093332366S14821974EA016960181800807000
B0416143332355S14821951EA016990181900407000
B0416193332338S14821934EA016960181600707000
B0416243332311S14821921EA017000181800707000
B0416293332280S14821916EA017100182500707000
B0416343332246S14821905EA017140183100707000
B0416393332208S14821909EA017210184000607000
B0416443332178S14821904EA017290184800707000
B0416493332166S14821880EA017350185400307000
B0416543332192S14821861EA017420186000807000
B0416593332231S14821885EA017430186501007000
B0417043332236S14821943EA017550187001107000
B0417093332205S14821969EA017550187200907000
B0417143332182S14821953EA017610187601007000
B0417193332189S14821922EA017650188100507000
B0417243332219S14821903EA017750188900407000
B0417293332260S14821897EA017810189600807000
B0417343332313S14821937EA017830190300707000
B0417393332327S14822000EA017960191601107000
B0417443332305S14822041EA018000192301107000
B0417493332277S14822040EA018030192600807000
B0417543332264S14822012EA018070193200807000
B0417593332259S14821987EA018180194300407000
B0418043332259S14821971EA018300195400407000
B0418093332278S14821951EA018250195400607000
B0418143332318S14821944EA018170194701107000
B0418193332359S14821935EA018080193700607000
B0418243332402S14821932EA017980192400807000
B0418293332452S14821962EA017880190900507000
B0418343332479S14822022EA017830189701107000
B0418393332468S14822081EA017720189201207000
B0418443332450S14822099EA017750189500907000
B0418493332446S14822089EA017770189700707000
B0418543332461S14822065EA017730189400707000
B0418593332475S14822038EA017650188800807000
B0419043332471S14822006EA017550187800707000
B0419093332457S14821987EA017470186900707000
B0419143332439S14821962EA017280185200807000
B0419193332420S14821945EA017150183500607000
B0419243332399S14821938EA017080182400607000
B0419293332380S14821923EA017020181800907000
B0419343332362S14821905EA017030181900807000
B0419393332343S14821889EA017010181900807000
B0419443332320S14821865EA016930181300707000
B0419493332304S14821842EA016890180900407000
B0419543332287S14821821EA016790180000407000
B0419593332264S14821800EA016710179100807000
B0420043332239S14821787EA016610178000707000
B0420093332214S14821770EA016520176900407000
B0420143332195S14821746EA016410175800607000
B0420193332173S14821717EA016300174700707000
B0420243332152S14821696EA016270174000607000
B0420293332130S14821670EA016170173200307000
B0420343332104S14821646EA016100172300607000
B0420393332073S14821627EA016010171400707000
B0420443332042S14821604EA015940170800707000
B0420493332017S14821583EA015890170200707000
B0420543331982S14821561EA015790169400707000
B0420593331953S14821533EA015730168700707000
B0421043331924S14821500EA015690168200607000
B0421093331902S14821462EA015660167900507000
B0421143331886S14821423EA015660167600507000
B0421193331874S14821380EA015630167400507000
B0421243331870S14821341EA015680167600807000
B0421293331865S14821292EA015670167700407000
B0421343331846S14821240EA015870168401107000
B0421393331825S14821207EA016070169900807000
B0421443331828S14821168EA016130171300707000
B0421493331856S14821150EA016230172900707000
B0421543331886S14821174EA016300173900607000
B0421593331872S14821214EA016420175301107000
B0422043331836S14821214EA016590176801107000
B0422093331827S14821178EA016720178401007000
B0422143331850S14821146EA016820179701007000
B0422193331886S14821152EA016880180600507000
B0422243331895S14821188EA016920181101307000
B0422293331876S14821231EA017020182201007000
B0422343331844S14821255EA017240184200807000
B0422393331814S14821231EA017410186101207000
B0422443331829S14821199EA017540187001207000
B0422493331868S14821198EA017580187400807000
B0422543331904S14821203EA017730189000807000
B0422593331928S14821234EA017880190600607000
B0423043331907S14821272EA018020192301007000
B0423093331869S14821272EA018160194000707000
B0423143331841S14821243EA018380196300407000
B0423193331826S14821205EA018520197600707000
B0423243331855S14821181EA018490197300707000
B0423293331863S14821225EA018500197401407000
B0423343331819S14821241EA018670198301207000
B0423393331778S14821221EA018710199001007000
B0423443331744S14821191EA018680199100807000
B0423493331714S14821167EA018710199400807000
B0423543331692S14821136EA018670199400807000
B0423593331661S14821116EA018610198900807000
B0424043331627S14821099EA018560198300507000
B0424093331593S14821087EA018480197500607000
B0424143331562S14821101EA018330196300907000
B0424193331544S14821142EA018180194500807000
B0424243331553S14821188EA018040192701007000
B0424293331581S14821214EA017970191800907000
B0424343331617S14821222EA017860190600707000
B0424393331652S14821216EA017800189900807000
B0424443331686S14821198EA017700189200707000
B0424493331711S14821164EA017610188300807000
B0424543331720S14821125EA017550187200907000
B0424593331726S14821086EA017430186100507000
B0425043331734S14821041EA017210184300907000
B0425093331739S14821003EA017130183100607000
B0425143331747S14820958EA016980181600807000
B0425193331752S14820915EA016890180200807000
B0425243331753S14820875EA016840179301007000
B0425293331745S14820844EA016760178500907000
B0425343331735S14820811EA016720178100507000
B0425393331729S14820778EA016610177500907000
B0425443331723S14820744EA016570177200807000
B0425493331713S14820710EA016500176500707000
B0425543331703S14820678EA016500176300607000
B0425593331695S14820643EA016510176300607000
B0426043331684S14820613EA016510176400607000
B0426093331672S14820588EA016610177100907000
B0426143331651S14820564EA016640177500907000
B0426193331643S14820536EA016680177900707000
B0426243331639S14820509EA016780178600807000
B0426293331635S14820481EA016810179000707000
B0426343331655S14820456EA016790179101007000
B0426393331676S14820432EA016870179700907000
B0426443331684S14820408EA017020180900607000
B0426493331666S14820397EA017120182100507000
B0426543331638S14820429EA017240183500907000
B0426593331632S14820491EA017310184601207000
B0427043331654S14820546EA017450185600807000
B0427093331692S14820572EA017500186200607000
B0427143331730S14820570EA017520186600907000
B0427193331756S14820545EA017580187200507000
B0427243331766S14820519EA017700188100507000
B0427293331756S14820502EA017750189100607000
B0427343331732S14820504EA017810190000807000
B0427393331706S14820535EA017870190700907000
B0427443331680S14820580EA017990191801007000
B0427493331652S14820581EA018010192100907000
B0427543331645S14820550EA018040192400807000
B0427593331665S14820516EA018170193101107000
B0428043331699S14820496EA018330195000807000
B0428093331740S14820515EA018430196600907000
B0428143331742S14820571EA018550198101107000
B0428193331715S14820590EA018730200100907000
B0428243331705S14820563EA018910201800807000
B0428293331728S14820537EA019030202901207000
B0428343331775S14820543EA019170204601107000
B0428393331804S14820589EA019300205800707000
B0428443331793S14820639EA019380206700807000
B0428493331767S14820652EA019560208300807000
B0428543331755S14820628EA019660209800507000
B0428593331778S14820604EA019800211400807000
B0429043331824S14820619EA019950213000507000
B0429093331850S14820668EA020070214300907000
B0429143331840S14820719EA020160215100907000
B0429193331812S14820724EA020270216401107000
B0429243331802S14820703EA020380217400507000
B0429293331805S14820673EA020530218700707000
B0429343331814S14820647EA020620219600707000
B0429393331847S14820632EA020710220600607000
B0429443331892S14820640EA020800221500707000
B0429493331936S14820678EA020850222200707000
B0429543331958S14820734EA021020223700907000
B0429593331950S14820784EA021130225000807000
B0430043331924S14820796EA021210225800907000
B0430093331909S14820777EA021350227200607000
B0430143331912S14820750EA021430228200807000
B0430193331947S14820736EA021520229001107000
B0430243331990S14820758EA021620230100507000
B0430293332012S14820812EA021750231800807000
B0430343332002S14820863EA021810232500707000
B0430393331975S14820885EA021910233200807000
B0430443331947S14820888EA022010234100707000
B0430493331927S14820874EA022090235200907000
B0430543331920S14820851EA022170235800407000
B0430593331924S14820821EA022240236500807000
B0431043331919S14820786EA022340237700907000
B0431093331894S14820768EA022540239700707000
B0431143331859S14820773EA022730241900807000
B0431193331827S14820809EA022890243700707000
B0431243331827S14820866EA023020244901007000
B0431293331864S14820903EA023070245400907000
B0431343331904S14820895EA023110245800807000
B0431393331925S14820860EA023210246600807000
B0431443331929S14820827EA023370248100507000
B0431493331925S14820804EA023550250000507000
B0431543331915S14820785EA023760252100607000
B0431593331888S14820778EA023900254000807000
B0432043331850S14820808EA024040255701007000
B0432093331832S14820870EA024170257001107000
B0432143331851S14820933EA024280258200907000
B0432193331889S14820955EA024390258900807000
B0432243331916S14820932EA024490260200807000
B0432293331917S14820904EA024650261900907000
B0432343331902S14820882EA024790263500607000
B0432393331874S14820875EA024890264900707000
B0432443331839S14820894EA025030266200807000
B0432493331805S14820932EA025160267500807000
B0432543331788S14820985EA025280268700807000
B0432593331799S14821043EA025360269700907000
B0433043331827S14821081EA025450270200807000
B0433093331859S14821081EA025480270500807000
B0433143331880S14821051EA025520270900907000
B0433193331881S14821018EA025620271500807000
B0433243331866S14820990EA025740272600807000
B0433293331837S14820977EA025850274000807000
B0433343331801S14820976EA025960275300707000
B0433393331768S14820978EA026090276600907000
B0433443331736S14820962EA026130277600707000
B0433493331729S14820926EA026200278300507000
B0433543331749S14820893EA026330279500607000
B0433593331783S14820872EA026470280900507000
B0434043331822S14820891EA026620282500807000
B0434093331837S14820941EA026770284100807000
B0434143331816S14820987EA026870285100907000
B0434193331780S14821006EA026970286100807000
B0434243331743S14820999EA027040286800707000
B0434293331716S14820975EA027130287901107000
B0434343331693S14820940EA027230289100807000
B0434393331674S14820901EA027400290500607000
B0434443331656S14820868EA027610292700807000
B0434493331663S14820834EA027730293900907000
B0434543331698S14820838EA027820295000907000
B0434593331722S14820874EA027930296100607000
B0435043331721S14820923EA028030297200907000
B0435093331688S14820960EA028130298400907000
B0435143331649S14820970EA028300300000707000
B0435193331616S14820951EA028470302000807000
B0435243331595S14820915EA028500302901007000
B0435293331587S14820879EA028550303300807000
B0435343331591S14820852EA028670304000607000
B0435393331599S14820830EA028710304200907000
B0435443331613S14820804EA028690304400807000
B0435493331643S14820798EA028750304800807000
B0435543331667S14820838EA028850305300607000
B0435593331653S14820887EA028890305900707000
B0436043331610S14820915EA028930306401007000
B0436093331563S14820908EA028900306301007000
B0436143331524S14820882EA028900306301007000
B0436193331483S14820863EA028730305500807000
B0436243331440S14820836EA028550303600907000
B0436293331400S14820814EA028490302700807000
B0436343331362S14820788EA028430302000707000
B0436393331324S14820760EA028430301700707000
B0436443331282S14820738EA028450301800707000
B0436493331239S14820719EA028460301800707000
B0436543331194S14820706EA028400301300807000
B0436593331150S14820690EA028290300200707000
B0437043331109S14820668EA028160298700707000
B0437093331074S14820642EA028050297500707000
B0437143331042S14820619EA027880295800507000
B0437193331004S14820597EA027740294400707000
B0437243330963S14820581EA027660293200707000
B0437293330926S14820567EA027600292700707000
B0437343330894S14820547EA027570292400707000
B0437393330867S14820527EA027520292000607000
B0437443330841S14820505EA027410291300807000
B0437493330812S14820485EA027320290100807000
B0437543330788S14820466EA027110288100807000
B0437593330762S14820451EA026900285700707000
B0438043330729S14820438EA026690283300607000
B0438093330700S14820414EA026550281401107000
B0438143330668S14820402EA026450280001007000
B0438193330631S14820381EA026290278700807000
B0438243330599S14820363EA026190277700807000
B0438293330566S14820345EA026170277400807000
B0438343330526S14820331EA026180277700807000
B0438393330495S14820318EA026270278700707000
B0438443330465S14820304EA026350279700707000
B0438493330438S14820289EA026440280700707000
B0438543330413S14820268EA026560281900707000
B0438593330387S14820250EA026620282600807000
B0439043330364S14820227EA026720283700707000
B0439093330345S14820211EA026780284500807000
B0439143330326S14820189EA026740284300907000
B0439193330301S14820168EA026660283600807000
B0439243330271S14820152EA026660283200807000
B0439293330242S14820138EA026560282400807000
B0439343330214S14820123EA026500281700607000
B0439393330187S14820105EA026410280700707000
B0439443330160S14820087EA026350279800707000
B0439493330131S14820069EA026220278600707000
B0439543330107S14820046EA026080277100507000
B0439593330085S14820015EA025970275800707000
B0440043330064S14819982EA025860274700807000
B0440093330046S14819952EA025730273400407000
B0440143330027S14819913EA025550271400807000
B0440193330000S14819877EA025340269400907000
B0440243329973S14819842EA025210267700807000
B0440293329944S14819803EA025040266000807000
B0440343329914S14819765EA024940264600807000
B0440393329888S14819728EA024810263200707000
B0440443329863S14819687EA024750262800807000
B0440493329837S14819648EA024720262400707000
B0440543329807S14819613EA024590261600907000
B0440593329773S14819572EA024430260400907000
B0441043329749S14819539EA024390259400707000
B0441093329724S14819506EA024240258200607000
B0441143329696S14819475EA024130256901007000
B0441193329663S14819439EA023920255000907000
B0441243329637S14819414EA023890254200907000
B0441293329608S14819390EA023800253401007000
B0441343329584S14819365EA023780253000907000
B0441393329557S14819333EA023700252300807000
B0441443329529S14819306EA023620251500807000
B0441493329503S14819274EA023580251000707000
B0441543329473S14819240EA023570250800707000
B0441593329438S14819205EA023500250300807000
B0442043329398S14819170EA023410249500707000
B0442093329362S14819132EA023420249100907000
B0442143329327S14819102EA023410249100807000
B0442193329294S14819072EA023440249200707000
B0442243329258S14819043EA023460249200507000
B0442293329221S14819008EA023450249400707000
B0442343329186S14818970EA023440249400707000
B0442393329149S14818933EA023340248400807000
B0442443329111S14818894EA023210247200807000
B0442493329073S14818855EA023150246300507000
B0442543329038S14818812EA023060245300807000
B0442593329003S14818770EA022950244400607000
B0443043328964S14818729EA022810243300707000
B0443093328925S14818689EA022760242300607000
B0443143328880S14818645EA022680241400707000
B0443193328844S14818614EA022620240700907000
B0443243328810S14818586EA022410238900907000
B0443293328781S14818558EA022250237000807000
B0443343328756S14818522EA022080235200507000
B0443393328739S14818486EA021900233300807000
B0443443328719S14818449EA021720231400607000
B0443493328693S14818418EA021620230100807000
B0443543328665S14818396EA021530229300507000
B0443593328637S14818369EA021400228000507000
B0444043328607S14818344EA021230226400807000
B0444093328573S14818321EA021090224700807000
B0444143328540S14818297EA020920223000507000
B0444193328509S14818271EA020760221300707000
B0444243328485S14818240EA020630219800707000
B0444293328460S14818204EA020490218400807000
B0444343328432S14818170EA020350217300907000
B0444393328405S14818140EA020270216300807000
B0444443328375S14818110EA020150215200707000
B0444493328348S14818079EA020050214100807000
B0444543328326S14818043EA019890212700607000
B0444593328300S14818020EA019800211500607000
B0445043328270S14817995EA019650209900607000
B0445093328241S14817973EA019510208400507000
B0445143328218S14817954EA019430207300707000
B0445193328192S14817938EA019320206000407000
B0445243328168S14817918EA019170204600707000
B0445293328148S14817899EA019060203400707000
B0445343328127S14817880EA018960202200707000
B0445393328100S14817865EA018770200800707000
B0445443328075S14817845EA018650199100807000
B0445493328056S14817821EA018470197300707000
B0445543328039S14817797EA018320195500707000
B0445593328018S14817769EA018150193600807000
B0446043327996S14817747EA018040192200707000
B0446093327972S14817722EA017870190600607000
B0446143327950S14817697EA017740189200807000
B0446193327928S14817668EA017560187400707000
B0446243327910S14817638EA017470186400907000
B0446293327892S14817612EA017400185600507000
B0446343327869S14817590EA017310184600407000
B0446393327838S14817568EA017170183500707000
B0446443327815S14817542EA017070182500707000
B0446493327799S14817512EA016970181400607000
B0446543327781S14817480EA016840180100707000
B0446593327766S14817455EA016790179100807000
B0447043327752S14817426EA016620177700807000
B0447093327732S14817397EA016430176000807000
B0447143327710S14817372EA016310174300907000
B0447193327688S14817358EA016180172600907000
B0447243327667S14817330EA016010171000807000
B0447293327651S14817299EA015920169900707000
B0447343327640S14817271EA015810168700707000
B0447393327622S14817244EA015680167600607000
B0447443327605S14817221EA015570166400607000
B0447493327595S14817189EA015400165000607000
B0447543327591S14817147EA015160163100607000
B0447593327586S14817117EA015140161800807000
B0448043327585S14817084EA015000160500807000
B0448093327577S14817051EA015010159801107000
B0448143327556S14817033EA014870159100907000
B0448193327543S14817013EA014800158400807000
B0448243327545S14816982EA014690157400907000
B0448293327551S14816943EA014680156900807000
B0448343327552S14816907EA014760157000907000
B0448393327545S14816877EA014810157500807000
B0448443327546S14816835EA014740157600907000
B0448493327551S14816804EA014710157501107000
B0448543327554S14816771EA014480156401107000
B0448593327567S14816737EA014340154800907000
B0449043327572S14816708EA014200152900807000
B0449093327580S14816677EA014040151100807000
B0449143327585S14816645EA013910149100807000
B0449193327590S14816613EA013750147300707000
B0449243327602S14816581EA013570145300807000
B0449293327614S14816552EA013510144000707000
B0449343327626S14816519EA013420142800607000
B0449393327628S14816484EA013350142300807000
F0449440205061220242529
B0449443327627S14816448EA013300142000808000
B0449493327621S14816412EA013290141900808000
B0449543327622S14816368EA013210141500408000
B0449593327622S14816323EA013170141300708000
B0450043327618S14816281EA013110140900808000
B0450093327615S14816243EA013060140500708000
B0450143327619S14816204EA012920139700508000
B0450193327615S14816160EA012820138601008000
B0450243327601S14816136EA012770137600408000
B0450293327596S14816110EA012670136500708000
B0450343327597S14816080EA012580135600708000
B0450393327597S14816048EA012430134200608000
B0450443327600S14816018EA012310132600808000
B0450493327604S14815990EA012250131500708000
B0450543327614S14815955EA012100130300808000
B0450593327615S14815929EA012050129400908000
B0451043327607S14815898EA011830127700808000
B0451093327604S14815872EA011740126200708000
B0451143327597S14815845EA011630125000708000
B0451193327590S14815819EA011600124300708000
B0451243327581S14815796EA011650124700608000
B0451293327566S14815779EA011700125100708000
B0451343327552S14815761EA011690125200408000
B0451393327539S14815744EA011650125200608000
B0451443327532S14815726EA011630125100708000
B0451493327533S14815703EA011700125300708000
B0451543327536S14815680EA011790125800708000
B0451593327539S14815651EA011840126300408000
B0452043327563S14815633EA011770126100408000
B0452093327597S14815634EA011800126200408000
B0452143327631S14815643EA011830126500408000
B0452193327668S14815646EA011950127600408000
B0452243327693S14815627EA012000128200408000
B0452293327721S14815620EA012040128600408000
B0452343327762S14815656EA011980128500808000
B0452393327776S14815726EA011890127701108000
B0452443327751S14815773EA011790126600608000
B0452493327715S14815778EA011670125400708000
B0452543327691S14815759EA011750125500508000
B0452593327666S14815742EA011870126300708000
B0453043327651S14815719EA011880126700808000
B0453093327664S14815701EA011860126900508000
B0453143327700S14815717EA011760126601008000
B0453193327732S14815760EA011660126101208000
B0453243327773S14815795EA011680125600408000
B0453293327814S14815798EA011660125100408000
B0453343327839S14815778EA011580124500808000
B0453393327848S14815750EA011530123900708000
B0453443327849S14815723EA011430123000408000
B0453493327833S14815700EA011410122400808000
B0453543327813S14815681EA011360121800708000
B0453593327797S14815657EA011290121300708000
B0454043327783S14815631EA011170120500608000
B0454093327768S14815611EA011100119700508000
B0454143327763S14815588EA011070119300608000
B0454193327758S14815559EA011030118900608000
B0454243327752S14815531EA011000118300508000
B0454293327738S14815506EA010920117600708000
B0454343327721S14815480EA010800116400508000
B0454393327703S14815454EA010660115300708000
B0454443327688S14815428EA010610114500708000
B0454493327677S14815401EA010510113500708000
B0454543327675S14815376EA010390112100508000
B0454593327668S14815348EA010220110200608000
B0455043327668S14815322EA010120108500708000
B0455093327674S14815291EA009990107100708000
B0455143327679S14815262EA009880105800608000
B0455193327698S14815236EA009740104400408000
B0455243327722S14815208EA009560102800708000
B0455293327753S14815187EA009460101300408000
B0455343327786S14815168EA009290099700408000
B0455393327815S14815147EA009170098200408000
B0455443327843S14815117EA008970096400308000
B0455493327867S14815090EA008870094800608000
B0455543327884S14815061EA008790093700808000
B0455593327909S14815032EA008660092500408000
B0456043327938S14815010EA008590091500408000
B0456093327970S14814986EA008470090500408000
B0456143327998S14814965EA008400089400408000
B0456193328027S14814939EA008230087900708000
B0456243328062S14814914EA008100086700308000
B0456293328096S14814892EA007960085300408000
B0456343328126S14814876EA007920084500408000
B0456393328150S14814859EA007830083600308000
B0456443328171S14814837EA007720082500208000
B0456493328198S14814819EA007610081600308000
B0456543328222S14814801EA007470080500408000
B0456593328242S14814771EA007340078900508000
B0457043328254S14814750EA007160077100508000
B0457093328260S14814713EA007000075200808000
B0457143328260S14814681EA006970074400708000
B0457193328260S14814646EA006910073800408000
B0457243328263S14814616EA006940074100708000
B0457293328266S14814586EA006920074200708000
B0457343328276S14814563EA006890074200408000
B0457393328281S14814534EA006810073600708000
B0457443328283S14814500EA006700072600808000
B0457493328281S14814478EA006680071800908000
B0457543328278S14814454EA006620071300608000
B0457593328268S14814434EA006640071000408000
B0458043328263S14814418EA006690071100608000
B0458093328270S14814393EA006670071100608000
B0458143328269S14814364EA006590070700708000
B0458193328269S14814342EA006520070100708000
B0458243328262S14814324EA006470069500608000
B0458293328258S14814303EA006400069200608000
B0458343328264S14814275EA006200067800808000
B0458393328280S14814250EA006120066400908000
B0458443328288S14814230EA006040064301008000
B0458493328290S14814210EA006010063700708000
B0458543328283S14814189EA005970063500708000
B0458593328281S14814160EA005900063000708000
B0459043328275S14814133EA005840062700508000
B0459093328268S14814107EA005790062400508000
B0459143328265S14814081EA005770062100608000
B0459193328256S14814052EA005740062000508000
B0459243328262S14814021EA005580061100708000
B0459293328275S14813982EA005370059400608000
B0459343328298S14813958EA005230057600608000
B0459393328335S14813943EA005140055400508000
B0459443328356S14813928EA005100054400508000
B0459493328373S14813904EA004960053100408000
B0459543328382S14813870EA004820051600708000
B0459593328383S14813833EA004690050300808000
B0500043328388S14813801EA004630049300708000
B0500093328391S14813770EA004580048900708000
B0500143328400S14813744EA004560048500608000
B0500193328414S14813722EA004500048100408000
B0500243328420S14813701EA004500048100708000
B0500293328427S14813677EA004400047500708000
B0500343328439S14813658EA004320046600408000
B0500393328449S14813638EA004240045700408000
B0500443328452S14813616EA004160044700708000
B0500493328454S14813594EA004100044100408000
B0500543328463S14813579EA004110043900608000
B0500593328476S14813559EA004000043400308000
B0501043328496S14813540EA003870042400408000
B0501093328530S14813561EA003770040800808000
B0501143328554S14813619EA003700039800708000
B0501193328557S14813690EA003590038500808000
B0501243328545S14813760EA003510037400708000
B0501293328529S14813830EA003490037200708000
B0501343328516S14813895EA003530037300708000
B0501393328494S14813956EA003450036900708000
B0501443328471S14814019EA003390036300808000
B0501493328482S14814072EA003510036401108000
B0501543328514S14814109EA003540037100908000
B0501593328538S14814103EA003650037900708000
B0502043328550S14814087EA003630038300708000
B0502093328560S14814062EA003570038100608000
B0502143328559S14814045EA003630038300908000
B0502193328538S14814027EA003600038400808000
B0502243328513S14814016EA003640038700708000
B0502293328523S14814002EA003590038600608000
B0502343328556S14814018EA003540038200908000
B0502393328581S14814070EA003550038100808000
B0502443328568S14814128EA003510037500908000
B0502493328543S14814116EA003390036201308000
B0502543328538S14814097EA003430036201108000
B0502593328525S14814078EA003380036100708000
B0503043328528S14814059EA003330035700408000
B0503093328530S14814037EA003320035500608000
B0503143328526S14814019EA003330035400608000
B0503193328527S14814003EA003290035100408000
B0503243328546S14814001EA003190034500508000
B0503293328574S14814041EA003080033000708000
B0503343328609S14814060EA002950032101608000
B0503393328595S14814032EA002960032101208000
B0503443328570S14814013EA002920031500708000
B0503493328573S14813990EA002810030800408000
B0503543328583S14813958EA002600029500708000
B0503593328601S14813923EA002540028100408000
B0504043328608S14813894EA002510027100708000
B0504093328622S14813867EA002440026100508000
B0504143328633S14813844EA002370025100708000
B0504193328640S14813834EA002340024700708000
B0504243328640S14813834EA002330024801108000
B0504293328640S14813834EA002330024801108000
B0504343328640S14813834EA002330024801008000
B0504393328639S14813835EA002340024800808000
B0504443328638S14813835EA002340024800708000
B0504493328638S14813835EA002340024800608000
B0504543328638S14813835EA002340024800508000
B0504593328637S14813835EA002340024800508000
B0505043328637S14813836EA002340024800508000
B0505093328637S14813836EA002340024800608000
B0505143328637S14813835EA002340024800408000
B0505193328633S14813834EA002340024800608000
B0505243328629S14813837EA002340024800608000
B0505293328626S14813838EA002350024800608000
B0505343328626S14813837EA002340024800408000
B0505393328624S14813838EA002340024800308000
B0505443328623S14813838EA002340024800608000
B0505493328623S14813838EA002330024800408000
B0505543328623S14813838EA002330024800508000
B0505593328623S14813838EA002330024800608000
B0506043328623S14813838EA002330024800608000
B0506093328623S14813838EA002330024800608000
B0506143328623S14813838EA002330024800608000
B0506193328623S14813838EA002330024800608000
B0506243328623S14813838EA002330024800408000
B0506293328623S14813838EA002330024800508000
B0506343328623S14813838EA002330024800608000
B0506393328623S14813838EA002330024800608000
B0506443328623S14813838EA002330024800608000
GC762FDCD1B48B17BD4CB4B450F5A9BA6182C29639EE17615209D73099E36EEF0
