AFLY00Bo 0100732
HFDTE090116
HFFXA010
HFPLTPILOT:PGA             
HFCM2CREW2:NKN
HFGTYGLIDERTYPE:RS5             
HFGIDGLIDERID:NKN             
HFDTM100GPSDATUM:WGS84
HFRFWFIRMWAREVERSION: 1.2.12 EN
HFRHWHARDWAREVERSION:1.00
HFFTYFRTYPE:Flytec ,Element
HFGPS:FASTRAX,IT430,48
HFPRSPRESSALTSENSOR:INTERSEMA,MS5401BM,12000
HFALGALTGPS:GEO
HFALPALTPRESSURE:ISA
HFTZNUTCOFFSET: 11.00h
I033638FXA3940SIU4143TAS
C080116232207090116002103
C3321648S14755920E TAKEOFF
C3321648S14755920E START  FORBE            00000000005000000000360000AREA
C3337108S14824538E TURN   GOOLOO           00000000010000000000360000AREA
C3319823S14808889E TURN   FORRES           00000000000400000000360000AREA
C3317535S14742651E TURN   GUNNIN           00000000000400000000360000AREA
C3321648S14755920E FINISH FORBE            00000000000020000000360000AREA
C3321648S14755920E LANDING
F021008020612131719242830
B0210083321360S14756028EA001950024200509000
F02103802061213151719242830
B0210383321360S14756029EA001960024100510000
F02110802061213151719242830
B0211083321356S14756031EA001960024000310000
F02113602061213151719242830
B0211363321356S14756031EA001950023900210000
F02120602061213151719242830
B0212063321356S14756031EA001950023900410000
F02123602061213151719242830
B0212363321356S14756031EA001960023900410000
F02130602061213151719242830
B0213063321354S14756029EA001960023800410000
F02133602061213151719242830
B0213363321354S14756029EA001960023800410000
F02140602061213151719242830
B0214063321354S14756029EA001950023800510000
E021421STA
E021421ATS1018.2
LFLYA1 00237
B0214213321333S14756011EA001950023600410000
B0214263321305S14755991EA002030023700610000
B0214313321287S14755961EA002170024500610000
B0214363321274S14755928EA002280025300610000
B0214413321261S14755896EA002470026800610000
B0214463321250S14755866EA002590028600610000
B0214513321245S14755831EA002660030100610000
B0214563321246S14755796EA002740031300410000
B0215013321259S14755761EA002900033000710000
B0215063321281S14755726EA003030034700510000
B0215113321323S14755702EA003160036100410000
B0215163321378S14755699EA003380038200510000
B0215213321435S14755702EA003610040500410000
B0215263321490S14755722EA003870043400410000
B0215313321537S14755764EA004140046500410000
B0215363321560S14755826EA004460049500610000
B0215413321531S14755882EA004630052300810000
B0215463321491S14755904EA004830054900610000
B0215513321458S14755901EA005110057800810000
B0215563321446S14755869EA005320060100710000
B0216013321473S14755837EA005540062500910000
B0216063321526S14755835EA005810065200510000
B0216113321584S14755867EA006090067700410000
B0216163321630S14755917EA006350070200610000
B0216213321639S14755985EA006550072300510000
B0216263321646S14756055EA006810074700610000
B0216313321626S14756119EA007000077300610000
B0216363321585S14756153EA007260080101010000
B0216413321539S14756146EA007420082200710000
B0216463321516S14756109EA007630084200810000
B0216513321527S14756065EA007850086100810000
B0216563321554S14756034EA008090088700610000
B0217013321584S14756011EA008340091400510000
B0217063321609S14755990EA008390093200710000
B0217113321651S14755995EA008400094100510000
B0217163321674S14756055EA008440094100510000
B0217213321661S14756108EA008610094500610000
B0217263321630S14756146EA008650094700510000
B0217313321613S14756200EA008690095100610000
B0217363321628S14756262EA008740095600710000
B0217413321656S14756311EA008670095600710000
B0217463321681S14756362EA008560094900510000
B0217513321707S14756414EA008480094000610000
B0217563321740S14756471EA008600093500810000
B0218013321774S14756459EA008680093900910000
B0218063321750S14756454EA008740094700910000
B0218113321722S14756509EA008780095200810000
B0218163321734S14756570EA008930096200510000
B0218213321774S14756591EA008970097100910000
B0218263321808S14756565EA008990097500710000
B0218313321803S14756548EA009070098100810000
B0218363321768S14756594EA009020098500710000
B0218413321758S14756646EA009140099501010000
B0218463321797S14756672EA009030099601210000
B0218513321835S14756644EA009020099600910000
B0218563321840S14756611EA009040099600710000
B0219013321834S14756579EA009080099600610000
B0219063321822S14756557EA009190100200610000
B0219113321789S14756571EA009230100501110000
F021916020612131517192428
B0219163321787S14756635EA009270101300909000
B0219213321822S14756679EA009260101400709000
B0219263321869S14756673EA009180100900909000
B0219313321908S14756647EA009190100600809000
B0219363321922S14756617EA009310100700909000
B0219413321900S14756623EA009370101000909000
B0219463321897S14756688EA009500101601509000
B0219513321949S14756720EA009560102001009000
B0219563321984S14756694EA009540103001109000
B0220013321977S14756666EA009600103700809000
B0220063321952S14756698EA009760104701409000
B0220113321979S14756758EA009920106201409000
B0220163322024S14756737EA009920107001409000
B0220213322023S14756698EA009980107801209000
B0220263321993S14756703EA010170108900809000
B0220313321980S14756753EA010310111000709000
B0220363322001S14756817EA010470112801209000
B0220413322053S14756835EA010580114301109000
B0220463322076S14756795EA010580115201209000
B0220513322065S14756773EA010680116100809000
B0220563322037S14756809EA010800116900909000
B0221013322056S14756877EA010920118201409000
B0221063322111S14756875EA011000119001309000
B0221113322118S14756836EA011020119401309000
B0221163322087S14756862EA011130119901109000
B0221213322110S14756933EA011160120501409000
B0221263322163S14756931EA011220121201409000
B0221313322179S14756888EA011170121400809000
B0221363322169S14756859EA011300121900809000
B0221413322138S14756872EA011320122100709000
B0221463322108S14756915EA011420123100509000
B0221513322096S14756969EA011560124600609000
B0221563322128S14757026EA011620125600909000
B0222013322183S14757049EA011680126101009000
B0222063322209S14757028EA011710127000809000
B0222113322191S14757012EA011850127600909000
B0222163322160S14757032EA011910128400609000
B0222213322131S14757070EA012060129600509000
B0222263322113S14757131EA012070130400609000
B0222313322130S14757201EA012170131300909000
B0222363322176S14757238EA012260132100609000
B0222413322226S14757246EA012380132900809000
B0222463322244S14757216EA012360133400809000
B0222513322237S14757190EA012360133500809000
B0222563322224S14757169EA012370133500709000
B0223013322216S14757147EA012580134600609000
B0223063322188S14757156EA012830136000809000
B0223113322181S14757216EA013020138301109000
B0223163322222S14757262EA013100140101009000
B0223213322261S14757242EA013050141100809000
B0223263322262S14757211EA013250142901109000
B0223313322233S14757238EA013440144201309000
B0223363322272S14757299EA013540145701309000
B0223413322309S14757278EA013660147201409000
B0223463322285S14757260EA013880149001209000
B0223513322265S14757314EA013860149800809000
B0223563322295S14757382EA013990150801109000
B0224013322332S14757436EA014040151400909000
B0224063322384S14757448EA014030151701309000
B0224113322408S14757409EA014010151500909000
B0224163322411S14757374EA014100151600809000
B0224213322385S14757354EA014230152101109000
B0224263322370S14757397EA014350152901109000
B0224313322408S14757447EA014450154301309000
B0224363322455S14757424EA014550155501409000
B0224413322442S14757390EA014660157001309000
B0224463322424S14757432EA014710158301109000
B0224513322455S14757492EA014800159300809000
B0224563322509S14757508EA014910160301209000
B0225013322527S14757469EA015010161400909000
B0225063322502S14757453EA015030162000909000
B0225113322474S14757478EA015100162300809000
B0225163322475S14757536EA015090162401109000
B0225213322520S14757582EA015140162701209000
B0225263322561S14757554EA015260163101209000
B0225313322548S14757518EA015290163701209000
B0225363322522S14757550EA015270163901309000
B0225413322535S14757616EA015250163900709000
B0225463322583S14757666EA015260164001409000
B0225513322620S14757638EA015350164601209000
B0225563322592S14757631EA015400165101609000
B0226013322583S14757693EA015460165801009000
B0226063322615S14757757EA015480166401209000
B0226113322672S14757756EA015610166901309000
B0226163322662S14757722EA015660167801409000
B0226213322640S14757768EA015710168700709000
B0226263322625S14757819EA015780169400609000
B0226313322597S14757846EA015820169700409000
B0226363322563S14757880EA015770169900409000
B0226413322532S14757915EA015940171000609000
B0226463322541S14757985EA016020172301409000
B0226513322590S14758010EA016120173100909000
B0226563322611S14757982EA016140173501009000
B0227013322585S14757965EA016260174400809000
B0227063322554S14757998EA016350175100909000
B0227113322559S14758071EA016410175901209000
B0227163322606S14758108EA016450176701309000
B0227213322625S14758088EA016560177501109000
B0227263322599S14758075EA016570177800709000
B0227313322556S14758099EA016640178200609000
B0227363322516S14758138EA016740179200509000
B0227413322477S14758182EA016890180300509000
B0227463322461S14758255EA017030181700709000
B0227513322491S14758310EA017120183201109000
B0227563322495S14758284EA017150184201609000
B0228013322454S14758311EA017280185400709000
B0228063322440S14758381EA017350186301209000
B0228113322469S14758440EA017330186501109000
B0228163322521S14758453EA017330186401009000
B0228213322517S14758426EA017410186801409000
B0228263322485S14758479EA017490187301209000
B0228313322506S14758546EA017520187801109000
B0228363322558S14758556EA017530188300909000
B0228413322586S14758530EA017620188900909000
B0228463322600S14758500EA017680189400709000
B0228513322601S14758469EA017670189700609000
B0228563322576S14758448EA017800190100809000
B0229013322536S14758478EA017870190600809000
B0229063322522S14758545EA017910191500809000
B0229113322558S14758604EA017970192301009000
B0229163322607S14758601EA018130193201109000
B0229213322650S14758608EA018230194500709000
B0229263322673S14758590EA018200195000909000
B0229313322660S14758562EA018160195201009000
B0229363322624S14758550EA018210195600809000
B0229413322595S14758538EA018370196500809000
B0229463322560S14758551EA018400197200809000
B0229513322548S14758616EA018460197801209000
B0229563322589S14758663EA018470198100809000
B0230013322621S14758648EA018500198501309000
B0230063322616S14758614EA018640199300909000
B0230113322604S14758588EA018650199800609000
B0230163322596S14758555EA018670200000609000
B0230213322585S14758522EA018720200300709000
B0230263322556S14758509EA018690200500709000
B0230313322527S14758537EA018740200800609000
B0230363322527S14758601EA018680200700809000
B0230413322546S14758673EA018630200200709000
B0230463322588S14758723EA018740200601009000
B0230513322622S14758701EA018860201401209000
B0230563322591S14758696EA018950202201409000
B0231013322565S14758754EA019020203200609000
B0231063322585S14758823EA019110204201109000
B0231113322636S14758833EA019220205001209000
B0231163322645S14758798EA019330206500809000
B0231213322619S14758784EA019430207901109000
B0231263322587S14758819EA019490208500509000
B0231313322570S14758879EA019570209500909000
B0231363322580S14758946EA019590210400509000
B0231373322583S14758960EA019590210500409000
E023138TPC
B0231383322586S14758975EA019590210500409000
B0231393322589S14758990EA019590210600509000
B0231403322593S14759004EA019600210700409000
B0231413322599S14759017EA019630210800509000
B0231423322606S14759030EA019670210900909000
B0231433322614S14759042EA019680211000809000
B0231463322646S14759056EA019740211501109000
B0231513322654S14759032EA019850212101009000
B0231563322623S14759052EA019910212700909000
B0232013322605S14759108EA019940212900509000
B0232063322603S14759179EA019870212800709000
B0232113322617S14759249EA019830212600409000
B0232163322657S14759302EA019810212400509000
B0232213322693S14759359EA019810212200509000
B0232263322713S14759427EA019810212000509000
B0232313322730S14759500EA019800211600409000
B0232363322754S14759568EA019770211600609000
B0232413322793S14759617EA019800211700409000
F0232460206121317192428
B0232463322837S14759637EA019760211600408000
B0232513322873S14759634EA019700211100408000
F023256020612131517192428
B0232563322902S14759618EA019670211000409000
F0233010206121317192428
B0233013322920S14759592EA019760211300408000
B0233063322938S14759568EA019820211800408000
B0233113322964S14759545EA019880212400408000
B0233163322989S14759517EA019950213200608000
B0233213323007S14759485EA020060214500808000
B0233263323025S14759454EA020190215800708000
B0233313323052S14759424EA020310217100508000
B0233363323059S14759395EA020490218900808000
B0233413323024S14759401EA020640220601108000
F023346020612131517192428
B0233463323013S14759465EA020830222801309000
B0233513323048S14759521EA020980224701009000
B0233563323098S14759533EA021130226200909000
B0234013323123S14759505EA021320227900809000
B0234063323101S14759487EA021530230101009000
B0234113323069S14759523EA021690231700709000
B0234163323070S14759592EA021800233101009000
B0234213323103S14759647EA021930234400609000
B0234263323150S14759648EA021950235300909000
B0234313323172S14759616EA022230237000909000
B0234363323142S14759604EA022350238501409000
B0234413323115S14759658EA022550240501009000
B0234463323137S14759721EA022720243001309000
B0234513323185S14759735EA022900244600809000
B0234563323213S14759711EA023060246000909000
B0235013323186S14759699EA023140247201409000
B0235063323160S14759755EA023330249101009000
B0235113323187S14759816EA023500251001009000
B0235163323233S14759815EA023630252501209000
B0235213323238S14759787EA023780253701009000
B0235263323204S14759799EA023900255001009000
B0235313323191S14759866EA024080256701409000
B0235363323225S14759918EA024210258401109000
B0235413323273S14759921EA024300259501009000
B0235463323285S14759893EA024380260201209000
B0235513323253S14759893EA024510261301109000
B0235563323225S14759942EA024690262900709000
B0236013323228S14800007EA024800264000809000
B0236063323269S14800049EA024830264700609000
B0236113323312S14800052EA024920265500609000
B0236163323325S14800022EA024990266300709000
B0236213323297S14800014EA025040266901209000
B0236263323275S14800078EA025170267701109000
B0236313323304S14800138EA025240268701109000
B0236363323352S14800137EA025330269701009000
B0236413323362S14800105EA025400270501109000
B0236463323328S14800108EA025410270901409000
B0236513323296S14800155EA025530271700509000
B0236563323301S14800220EA025600272601109000
B0237013323352S14800239EA025660273301209000
B0237063323365S14800203EA025720273801109000
B0237113323327S14800201EA025760274201509000
B0237163323287S14800251EA025850275000909000
B0237213323291S14800326EA025900275800909000
B0237263323321S14800391EA026030276800609000
B0237313323364S14800437EA026120277900509000
B0237363323410S14800437EA026170278700809000
B0237413323438S14800409EA026200278700509000
B0237463323443S14800382EA026260279300709000
B0237513323422S14800360EA026250279500709000
B0237563323381S14800377EA026280279600809000
B0238013323376S14800449EA026300279801409000
B0238063323419S14800499EA026400280400709000
B0238113323467S14800519EA026430280700709000
B0238163323510S14800549EA026420280900509000
B0238213323528S14800607EA026350280500609000
B0238263323528S14800678EA026320280200409000
B0238313323524S14800752EA026270279800509000
B0238363323529S14800828EA026270279700509000
B0238413323554S14800900EA026300279800509000
B0238463323591S14800964EA026320279900409000
B0238513323631S14801027EA026350280200509000
B0238563323671S14801097EA026290280100409000
B0239013323707S14801168EA026270280000509000
B0239063323743S14801241EA026180279400609000
B0239113323777S14801313EA026160278800609000
B0239163323820S14801382EA026060278100409000
B0239213323863S14801447EA026010277300509000
B0239263323906S14801521EA025860276100509000
B0239313323939S14801593EA025740275000609000
B0239363323971S14801664EA025600273400809000
B0239413324004S14801735EA025410271500509000
B0239463324043S14801802EA025250269500409000
B0239513324083S14801872EA025090267700509000
B0239563324125S14801934EA024980266100409000
B0240013324168S14801993EA024890264900409000
B0240063324208S14802062EA024730263600609000
B0240113324247S14802129EA024640262600609000
B0240163324286S14802194EA024600262000509000
B0240213324319S14802265EA024490261100509000
B0240263324352S14802333EA024390260100409000
B0240313324382S14802401EA024290259100409000
F0240360206121315171924
B0240363324411S14802467EA024200258100608000
F024041020612131517192428
B0240413324449S14802531EA024030256800509000
B0240463324478S14802601EA023950255600609000
B0240513324509S14802672EA023870254600509000
B0240563324544S14802732EA023800253800409000
B0241013324579S14802797EA023680252800509000
B0241063324612S14802860EA023640252200509000
B0241113324651S14802922EA023520251300409000
B0241163324693S14802982EA023450250500409000
B0241213324732S14803043EA023400249900409000
B0241263324777S14803097EA023310249100209000
B0241313324819S14803154EA023200248100409000
B0241363324854S14803214EA023080246900409000
B0241413324887S14803273EA022980245600509000
B0241463324927S14803323EA022850244400309000
B0241513324965S14803380EA022740243100509000
B0241563325002S14803441EA022620241800309000
B0242013325042S14803503EA022510240600409000
B0242063325081S14803567EA022420239600409000
B0242113325123S14803627EA022320238500309000
B0242163325166S14803686EA022250237500309000
B0242213325198S14803757EA022150236700409000
B0242263325213S14803833EA022150236500409000
B0242313325221S14803903EA022080236000409000
B0242363325222S14803977EA021890234600509000
B0242413325218S14804044EA021800233500309000
B0242463325222S14804113EA021730232500309000
B0242513325238S14804180EA021670231900609000
B0242563325253S14804252EA021570231000409000
B0243013325262S14804323EA021550230300309000
B0243063325275S14804393EA021440229500409000
B0243113325289S14804466EA021320228400409000
B0243163325304S14804535EA021220227200409000
B0243213325327S14804607EA021040225600609000
B0243263325355S14804676EA020860223900609000
B0243313325387S14804741EA020720222300409000
B0243363325413S14804811EA020630220900309000
B0243413325441S14804880EA020510219400509000
B0243463325476S14804945EA020340217900409000
B0243513325517S14805001EA020160216000309000
B0243563325554S14805054EA019980214000509000
B0244013325590S14805110EA019750211600509000
B0244063325632S14805164EA019520209100309000
B0244113325664S14805229EA019320206800609000
B0244163325679S14805301EA019210204900409000
B0244213325699S14805374EA019060203700409000
B0244263325716S14805444EA018960202800409000
B0244313325737S14805517EA018790201600509000
B0244363325744S14805594EA018740200500409000
B0244413325753S14805668EA018700200300509000
B0244463325763S14805741EA018630199800809000
B0244513325770S14805816EA018540199100609000
B0244563325765S14805892EA018470198200309000
B0245013325769S14805968EA018320197000609000
B0245063325781S14806047EA018170195400409000
B0245113325784S14806120EA018050194100409000
B0245163325790S14806191EA017880192600509000
B0245213325796S14806266EA017760191200409000
B0245263325801S14806339EA017670189900509000
B0245313325805S14806407EA017570188700509000
B0245363325811S14806477EA017410187400409000
B0245413325804S14806550EA017280185900609000
B0245463325788S14806623EA017200184700309000
B0245513325773S14806697EA017130183700409000
B0245563325769S14806769EA017000182700609000
B0246013325760S14806839EA016980182200609000
B0246063325750S14806909EA016940181900509000
B0246113325753S14806983EA016860181200309000
B0246163325765S14807054EA016840180900409000
B0246213325777S14807125EA016770180400309000
B0246263325788S14807195EA016670179600409000
B0246313325802S14807267EA016510178300509000
B0246363325816S14807341EA016330176300409000
B0246413325830S14807409EA016180174300409000
B0246463325845S14807478EA016010172300509000
B0246513325862S14807545EA015960171300409000
B0246563325884S14807608EA015960171400509000
B0247013325896S14807676EA015950171500509000
B0247063325910S14807742EA015970171800509000
B0247113325938S14807801EA015930171700609000
B0247163325982S14807819EA015840171300609000
B0247213326023S14807801EA015710170200609000
B0247263326038S14807762EA015700169300909000
B0247313326010S14807734EA015620168701309000
B0247363325963S14807758EA015550168000809000
B0247413325918S14807791EA015590167800509000
B0247463325892S14807841EA015580167900609000
B0247513325868S14807892EA015530167600309000
B0247563325827S14807895EA015390166900909000
B0248013325791S14807905EA015330166200709000
B0248063325766S14807952EA015150164701409000
B0248113325770S14808020EA014960162700709000
B0248163325797S14808081EA014810160600609000
B0248213325839S14808127EA014620158500609000
B0248263325889S14808171EA014410156200409000
B0248313325933S14808218EA014330154300409000
B0248363325979S14808240EA014160152800409000
B0248413326028S14808237EA014010151300409000
B0248463326071S14808215EA013890149900409000
B0248513326108S14808188EA013800148800809000
B0248563326153S14808192EA013760148400709000
B0249013326189S14808233EA013710148000509000
B0249063326210S14808289EA013660147600509000
B0249113326230S14808348EA013580146900509000
B0249163326245S14808408EA013490146100409000
B0249213326257S14808469EA013370144900509000
B0249263326269S14808533EA013260143600409000
B0249313326285S14808596EA013130142200309000
B0249363326295S14808659EA013030140900409000
B0249413326296S14808723EA012890139300509000
B0249463326307S14808788EA012750137900309000
B0249513326323S14808852EA012630136700409000
B0249563326338S14808917EA012500135200409000
B0250013326355S14808983EA012400134100509000
B0250063326366S14809050EA012320133200509000
B0250113326371S14809115EA012260132500309000
B0250163326381S14809179EA012210131900409000
B0250213326404S14809241EA012150131400309000
B0250263326437S14809300EA012030130600609000
F0250310612131517192428
B0250313326462S14809365EA011910129600408000
F025036020612131517192428
B0250363326489S14809424EA011830128500509000
B0250413326510S14809488EA011710127300509000
B0250463326530S14809552EA011610126100409000
B0250513326560S14809611EA011500124800409000
B0250563326593S14809666EA011340123300409000
B0251013326627S14809720EA011190121800409000
B0251063326660S14809773EA011040120000409000
B0251113326693S14809830EA010840118000409000
B0251163326725S14809885EA010670116100409000
F0251210206121315171924
B0251213326756S14809940EA010500114200508000
F025126020612131517192428
B0251263326790S14809991EA010340112400409000
B0251313326821S14810040EA010190110700409000
B0251363326858S14810087EA009970108600309000
B0251413326894S14810133EA009770106500409000
B0251463326923S14810186EA009590104500409000
B0251513326949S14810241EA009410102400409000
F0251560206121517192428
B0251563326975S14810295EA009200100300408000
B0252013327004S14810345EA009020098300408000
B0252063327028S14810401EA008840096200408000
B0252113327051S14810455EA008660094100508000
B0252163327081S14810508EA008450092000408000
B0252213327113S14810558EA008230090000308000
B0252263327152S14810609EA008040087900408000
B0252313327188S14810660EA007880086100408000
B0252363327213S14810720EA007760084700608000
B0252413327227S14810787EA007640083300508000
B0252463327243S14810856EA007470081900408000
B0252513327264S14810925EA007380081100608000
B0252563327283S14810992EA007250079700508000
B0253013327296S14811060EA007130078200508000
B0253063327309S14811124EA007030077000408000
B0253113327336S14811185EA006880075500508000
B0253163327366S14811240EA006770074100508000
B0253213327396S14811299EA006630072900508000
B0253263327421S14811354EA006500071600408000
B0253313327455S14811408EA006320070200408000
B0253363327488S14811463EA006180068700408000
B0253413327515S14811519EA006050067200508000
B0253463327544S14811578EA005970065800408000
B0253513327573S14811637EA005880064600508000
B0253563327607S14811690EA005780063400308000
B0254013327649S14811726EA005680062400508000
B0254063327689S14811715EA005530061301308000
B0254113327688S14811687EA005440060200808000
B0254163327657S14811697EA005340059200708000
B0254213327625S14811731EA005250058300608000
B0254263327613S14811785EA005200057700908000
B0254313327638S14811838EA005080056800908000
B0254363327691S14811861EA004920055400808000
B0254413327742S14811875EA004720053400608000
B0254463327793S14811884EA004540051200608000
B0254513327846S14811899EA004420049700308000
B0254563327898S14811919EA004290048400408000
B0255013327944S14811927EA004350047800508000
B0255063327956S14811900EA004310047601408000
B0255113327923S14811908EA004320047901208000
B0255163327927S14811967EA004330048801408000
B0255213327961S14811956EA004240048602008000
B0255263327927S14811954EA004300048401308000
B0255313327934S14812009EA004300048501408000
B0255363327974S14811993EA004180048201808000
B0255413327948S14811978EA004280048101508000
B0255463327952S14812027EA004270048201708000
B0255513327991S14812006EA004280047901808000
B0255563327972S14811991EA004360048201408000
B0256013327981S14812061EA004230048301008000
B0256063328023S14812089EA004260048601308000
B0256113328047S14812068EA004350048901208000
B0256163328018S14812083EA004350048901508000
B0256213328023S14812142EA004420049201208000
B0256263328069S14812171EA004420049401308000
B0256313328090S14812153EA004430049801208000
B0256363328058S14812160EA004510050301108000
B0256413328080S14812206EA004490050801708000
B0256463328100S14812175EA004530051001308000
B0256513328076S14812197EA004640051201608000
B0256563328109S14812240EA004770051801608000
B0257013328122S14812216EA004840052601308000
B0257063328095S14812239EA004920053701408000
B0257113328098S14812301EA005010054600908000
B0257163328140S14812333EA005090055501008000
B0257213328165S14812313EA005100056201308000
B0257263328160S14812294EA005240057501208000
B0257313328141S14812342EA005290058301608000
B0257363328176S14812388EA005300058601808000
B0257413328202S14812358EA005400059301808000
B0257463328176S14812364EA005450059801408000
B0257513328190S14812425EA005550060801308000
B0257563328242S14812428EA005560061101308000
B0258013328263S14812401EA005660062001108000
B0258063328239S14812412EA005690062201308000
B0258113328252S14812479EA005690062501408000
B0258163328300S14812493EA005750063301508000
B0258213328309S14812460EA005750063600808000
B0258263328296S14812444EA005760063701408000
B0258313328283S14812497EA005650063401508000
B0258363328312S14812557EA005700063401208000
B0258413328352S14812552EA005630062801608000
B0258463328349S14812523EA005610062500908000
B0258513328343S14812502EA005490061600608000
B0258563328337S14812479EA005430061000708000
B0259013328331S14812461EA005360060400608000
B0259063328326S14812436EA005340060000508000
B0259113328312S14812421EA005320059700708000
B0259163328284S14812425EA005260059101408000
B0259213328272S14812488EA005240058701308000
B0259263328293S14812554EA005360059401108000
B0259313328311S14812621EA005430060200708000
B0259363328325S14812689EA005500061300908000
B0259413328341S14812753EA005630062100808000
B0259463328386S14812772EA005650062501408000
B0259513328388S14812750EA005630062401308000
B0259563328360S14812797EA005650062401608000
B0300013328360S14812877EA005730063101108000
B0300063328365S14812943EA005890064300808000
B0300113328403S14812970EA005930065401508000
B0300163328400S14812950EA005990066101708000
B0300213328366S14812996EA006030066801808000
B0300263328354S14813066EA006030066601008000
B0300313328354S14813139EA005940066000908000
B0300363328368S14813213EA005880065900608000
B0300413328375S14813289EA005850065600808000
B0300463328372S14813359EA005770064700708000
B0300513328365S14813426EA005650063400708000
B0300563328365S14813501EA005500061600608000
B0301013328371S14813583EA005380059900608000
B0301063328370S14813667EA005320058700608000
B0301113328371S14813751EA005410058900808000
B0301163328396S14813806EA005480060001408000
B0301213328412S14813786EA005540061101408000
B0301263328379S14813829EA005590062001608000
B0301313328378S14813908EA005710062501108000
B0301363328404S14813956EA005670062801008000
B0301413328420S14813940EA005610062301308000
B0301463328407S14813931EA005720062701708000
B0301513328385S14813995EA005730063101408000
B0301563328416S14814039EA005790063501108000
B0302013328440S14814028EA005790063401108000
B0302063328470S14814029EA005760063500608000
B0302113328481S14814018EA005690063401008000
B0302163328464S14813996EA005610062401008000
B0302213328437S14813987EA005610061800908000
B0302263328401S14813991EA005790061901508000
B0302313328394S14814055EA005810062601408000
B0302363328414S14814043EA005830063201908000
B0302413328378S14814056EA005900064201608000
B0302463328382S14814116EA005920064901308000
B0302513328405S14814104EA005940065401808000
B0302563328379S14814104EA006040066101608000
B0303013328387S14814173EA006060066401808000
B0303063328391S14814160EA006180067001808000
B0303113328351S14814179EA006100066901208000
B0303163328362S14814226EA006230067501208000
B0303213328376S14814208EA006260068301508000
B0303263328340S14814220EA006240068501008000
B0303313328338S14814279EA006240068401208000
B0303363328356S14814274EA006260068501608000
B0303413328324S14814272EA006230068501108000
B0303463328288S14814323EA006300068201108000
B0303513328306S14814358EA006370068701608000
B0303563328297S14814333EA006400069401208000
B0304013328245S14814346EA006600069901108000
B0304063328248S14814393EA006710071201308000
B0304113328281S14814399EA006970073301108000
B0304163328280S14814367EA006890075201508000
B0304213328226S14814401EA006900075401608000
B0304263328250S14814444EA007100076701908000
B0304313328242S14814411EA007250078401608000
B0304363328219S14814461EA007440079502008000
B0304413328251S14814503EA007600081401708000
B0304463328234S14814479EA007700083801808000
B0304513328201S14814528EA007930085901608000
B0304563328225S14814567EA008050087901608000
B0305013328224S14814539EA008140089001408000
B0305063328177S14814548EA008270090501708000
B0305113328143S14814596EA008460091701008000
B0305163328166S14814625EA008410092101208000
B0305213328175S14814603EA008600092801508000
B0305263328129S14814602EA008730094101708000
B0305313328114S14814657EA008710094601508000
B0305363328133S14814693EA008890095900708000
B0305413328155S14814679EA009050097301408000
B0305463328123S14814654EA009230099501608000
B0305513328089S14814692EA009270100901308000
B0305563328096S14814739EA009280101300608000
B0306013328126S14814756EA009430102100608000
B0306063328135S14814722EA009570103501508000
B0306113328088S14814721EA009750105201008000
B0306163328087S14814774EA009910107101308000
B0306213328124S14814778EA010030109201108000
B0306263328111S14814738EA010210111301608000
B0306313328069S14814771EA010360112801608000
B0306363328083S14814815EA010510113900708000
B0306413328115S14814835EA010630115000608000
B0306463328130S14814801EA010730116001408000
B0306513328093S14814784EA010920117801608000
B0306563328076S14814834EA011050119401508000
B0307013328112S14814862EA011180120800608000
B0307063328145S14814853EA011320122800908000
B0307113328130S14814809EA011390124201108000
B0307163328087S14814829EA011590125701408000
B0307213328100S14814877EA011760127001508000
B0307263328136S14814869EA011870128401508000
B0307313328117S14814826EA011950130101608000
F03073602061217192428
B0307363328076S14814861EA012070130901807000
B0307413328103S14814895EA012230131701607000
B0307463328129S14814862EA012410132602007000
B0307513328089S14814852EA012430133502007000
B0307563328076S14814910EA012580134401307000
B0308013328084S14814962EA012830136701407000
B0308063328123S14814971EA012980139201107000
B0308113328123S14814933EA013050140901607000
B0308163328077S14814956EA013150141901707000
B0308213328087S14815005EA013300142901807000
B0308263328125S14815005EA013430144300907000
B0308313328130S14814968EA013530145502007000
B0308363328083S14814960EA013630146601307000
B0308413328056S14815008EA013770148001307000
B0308463328058S14815058EA013910149501107000
B0308513328091S14815086EA013990150601307000
B0308563328115S14815056EA014100151702007000
B0309013328086S14815027EA014230152901907000
B0309063328052S14815053EA014360154101707000
B0309113328069S14815108EA014450155201207000
B0309163328105S14815126EA014550155800607000
B0309213328134S14815105EA014700157301307000
B0309263328138S14815069EA014930159601107000
B0309313328111S14815041EA015110161401007000
B0309363328071S14815054EA015200163101907000
B0309413328071S14815113EA015350164601407000
B0309463328091S14815162EA015460165700907000
B0309513328130S14815166EA015530167201407000
B0309563328121S14815117EA015770169102007000
B0310013328083S14815144EA015870170001907000
B0310063328103S14815195EA015900170801207000
B0310113328142S14815192EA016090171501107000
B0310163328141S14815149EA016280173401007000
B0310213328099S14815157EA016420174601807000
B0310263328108S14815211EA016550176201107000
B0310313328141S14815236EA016760177801507000
B0310363328172S14815211EA016920180601307000
B0310413328146S14815178EA017090183202107000
B0310463328106S14815208EA017210185101707000
B0310513328118S14815254EA017360186501207000
B0310563328159S14815264EA017550188300807000
B0311013328187S14815237EA017770190301407000
B0311063328178S14815199EA018000192701807000
B0311113328136S14815206EA018190195101907000
B0311163328132S14815260EA018270196001707000
B0311213328171S14815275EA018370196301007000
B0311263328203S14815252EA018590197501807000
B0311313328195S14815210EA018790199201407000
B0311363328157S14815208EA019040202001607000
B0311413328152S14815265EA019220204701007000
B0311463328178S14815306EA019380206501107000
B0311513328214S14815290EA019510208101707000
B0311563328206S14815245EA019670210201407000
B0312013328161S14815244EA019870212301007000
B0312063328138S14815286EA019960213501307000
B0312113328170S14815323EA019930214101507000
B0312163328211S14815314EA020120215100807000
B0312213328227S14815279EA020310217001207000
B0312263328205S14815249EA020510219101407000
B0312313328173S14815290EA020440219401707000
B0312363328173S14815349EA020420219500907000
B0312413328171S14815406EA020500220001007000
B0312463328183S14815449EA020600220501007000
F0312510206121719242528
B0312513328227S14815449EA020660220901208000
B0312563328247S14815410EA020790221901608000
B0313013328232S14815374EA021040223801108000
B0313063328205S14815396EA021100225100908000
B0313113328207S14815449EA021150225800708000
B0313163328220S14815496EA021290226801108000
B0313213328202S14815538EA021340227801608000
B0313263328169S14815533EA021390228400708000
B0313313328148S14815501EA021330228200608000
B0313363328151S14815464EA021260227900608000
B0313413328192S14815447EA021200227000908000
B0313463328241S14815453EA021240226600808000
B0313513328280S14815428EA021320226801908000
B0313563328292S14815382EA021530228301108000
B0314013328262S14815366EA021580229501708000
B0314063328262S14815416EA021590230501608000
B0314113328312S14815423EA021720231601108000
B0314163328335S14815378EA021870233301408000
B0314213328315S14815338EA021920234301408000
B0314263328283S14815341EA022010235001408000
B0314313328277S14815396EA021970234700808000
B0314363328314S14815425EA022050234901208000
B0314413328362S14815400EA022060235401608000
B0314463328392S14815356EA022100235801108000
B0314513328403S14815306EA022180236400608000
B0314563328419S14815256EA022170236700808000
B0315013328409S14815216EA022120236700608000
B0315063328376S14815230EA022020235801408000
B0315113328390S14815281EA021960235101108000
B0315163328447S14815294EA021930234500808000
B0315213328498S14815288EA021960234600608000
B0315263328548S14815288EA021980234600508000
B0315313328596S14815288EA022010234900508000
B0315363328645S14815290EA022040235300508000
B0315413328699S14815297EA022060235400508000
B0315463328754S14815306EA022150236100408000
B0315513328806S14815325EA022210236900508000
B0315563328858S14815359EA022230237300408000
B0316013328901S14815396EA022420238200308000
B0316063328948S14815422EA022590240300708000
B0316113328983S14815401EA022640241901408000
B0316163328977S14815379EA022660242601708000
B0316213328951S14815423EA022620242000808000
B0316263328964S14815484EA022750242500908000
B0316313329003S14815538EA022740242600908000
F03163602061217192425
B0316363329049S14815579EA022880243701307000
F0316410206121719242528
B0316413329095S14815616EA023050245100708000
B0316463329141S14815605EA023120246601808000
B0316513329120S14815575EA023170247601408000
B0316563329088S14815601EA023320248500908000
B0317013329091S14815655EA023490250000808000
B0317063329140S14815680EA023650252001008000
B0317113329183S14815662EA023810253801408000
B0317163329183S14815627EA023800254901108000
B0317213329150S14815618EA023900255600808000
B0317263329123S14815638EA023950255801308000
B0317313329133S14815699EA023940255601108000
B0317363329168S14815755EA024070255800908000
B0317413329213S14815804EA024260257200608000
B0317463329258S14815836EA024400259200708000
B0317513329291S14815810EA024410260402008000
B0317563329263S14815797EA024390260301508000
B0318013329246S14815855EA024460260800908000
B0318063329271S14815916EA024590261800808000
B0318113329305S14815971EA024640262800608000
B0318163329338S14816010EA024740263600708000
B0318213329370S14816059EA024780264000508000
B0318263329396S14816112EA024810264300408000
B0318313329433S14816159EA024830264600508000
F03183602061217192425
B0318363329472S14816213EA024880265000507000
F0318410206121719242528
B0318413329514S14816270EA024870265100508000
B0318463329549S14816329EA024840265100408000
B0318513329587S14816383EA024820265000408000
B0318563329626S14816428EA024900265200608000
B0319013329658S14816477EA024890265200408000
B0319063329697S14816522EA024860265200508000
B0319113329731S14816574EA024840264900608000
B0319163329759S14816629EA024800264600508000
B0319213329793S14816681EA024800264300608000
B0319263329835S14816732EA024770264000508000
B0319313329883S14816781EA024680263400508000
B0319363329928S14816836EA024660263000408000
B0319413329962S14816893EA024670262800408000
B0319463330000S14816949EA024630262600408000
B0319513330039S14817002EA024600262300408000
B0319563330082S14817056EA024530261900508000
B0320013330123S14817106EA024480261500408000
B0320063330160S14817168EA024430260900408000
B0320113330197S14817223EA024470260900308000
B0320163330238S14817275EA024510261200408000
B0320213330276S14817324EA024570261500408000
B0320263330318S14817374EA024560261600408000
B0320313330360S14817419EA024590262000408000
B0320363330404S14817469EA024550262100508000
B0320413330438S14817528EA024570262200408000
B0320463330476S14817585EA024560262300408000
B0320513330514S14817645EA024560262000408000
B0320563330551S14817702EA024510261600408000
B0321013330586S14817764EA024460261300408000
B0321063330612S14817830EA024410260700408000
B0321113330646S14817894EA024260259800508000
B0321163330688S14817950EA024140258700508000
B0321213330729S14818001EA024070257400508000
B0321263330767S14818061EA023960256200408000
B0321313330802S14818124EA023850255000408000
B0321363330840S14818185EA023860254300408000
B0321413330877S14818244EA023840253800408000
B0321463330912S14818302EA023800253600408000
B0321513330939S14818369EA023760253400408000
B0321563330966S14818443EA023700253000608000
B0322013330999S14818514EA023660252700508000
B0322063331032S14818585EA023650252400608000
B0322113331059S14818657EA023610252000508000
B0322163331088S14818728EA023540251600508000
B0322213331117S14818801EA023490251100408000
B0322263331149S14818872EA023480250600408000
B0322313331183S14818937EA023380250000408000
B0322363331214S14819007EA023230248900408000
B0322413331241S14819074EA023160247800408000
B0322463331271S14819137EA023050246700408000
B0322513331304S14819196EA022930245200408000
B0322563331342S14819255EA022820244200408000
B0323013331380S14819310EA022710243100408000
B0323063331410S14819373EA022590242000508000
B0323113331435S14819443EA022500241000408000
B0323163331460S14819513EA022390239800508000
B0323213331480S14819584EA022240238300508000
B0323263331495S14819658EA022150236800408000
B0323313331526S14819721EA022020235400508000
B0323363331563S14819781EA021840233800408000
B0323413331599S14819837EA021750232500508000
B0323463331635S14819896EA021580230700408000
B0323513331679S14819948EA021390229100408000
B0323563331723S14819996EA021280227600308000
B0324013331764S14820045EA021160226200408000
B0324063331807S14820088EA021070225100408000
B0324113331853S14820128EA020910223800308000
B0324163331896S14820176EA020780222400408000
B0324213331939S14820220EA020670221200408000
B0324263331976S14820265EA020560220000408000
B0324313332009S14820321EA020390218500408000
B0324363332047S14820373EA020220216800408000
B0324413332085S14820421EA020120215500408000
B0324463332117S14820476EA019990214200408000
B0324513332149S14820527EA019920213100408000
B0324563332176S14820582EA019830212100408000
B0325013332203S14820643EA019690211100408000
B0325063332234S14820699EA019630210100408000
B0325113332266S14820753EA019510209300408000
B0325163332299S14820811EA019430208600308000
B0325213332334S14820866EA019370207800408000
B0325263332373S14820918EA019300207100408000
B0325313332417S14820967EA019280206500408000
B0325363332463S14821012EA019180205700408000
B0325413332512S14821053EA019120204900408000
B0325443332537S14821076EA019140204600408000
B0325453332545S14821084EA019140204500408000
E032546TPC
B0325463332553S14821093EA019130204500408000
B0325473332560S14821101EA019130204500408000
B0325483332568S14821110EA019120204400408000
B0325493332576S14821118EA019110204300408000
B0325503332584S14821127EA019080204200408000
B0325513332592S14821136EA019050204100408000
B0325563332629S14821176EA019000203700408000
B0326013332668S14821222EA018870202900308000
B0326063332714S14821259EA018760201800408000
B0326113332761S14821292EA018730201000408000
B0326163332810S14821325EA018690200400508000
B0326213332857S14821349EA018740200500408000
B0326263332905S14821354EA018700200400408000
B0326313332951S14821344EA018630200100408000
B0326363332978S14821314EA018550199401008000
B0326413332969S14821280EA018450198701508000
B0326463332925S14821277EA018480197900808000
B0326513332899S14821306EA018480198001108000
B0326563332900S14821367EA018440197500708000
B0327013332915S14821425EA018450197300608000
B0327063332951S14821462EA018400197301508000
B0327113332992S14821438EA018340197101008000
B0327163332993S14821396EA018300196601108000
B0327213332960S14821378EA018220195601108000
B0327263332919S14821381EA018190195200708000
B0327313332885S14821384EA018190195000708000
B0327363332852S14821395EA018110194500508000
B0327413332819S14821413EA018020193800508000
B0327463332787S14821443EA017940193000408000
B0327513332755S14821474EA017850192300608000
B0327563332725S14821510EA017760191600808000
B0328013332690S14821557EA017690190600508000
B0328063332654S14821575EA017630189800608000
B0328113332618S14821580EA017560188900408000
B0328163332582S14821585EA017470188200508000
B0328213332548S14821587EA017450187600408000
B0328263332514S14821587EA017370186900408000
B0328313332479S14821583EA017290186200508000
B0328363332454S14821565EA017250185700408000
B0328413332434S14821542EA017190185100308000
B0328463332415S14821518EA017150184700408000
B0328513332390S14821492EA017020183900508000
B0328563332353S14821480EA016950182600708000
B0329013332315S14821475EA016850181500508000
B0329063332283S14821468EA016800180600508000
B0329113332261S14821449EA016610179300608000
B0329163332241S14821411EA016510178400608000
B0329213332226S14821379EA016450177500508000
B0329263332211S14821350EA016350176400408000
B0329313332187S14821325EA016230175300408000
B0329363332163S14821304EA016120173900508000
B0329413332133S14821281EA015930171700608000
B0329463332111S14821250EA015780169900308000
B0329513332093S14821216EA015610168200308000
B0329563332081S14821179EA015440166300508000
B0330013332067S14821145EA015270164600308000
B0330063332050S14821112EA015110162800408000
B0330113332036S14821080EA014930161000508000
B0330163332018S14821055EA014770159300308000
B0330213331998S14821031EA014580157500308000
F03302602061217192428
B0330263331983S14821001EA014340155100607000
B0330313331971S14820974EA014250153100807000
B0330363331955S14820945EA014060151300607000
B0330413331939S14820918EA013930149800407000
B0330463331923S14820889EA013750148300407000
B0330513331912S14820856EA013550146600807000
F033056020612171924
B0330563331902S14820827EA013420145000706000
B0331013331885S14820802EA013310143500906000
B0331063331861S14820784EA013140142200806000
B0331113331838S14820760EA013090141201106000
F03311602061217192425
B0331163331827S14820735EA013220141301407000
B0331213331796S14820744EA013290141801207000
B0331263331768S14820794EA013340142901107000
B0331313331744S14820845EA013410143500907000
B0331363331752S14820910EA013430144101607000
B0331413331795S14820920EA013410144401407000
B0331463331809S14820888EA013500144801807000
B0331513331802S14820862EA013570145300907000
B0331563331787S14820844EA013650146200707000
B0332013331759S14820846EA013690146701307000
B0332063331726S14820897EA013750147201807000
B0332113331734S14820969EA013810147802507000
B0332163331781S14821008EA013850148500907000
B0332213331820S14821001EA013820148701407000
B0332263331830S14820976EA013860148901207000
B0332313331826S14820952EA013860149100607000
B0332363331818S14820926EA013890149300507000
B0332413331812S14820897EA013950149600607000
B0332463331800S14820865EA014020150100607000
B0332513331769S14820857EA014150151101007000
B0332563331743S14820920EA014290152201407000
B0333013331780S14820965EA014440154002607000
B0333063331805S14820941EA014480155502107000
B0333113331795S14820911EA014600157100807000
B0333163331794S14820878EA014730158500807000
B0333213331791S14820842EA014900159901507000
B0333263331760S14820833EA015210162501207000
B0333313331722S14820866EA015410165201607000
B0333363331696S14820922EA015640167701207000
B0333413331722S14820970EA015850169802507000
B0333463331747S14820947EA016060172102607000
B0333513331712S14820948EA016290174801707000
B0333563331692S14821020EA016520177101907000
B0334013331728S14821059EA016750179502007000
B0334063331741S14821031EA017000181802307000
B0334113331707S14821050EA017200184701507000
B0334163331695S14821124EA017490187501507000
B0334213331736S14821152EA017710190202107000
B0334263331743S14821125EA017890192402207000
B0334313331707S14821128EA018150194802107000
B0334363331691S14821196EA018340196901507000
B0334413331741S14821235EA018530198702007000
B0334463331778S14821227EA018750200601007000
B0334513331779S14821202EA018930202601407000
B0334563331738S14821231EA019120204402007000
B0335013331737S14821305EA019280206201607000
B0335063331779S14821345EA019510208401307000
B0335113331798S14821320EA019680210202207000
B0335163331763S14821321EA019850212002007000
B0335213331733S14821376EA020010213601707000
B0335263331745S14821453EA020140215101707000
B0335313331791S14821488EA020340217001107000
B0335363331813S14821471EA020530219201807000
F033541020612172425
B0335413331786S14821464EA020730221101906000
F03354602061217192425
B0335463331758S14821519EA020850222701607000
B0335513331766S14821600EA020980224501207000
B0335563331807S14821644EA021190226301307000
B0336013331835S14821631EA021370228501607000
B0336063331817S14821621EA021560230601707000
B0336113331782S14821673EA021690232101507000
B0336163331783S14821753EA021840233502007000
B0336213331832S14821789EA022010234801407000
B0336263331864S14821778EA022120235902007000
B0336313331854S14821755EA022220237001007000
B0336363331840S14821740EA022400238300907000
B0336413331821S14821724EA022540239800707000
B0336463331789S14821743EA022670241401007000
B0336513331772S14821821EA022680241901107000
B0336563331812S14821865EA022790242602707000
F0337010205061217192425
B0337013331829S14821838EA022830243500908000
B0337063331812S14821811EA022960244800608000
B0337113331788S14821791EA023040245700608000
B0337163331768S14821770EA023140246800408000
B0337213331746S14821750EA023230247800708000
B0337263331723S14821725EA023380249100608000
F03373102050612171924
B0337313331705S14821697EA023470250300807000
F0337360205061217192425
B0337363331686S14821673EA023580251400408000
B0337413331659S14821652EA023630252300508000
F03374602050612171924
B0337463331640S14821626EA023690253100707000
F0337510205061217192425
B0337513331624S14821594EA023670253200508000
B0337563331609S14821565EA023640252900408000
B0338013331595S14821531EA023470251600508000
B0338063331585S14821501EA023410250600508000
B0338113331575S14821475EA023260249400408000
B0338163331560S14821446EA023090247500408000
B0338213331554S14821414EA022960245700508000
B0338263331555S14821375EA022810244000308000
B0338313331552S14821342EA022670242400308000
B0338363331544S14821308EA022510240700408000
B0338413331539S14821276EA022390239100408000
B0338463331529S14821240EA022220237500308000
B0338513331515S14821207EA022100236000408000
B0338563331499S14821178EA022050235300508000
B0339013331485S14821149EA021970234700408000
B0339063331470S14821120EA021870234100508000
B0339113331458S14821091EA021790233200308000
B0339163331448S14821064EA021640231900408000
B0339213331442S14821038EA021570230700508000
B0339263331433S14821007EA021480229800508000
B0339313331414S14820983EA021500229500408000
B0339363331397S14820950EA021440229300508000
B0339413331379S14820926EA021470229400508000
B0339463331354S14820901EA021400229100508000
B0339513331339S14820877EA021410228900408000
B0339563331324S14820852EA021470229100508000
B0340013331305S14820826EA021470229300408000
B0340063331286S14820801EA021460229400508000
F03401102050612171924
B0340113331269S14820779EA021490229600807000
F0340160205061217192425
B0340163331252S14820756EA021490229700308000
B0340213331232S14820735EA021470229600408000
B0340263331211S14820714EA021440229500408000
B0340313331196S14820692EA021370229100408000
B0340363331187S14820665EA021360228800608000
B0340413331160S14820641EA021370228500708000
F03404602050612171924
B0340463331143S14820613EA021420228700807000
B0340513331131S14820584EA021410228700407000
F0340560205061217192425
B0340563331122S14820555EA021380228500408000
B0341013331108S14820521EA021320228200408000
B0341063331095S14820489EA021330228000408000
B0341113331092S14820459EA021310228000508000
B0341163331081S14820425EA021320227900408000
B0341213331065S14820399EA021310228000408000
B0341263331048S14820379EA021300227900408000
B0341313331033S14820358EA021260227700408000
B0341363331014S14820340EA021190227200508000
B0341413330990S14820317EA021090226600508000
B0341463330959S14820301EA021070226200508000
B0341513330923S14820284EA021020225400708000
B0341563330887S14820274EA021030225100708000
B0342013330853S14820262EA021080225200508000
B0342063330822S14820258EA021140225600508000
B0342113330784S14820258EA021180226100508000
B0342163330749S14820250EA021240226700608000
B0342213330726S14820223EA021260227200608000
B0342263330710S14820196EA021290227700408000
B0342313330693S14820175EA021190227600608000
F03423602050612171924
B0342363330674S14820147EA021100226600807000
B0342413330659S14820119EA021010225600907000
B0342463330641S14820087EA020870224200607000
B0342513330614S14820059EA020720222600607000
F0342560205061217192425
B0342563330590S14820032EA020590221000908000
B0343013330573S14820000EA020480219600508000
B0343063330563S14819967EA020380218300508000
B0343113330565S14819934EA020370217400508000
B0343163330564S14819895EA020300216800508000
B0343213330552S14819857EA020350217000708000
B0343263330536S14819832EA020420217800808000
B0343313330517S14819810EA020470218400708000
F03433602050612171924
B0343363330497S14819785EA020440218600907000
F0343410205061217192425
B0343413330476S14819760EA020390218500708000
B0343463330460S14819730EA020500218900608000
B0343513330433S14819724EA020530219401308000
B0343563330414S14819786EA020520219401208000
B0344013330457S14819836EA020520219601608000
B0344063330497S14819824EA020510219800908000
B0344113330499S14819786EA020540219800608000
B0344163330489S14819755EA020560219900508000
B0344213330474S14819724EA020540219900508000
B0344263330457S14819695EA020570220100408000
B0344313330440S14819667EA020540220000508000
B0344363330431S14819634EA020510219700408000
B0344413330420S14819602EA020490219500508000
B0344463330404S14819569EA020390218900508000
B0344513330392S14819532EA020290217900408000
B0344563330377S14819500EA020150216600508000
B0345013330359S14819469EA020010215000508000
B0345063330343S14819439EA019890213400608000
B0345113330325S14819405EA019720211700608000
B0345163330310S14819371EA019610210100508000
F03452102050612171924
B0345213330299S14819329EA019450208400307000
F0345260205061217192425
B0345263330292S14819300EA019370207000408000
B0345313330278S14819269EA019180205400508000
B0345363330264S14819234EA019000203600608000
B0345413330258S14819196EA018800201600408000
B0345463330251S14819156EA018540199200408000
B0345513330242S14819123EA018390197000508000
B0345563330225S14819091EA018140194600608000
B0346013330205S14819058EA018020192700508000
B0346063330192S14819032EA017930191600508000
B0346113330180S14819011EA017800190400508000
B0346163330159S14818991EA017660189100708000
B0346213330136S14818976EA017520187600708000
B0346263330118S14818955EA017420186400508000
B0346313330107S14818932EA017260185100508000
B0346363330099S14818904EA017160183900508000
B0346413330085S14818881EA017010182500708000
B0346463330077S14818853EA016900181000408000
B0346513330070S14818830EA016790179900508000
B0346563330058S14818807EA016660178700708000
B0347013330047S14818784EA016740178600608000
B0347063330034S14818769EA016700178700908000
B0347113330021S14818747EA016650178600508000
B0347163330014S14818723EA016620178400508000
F03472102050612171924
B0347213330012S14818697EA016510178100907000
B0347263330005S14818674EA016430177400807000
F0347310205061217192425
B0347313330001S14818645EA016290176500608000
B0347363330002S14818612EA016140175301008000
B0347413329987S14818590EA015990173800708000
B0347463329961S14818572EA015830171901008000
B0347513329938S14818555EA015690170000708000
B0347563329917S14818533EA015600168500608000
B0348013329902S14818506EA015480166900608000
B0348063329891S14818476EA015410165600508000
B0348113329880S14818447EA015350164800408000
B0348163329869S14818418EA015240163900608000
B0348213329863S14818383EA015120162700508000
B0348263329863S14818354EA015060162000608000
B0348313329863S14818317EA014930161000508000
B0348363329869S14818286EA014880160300408000
B0348413329872S14818248EA014770159500508000
B0348463329854S14818213EA014700158500608000
B0348513329842S14818175EA014630157700608000
B0348563329847S14818133EA014620157400508000
B0349013329839S14818093EA014500156600608000
B0349063329817S14818063EA014440155700808000
B0349113329804S14818031EA014300154500608000
B0349163329792S14818003EA014160152900508000
B0349213329773S14817980EA013960151200708000
B0349263329737S14817968EA013750148800908000
B0349313329699S14817965EA013580146600408000
B0349363329663S14817962EA013410144500408000
B0349413329631S14817961EA013260142700508000
B0349463329597S14817960EA013060140500508000
F03495102050612172425
B0349513329560S14817967EA012880138400607000
F0349560205061217192425
B0349563329518S14817982EA012590136100308000
B0350013329477S14818001EA012450134100508000
B0350063329436S14818025EA012240131700808000
B0350113329395S14818040EA012100130000308000
B0350163329353S14818044EA011890128100408000
B0350213329312S14818047EA011780126600408000
B0350263329274S14818051EA011650125200308000
B0350313329234S14818057EA011550124300708000
B0350363329198S14818066EA011390123100408000
B0350413329156S14818079EA011190121300508000
B0350463329113S14818090EA011010119500408000
B0350513329076S14818108EA010920118100308000
B0350563329039S14818118EA010760116500408000
B0351013329003S14818123EA010640115000408000
B0351063328971S14818124EA010510113500608000
B0351113328933S14818128EA010310111700308000
B0351163328893S14818131EA010190110100408000
B0351213328860S14818127EA010110109100608000
B0351263328837S14818109EA010000108100508000
B0351313328819S14818085EA009890107000508000
B0351363328793S14818065EA009670105400408000
B0351413328766S14818051EA009570104100808000
B0351463328735S14818035EA009340102000908000
B0351513328710S14818015EA009110099600708000
B0351563328679S14817996EA008880096800708000
B0352013328645S14817988EA008710094600408000
B0352063328617S14817969EA008590092800808000
B0352113328599S14817937EA008400091100708000
B0352163328587S14817905EA008320090200708000
B0352213328580S14817872EA008210089300508000
B0352263328562S14817845EA008090088200708000
B0352313328538S14817834EA008040087500508000
B0352363328504S14817817EA007960086700508000
B0352413328482S14817795EA007960086500708000
B0352463328467S14817767EA007940086400608000
B0352513328446S14817754EA007940086600508000
B0352563328409S14817756EA007970086800408000
B0353013328371S14817775EA008050087200908000
B0353063328360S14817839EA008090087601308000
F035311020506121719242529
B0353113328396S14817897EA007990087400909000
B0353163328451S14817920EA007950087200509000
B0353213328498S14817925EA007990087000509000
B0353263328530S14817915EA008020087100809000
B0353313328547S14817888EA007980087100809000
B0353363328536S14817868EA007960086800609000
B0353413328513S14817852EA007870086300509000
B0353463328480S14817856EA007870086000709000
B0353513328445S14817881EA007810085600309000
B0353563328410S14817913EA007850085200309000
B0354013328392S14817969EA007830085100609000
B0354063328398S14818045EA007800084900909000
B0354113328414S14818119EA007750084600609000
B0354163328434S14818191EA007720084300609000
B0354213328458S14818259EA007730084300509000
B0354263328477S14818332EA007700083900809000
B0354313328507S14818378EA007650083500509000
B0354363328546S14818384EA007560082800809000
B0354413328564S14818355EA007490082500709000
B0354463328545S14818331EA007430082000509000
B0354513328505S14818342EA007310081200609000
B0354563328464S14818373EA007360080700409000
B0355013328446S14818431EA007290080100909000
B0355063328446S14818499EA007220079300509000
B0355113328463S14818562EA007170078501009000
B0355163328508S14818573EA007030077401109000
B0355213328531S14818541EA006920075800709000
B0355263328528S14818503EA006850074700809000
B0355313328500S14818474EA006780073900609000
B0355363328469S14818460EA006790073800809000
B0355413328432S14818459EA006740073400309000
B0355463328393S14818465EA006710073000309000
B0355513328351S14818477EA006650072600409000
B0355563328306S14818488EA006560072200309000
B0356013328265S14818496EA006510071800409000
B0356063328226S14818504EA006390070800509000
B0356113328186S14818511EA006260069600509000
B0356163328148S14818510EA006180068300409000
B0356213328110S14818505EA006150067500509000
B0356263328072S14818505EA006100067200409000
B0356313328034S14818505EA006070066900509000
B0356363327997S14818526EA006100067000509000
B0356413327981S14818583EA006160067400809000
B0356463328010S14818640EA006210068000509000
B0356513328057S14818658EA006230068200609000
B0356563328085S14818642EA006150067801209000
B0357013328065S14818628EA006040067100809000
B0357063328029S14818671EA006020066401209000
B0357113328027S14818746EA006010065900709000
B0357163328045S14818825EA006030066000609000
B0357213328080S14818883EA006070066401309000
B0357263328117S14818871EA005980065901109000
B0357313328088S14818870EA005810064601509000
B0357363328064S14818940EA005750063400809000
B0357413328066S14819021EA005700062700909000
B0357463328083S14819093EA005670062101109000
B0357513328115S14819148EA005610061500609000
B0357563328152S14819163EA005510060701109000
B0358013328167S14819144EA005460060300709000
B0358063328139S14819134EA005380059500709000
B0358113328094S14819168EA005350059100909000
B0358163328051S14819213EA005310058700809000
B0358213328008S14819255EA005250058000609000
B0358263327979S14819316EA005160057000709000
B0358313327971S14819386EA005080055900409000
B0358363327974S14819457EA005060055600609000
B0358413327976S14819518EA005100055900509000
B0358463328000S14819556EA005070055600509000
B0358513328030S14819561EA005020056301109000
B0358563328011S14819533EA004980056900809000
B0359013327967S14819531EA004960056100909000
B0359063327937S14819582EA004900055101209000
B0359113327931S14819643EA004870054100709000
B0359163327936S14819707EA004800053100609000
B0359213327955S14819758EA004690052100509000
B0359263327991S14819767EA004570050600909000
B0359313328005S14819735EA004510049800609000
B0359363327982S14819704EA004450049300809000
B0359413327938S14819698EA004370048500409000
B0359463327890S14819712EA004310047900509000
B0359513327843S14819741EA004270047400609000
B0359563327798S14819773EA004220046700609000
B0400013327764S14819820EA004140046000509000
B0400063327739S14819871EA004140045500509000
B0400113327725S14819926EA004090045300609000
B0400163327724S14819985EA004000044900709000
B0400213327727S14820047EA003870043500709000
B0400263327731S14820106EA003730041600709000
B0400313327736S14820158EA003580039800809000
B0400363327763S14820193EA003370037600909000
B0400413327792S14820187EA003240035501209000
B0400463327785S14820154EA003070033801309000
B0400513327778S14820113EA002930032200809000
B0400563327785S14820071EA002840031200609000
B0401013327793S14820033EA002750030500609000
B0401063327798S14819992EA002640029400809000
B0401113327807S14819946EA002500028000709000
B0401163327817S14819902EA002420026800709000
B0401213327829S14819858EA002360026200509000
B0401263327844S14819824EA002340025900809000
B0401313327853S14819796EA002330025700609000
B0401363327853S14819796EA002330025800709000
B0401413327853S14819796EA002330025800709000
B0401463327853S14819796EA002330025800709000
B0401513327853S14819796EA002330025800709000
B0401563327852S14819798EA002330025700509000
B0402013327852S14819798EA002330025700409000
F0402060205061217242529
B0402063327851S14819796EA002340025900508000
B0402113327851S14819792EA002340025900608000
B0402163327849S14819789EA002340025900408000
B0402213327848S14819786EA002350025900308000
B0402263327846S14819782EA002340025900408000
B0402313327843S14819779EA002340025900808000
B0402363327842S14819776EA002340025900508000
B0402413327839S14819772EA002340026000308000
B0402463327836S14819772EA002340025900408000
B0402513327837S14819772EA002330025900308000
B0402563327835S14819771EA002340025800508000
B0403013327832S14819769EA002340025800308000
B0403063327829S14819768EA002340025800308000
B0403113327829S14819768EA002330025800308000
F04031602050612172429
B0403163327829S14819768EA002340025800307000
F0403210205061217242529
B0403213327829S14819768EA002330025800308000
B0403263327829S14819768EA002330025800308000
B0403313327827S14819767EA002340025800308000
B0403363327826S14819766EA002340025800308000
B0403413327825S14819766EA002340025800308000
B0403463327822S14819764EA002340025800408000
B0403513327821S14819764EA002340025800308000
B0403563327821S14819764EA002340025800508000
B0404013327818S14819761EA002340025800308000
B0404063327815S14819760EA002340025900408000
B0404113327811S14819758EA002340026000508000
B0404163327808S14819756EA002340025900508000
B0404213327804S14819754EA002340026000308000
B0404263327800S14819752EA002340025900308000
B0404313327797S14819751EA002340025900508000
B0404363327794S14819748EA002340026000508000
B0404413327793S14819746EA002340026000408000
B0404463327793S14819746EA002340026000308000
B0404513327793S14819746EA002340026000208000
B0404563327793S14819746EA002340026000308000
B0405013327793S14819746EA002340026000308000
B0405063327793S14819746EA002340026000308000
B0405113327793S14819746EA002340026000308000
B0405163327793S14819746EA002340026000308000
B0405213327793S14819746EA002340026000308000
B0405263327793S14819746EA002340026000308000
B0405313327793S14819746EA002340026000308000
B0405363327793S14819746EA002340026000308000
B0405413327793S14819746EA002340026000308000
GDC8D51F2F6A1B5CC92D7EA686BE3DD4803CDE03ED27763CAD0C3A734BDD57721
