AFLY00C6 0100750
HFDTE070116
HFFXA010
HFPLTPILOT:PETER_ BURKITT  
HFCM2CREW2:NKN
HFGTYGLIDERTYPE:RX5             
HFGIDGLIDERID:003             
HFDTM100GPSDATUM:WGS84
HFRFWFIRMWAREVERSION: 1.1.04 EN
HFRHWHARDWAREVERSION:1.00
HFFTYFRTYPE:Flytec ,Element
HFGPS:FASTRAX,IT430,48
HFPRSPRESSALTSENSOR:INTERSEMA,MS5401BM,12000
HFALGALTGPS:GEO
HFALPALTPRESSURE:ISA
HFTZNUTCOFFSET: 11.00h
I033638FXA3940SIU4143TAS
C070116003902070116002200
C3321648S14755920E TAKEOFF
C3321648S14755920E START  FORBE            00000000010000000000360000AREA
C3003011S14806612E FINISH WALGET           00000000000400000000360000AREA
C3003011S14806612E LANDING
F015541061213151719
B0155413321326S14755975EA002080023703006000
F015542061213151719
B0155423321326S14755975EA002080023703206000
F015543061213151719
B0155433321326S14755975EA002080023502606000
F015544061213151719
B0155443321326S14755975EA002080023502606000
F0156080206121315171928
B0156083321326S14755975EA002080023702008000
F0156380206121315171928
B0156383321328S14755977EA002090023500708000
F0157080206121315171928
B0157083321329S14755976EA002080023600708000
F015738020612131517192830
B0157383321329S14755976EA002080023600509000
F015808020612131517192830
B0158083321343S14755982EA002070024000509000
E015810STA
E015810ATS1016.9
LFLYA1 00239
B0158103321354S14755990EA002080024100409000
B0158153321383S14756017EA002160024400509000
B0158203321411S14756042EA002310025100709000
B0158253321438S14756071EA002450026400609000
B0158303321466S14756106EA002600028200609000
B0158353321497S14756138EA002820030300509000
B0158403321523S14756173EA003030032700609000
B0158453321545S14756202EA003240035400709000
B0158503321568S14756227EA003420037700609000
B0158553321596S14756242EA003640039900609000
B0159003321618S14756262EA003780042100709000
B0159053321630S14756292EA004000044500609000
B0159103321629S14756332EA004290047200509000
B0159153321613S14756381EA004420048900809000
B0159203321575S14756422EA004560050400609000
B0159253321516S14756442EA004740052300409000
B0159303321453S14756418EA004890054000809000
B0159353321410S14756358EA005030055500609000
B0159403321390S14756289EA005250057800509000
B0159453321402S14756231EA005510060300909000
B0159503321434S14756192EA005660062400909000
B0159553321469S14756173EA005880064500709000
B0200003321500S14756165EA006180067000609000
B0200053321531S14756172EA006370069400509000
B0200103321550S14756203EA006580071700609000
B0200153321546S14756253EA006730073500609000
B0200203321514S14756308EA006840074700509000
B0200253321456S14756344EA007020076200509000
B0200303321391S14756345EA007210078001009000
B0200353321332S14756310EA007320079500709000
B0200403321287S14756262EA007530081500609000
B0200453321253S14756203EA007710083400409000
B0200503321242S14756137EA007930085600409000
B0200553321260S14756082EA008190087900509000
B0201003321292S14756055EA008350090000609000
B0201053321311S14756045EA008610092200609000
B0201103321323S14756070EA008670093200709000
B0201153321304S14756109EA008730093700609000
B0201203321262S14756133EA008830094500509000
B0201253321212S14756132EA008820094600709000
B0201303321170S14756104EA008800094000609000
B0201353321142S14756062EA008790094100609000
B0201403321133S14756014EA008820094300409000
B0201453321126S14755966EA008790094300609000
B0201503321116S14755916EA008680093900509000
B0201553321128S14755873EA008620093100409000
B0202003321154S14755851EA008600092900609000
B0202053321181S14755834EA008670092900509000
B0202103321209S14755821EA008700093000609000
B0202153321237S14755796EA008650092800509000
B0202203321239S14755748EA008670092900509000
B0202253321206S14755713EA008700092900609000
B0202303321167S14755720EA008790093300709000
B0202353321158S14755753EA008840093900609000
B0202403321176S14755768EA008850094100609000
B0202453321205S14755760EA008860094500609000
B0202503321233S14755751EA008860094700609000
B0202553321252S14755720EA008870094800609000
B0203003321249S14755677EA008960095400409000
B0203053321225S14755637EA009040096200709000
B0203103321186S14755631EA009100096700709000
B0203153321164S14755661EA009190097500509000
B0203203321174S14755691EA009230098000609000
B0203253321200S14755692EA009310098600509000
B0203303321218S14755669EA009390099400509000
B0203353321222S14755623EA009450100100509000
B0203383321202S14755577EA009520101000709000
B0203433321163S14755557EA009560101500709000
B0203483321128S14755571EA009560101400509000
B0203533321104S14755605EA009580101600409000
B0203583321087S14755645EA009650102100509000
B0204033321070S14755685EA009740102600509000
B0204083321055S14755726EA009870103100409000
B0204133321056S14755761EA009960103700409000
B0204183321073S14755777EA010010104300509000
B0204233321086S14755752EA010020105000709000
B0204283321075S14755709EA010020105300509000
B0204333321037S14755672EA010100106000709000
B0204383320990S14755672EA010220107200709000
B0204433320951S14755700EA010330108600609000
B0204483320931S14755740EA010420109800409000
B0204533320937S14755768EA010530110600709000
B0204583320955S14755764EA010520110700809000
B0205033320966S14755736EA010480110700609000
B0205083320968S14755699EA010520110800609000
B0205133320955S14755656EA010550111200509000
B0205183320929S14755613EA010590111700509000
B0205233320891S14755585EA010680112200609000
B0205283320852S14755576EA010720112700509000
B0205333320821S14755598EA010720112900409000
B0205383320820S14755641EA010680112800509000
B0205433320835S14755668EA010880113300809000
B0205483320856S14755673EA010890113800609000
B0205533320861S14755636EA010870114200809000
B0205583320823S14755603EA010900114600909000
B0206033320780S14755627EA011010115601109000
B0206083320783S14755666EA011120116200909000
B0206133320803S14755648EA011090116601009000
B0206183320800S14755603EA011040116600509000
B0206233320779S14755556EA011100116900509000
B0206283320735S14755538EA011200117600709000
B0206333320702S14755569EA011250118300709000
B0206383320708S14755606EA011370118900809000
B0206433320729S14755602EA011380119201009000
B0206483320746S14755576EA011360119400709000
B0206533320741S14755534EA011350119500609000
B0206583320711S14755495EA011350119800509000
B0207033320671S14755481EA011420120100709000
B0207083320629S14755492EA011440120400509000
B0207133320601S14755526EA011480120900409000
B0207183320595S14755563EA011590121500509000
F02072302061213151719242830
B0207233320612S14755570EA011590121800610000
B0207283320622S14755532EA011570121800610000
B0207333320609S14755486EA011630122300710000
B0207383320571S14755461EA011710123100410000
B0207433320525S14755464EA011660123100610000
B0207483320498S14755499EA011610122800510000
B0207533320514S14755523EA011650122800710000
B0207583320540S14755512EA011700123000510000
B0208033320554S14755472EA011730123200710000
B0208083320524S14755433EA011810124000910000
B0208133320477S14755433EA011740123900710000
B0208183320443S14755466EA011670123600610000
B0208233320444S14755507EA011700123700610000
B0208283320461S14755513EA011700123600510000
B0208333320468S14755469EA011630123400710000
B0208383320435S14755443EA011710123400710000
B0208433320396S14755466EA011710123500610000
B0208483320373S14755504EA011810123900610000
B0208533320387S14755523EA011740123900610000
B0208583320401S14755499EA011640123600610000
B0209033320398S14755448EA011530122900710000
B0209083320384S14755405EA011640123100410000
B0209133320352S14755367EA011500122100610000
B0209183320306S14755372EA011400121300610000
B0209233320285S14755411EA011330120700510000
B0209283320299S14755443EA011290120300510000
B0209333320319S14755453EA011290119700510000
B0209383320341S14755442EA011230119200410000
B0209433320372S14755431EA011170118800410000
B0209483320385S14755399EA011140118400610000
B0209533320363S14755357EA011110118000710000
B0209583320324S14755347EA011120117600710000
B0210033320280S14755359EA011020116700610000
B0210083320237S14755354EA010890115400810000
B0210133320200S14755320EA010780114100510000
B0210183320180S14755275EA010740113800310000
B0210233320183S14755227EA010680113300310000
B0210283320194S14755187EA010630112800310000
B0210333320205S14755150EA010550112300510000
B0210383320215S14755111EA010410111300610000
B0210433320232S14755079EA010260109900610000
B0210483320231S14755034EA010100108200810000
B0210533320184S14755013EA009920106200710000
B0210583320141S14755017EA009830104400610000
B0211033320096S14755027EA009770103300810000
B0211083320053S14755032EA009660102100410000
B0211133320011S14755038EA009500100500610000
B0211183319966S14755038EA009290098300710000
B0211233319915S14755010EA009110096400710000
B0211283319870S14755010EA009060095400610000
B0211333319823S14755005EA008970094600510000
B0211383319793S14754963EA008860093900510000
B0211433319784S14754921EA008930093800510000
B0211483319780S14754881EA008980094400410000
B0211533319781S14754844EA009040095100410000
B0211583319805S14754833EA009080095800510000
B0212033319814S14754866EA009100096100610000
B0212083319784S14754890EA009050096100610000
B0212133319740S14754863EA009060096300610000
B0212183319708S14754826EA009100096600510000
B0212233319695S14754785EA009140097000410000
B0212283319717S14754763EA009190097400710000
B0212333319726S14754793EA009240097700910000
B0212383319686S14754810EA009250098100810000
B0212433319654S14754778EA009250098400810000
B0212483319638S14754736EA009340099100610000
B0212533319627S14754690EA009440100100710000
B0212583319626S14754646EA009490100700410000
B0213033319633S14754604EA009550101300410000
B0213083319644S14754563EA009650102100510000
B0213133319649S14754522EA009750103000410000
B0213183319662S14754494EA009780103400410000
B0213233319681S14754456EA009570103100510000
B0213283319698S14754422EA009580102600510000
B0213333319725S14754402EA009640102400610000
B0213383319756S14754385EA009730102800310000
B0213433319782S14754396EA009730102900710000
B0213483319788S14754416EA009730103100710000
B0213533319778S14754450EA009670103000610000
B0213583319743S14754472EA009530102300710000
B0214033319701S14754484EA009420101200410000
B0214083319658S14754489EA009290099800410000
B0214133319614S14754471EA009190098400510000
B0214183319573S14754442EA009160097700410000
B0214233319533S14754412EA009120097200610000
B0214283319501S14754362EA009050096500410000
B0214333319478S14754305EA009050096000410000
B0214383319475S14754241EA009040095800410000
B0214433319482S14754189EA009180096400410000
B0214483319504S14754179EA009150096800910000
B0214533319485S14754208EA009130097100510000
B0214583319449S14754208EA009240097600810000
B0215033319425S14754162EA009240097900610000
B0215083319444S14754133EA009180098000710000
B0215133319465S14754151EA009150097700510000
B0215183319471S14754183EA009130097400510000
B0215233319471S14754216EA009140097300510000
B0215283319480S14754234EA009210097400510000
B0215333319480S14754256EA009120097300510000
B0215383319453S14754280EA009000096600410000
B0215433319417S14754297EA008950096100510000
B0215483319394S14754331EA008890095500510000
B0215533319368S14754356EA008790094600410000
B0215583319318S14754367EA008670093000610000
B0216033319282S14754350EA008740092500710000
B0216083319276S14754303EA008750092700410000
B0216133319291S14754278EA008790093000610000
B0216183319305S14754286EA008740093000710000
B0216233319293S14754319EA008620092700510000
B0216283319254S14754347EA008620092400410000
B0216333319212S14754340EA008640091800910000
B0216383319210S14754300EA008640092000810000
B0216433319231S14754303EA008670092300710000
B0216483319248S14754329EA008680092300410000
B0216533319275S14754335EA008740092500510000
B0216583319297S14754349EA008680092100510000
B0217033319300S14754382EA008570091700410000
B0217083319293S14754415EA008520091300510000
B0217133319277S14754453EA008460090800410000
B0217183319265S14754493EA008480090300410000
B0217233319233S14754527EA008520090300310000
B0217283319185S14754519EA008530090500610000
B0217333319170S14754480EA008630091000410000
B0217383319192S14754470EA008740091600810000
B0217433319189S14754507EA008780092101110000
B0217483319141S14754524EA008810092700610000
B0217533319107S14754495EA008940094200810000
B0217583319110S14754463EA009190096900410000
B0218033319127S14754477EA009320098801110000
B0218083319086S14754507EA009370100000710000
B0218133319037S14754491EA009530101600710000
B0218183319026S14754456EA009730103500410000
B0218233319050S14754453EA009840104700910000
B0218283319046S14754494EA010020105800910000
B0218333318995S14754515EA010090106500710000
B0218383318950S14754497EA010300108500610000
B0218433318932S14754453EA010400110000510000
B0218483318947S14754421EA010530111400510000
B0218533318970S14754424EA010690112900510000
B0218583318965S14754466EA010760114001010000
B0219033318920S14754473EA010870115200710000
B0219083318907S14754433EA011050116400610000
B0219133318922S14754406EA011150117600610000
B0219183318947S14754395EA011170118400610000
B0219233318978S14754391EA011300119200410000
B0219283318982S14754426EA011240119300810000
B0219333318939S14754445EA011260119100510000
B0219383318894S14754429EA011310119400510000
B0219433318855S14754395EA011430120500510000
B0219483318828S14754359EA011630122400310000
B0219533318847S14754333EA011800124300710000
B0219583318854S14754367EA011950125800910000
B0220033318820S14754403EA012030127100810000
B0220083318774S14754384EA012140128400810000
B0220133318758S14754341EA012410131200510000
B0220183318765S14754300EA012490132800910000
B0220233318786S14754312EA012590133500710000
B0220283318777S14754357EA012610133500610000
B0220333318758S14754397EA012650133500410000
B0220383318715S14754426EA012630133500610000
B0220433318666S14754415EA012790134400710000
B0220483318654S14754383EA012950135600410000
B0220533318677S14754386EA012990136400610000
B0220583318678S14754425EA013040136800810000
B0221033318649S14754480EA012990136800610000
B0221083318595S14754497EA012940136500810000
B0221133318555S14754462EA012970136700610000
B0221183318534S14754422EA013250138700710000
B0221233318494S14754382EA013470141600710000
B0221283318484S14754343EA013610143500410000
B0221333318496S14754360EA013750145000810000
B0221383318472S14754403EA013850145900710000
B0221433318422S14754437EA014050147200510000
B0221483318368S14754420EA014220149600510000
B0221533318335S14754378EA014350151300410000
B0221583318320S14754332EA014510152700310000
B0222033318327S14754297EA014660154200610000
B0222083318343S14754308EA014880156200510000
B0222133318319S14754353EA015090158201010000
B0222183318259S14754359EA015280160401010000
B0222233318226S14754315EA015450162600510000
B0222283318230S14754279EA015630164500610000
B0222333318248S14754285EA015790166200310000
B0222383318235S14754326EA016060168500510000
B0222433318179S14754349EA016210170100910000
B0222483318119S14754323EA016410172500810000
B0222533318094S14754281EA016650175100510000
B0222583318101S14754248EA016780176900710000
B0223033318120S14754255EA016910178000610000
B0223083318111S14754298EA017110179300410000
B0223133318061S14754324EA017350180800810000
B0223183318011S14754296EA017540183900810000
B0223233317993S14754255EA017680185600410000
B0223283318000S14754231EA017830187100410000
B0223333318013S14754243EA017940188400310000
B0223383318009S14754286EA018030189400610000
B0223433317958S14754318EA018200190801010000
B0223483317899S14754300EA018410192900810000
B0223533317867S14754257EA018510194100610000
B0223583317862S14754222EA018640195200410000
B0224033317873S14754215EA018690196100410000
B0224083317876S14754247EA018740196500610000
B0224133317850S14754297EA018760196800510000
B0224183317792S14754315EA018900197500910000
B0224233317749S14754278EA018990198900610000
B0224283317740S14754240EA019110200000410000
B0224333317751S14754232EA019200200900410000
B0224383317760S14754255EA019230201000310000
B0224433317737S14754305EA019250201300710000
B0224483317675S14754319EA019300201900510000
B0224533317622S14754285EA019340202800710000
B0224583317583S14754248EA019470203900610000
B0225033317548S14754206EA019450204300510000
B0225083317501S14754165EA019370203600510000
B0225133317450S14754130EA019240202100510000
B0225183317402S14754093EA019100200400510000
B0225233317347S14754062EA018920198500410000
B0225283317291S14754033EA018870197600510000
B0225333317240S14753995EA018660196700510000
B0225383317188S14753967EA018570195400410000
B0225433317133S14753949EA018440194000410000
B0225483317078S14753931EA018290192300510000
B0225533317021S14753913EA018150190700510000
B0225583316962S14753898EA018060189400310000
B0226033316902S14753885EA017940188100410000
B0226083316843S14753873EA017860187200410000
B0226133316783S14753849EA017730186000410000
B0226183316724S14753832EA017670185000510000
B0226233316665S14753814EA017580184200310000
B0226283316612S14753788EA017460183300410000
B0226333316560S14753758EA017390182500410000
B0226383316506S14753730EA017280181500610000
B0226433316449S14753708EA017190180600410000
B0226483316384S14753696EA017110179800410000
B0226533316323S14753682EA017020178900410000
B0226583316256S14753669EA016920178000310000
B0227033316194S14753655EA016870177200410000
B0227083316130S14753640EA016730176200410000
B0227133316067S14753638EA016790176000310000
B0227183316013S14753620EA016740175700610000
B0227233315965S14753586EA016660175400410000
B0227283315913S14753558EA016580174700510000
B0227333315871S14753526EA016540174100410000
F022738020612131517192428
B0227383315827S14753496EA016490173600309000
B0227433315780S14753467EA016400172800409000
B0227483315728S14753439EA016270171700309000
B0227533315672S14753418EA016220170400609000
B0227583315619S14753401EA016170169400309000
B0228033315560S14753386EA016100168600309000
B0228083315507S14753380EA016090168200409000
B0228133315454S14753366EA016050167800409000
B0228183315403S14753342EA016020167500509000
B0228233315351S14753321EA016030167600509000
B0228283315298S14753307EA016070167800609000
B0228333315242S14753290EA016050168000409000
B0228383315185S14753274EA015950167700509000
B0228433315126S14753265EA015890167200409000
B0228483315068S14753256EA015860166600409000
B0228533315010S14753248EA015780165800409000
B0228583314953S14753242EA015800165600409000
B0229033314897S14753233EA015750165200509000
B0229083314845S14753220EA015650164500609000
B0229133314792S14753200EA015530163400609000
B0229183314745S14753185EA015510162700509000
B0229233314695S14753174EA015380161600509000
B0229283314636S14753175EA015240160300509000
B0229333314581S14753179EA015210159400409000
B0229383314525S14753177EA015140158700409000
B0229433314469S14753173EA015110158200409000
B0229483314418S14753168EA015080157900309000
B0229533314366S14753162EA015060157600409000
B0229583314310S14753166EA014960156900409000
B0230033314258S14753164EA014910156400409000
B0230083314202S14753162EA014790155600409000
B0230133314149S14753150EA014710154600509000
B0230183314097S14753139EA014650153800409000
B0230233314043S14753130EA014600153300309000
B0230283313989S14753122EA014550152800409000
B0230333313938S14753117EA014660152900609000
B0230383313895S14753106EA014630153000509000
B0230433313866S14753068EA014590153000509000
B0230483313864S14753022EA014580152900409000
B0230533313884S14752989EA014570152800409000
B0230583313911S14752973EA014650153400509000
B0231033313940S14752966EA014610153500409000
B0231083313962S14752985EA014610153500409000
B0231133313973S14753022EA014550153200609000
B0231183313956S14753071EA014540153100609000
B0231233313912S14753097EA014440152600509000
B0231283313862S14753116EA014380151800409000
B0231333313808S14753125EA014300150700509000
B0231383313761S14753133EA014310150400509000
B0231433313711S14753140EA014240149800409000
B0231483313661S14753141EA014190149300509000
B0231533313615S14753145EA014130148800409000
B0231583313568S14753147EA014070148200309000
B0232033313521S14753152EA014090147900409000
B0232083313468S14753161EA014040147500409000
B0232133313422S14753177EA014110147700409000
B0232183313374S14753172EA014090147700409000
B0232233313324S14753152EA014110147600409000
B0232283313272S14753150EA014160148000609000
B0232333313220S14753135EA014270149200809000
B0232383313197S14753085EA014260149600909000
B0232433313201S14753039EA014110149400809000
B0232483313219S14752995EA014050148800709000
B0232533313246S14752958EA013950148200809000
B0232583313269S14752926EA013960147700709000
B0233033313298S14752912EA013930147300409000
B0233083313320S14752933EA013940146700509000
B0233133313313S14752972EA013920146400609000
B0233183313267S14752990EA013880146400409000
B0233233313223S14752992EA014010146900409000
B0233283313184S14753009EA014020147100409000
B0233333313152S14753034EA014020147200409000
B0233383313114S14753061EA013960146900409000
B0233433313073S14753095EA013790146100809000
B0233483313004S14753090EA013890145900609000
B0233533312953S14753067EA013860145300809000
B0233583312928S14753016EA013840145300709000
B0234033312940S14752973EA013760145100809000
B0234083312970S14752980EA013600143500409000
B0234133312978S14753024EA013360140600609000
B0234183312958S14753069EA013330139700509000
B0234233312941S14753116EA013320139600509000
B0234283312913S14753158EA013270139300409000
B0234333312876S14753199EA013250139000409000
B0234383312845S14753238EA013280139000309000
B0234433312817S14753274EA013250138900609000
B0234483312790S14753310EA013250138800309000
B0234533312765S14753349EA013190138500409000
B0234583312745S14753386EA013170138400409000
B0235033312719S14753421EA013110138100409000
B0235083312686S14753450EA013130137900309000
B0235133312649S14753472EA013090137600509000
B0235183312602S14753483EA013030137200309000
B0235233312547S14753482EA012930136200609000
B0235283312493S14753480EA012900135600409000
B0235333312440S14753475EA012940135600509000
B0235383312387S14753471EA013010136300509000
B0235433312336S14753452EA013010136500409000
B0235483312299S14753406EA013000136700509000
B0235533312276S14753346EA012940136500609000
B0235583312267S14753293EA012910136200509000
B0236033312277S14753254EA012860135700509000
B0236083312297S14753262EA012760135000609000
B0236133312291S14753289EA012740134600409000
B0236183312268S14753316EA012750134400509000
B0236233312232S14753337EA012720134200309000
B0236283312188S14753353EA012670134000409000
B0236333312150S14753370EA012650133700309000
B0236383312103S14753376EA012580133000509000
B0236433312050S14753369EA012600132800409000
B0236483312003S14753373EA012750133200509000
B0236533311963S14753377EA012830133900509000
B0236583311919S14753348EA012870134900509000
B0237033311899S14753291EA013000136100609000
B0237083311909S14753243EA013120137300409000
B0237133311929S14753239EA013220138500509000
B0237183311933S14753260EA013280139600709000
B0237233311908S14753282EA013350140400409000
B0237283311861S14753275EA013460141400609000
B0237333311817S14753234EA013590142700709000
B0237383311811S14753175EA013690143900609000
B0237433311833S14753146EA013830145100309000
B0237483311840S14753158EA013890145900709000
B0237533311809S14753180EA013930146300809000
B0237583311756S14753166EA014030147200709000
B0238033311713S14753120EA014130148200609000
B0238083311690S14753063EA014250149300509000
B0238133311685S14753007EA014280150100709000
B0238183311702S14752975EA014310150600509000
B0238233311716S14752974EA014400150900509000
B0238283311708S14752996EA014370151000509000
B0238333311667S14753008EA014440151300709000
B0238383311614S14752979EA014550152600309000
B0238433311582S14752924EA014590153500309000
B0238483311579S14752869EA014620153800609000
B0238533311591S14752827EA014630154000409000
B0238583311606S14752788EA014660154200409000
B0239033311618S14752742EA014720154600509000
B0239083311627S14752704EA014700154600409000
B0239133311643S14752694EA014660154300409000
B0239183311643S14752716EA014540153700409000
B0239233311615S14752745EA014410152700309000
B0239283311587S14752781EA014290151400409000
B0239333311583S14752807EA014260150700609000
B0239383311594S14752830EA014100149500609000
B0239433311619S14752826EA014020148400609000
B0239483311643S14752805EA013920147200509000
B0239533311662S14752765EA013850146300409000
B0239583311674S14752725EA013820145700509000
B0240033311685S14752685EA013760145200509000
B0240083311702S14752658EA013690144500309000
B0240133311720S14752668EA013620143900509000
B0240183311716S14752700EA013590143300509000
B0240233311691S14752730EA013520142900409000
B0240283311647S14752743EA013430142000609000
B0240333311597S14752733EA013360141100609000
B0240383311550S14752697EA013310140400409000
B0240433311505S14752655EA013260139800409000
B0240483311458S14752616EA013270139400409000
B0240533311407S14752588EA013200139000409000
B0240583311359S14752577EA013140138400309000
B0241033311307S14752573EA012960136900409000
B0241083311256S14752583EA012970136300709000
B0241133311214S14752599EA012970136200409000
B0241183311161S14752600EA012850135400409000
B0241233311111S14752601EA012870135400409000
B0241283311066S14752603EA012850135300609000
B0241333311015S14752595EA012730134500509000
B0241383310967S14752592EA012620133500309000
B0241433310922S14752604EA012540132600309000
B0241483310875S14752616EA012400131300509000
B0241533310833S14752624EA012360130400409000
B0241583310787S14752635EA012280129600309000
B0242033310742S14752651EA012240129000309000
B0242083310704S14752676EA012220128800409000
B0242133310665S14752705EA012190128400509000
B0242183310615S14752725EA012180128500509000
B0242233310574S14752747EA012260129000409000
B0242283310531S14752763EA012190128800409000
B0242333310483S14752737EA012040127000609000
B0242383310445S14752692EA011940125600409000
B0242433310400S14752651EA011780124200409000
B0242483310350S14752635EA011690123000409000
B0242533310301S14752635EA011520121600409000
B0242583310255S14752652EA011400120100309000
B0243033310207S14752665EA011230118700309000
B0243083310161S14752676EA011110117400409000
B0243133310113S14752687EA010980116000409000
B0243183310065S14752694EA010870114800409000
B0243233310019S14752703EA010730113500309000
B0243283309974S14752710EA010580112000409000
B0243333309932S14752720EA010440110500509000
B0243383309887S14752733EA010370109400509000
B0243433309840S14752736EA010230108000509000
B0243483309783S14752724EA010110106700409000
B0243533309728S14752709EA010040105900609000
B0243583309675S14752692EA009830104500509000
B0244033309613S14752687EA009620102300409000
B0244083309553S14752687EA009450100300709000
B0244133309495S14752685EA009320098700409000
B0244183309442S14752687EA009230097600509000
B0244233309384S14752684EA009080096400409000
B0244283309328S14752669EA008950095200309000
B0244333309272S14752661EA008920094300409000
B0244383309215S14752663EA008780093100409000
B0244433309159S14752656EA008710092100309000
B0244483309102S14752648EA008570090800409000
B0244533309046S14752636EA008440089400509000
B0244583308990S14752631EA008300088200409000
B0245033308936S14752628EA008160086600409000
B0245083308881S14752623EA008030085100409000
B0245133308826S14752624EA007860083400309000
B0245183308770S14752620EA007680081700309000
B0245233308712S14752611EA007540080200309000
B0245283308658S14752602EA007420078800409000
B0245333308602S14752593EA007290077600309000
B0245383308546S14752575EA007090076100409000
B0245433308485S14752562EA006990075000409000
B0245483308426S14752551EA006880073700309000
B0245533308369S14752541EA006760072400309000
B0245583308311S14752531EA006670071200409000
B0246033308250S14752524EA006480069600509000
B0246083308184S14752519EA006330067900409000
B0246133308124S14752518EA006240066500609000
B0246183308063S14752518EA006090065200509000
B0246233308006S14752512EA005950063800509000
B0246283307948S14752507EA005840062500309000
B0246333307893S14752512EA005740061500309000
B0246383307840S14752521EA005580060000509000
B0246433307786S14752530EA005400058500509000
B0246483307729S14752533EA005340057200609000
B0246533307682S14752541EA005220056100409000
B0246583307634S14752557EA005100055000409000
B0247033307584S14752578EA004940053500309000
B0247083307534S14752605EA004810052000409000
B0247133307476S14752620EA004680050700509000
B0247183307415S14752623EA004490048800509000
B0247233307347S14752614EA004330046900609000
B0247283307288S14752616EA004360046200709000
B0247333307245S14752643EA004340046200509000
B0247383307228S14752682EA004310046200709000
B0247433307208S14752719EA004280046100409000
B0247483307197S14752757EA004180045600609000
B0247533307179S14752788EA004090045000809000
B0247583307138S14752831EA003960043800609000
B0248033307095S14752866EA003810042400709000
B0248083307050S14752899EA003760041300309000
B0248133307007S14752933EA003710040600309000
B0248183306970S14752972EA003610039800309000
B0248233306939S14753009EA003510038600409000
B0248283306905S14753055EA003350037300409000
B0248333306849S14753077EA003290036200409000
B0248383306796S14753054EA003270035900409000
B0248433306772S14753010EA003210035500609000
B0248483306773S14752973EA003100034700809000
B0248533306771S14752943EA003080034200409000
B0248583306768S14752905EA003010033600609000
B0249033306761S14752866EA002960032900509000
B0249083306762S14752841EA002880032300409000
B0249133306770S14752856EA002740031200409000
B0249183306782S14752873EA002650030100509000
B0249233306797S14752888EA002620029400609000
B0249283306816S14752898EA002530028700409000
B0249333306832S14752900EA002480028000309000
B0249383306849S14752894EA002390027100309000
B0249433306856S14752888EA002350026600509000
B0249483306856S14752890EA002350026400609000
B0249533306855S14752893EA002350026300409000
B0249583306854S14752895EA002350026200309000
B0250033306854S14752895EA002350026200209000
B0250083306854S14752896EA002360026200509000
B0250133306852S14752899EA002360026200409000
B0250183306849S14752902EA002360026200309000
B0250233306845S14752904EA002360026200309000
B0250283306840S14752906EA002360026300309000
B0250333306836S14752907EA002360026300209000
B0250383306832S14752909EA002360026300209000
B0250433306828S14752911EA002360026300209000
B0250483306824S14752912EA002370026200209000
B0250533306819S14752914EA002370026300209000
B0250583306818S14752916EA002360026200209000
B0251033306818S14752916EA002360026200209000
B0251083306817S14752918EA002370026200209000
B0251133306814S14752922EA002370026200209000
B0251183306814S14752927EA002370026200209000
B0251233306814S14752929EA002360026200209000
B0251283306814S14752931EA002370026200309000
B0251333306814S14752933EA002370026200209000
B0251383306815S14752933EA002370026200309000
B0251433306815S14752933EA002360026200209000
B0251483306815S14752933EA002370026200209000
B0251533306815S14752933EA002360026100209000
B0251583306815S14752937EA002370026100309000
B0252033306814S14752939EA002370026100309000
B0252083306814S14752939EA002370026100309000
B0252133306814S14752939EA002360026100309000
B0252183306814S14752939EA002360026100209000
B0252233306814S14752939EA002360026100209000
B0252283306814S14752939EA002370026100209000
B0252333306813S14752939EA002360026100209000
B0252383306813S14752939EA002360026100209000
B0252433306813S14752939EA002370026100209000
B0252483306813S14752939EA002370026100209000
B0252533306814S14752939EA002370026100309000
B0252583306814S14752939EA002370026100309000
B0253033306814S14752939EA002370026100309000
B0253083306814S14752939EA002380026100309000
B0253133306814S14752939EA002380026100309000
B0253183306814S14752939EA002380026100309000
G765E2D3E65589BD60791BC051CEF256C953FB33325382C706A25F5DA5AAE8799
