AFLY00Bo 0100732
HFDTE070116
HFFXA010
HFPLTPILOT:PGA             
HFCM2CREW2:NKN
HFGTYGLIDERTYPE:RS5             
HFGIDGLIDERID:NKN             
HFDTM100GPSDATUM:WGS84
HFRFWFIRMWAREVERSION: 1.2.12 EN
HFRHWHARDWAREVERSION:1.00
HFFTYFRTYPE:Flytec ,Element
HFGPS:FASTRAX,IT430,48
HFPRSPRESSALTSENSOR:INTERSEMA,MS5401BM,12000
HFALGALTGPS:GEO
HFALPALTPRESSURE:ISA
HFTZNUTCOFFSET: 11.00h
I033638FXA3940SIU4143TAS
C060116232015070116001900
C3321648S14755920E TAKEOFF
C3321648S14755920E START  FORBE            00000000010000000000360000AREA
C3003011S14806612E FINISH WALGET           00000000000400000000360000AREA
C3003011S14806612E LANDING
F021726020617192830
B0217263321312S14755971EA002080024202706000
F02175602061517192830
B0217563321316S14755968EA002080024500407000
F021826020613151719242830
B0218263321317S14755969EA002080024500309000
E021833STA
E021833ATS1017.6
LFLYA1 00244
B0218333321343S14755970EA002080024400409000
B0218383321383S14755981EA002110024600309000
B0218433321424S14755991EA002210025000409000
B0218483321462S14756009EA002290025700409000
B0218533321496S14756028EA002420026800409000
B0218583321532S14756052EA002530028000309000
B0219033321563S14756082EA002720029700409000
B0219083321585S14756124EA002950032200609000
B0219133321601S14756169EA003110034800609000
B0219183321612S14756206EA003290037200409000
B0219233321626S14756239EA003400039200509000
B0219283321645S14756268EA003460040300709000
B0219333321669S14756299EA003460040800409000
B0219383321690S14756333EA003500040500509000
B0219433321708S14756372EA003540040500609000
B0219483321720S14756415EA003630040800409000
B0219533321728S14756459EA003640041000509000
B0219583321723S14756504EA003610040900409000
B0220033321716S14756550EA003640041300509000
B0220083321710S14756598EA003720041800409000
B0220133321708S14756649EA003800042400609000
B0220183321719S14756700EA003840043300509000
B0220233321738S14756737EA003960044000409000
B0220283321763S14756766EA004060044800309000
B0220333321794S14756788EA004180045800309000
B0220383321832S14756801EA004320046800309000
B0220433321872S14756810EA004520048300309000
B0220483321910S14756819EA004630049800409000
B0220533321944S14756829EA004780051300409000
B0220583321975S14756851EA004850052500409000
B0221033321999S14756881EA004880053600609000
B0221083322015S14756911EA004970054600609000
B0221133322027S14756948EA005010055400409000
B0221183322033S14756993EA005210056700609000
B0221233322037S14757042EA005450058400709000
B0221283322042S14757085EA005500059600609000
B0221333322050S14757117EA005510060600509000
B0221383322068S14757126EA005660061400409000
B0221433322069S14757086EA005690062000709000
B0221483322033S14757043EA005750062600709000
B0221533321984S14757018EA005710062900709000
B0221583321941S14757039EA005640062700609000
B0222033321929S14757083EA005640062400609000
B0222083321933S14757115EA005710062500409000
B0222133321932S14757149EA005660062300409000
B0222183321939S14757183EA005640062100709000
B0222233321951S14757206EA005560061800409000
B0222283321964S14757231EA005620061800509000
B0222333321975S14757255EA005390061300509000
B0222383321984S14757284EA005290060400409000
B0222433321991S14757311EA005210059600509000
B0222483322003S14757337EA005150058600409000
B0222533322007S14757371EA005010057200709000
B0222583321980S14757407EA004860055500709000
B0223033321930S14757426EA004760053700709000
B0223083321878S14757397EA004660051800709000
B0223133321851S14757342EA004570050500509000
B0223183321834S14757283EA004410048900509000
F02232302061213151719242830
B0223233321823S14757222EA004290047700410000
B0223283321819S14757161EA004250046700410000
B0223333321806S14757101EA004070045400410000
B0223383321782S14757042EA003910043600310000
B0223433321762S14756975EA003730042000310000
B0223483321744S14756911EA003670040600310000
B0223533321727S14756850EA003640040200510000
B0223583321704S14756791EA003640040200410000
B0224033321685S14756732EA003620040400610000
B0224083321667S14756671EA003540040200310000
B0224133321652S14756603EA003450039500310000
B0224183321641S14756534EA003460039300510000
B0224233321627S14756469EA003390038900410000
B0224283321604S14756407EA003420038700310000
B0224333321563S14756380EA003550039301010000
B0224383321547S14756425EA003550039800610000
B0224433321572S14756415EA003690040601110000
B0224483321566S14756354EA003750041901110000
B0224533321516S14756332EA003880042800910000
B0224583321473S14756365EA003860043500710000
B0225033321480S14756398EA003960044301110000
B0225083321480S14756348EA003920044701410000
B0225133321436S14756348EA003980045400810000
B0225183321430S14756389EA004110046100510000
B0225233321461S14756386EA004200046401110000
B0225283321449S14756339EA004300047200810000
B0225333321411S14756318EA004380048100610000
B0225383321376S14756338EA004490049100510000
B0225433321394S14756360EA004520049401310000
B0225483321420S14756313EA004590049900910000
B0225533321402S14756270EA004690050900810000
B0225583321377S14756303EA004760052500710000
B0226033321400S14756321EA004920054200810000
B0226083321401S14756267EA005010055901210000
B0226133321364S14756250EA005220057300610000
B0226183321354S14756291EA005290057500510000
B0226233321385S14756282EA005450058300710000
B0226283321369S14756224EA005550059701110000
B0226333321329S14756233EA005650061500810000
B0226383321310S14756273EA005710062600610000
B0226433321337S14756267EA005860063501310000
B0226483321321S14756198EA005990064801010000
B0226533321278S14756203EA006140066900710000
B0226583321275S14756244EA006210067700610000
B0227033321303S14756215EA006360068800910000
B0227083321286S14756148EA006530070501010000
B0227133321243S14756150EA006640072200910000
B0227183321242S14756180EA006770073700510000
B0227233321268S14756173EA006920075100810000
B0227283321275S14756116EA007070076800610000
F022733020612131517192428
B0227333321245S14756069EA007270078700909000
B0227383321199S14756075EA007420080200809000
B0227433321184S14756101EA007600081500609000
B0227483321205S14756090EA007780083400809000
B0227533321199S14756036EA008000085700809000
B0227583321151S14755999EA008120087500909000
B0228033321110S14756018EA008250088800709000
B0228083321118S14756043EA008340089601109000
B0228133321140S14756011EA008540090701009000
B0228183321112S14755958EA008720092500909000
B0228233321070S14755969EA008750093400809000
B0228283321070S14756007EA008850094600609000
B0228333321088S14756004EA009080096600409000
B0228383321087S14755953EA009260098400909000
B0228433321042S14755933EA009400100400909000
B0228483321016S14755967EA009510101700809000
B0228533321022S14755986EA009710103400809000
B0228583321044S14755981EA009870105000409000
B0229033321043S14755932EA010020106401109000
B0229083320996S14755900EA010220108000809000
B0229133320952S14755906EA010450110800509000
B0229183320934S14755944EA010590112200409000
B0229233320956S14755965EA010750113601109000
B0229283320974S14755925EA010760114501009000
B0229333320937S14755869EA010870115301209000
B0229383320896S14755882EA011130116900909000
B0229433320916S14755901EA011270118601209000
B0229483320918S14755850EA011380120201109000
B0229533320874S14755820EA011530122201009000
B0229583320826S14755839EA011650124100509000
B0230033320810S14755875EA011740125000609000
B0230083320837S14755884EA011840125500809000
B0230133320833S14755841EA011980126600909000
B0230183320787S14755819EA012110127800909000
B0230233320747S14755843EA012190128700609000
B0230283320723S14755877EA012270129700409000
B0230333320741S14755897EA012340130200909000
B0230383320765S14755861EA012400130600909000
B0230433320741S14755808EA012490131801309000
B0230483320693S14755796EA012590133000909000
B0230533320657S14755824EA012630134000509000
B0230583320624S14755858EA012750135000409000
B0231033320586S14755888EA012820135900409000
B0231083320546S14755908EA012990137500409000
B0231133320531S14755939EA013200139200609000
B0231183320547S14755911EA013270140501509000
B0231233320502S14755866EA013500142501209000
B0231283320454S14755884EA013740145100509000
B0231333320450S14755912EA013800146300609000
B0231383320465S14755885EA013970147601109000
B0231433320433S14755826EA014180149400909000
B0231483320378S14755825EA014300150800809000
B0231533320333S14755849EA014360151900409000
B0231583320289S14755873EA014490153100709000
B0232033320245S14755895EA014610154500609000
B0232083320229S14755923EA014730155600509000
B0232133320250S14755914EA014820156401009000
B0232183320229S14755852EA014920157301309000
B0232233320163S14755827EA015040158501109000
B0232283320110S14755837EA015180160000509000
B0232333320095S14755870EA015230160500609000
B0232383320108S14755878EA015410161300709000
B0232433320108S14755827EA015510162301009000
B0232483320051S14755780EA015650164401109000
B0232533319993S14755781EA015780166200609000
B0232583319966S14755817EA015820166900609000
B0233033319967S14755848EA015970167700609000
B0233083319985S14755841EA015940167900509000
B0233133319987S14755789EA015980168100809000
B0233183319939S14755750EA016070169001109000
B0233233319894S14755771EA016130169500609000
B0233283319874S14755808EA016130169900509000
B0233333319872S14755833EA016200170300509000
B0233383319891S14755819EA016290170800809000
B0233433319876S14755760EA016390171600809000
B0233483319822S14755736EA016430172600709000
B0233533319774S14755750EA016460173100409000
B0233583319764S14755780EA016440173000409000
B0234033319784S14755786EA016470173200509000
B0234083319804S14755755EA016540173600409000
B0234133319820S14755715EA016640174400409000
B0234183319832S14755667EA016740175500309000
B0234233319817S14755607EA016830176700609000
B0234283319760S14755583EA016890177600609000
B0234333319725S14755612EA016990178500609000
B0234383319734S14755623EA017080179400609000
B0234433319750S14755601EA017170179800409000
B0234483319758S14755549EA017130180200409000
B0234533319759S14755487EA017140180300509000
B0234583319763S14755431EA017240180600409000
B0235033319743S14755372EA017390181800809000
B0235083319690S14755344EA017460183000909000
B0235133319659S14755371EA017480184000809000
B0235183319676S14755380EA017570185000509000
B0235233319699S14755355EA017690186100409000
B0235283319711S14755304EA017830187400709000
B0235333319685S14755247EA017910188600809000
B0235383319635S14755247EA017960189200709000
B0235433319620S14755283EA017980189600709000
B0235483319643S14755291EA018140190501009000
B0235533319651S14755239EA018230191601109000
B0235583319605S14755205EA018240192001009000
B0236033319556S14755227EA018250192100609000
B0236083319534S14755263EA018400192900509000
B0236133319554S14755252EA018480193600809000
B0236183319548S14755198EA018570194500909000
B0236233319493S14755175EA018550195101409000
B0236283319443S14755196EA018660195800509000
B0236333319450S14755216EA018640195900709000
B0236383319470S14755193EA018720196300909000
B0236433319454S14755142EA018770196600709000
B0236483319401S14755108EA018790196900809000
B0236533319346S14755118EA018860197600409000
F0236580206131517192428
B0236583319321S14755153EA018820198000708000
F023703020612131517192428
B0237033319344S14755158EA019000198701109000
B0237083319330S14755107EA019070199301109000
B0237133319269S14755088EA019100200201209000
B0237183319211S14755107EA019180201300709000
F0237230206121517192428
B0237233319163S14755126EA019340202500608000
F023728020612131517192428
B0237283319169S14755141EA019320203001309000
B0237333319170S14755091EA019350203301109000
B0237383319111S14755054EA019500204200909000
B0237433319067S14755078EA019590205000609000
B0237483319068S14755107EA019590205300809000
B0237533319082S14755072EA019580205201009000
B0237583319049S14755009EA019620205700709000
B0238033319005S14754960EA019780207000809000
B0238083318950S14754968EA019830207800709000
B0238133318929S14755002EA019950208900509000
B0238183318948S14754997EA019960209100809000
B0238233318940S14754936EA020040209500909000
B0238283318890S14754894EA020170210800909000
B0238333318830S14754908EA020190211700509000
B0238383318796S14754939EA020310212700509000
B0238433318794S14754973EA020300212800509000
B0238483318802S14754946EA020350212801109000
B0238533318748S14754898EA020400213400809000
B0238583318685S14754920EA020490214100609000
B0239033318641S14754960EA020420214100709000
B0239083318593S14754994EA020280213100409000
B0239133318539S14755028EA020180211900409000
B0239183318489S14755060EA020150211000509000
B0239233318430S14755090EA019950209300409000
B0239283318373S14755122EA019790207500409000
B0239333318327S14755166EA019530205100309000
B0239383318282S14755207EA019430203300409000
B0239433318234S14755242EA019340202200309000
B0239483318185S14755276EA019270201300309000
B0239533318136S14755312EA019190200700409000
B0239583318095S14755355EA019160200200409000
B0240033318059S14755395EA019060199600409000
B0240083318014S14755434EA018990199300409000
B0240133317959S14755469EA018820197900309000
B0240183317901S14755499EA018670196300509000
B0240233317843S14755533EA018510194900509000
B0240283317798S14755574EA018380193500309000
B0240333317754S14755618EA018260192000309000
B0240383317708S14755668EA018120190600509000
B0240433317661S14755709EA018060189600409000
B0240483317607S14755746EA017920188400509000
B0240533317552S14755780EA017810187300509000
B0240583317504S14755813EA017780186500409000
B0241033317460S14755856EA017630185300309000
B0241083317415S14755891EA017560184300409000
B0241113317364S14755924EA017450183400409000
B0241163317317S14755950EA017420182800409000
B0241213317270S14755981EA017350182300509000
B0241263317224S14756012EA017320181900309000
B0241313317179S14756047EA017260181500409000
B0241363317132S14756077EA017200180900309000
B0241413317081S14756106EA017130180500209000
B0241463317038S14756137EA017080180100309000
B0241513316996S14756170EA017070179900409000
B0241563316955S14756199EA017090180000409000
B0242013316914S14756237EA017140180400409000
B0242063316890S14756280EA017230181100509000
B0242113316909S14756299EA017260181700909000
B0242163316914S14756255EA017260181901109000
B0242213316864S14756223EA017330182601009000
B0242263316805S14756242EA017380183200409000
B0242313316753S14756269EA017370183100409000
B0242363316701S14756293EA017300182600409000
B0242413316651S14756307EA017270182100409000
B0242463316598S14756320EA017220181500409000
B0242513316548S14756343EA017230181400309000
B0242563316502S14756362EA017210181200309000
B0243013316451S14756373EA017210181200409000
B0243063316402S14756383EA017150180900609000
B0243113316350S14756401EA017120180500609000
B0243163316294S14756421EA016970179500509000
B0243183316272S14756427EA016970179200609000
B0243193316261S14756429EA016960179200709000
E024320TPC
B0243203316250S14756431EA016970179200609000
B0243213316240S14756433EA016970179100509000
B0243223316230S14756434EA016980179000409000
B0243233316219S14756436EA016970178900409000
B0243243316208S14756438EA016950178800409000
B0243253316197S14756441EA016930178700409000
B0243263316186S14756446EA016910178400409000
B0243313316133S14756474EA016840177800409000
B0243363316083S14756486EA016760176800509000
B0243413316031S14756506EA016600175200509000
B0243463315978S14756520EA016540173900509000
B0243513315923S14756526EA016360172100509000
B0243563315864S14756536EA016210170400509000
B0244013315808S14756551EA016120169000509000
B0244063315746S14756565EA016070168100509000
B0244113315685S14756578EA016120168500609000
B0244163315632S14756598EA016300170000309000
B0244213315628S14756642EA016350171100609000
B0244263315652S14756629EA016460171801309000
B0244313315615S14756586EA016500172601109000
B0244363315562S14756579EA016640174100409000
B0244413315522S14756613EA016720175000409000
B0244463315533S14756652EA016780175601009000
B0244513315548S14756630EA016880176301209000
B0244563315508S14756591EA016920177400809000
B0245013315453S14756585EA017000178200509000
B0245063315405S14756610EA017140179400509000
B0245113315402S14756661EA017210180000409000
B0245163315427S14756661EA017280180501109000
B0245213315392S14756623EA017330181101009000
B0245263315337S14756639EA017410181900709000
B0245313315326S14756692EA017490182700609000
B0245363315354S14756704EA017490182901109000
B0245413315336S14756659EA017500183301209000
B0245463315280S14756641EA017510183500909000
B0245513315227S14756639EA017630184200609000
B0245563315172S14756645EA017620184700509000
B0246013315122S14756655EA017700185300409000
B0246063315073S14756676EA017700185500409000
B0246113315024S14756693EA017730185800309000
B0246163314973S14756698EA017730185800309000
B0246213314923S14756706EA017790186100309000
B0246263314872S14756723EA017780186200309000
B0246313314825S14756736EA017760186200509000
B0246363314775S14756747EA017740186100509000
B0246413314720S14756761EA017650185400509000
B0246463314667S14756761EA017640185000409000
B0246513314615S14756758EA017630184900409000
B0246563314565S14756764EA017610184500309000
B0247013314516S14756769EA017490183600409000
B0247063314466S14756765EA017330181900609000
B0247113314409S14756761EA017060179500409000
B0247163314357S14756753EA016930177600509000
B0247213314305S14756750EA016790176100509000
B0247263314257S14756738EA016690174700409000
B0247313314204S14756727EA016570173500409000
B0247363314151S14756724EA016520173100509000
B0247413314098S14756718EA016450172300409000
B0247463314043S14756714EA016160170400709000
B0247513313988S14756718EA015980168000509000
B0247563313932S14756719EA015740165500509000
B0248013313872S14756726EA015530163100509000
B0248063313811S14756725EA015470161700609000
B0248113313755S14756722EA015590162100609000
B0248163313708S14756723EA015670163400509000
B0248213313686S14756765EA015680163900809000
B0248263313711S14756768EA015770164600809000
B0248313313699S14756723EA015840165600909000
B0248363313647S14756715EA015850166300909000
B0248413313597S14756747EA015930167100409000
B0248463313567S14756798EA015990167600409000
B0248513313538S14756851EA016100168600409000
B0248563313501S14756895EA016230169800809000
B0249013313451S14756900EA016320170900709000
B0249063313432S14756847EA016370172001009000
B0249113313458S14756839EA016490173500609000
B0249163313460S14756883EA016670175200809000
B0249213313412S14756915EA016710175401009000
B0249263313372S14756881EA016790176000709000
B0249313313385S14756847EA016850176500609000
B0249363313411S14756863EA016950177500409000
B0249413313399S14756912EA017000178201109000
B0249463313351S14756951EA017080179000509000
B0249513313293S14756942EA017100178800709000
B0249563313237S14756945EA017100179000309000
B0250013313192S14756981EA017140179300309000
B0250063313179S14757020EA017250180000509000
B0250113313200S14757017EA017340180900709000
B0250163313182S14756968EA017390181701309000
B0250213313128S14756945EA017450182500709000
B0250263313074S14756965EA017540183500409000
B0250313313037S14757004EA017660184400309000
B0250363313023S14757050EA017700185100409000
B0250413313022S14757087EA017720185600409000
B0250463313025S14757119EA017760186100409000
B0250513313030S14757155EA017770186200309000
B0250563313045S14757180EA017760186200309000
B0251013313061S14757182EA017750186100309000
B0251063313079S14757188EA017800186500309000
B0251113313080S14757157EA017810186600909000
B0251163313038S14757124EA017860186700809000
B0251213312978S14757145EA017870186800509000
B0251263312966S14757188EA017900187000609000
B0251313312982S14757175EA017890187200609000
B0251363312952S14757134EA017920187401109000
B0251413312891S14757134EA017940187800609000
B0251463312835S14757161EA017990188100309000
B0251513312794S14757199EA017940188000409000
B0251563312750S14757233EA017880187400409000
B0252013312698S14757266EA017850187000509000
B0252063312641S14757290EA017840186700309000
B0252113312589S14757311EA017900187000309000
B0252163312545S14757343EA017910187100309000
B0252213312501S14757373EA017940187400309000
B0252263312452S14757406EA017900187200409000
B0252313312398S14757435EA017750186200309000
B0252363312343S14757469EA017550184700509000
B0252413312291S14757501EA017460183300309000
B0252463312238S14757536EA017370182400409000
B0252513312186S14757562EA017410182300409000
B0252563312137S14757588EA017410182200309000
B0253013312086S14757613EA017410182200209000
B0253063312034S14757638EA017420182400309000
B0253113311981S14757660EA017380182200309000
B0253163311928S14757677EA017390182300309000
B0253213311880S14757700EA017450182700309000
B0253263311827S14757712EA017500183200309000
B0253313311772S14757714EA017460183000609000
B0253363311718S14757739EA017430182800309000
B0253413311670S14757772EA017550183100309000
B0253463311646S14757809EA017550183500409000
B0253513311615S14757850EA017440182800609000
B0253563311569S14757868EA017340181900409000
B0254013311516S14757885EA017190180800509000
B0254063311483S14757914EA017220180100409000
B0254113311466S14757959EA017080179100309000
B0254163311422S14757992EA016860176700709000
B0254213311372S14757997EA016750175500509000
B0254263311319S14758004EA016580174100309000
B0254313311268S14758020EA016480172900309000
B0254363311214S14758029EA016430172100409000
B0254413311156S14758038EA016450172000509000
B0254463311101S14758052EA016500172700309000
B0254513311052S14758076EA016590173500309000
B0254563311001S14758097EA016690174600509000
B0255013310949S14758122EA016750175500409000
B0255063310899S14758152EA016820176300209000
B0255113310881S14758196EA016830176400509000
B0255163310898S14758219EA016860176400609000
B0255213310909S14758173EA016800176200809000
B0255263310882S14758125EA016800176100909000
B0255313310819S14758112EA016820176300709000
B0255363310770S14758140EA016990177100509000
F0255410206121315171924
B0255413310764S14758186EA016950177500608000
F025546020612131517192428
B0255463310785S14758178EA016960177801309000
B0255513310756S14758122EA016900177401009000
B0255563310691S14758102EA017030177900609000
B0256013310640S14758134EA017170179100509000
B0256063310640S14758168EA017180179400609000
B0256113310658S14758141EA017120179400609000
B0256163310620S14758084EA017120179500809000
B0256213310560S14758087EA017290180700509000
B0256263310549S14758131EA017340181300509000
B0256313310566S14758126EA017350181500709000
B0256363310561S14758070EA017340181800909000
B0256413310514S14758026EA017470183100809000
B0256463310458S14758041EA017570184200509000
B0256513310444S14758086EA017670185000609000
B0256563310462S14758091EA017800186100409000
B0257013310475S14758069EA017830186500309000
B0257063310472S14758025EA017840186600509000
B0257113310440S14757979EA017910187200609000
B0257163310379S14757961EA017950187600509000
B0257213310327S14757970EA018040188300409000
B0257263310294S14758004EA018050188500409000
B0257313310310S14758027EA018020188500509000
B0257363310321S14758002EA018120188800709000
B0257413310294S14757950EA018120189300609000
B0257463310242S14757928EA018120189500409000
B0257513310187S14757941EA018110189600309000
B0257563310137S14757961EA018150189800309000
B0258013310086S14757983EA018130189800309000
B0258063310037S14758009EA018110189700209000
B0258113309988S14758039EA018100189500209000
B0258163309944S14758075EA018040189100609000
B0258213309898S14758107EA018070189200309000
B0258263309854S14758141EA018110189500309000
B0258313309824S14758176EA018150189900209000
B0258363309825S14758210EA018160189900309000
B0258413309846S14758203EA018170189800309000
B0258463309840S14758152EA018150189801009000
B0258513309783S14758130EA018160190000809000
B0258563309733S14758153EA018200190200409000
B0259013309693S14758189EA018200190400709000
B0259063309648S14758221EA018210190700409000
B0259113309602S14758246EA018180190400309000
B0259163309555S14758266EA018130189700309000
B0259213309510S14758291EA018030188900309000
B0259263309463S14758313EA017960188100309000
B0259313309417S14758343EA017940187600509000
B0259363309373S14758374EA017910187200309000
B0259413309334S14758414EA017840186900609000
B0259463309302S14758449EA017800186200309000
B0259513309261S14758482EA017690185100209000
B0259563309219S14758520EA017610184400509000
B0300013309179S14758554EA017560183900509000
B0300063309143S14758590EA017520183400509000
B0300113309104S14758627EA017430182600509000
B0300163309061S14758664EA017230181300609000
B0300213309017S14758691EA017270181100409000
B0300263308972S14758717EA017150180400309000
B0300313308926S14758736EA017180180300309000
B0300363308887S14758759EA017160179900409000
B0300413308850S14758784EA017100179400309000
B0300463308818S14758813EA017050178700209000
B0300513308781S14758843EA016920177800209000
B0300563308739S14758866EA016910177400309000
B0301013308695S14758894EA016830176800309000
B0301063308655S14758921EA016860176800409000
F0301110206121517192428
B0301113308619S14758950EA016810176500508000
B0301163308575S14758972EA016820176400308000
B0301213308532S14758997EA016730175600508000
B0301263308492S14759023EA016650174400308000
B0301313308448S14759049EA016570173900308000
B0301363308410S14759076EA016510173100608000
B0301413308370S14759108EA016380172000308000
B0301463308326S14759139EA016330171400508000
B0301513308292S14759178EA016310171200208000
B0301563308251S14759211EA016340171300608000
B0302013308190S14759219EA016300170900508000
B0302063308135S14759243EA016280170800408000
B0302113308083S14759266EA016270170600308000
B0302163308029S14759285EA016210170000608000
B0302213307966S14759272EA016190169500408000
B0302263307917S14759294EA016120168900508000
B0302313307883S14759327EA016050168100708000
B0302363307850S14759362EA015970167300308000
B0302413307814S14759397EA015920167100308000
B0302463307788S14759429EA015930167100308000
B0302513307763S14759462EA015950167300308000
B0302563307740S14759502EA015880166600308000
B0303013307719S14759545EA015750165700308000
B0303063307686S14759579EA015710165200508000
B0303113307644S14759604EA015710165200308000
B0303163307599S14759629EA015690165000408000
B0303213307552S14759647EA015730165000408000
B0303263307513S14759675EA015800165300708000
B0303313307473S14759706EA015840166000308000
B0303363307426S14759730EA015890166600608000
B0303413307373S14759746EA015870166900608000
B0303463307323S14759754EA015910167400308000
B0303513307276S14759759EA016050168100508000
B0303563307266S14759799EA016000168400908000
B0304013307295S14759795EA015950168100908000
B0304063307278S14759743EA015880167400808000
B0304113307227S14759725EA015950167500608000
B0304163307169S14759724EA016080168400508000
B0304213307117S14759736EA016130169200408000
B0304263307058S14759750EA016200170000608000
B0304313306999S14759768EA016390171300508000
B0304363306979S14759812EA016400171800608000
B0304413306999S14759813EA016260171200908000
B0304463306979S14759766EA016350171301208000
B0304513306927S14759738EA016460171800708000
B0304563306884S14759756EA016410171400808000
B0305013306883S14759801EA016210170001108000
B0305063306908S14759816EA016120168800408000
B0305113306931S14759815EA016210169000408000
B0305163306939S14759774EA016240169601208000
B0305213306901S14759738EA016360170801208000
F03052602061217192428
B0305263306854S14759753EA016400171501007000
F0305310206121517192428
B0305313306831S14759806EA016480172300608000
B0305363306847S14759839EA016590173401208000
B0305413306868S14759828EA016680174200508000
B0305463306864S14759789EA016740175101008000
B0305513306808S14759769EA016740175700808000
B0305563306751S14759767EA016830176600608000
B0306013306700S14759768EA016920177300608000
B0306063306645S14759778EA016840177000508000
B0306113306586S14759789EA016730175900608000
B0306163306528S14759795EA016640174800608000
B0306213306468S14759807EA016470173300408000
B0306263306417S14759827EA016320171600308000
B0306313306385S14759874EA016140169500408000
B0306363306384S14759919EA015970167500408000
B0306413306407S14759944EA015870166100408000
B0306463306436S14759955EA015740164700408000
B0306513306455S14759968EA015690163900408000
B0306563306479S14759969EA015560163300408000
B0307013306498S14759950EA015450162300508000
B0307063306516S14759922EA015340161200408000
B0307113306536S14759903EA015270160600308000
B0307163306551S14759870EA015180159700308000
B0307213306566S14759836EA015130159100308000
B0307263306590S14759829EA015100158700308000
B0307313306608S14759857EA015090158700408000
B0307363306602S14759898EA015050158200508000
B0307413306587S14759945EA014980157500408000
B0307463306578S14759994EA014910156900408000
B0307513306570S14800041EA014940156700308000
B0307563306558S14800086EA014860156100608000
B0308013306550S14800132EA014760155200308000
B0308063306550S14800174EA014720154800508000
B0308113306551S14800211EA014690154300508000
B0308163306551S14800245EA014690154300708000
B0308213306551S14800280EA014610153700408000
B0308263306550S14800322EA014530153100608000
B0308313306549S14800362EA014520152600608000
B0308363306542S14800403EA014540152500708000
B0308413306553S14800430EA014640153100708000
B0308463306581S14800417EA014680153500908000
B0308513306562S14800363EA014730154300608000
B0308563306515S14800340EA014770154900708000
B0309013306480S14800377EA014780155100508000
B0309063306468S14800421EA014850155900708000
B0309113306468S14800461EA014930156800708000
B0309163306468S14800498EA014990157400708000
B0309213306474S14800534EA015060158000608000
B0309263306488S14800561EA015090158500308000
B0309313306505S14800583EA015110158800608000
B0309363306526S14800594EA015140158900308000
B0309413306548S14800593EA015160159100208000
B0309463306567S14800572EA015180159200408000
B0309513306554S14800524EA015210159400508000
B0309563306503S14800496EA015160159300708000
B0310013306443S14800494EA015150158900308000
B0310063306387S14800493EA015190159200308000
B0310113306340S14800519EA015190159100408000
B0310163306315S14800559EA015220159200408000
B0310213306321S14800590EA015230159400508000
B0310263306344S14800577EA015240159500808000
B0310313306332S14800524EA015240159900908000
B0310363306286S14800481EA015230159800608000
B0310413306238S14800443EA015220159800408000
B0310463306182S14800418EA015200159700308000
B0310513306122S14800421EA015260160000408000
B0310563306086S14800461EA015310160200408000
B0311013306085S14800497EA015300160300408000
B0311063306102S14800501EA015330160500408000
B0311113306104S14800459EA015310160500608000
B0311163306079S14800406EA015290160300608000
B0311213306048S14800356EA015320160600408000
B0311263306017S14800308EA015400161200408000
B0311313305994S14800261EA015460161800608000
B0311363305968S14800213EA015440161900408000
B0311413305931S14800168EA015400161900408000
B0311463305902S14800127EA015420161900808000
B0311513305888S14800067EA015260160501008000
B0311563305840S14800022EA015180159500508000
B0312013305797S14759980EA015170159000408000
B0312063305749S14759928EA015060158200508000
B0312113305698S14759894EA015200159100808000
B0312163305653S14759918EA015190159200808000
B0312213305666S14759942EA015230159400508000
B0312263305685S14759912EA015250159700608000
B0312313305685S14759859EA015270159900708000
B0312363305645S14759810EA015150159200608000
B0312413305587S14759784EA015110158800608000
B0312463305527S14759772EA015090158300408000
B0312513305469S14759776EA015010157600508000
B0312563305411S14759782EA014960156900508000
B0313013305352S14759787EA014890156200408000
B0313063305289S14759801EA014690154900608000
B0313113305227S14759810EA014650154000408000
B0313163305161S14759813EA014580153200308000
B0313213305099S14759820EA014520152500508000
B0313263305035S14759839EA014420151500508000
B0313313304970S14759852EA014310150300308000
B0313363304907S14759870EA014120148700508000
B0313413304846S14759892EA013980147000408000
B0313463304786S14759911EA013860145500508000
B0313513304725S14759930EA013710143900408000
B0313563304667S14759954EA013540142200308000
B0314013304607S14759975EA013430140800508000
B0314063304546S14759981EA013400139900308000
B0314113304485S14759990EA013270138800308000
B0314163304428S14759997EA013160138000308000
B0314213304369S14800014EA013020136900308000
F03142602061215192428
B0314263304315S14800034EA012860135400707000
B0314313304258S14800059EA012690133600507000
B0314363304200S14800077EA012510131600407000
F0314410206121517192428
B0314413304140S14800091EA012330129600308000
B0314463304080S14800110EA012080127300408000
B0314513304015S14800132EA011830124500508000
B0314563303960S14800143EA011730122800408000
B0315013303905S14800162EA011570120900408000
B0315063303847S14800186EA011350119000308000
B0315113303786S14800205EA011180117300408000
B0315163303723S14800219EA011100116300608000
B0315213303667S14800228EA011160116200408000
B0315263303614S14800252EA011110116500408000
B0315313303558S14800271EA011120116800508000
B0315363303511S14800301EA011120116900608000
B0315413303528S14800313EA011210117200808000
B0315463303516S14800255EA011310118201408000
B0315513303451S14800237EA011350119201008000
B0315563303400S14800276EA011380119900508000
B0316013303371S14800314EA011460120601108000
B0316063303396S14800323EA011560121300808000
B0316113303389S14800261EA011760123101308000
B0316163303330S14800245EA011860124800908000
B0316213303290S14800281EA011900125300508000
B0316263303296S14800316EA012020126600708000
B0316313303321S14800300EA012230128300708000
B0316363303305S14800243EA012370130101508000
B0316413303248S14800251EA012490131600708000
B0316463303238S14800293EA012620133100908000
B0316513303262S14800297EA012790134500608000
B0316563303250S14800245EA012840135301708000
B0317013303185S14800234EA012960136200908000
B0317063303170S14800271EA013150137601108000
B0317113303200S14800257EA013230138001008000
B0317163303163S14800207EA013290139201608000
B0317213303108S14800227EA013430140600808000
B0317263303111S14800266EA013520141900908000
B0317313303128S14800229EA013550142301008000
F03173602061217192428
B0317363303087S14800186EA013590142901107000
B0317413303032S14800188EA013720143800907000
B0317463303004S14800226EA013830144600807000
B0317513303029S14800231EA013840145201107000
B0317563303035S14800181EA013880145601107000
B0318013302990S14800146EA013970146401107000
B0318063302942S14800160EA014040147301307000
B0318113302918S14800196EA014150148201107000
B0318163302937S14800208EA014190148400907000
B0318213302951S14800163EA014160148701607000
B0318263302897S14800129EA014150148701307000
B0318313302844S14800144EA014160148701107000
B0318363302792S14800166EA014190149100807000
B0318413302759S14800201EA014320149701107000
B0318463302769S14800220EA014370150300807000
B0318513302777S14800175EA014430150801407000
B0318563302729S14800129EA014440151500807000
B0319013302672S14800132EA014520152201107000
B0319063302625S14800155EA014600153101007000
B0319113302604S14800188EA014610152800807000
B0319163302624S14800188EA014640152900707000
B0319213302622S14800139EA014700153301007000
F031926020612171924
B0319263302573S14800087EA014690153700906000
F03193102061217192428
B0319313302513S14800063EA014760154700707000
B0319363302452S14800052EA014880155700707000
B0319413302404S14800052EA015010157201107000
B0319463302387S14800086EA015100158000807000
B0319513302409S14800076EA015200158501007000
B0319563302397S14800018EA015250159200907000
B0320013302345S14759977EA015300159801007000
B0320063302284S14759956EA015280160200807000
B0320113302227S14759970EA015310160401707000
B0320163302222S14800011EA015230160101007000
B0320213302254S14759999EA015350160301107000
B0320263302228S14759942EA015430161001207000
B0320313302168S14759925EA015530162001307000
B0320363302139S14759964EA015420162001807000
B0320413302163S14759982EA015420161900907000
B0320463302187S14759958EA015520162300707000
B0320513302180S14759902EA015570162901007000
B0320563302144S14759855EA015590163600707000
B0321013302089S14759847EA015620163601807000
B0321063302057S14759884EA015620163500907000
B0321113302047S14759929EA015560163300907000
B0321163302065S14759954EA015600163400607000
B0321213302084S14759920EA015580163401207000
B0321263302050S14759863EA015540163500907000
F0321310206121719242528
B0321313301993S14759831EA015510163300508000
B0321363301936S14759805EA015470162900508000
B0321413301885S14759764EA015430162200408000
B0321463301824S14759728EA015390161700408000
B0321513301755S14759719EA015180160100508000
B0321563301690S14759722EA015130159300508000
B0322013301628S14759719EA015120158800408000
B0322063301564S14759709EA015190158900408000
B0322113301515S14759721EA015270159801108000
B0322163301521S14759729EA015360160300908000
B0322213301517S14759666EA015380161000808000
B0322263301468S14759619EA015520161900508000
B0322313301409S14759596EA015590162800408000
B0322363301345S14759599EA015670164000508000
B0322413301303S14759628EA015890165500608000
B0322463301321S14759643EA015970166400908000
B0322513301322S14759595EA016110168201308000
B0322563301263S14759549EA016160169300808000
B0323013301196S14759558EA016290170800608000
B0323063301160S14759591EA016480172200608000
B0323113301181S14759599EA016520172300708000
B0323163301181S14759553EA016670173401008000
B0323213301133S14759502EA016750174700608000
B0323263301072S14759469EA016870176100508000
B0323313301010S14759451EA016990177400608000
B0323363300968S14759478EA017070178501008000
B0323413300963S14759513EA017150179100608000
B0323463300981S14759494EA017270180101008000
B0323513300952S14759432EA017340181500908000
B0323563300883S14759407EA017430182500608000
B0324013300817S14759408EA017540183400508000
B0324063300770S14759431EA017520183800608000
B0324113300759S14759476EA017500183600508000
B0324163300778S14759495EA017510183500508000
B0324213300796S14759469EA017600183700608000
B0324263300774S14759404EA017650184101108000
B0324313300701S14759380EA017630184500708000
B0324363300634S14759378EA017660185000508000
B0324413300575S14759391EA017630184900708000
B0324463300522S14759422EA017680185100808000
B0324513300503S14759458EA017780185500608000
B0324563300526S14759466EA017830185800708000
B0325013300520S14759417EA017840186301208000
B0325063300455S14759405EA017810186500908000
B0325113300402S14759431EA017890187200608000
B0325163300380S14759466EA018000188000508000
B0325213300395S14759461EA018050188200808000
B0325263300382S14759406EA018060188601008000
B0325313300318S14759379EA018110189200708000
B0325363300257S14759387EA018200190000908000
B0325413300205S14759417EA018210190400708000
B0325463300144S14759445EA018140190200808000
B0325513300079S14759465EA018090189700408000
B0325563300016S14759476EA018070189400308000
B0326013259944S14759472EA017960188900508000
B0326063259874S14759464EA017920188100408000
B0326113259808S14759464EA017710186300508000
B0326163259747S14759484EA017470184000808000
B0326213259696S14759506EA017320181900808000
B0326263259644S14759536EA017110179400808000
B0326313259593S14759567EA016920177100608000
B0326363259548S14759592EA016800175600408000
B0326413259499S14759626EA016590173500708000
B0326463259443S14759656EA016440171900508000
B0326513259389S14759686EA016300170500308000
B0326563259338S14759720EA016080168600608000
B0327013259288S14759750EA015960167300308000
B0327063259237S14759777EA015790166000308000
B0327113259189S14759800EA015690164700308000
B0327163259137S14759828EA015480162800308000
B0327213259089S14759857EA015310160800608000
B0327263259044S14759890EA015100158600708000
B0327313258996S14759919EA015050157500808000
B0327363258981S14759953EA014880156500808000
B0327413259000S14759947EA014710155101208000
B0327463258971S14759895EA014540153501108000
B0327513258898S14759885EA014330151000708000
B0327563258831S14759887EA014200149100608000
B0328013258769S14759913EA014070147600808000
B0328063258705S14759946EA013980146300708000
B0328113258636S14759973EA013880145500608000
B0328163258598S14800009EA013970146000608000
B0328213258607S14800029EA014020146400708000
F03282602061217192428
B0328263258604S14759984EA014010146901407000
F0328310206121719242528
B0328313258530S14759963EA014010147200608000
B0328363258463S14759979EA014080148100608000
B0328413258415S14800008EA014280149300608000
B0328463258418S14800045EA014280149901208000
B0328513258431S14800019EA014470151601208000
B0328563258383S14759987EA014620153601108000
B0329013258333S14800020EA014760155101208000
B0329063258335S14800056EA014780155101008000
B0329113258354S14800022EA014910155901308000
B0329163258314S14759979EA015010156700708000
B0329213258252S14759988EA015160158201408000
B0329263258240S14800034EA015270159500608000
B0329313258253S14800022EA015390160401108000
B0329363258218S14759973EA015460161300908000
B0329413258157S14759973EA015640162600808000
B0329463258135S14800022EA015610163300708000
B0329513258150S14800051EA015710164100708000
B0329563258151S14800013EA015780165000808000
B0330013258101S14759972EA015890166000708000
B0330063258046S14759973EA015980167100708000
B0330113258000S14800014EA015990167800908000
B0330163257991S14800059EA016020168000808000
B0330213258004S14800084EA016120168400508000
B0330263258025S14800089EA016200168900308000
B0330313258037S14800063EA016330169600808000
B0330363257986S14800018EA016430170700908000
B0330413257934S14800046EA016590173201808000
B0330463257945S14800076EA016740174901208000
B0330513257956S14800034EA016800176701208000
B0330563257917S14759991EA017020178700908000
B0331013257867S14800015EA017150180000808000
B0331063257863S14800057EA017260181300808000
B0331113257885S14800049EA017360182401108000
B0331163257873S14759994EA017550184100808000
B0331213257814S14759978EA017680185200908000
B0331263257777S14800021EA017720185601008000
B0331313257788S14800058EA017820185700708000
B0331363257805S14800062EA018060186700708000
B0331413257797S14800022EA018170187900908000
B0331463257742S14759999EA018240189800908000
B0331513257690S14800036EA018320191401308000
B0331563257675S14800092EA018440192900508000
B0332013257678S14800130EA018520194000608000
B0332063257695S14800138EA018610194900508000
B0332113257706S14800121EA018650195300508000
B0332163257689S14800072EA018720195900608000
B0332213257634S14800046EA018880196900708000
B0332263257579S14800069EA019000198101108000
B0332313257549S14800125EA019100199000508000
B0332363257542S14800167EA019140199700808000
B0332413257555S14800144EA019090199600808000
B0332463257530S14800097EA019070199500808000
B0332513257465S14800085EA019140199900608000
B0332563257403S14800096EA019200200300608000
B0333013257344S14800102EA019220200500508000
B0333063257280S14800095EA019220200800408000
B0333113257216S14800101EA019210200800408000
B0333163257155S14800116EA019150200200408000
B0333213257095S14800134EA019030199200808000
B0333263257033S14800140EA018930197900308000
B0333313256973S14800138EA018770196400308000
B0333363256905S14800141EA018670195200408000
B0333413256840S14800150EA018570194100508000
B0333463256770S14800149EA018560193600508000
B0333513256706S14800145EA018570193400508000
B0333563256640S14800139EA018460192900408000
B0334013256573S14800131EA018400192400408000
F03340602061219242528
B0334063256503S14800127EA018280191400407000
F0334110206121719242528
B0334113256433S14800130EA018100190000508000
B0334163256360S14800135EA017990188600408000
B0334213256297S14800141EA018010188000308000
B0334263256232S14800142EA017940187700408000
B0334313256170S14800158EA017950187600408000
B0334363256110S14800183EA018000187900408000
B0334413256069S14800221EA018110188701108000
B0334463256071S14800259EA018070188500608000
B0334513256093S14800231EA018060188601108000
B0334563256046S14800187EA018080188900808000
B0335013255977S14800175EA018110189300608000
B0335063255916S14800187EA018210190300708000
B0335113255868S14800228EA018180190100508000
B0335163255815S14800259EA018210190200508000
B0335213255770S14800290EA018240190500808000
B0335263255720S14800318EA018170190300408000
B0335313255665S14800346EA018110190000408000
B0335363255610S14800373EA018120189800408000
B0335413255553S14800390EA018070189500408000
B0335463255489S14800407EA018030189200508000
B0335513255432S14800426EA018070189200808000
B0335563255374S14800455EA018110189100508000
B0336013255314S14800471EA018230189700408000
B0336063255277S14800499EA018330190800808000
B0336113255291S14800515EA018390191400808000
B0336163255294S14800469EA018390191800908000
B0336213255248S14800426EA018460192400708000
B0336263255190S14800422EA018480193000508000
B0336313255134S14800447EA018520193700908000
B0336363255081S14800476EA018640194600508000
B0336413255059S14800519EA018760195900608000
B0336463255073S14800523EA018920196700908000
B0336513255058S14800470EA019010198100908000
B0336563255005S14800435EA019160199700908000
B0337013254950S14800457EA019250201301408000
B0337063254939S14800501EA019300201500808000
B0337113254959S14800504EA019460202000708000
F03371602061217192425
B0337163254956S14800457EA019560203101007000
F0337210206121719242528
B0337213254903S14800424EA019680204701008000
B0337263254851S14800452EA019760206101308000
B0337313254839S14800496EA019840207000608000
B0337363254854S14800502EA019950207800508000
B0337413254846S14800453EA020050208900708000
B0337463254797S14800414EA020170210200808000
B0337513254742S14800429EA020230211300908000
B0337563254713S14800475EA020230211400508000
B0338013254720S14800505EA020300211600708000
B0338063254730S14800475EA020350212300908000
B0338113254701S14800427EA020400212800708000
B0338163254641S14800413EA020430213300608000
B0338213254581S14800436EA020410213201108000
B0338263254527S14800476EA020430213500908000
B0338313254497S14800517EA020540214100508000
B0338363254508S14800544EA020540214000508000
B0338413254514S14800512EA020600214300708000
B0338463254477S14800465EA020630214700608000
B0338513254419S14800445EA020650215300608000
F03385602061217192425
B0338563254358S14800469EA020660215701107000
B0339013254305S14800506EA020620215500507000
B0339063254254S14800544EA020570215101007000
B0339113254211S14800587EA020460214100507000
B0339163254157S14800627EA020300212300407000
B0339213254102S14800663EA020210210900407000
B0339263254054S14800702EA020130210000507000
B0339313254008S14800729EA020170210100307000
B0339363253954S14800755EA020080209800407000
B0339413253898S14800786EA020020209400507000
B0339463253843S14800819EA019920208900507000
B0339513253792S14800857EA019830207900807000
B0339563253739S14800905EA019680206100807000
B0340013253682S14800953EA019530204300707000
B0340063253624S14800998EA019350202700807000
B0340113253562S14801031EA019300201700507000
B0340163253500S14801062EA019170200700407000
B0340213253441S14801101EA019080199600407000
B0340263253388S14801145EA018960198400707000
B0340313253326S14801196EA018790196900607000
B0340363253273S14801247EA018700195400907000
B0340413253226S14801305EA018540193800707000
B0340463253183S14801351EA018510193200907000
B0340513253149S14801401EA018410192400407000
B0340563253129S14801450EA018330191800407000
B0341013253102S14801497EA018210190600507000
B0341063253054S14801541EA018110189600607000
B0341113252994S14801574EA018050188500807000
B0341163252940S14801605EA017970187600807000
B0341213252883S14801634EA017860186600807000
B0341263252820S14801663EA017720185400807000
B0341313252757S14801690EA017610184400407000
B0341363252697S14801715EA017550183400507000
B0341413252634S14801743EA017390182200507000
B0341463252570S14801762EA017300181000407000
B0341513252511S14801783EA017180179700907000
B0341563252448S14801804EA017020178300507000
B0342013252385S14801815EA016930177000407000
B0342063252320S14801829EA016770175800407000
B0342113252253S14801851EA016610174100407000
B0342163252189S14801877EA016470172600607000
B0342213252121S14801904EA016320170900607000
B0342263252053S14801926EA016140169300507000
B0342313251987S14801944EA015990167700507000
B0342363251914S14801951EA015890166300407000
B0342413251854S14801966EA015840165300407000
B0342463251790S14801991EA015740164500807000
B0342513251733S14802015EA015660163301007000
B0342563251675S14802042EA015460162100607000
B0343013251622S14802053EA015370161300507000
B0343063251565S14802072EA015230160300607000
F0343110205061217192425
B0343113251511S14802089EA015150159200408000
B0343163251456S14802111EA015010157600708000
B0343213251400S14802134EA014860156100408000
B0343263251338S14802146EA014890155400308000
B0343313251282S14802164EA014820155100508000
B0343363251229S14802170EA014870155300408000
B0343413251166S14802169EA014830155400408000
B0343463251107S14802183EA014900156100508000
B0343513251071S14802220EA014970156800508000
B0343563251086S14802229EA015030157300708000
B0344013251074S14802174EA015100157900908000
B0344063251010S14802159EA015120158501308000
B0344113250948S14802184EA015220159100608000
B0344163250922S14802222EA015240159300408000
B0344213250934S14802238EA015240159400608000
B0344263250925S14802188EA015230159400908000
B0344313250857S14802171EA015290160000808000
B0344363250787S14802183EA015220159700508000
B0344413250726S14802205EA015100158500908000
B0344463250675S14802242EA014940157000808000
B0344513250628S14802277EA014870155700408000
B0344563250589S14802319EA014730154300308000
B0345013250554S14802362EA014620152900408000
B0345063250510S14802408EA014450151400708000
B0345113250465S14802446EA014380150600708000
B0345163250414S14802480EA014260149400408000
B0345213250363S14802513EA014110148100308000
B0345263250314S14802551EA013940146300708000
B0345313250275S14802590EA013880145100508000
B0345363250243S14802645EA013850144300808000
B0345413250216S14802682EA014020144800708000
B0345463250237S14802680EA014050145501108000
B0345513250221S14802627EA013970146101008000
B0345563250151S14802621EA013870146201308000
B0346013250103S14802662EA014140147500808000
B0346063250115S14802697EA014310148800908000
B0346113250129S14802661EA014410150101208000
B0346163250079S14802632EA014460151200908000
B0346213250037S14802681EA014590153000908000
B0346263250054S14802718EA014750154700908000
B0346313250063S14802683EA014840156001408000
B0346363250011S14802651EA014840156001108000
B0346413249955S14802687EA014990157000708000
B0346463249947S14802721EA015200159001908000
B0346513249961S14802683EA015310161000908000
B0346563249907S14802650EA015480163000708000
B0347013249860S14802680EA015760165800808000
B0347063249869S14802709EA016010167700708000
B0347113249877S14802668EA016190169500808000
B0347163249838S14802632EA016500171900908000
B0347213249786S14802666EA016640174301008000
B0347263249771S14802710EA016870176900708000
B0347313249792S14802709EA017070179000608000
B0347363249774S14802659EA017100180201008000
B0347413249722S14802622EA017350181800508000
B0347463249678S14802636EA017500183501208000
B0347513249668S14802680EA017660185200708000
B0347563249693S14802665EA017810186700908000
B0348013249666S14802601EA017880187400608000
B0348063249618S14802597EA018070189301408000
B0348113249597S14802648EA018230190900708000
B0348163249624S14802660EA018410192700808000
B0348213249612S14802595EA018410194000908000
B0348263249580S14802548EA018630195400708000
B0348313249535S14802533EA018730196100708000
B0348363249501S14802576EA018820196900608000
B0348413249504S14802619EA019050198300708000
B0348463249532S14802607EA019180200100608000
B0348513249516S14802557EA019270201501008000
B0348563249467S14802546EA019410202800708000
B0349013249430S14802582EA019520204100508000
B0349063249428S14802625EA019660205300608000
B0349113249449S14802634EA019800206500508000
B0349163249461S14802596EA019940208000508000
B0349213249432S14802556EA020010209001308000
B0349263249410S14802592EA020070209601608000
B0349313249412S14802558EA020040209901308000
B0349363249358S14802573EA020140210500908000
B0349413249311S14802565EA020260211500908000
B0349463249317S14802523EA020320212001408000
B0349513249356S14802507EA020340212001008000
B0349563249313S14802473EA020320212101108000
B0350013249264S14802486EA020420212801008000
B0350063249281S14802504EA020330212801108000
B0350113249276S14802443EA020360212900908000
B0350163249220S14802443EA020340212800908000
B0350213249159S14802449EA020330212400508000
B0350263249105S14802468EA020320212400708000
B0350313249054S14802477EA020380212700408000
B0350363249001S14802491EA020380212800408000
B0350413248952S14802513EA020450213300508000
B0350463248922S14802554EA020490213601708000
B0350513248950S14802529EA020540213801108000
B0350563248910S14802491EA020610214601308000
B0351013248873S14802537EA020560214801108000
B0351063248902S14802534EA020680215401108000
B0351113248874S14802478EA020670215601208000
B0351163248812S14802454EA020700216000908000
B0351213248771S14802487EA020770216501308000
B0351263248811S14802507EA020860217900808000
B0351313248830S14802531EA020980218700708000
B0351363248860S14802561EA020940218500808000
B0351413248857S14802504EA020880218401408000
B0351463248795S14802500EA020900218401208000
B0351513248738S14802533EA020890218100808000
B0351563248673S14802565EA020860217900608000
B0352013248626S14802609EA020930218301008000
B0352063248562S14802645EA020910218000508000
B0352113248502S14802673EA020960218100508000
B0352163248437S14802705EA020750217200808000
B0352213248361S14802721EA020760216100508000
B0352263248289S14802738EA020760216000508000
B0352313248223S14802746EA020710215800708000
B0352363248149S14802754EA020680215700508000
B0352413248082S14802759EA020750216000308000
B0352463248032S14802788EA020730216000408000
B0352513248036S14802819EA020690215700708000
B0352563248040S14802775EA020670215901008000
B0353013247986S14802735EA020660216000808000
B0353063247915S14802731EA020650215900508000
B0353113247846S14802750EA020630215900708000
B0353163247783S14802762EA020720216300608000
B0353213247738S14802718EA020720216200608000
B0353263247745S14802686EA020700215901208000
B0353313247756S14802721EA020700216001208000
B0353363247727S14802769EA020780216501008000
B0353413247670S14802812EA020730216700508000
B0353463247608S14802841EA020760216900608000
B0353513247538S14802866EA020690216300808000
B0353563247469S14802895EA020630215700708000
B0354013247401S14802924EA020670215500608000
B0354063247332S14802949EA020640215200608000
B0354113247256S14802980EA020490214200408000
B0354163247185S14803013EA020430213400408000
B0354213247122S14803041EA020320212300708000
B0354263247056S14803070EA020180211000508000
B0354313246991S14803094EA020070209700408000
B0354363246928S14803118EA019920208200708000
B0354413246862S14803145EA019830206800408000
B0354463246797S14803167EA019720205500408000
B0354513246738S14803190EA019650204800608000
B0354563246687S14803214EA019570203900808000
B0355013246633S14803244EA019520203200408000
B0355063246580S14803276EA019360202100608000
B0355113246522S14803302EA019240200800508000
B0355163246466S14803338EA019020198800808000
B0355213246412S14803378EA018770196500708000
B0355263246361S14803418EA018630194400708000
B0355313246311S14803459EA018430192200608000
B0355363246262S14803501EA018280190400608000
B0355413246217S14803547EA018130189100508000
B0355463246159S14803580EA018030188200708000
B0355513246105S14803618EA017890187100808000
B0355563246051S14803656EA017820186200608000
B0356013246007S14803700EA017880186500708000
B0356063245960S14803736EA017970187200708000
B0356113245919S14803779EA017910187200508000
B0356163245880S14803827EA017940187600408000
B0356213245845S14803869EA017970188100408000
B0356263245806S14803910EA018000188400408000
B0356313245762S14803952EA018020188600408000
B0356363245717S14803993EA018060188800408000
B0356413245670S14804040EA018100189100508000
B0356463245629S14804091EA018110189300408000
B0356513245583S14804147EA018150189600808000
B0356563245574S14804194EA018230190100808000
B0357013245587S14804176EA018240190500708000
B0357063245545S14804123EA018220190301008000
B0357113245473S14804128EA018190190401308000
B0357163245410S14804174EA018240190601008000
B0357213245355S14804231EA018260191000708000
B0357263245323S14804281EA018440192700508000
B0357313245336S14804307EA018440193300708000
B0357363245333S14804267EA018420193200808000
B0357413245273S14804251EA018420192900708000
B0357463245213S14804286EA018410192701208000
B0357513245164S14804333EA018390192501108000
B0357563245112S14804383EA018460192800908000
B0358013245075S14804428EA018550193300408000
B0358063245076S14804454EA018450193001008000
B0358113245091S14804423EA018320192400708000
B0358163245061S14804371EA018330191801008000
B0358213244995S14804374EA018310191500708000
B0358263244936S14804409EA018320191200908000
B0358313244891S14804457EA018170190300708000
B0358363244852S14804501EA018200190200408000
B0358413244818S14804543EA018130189700608000
B0358463244777S14804580EA018080189100508000
B0358513244729S14804616EA017970188100908000
B0358563244691S14804655EA017890187300508000
B0359013244651S14804688EA017740185900808000
B0359063244601S14804716EA017530183500608000
B0359113244548S14804748EA017290180600808000
B0359163244508S14804791EA017110178600708000
B0359213244474S14804833EA017000176900508000
B0359263244443S14804876EA016850175300508000
B0359313244409S14804923EA016640173600608000
B0359363244372S14804969EA016470171800508000
B0359413244330S14805012EA016300169900408000
B0359463244290S14805057EA016140168600608000
B0359513244249S14805103EA016020167500508000
B0359563244217S14805147EA016030167200508000
B0400013244181S14805193EA016030167400508000
B0400063244134S14805240EA015980167200708000
B0400113244087S14805281EA016020167500808000
B0400163244040S14805319EA015950167100708000
F040021020506121719242529
B0400213243995S14805361EA015870166200309000
B0400263243952S14805403EA015780165500409000
B0400313243910S14805452EA015650164200409000
B0400363243869S14805503EA015540162700409000
B0400413243826S14805553EA015430161200409000
B0400463243788S14805604EA015270159700409000
B0400513243753S14805657EA015140158100309000
B0400563243720S14805711EA014900156000509000
B0401013243681S14805760EA014760154400409000
B0401063243644S14805795EA014610153000809000
B0401113243610S14805835EA014460151500509000
B0401163243587S14805876EA014310149800509000
B0401213243568S14805928EA014030147200809000
B0401263243535S14805971EA013900145100509000
B0401313243506S14806015EA013780143600609000
B0401363243480S14806065EA013600142000309000
B0401413243449S14806109EA013530140900609000
B0401463243414S14806154EA013390139800509000
B0401513243385S14806200EA013290138900309000
B0401563243364S14806249EA013140137900509000
B0402013243342S14806294EA013020136500709000
B0402063243301S14806346EA012840134900509000
B0402113243263S14806392EA012830134300409000
B0402163243225S14806436EA012760133800409000
B0402213243187S14806481EA012750133800609000
B0402263243149S14806528EA012790134100509000
B0402313243108S14806575EA012850134700509000
B0402363243070S14806621EA012920135400509000
B0402413243025S14806668EA012910135600709000
B0402463242974S14806711EA012950136100309000
B0402513242920S14806752EA013020136400409000
B0402563242868S14806801EA012970136500409000
B0403013242827S14806843EA013050137000409000
B0403063242790S14806897EA013000136900509000
B0403113242754S14806944EA013080137200809000
B0403163242722S14806994EA012980137000609000
B0403213242677S14807031EA012900136100409000
B0403263242629S14807067EA012770134700409000
B0403313242584S14807111EA012710133200409000
B0403363242539S14807155EA012530131500409000
B0403413242487S14807187EA012370129500409000
B0403463242434S14807217EA012200127600309000
B0403513242381S14807253EA011980125600409000
B0403563242325S14807284EA011810123900409000
B0404013242264S14807295EA011710122500409000
B0404063242200S14807311EA011560121000309000
B0404113242136S14807326EA011470119900409000
F0404160205061217242529
B0404163242073S14807344EA011380119200308000
B0404213242006S14807365EA011280118300408000
F04042602050612172425
B0404263241932S14807383EA011180117400507000
F0404310205061217242529
B0404313241863S14807401EA011090116400408000
B0404363241794S14807415EA011030115900408000
B0404413241728S14807420EA010950115200508000
B0404463241655S14807412EA010880114200408000
B0404513241581S14807417EA010700112700308000
B0404563241517S14807432EA010550110900408000
B0405013241458S14807460EA010310108700408000
B0405063241403S14807488EA010110106400408000
B0405113241344S14807504EA009890104100608000
B0405163241278S14807494EA009680101600408000
B0405213241211S14807497EA009460099400408000
B0405263241147S14807517EA009340097600408000
B0405313241085S14807542EA009230096300608000
B0405363241020S14807554EA009110095300408000
B0405413240957S14807557EA009030094400408000
B0405463240891S14807553EA008860093000508000
B0405513240822S14807548EA008710091900408000
B0405563240757S14807542EA008720091200408000
B0406013240692S14807532EA008620090400308000
B0406063240624S14807521EA008470089200308000
B0406113240561S14807509EA008310087800308000
B0406163240495S14807495EA008140086100308000
B0406213240434S14807465EA008000084400308000
B0406263240384S14807415EA007880082900608000
B0406313240338S14807363EA007840082200708000
B0406363240296S14807322EA007960082600708000
B0406413240237S14807294EA007940083100508000
B0406463240173S14807265EA007990083800508000
B0406513240113S14807231EA007950083900508000
B0406563240053S14807210EA008040084300408000
B0407013239990S14807193EA007990084400508000
B0407063239935S14807158EA008010084600908000
B0407113239883S14807139EA008060084800408000
B0407163239848S14807165EA008110085400708000
B0407213239866S14807174EA008200086100708000
B0407263239848S14807128EA008190086701208000
B0407313239792S14807099EA008180087000608000
B0407363239734S14807063EA008230086800708000
B0407413239675S14807029EA008350087400908000
B0407463239626S14807046EA008510088501008000
B0407513239635S14807091EA008610090501108000
B0407563239645S14807046EA008680091801608000
B0408013239596S14806998EA008780093000808000
B0408063239544S14807031EA008960094201108000
B0408113239542S14807082EA009110095801108000
B0408163239563S14807067EA009210096900808000
B0408213239552S14807007EA009280098001308000
B0408263239491S14806972EA009360098800608000
B0408313239440S14807003EA009510100300808000
B0408363239449S14807045EA009660102000708000
B0408413239461S14807004EA009790103001408000
B0408463239401S14806955EA009820103400708000
B0408513239343S14806959EA010070104800908000
B0408563239331S14807007EA010150106601208000
B0409013239355S14806992EA010330108000808000
B0409063239326S14806935EA010430109101208000
B0409113239270S14806922EA010650111200608000
B0409163239227S14806959EA010760112801008000
B0409213239231S14806993EA010860113900808000
B0409263239238S14806952EA010980114701908000
B0409313239186S14806913EA011090116300508000
B0409363239130S14806899EA011200117300408000
B0409413239070S14806907EA011360118700608000
B0409463239043S14806947EA011620121300708000
B0409513239063S14806937EA011780123500808000
B0409563239032S14806875EA011910125701108000
B0410013238965S14806856EA012070127100608000
B0410063238909S14806879EA012240128700708000
B0410113238912S14806923EA012380129900708000
B0410163238926S14806891EA012610132301608000
B0410213238873S14806844EA012840134600608000
B0410263238810S14806849EA013030136700508000
B0410313238774S14806894EA013140137900908000
B0410363238788S14806922EA013370140000808000
B0410413238796S14806884EA013540142000708000
B0410463238756S14806843EA013730144000708000
B0410513238690S14806841EA013840145400608000
B0410563238628S14806845EA013910146400408000
B0411013238572S14806858EA014010147400408000
B0411063238548S14806907EA014070147901008000
B0411113238570S14806895EA014230148701008000
B0411163238524S14806857EA014410150400908000
B0411213238466S14806885EA014510151800808000
B0411263238467S14806921EA014730153800908000
B0411313238452S14806879EA014880155901108000
B0411363238386S14806846EA015030157800708000
B0411413238328S14806858EA015390160601008000
B0411463238330S14806897EA015540163001708000
B0411513238323S14806852EA015680164801208000
B0411563238267S14806823EA015900166600608000
B0412013238219S14806841EA016200169300608000
B0412063238191S14806891EA016530173400808000
B0412113238204S14806892EA016720175901008000
B0412163238165S14806840EA016840177200708000
B0412213238111S14806834EA017200179800808000
B0412263238074S14806877EA017340181700608000
B0412313238048S14806931EA017580184000608000
B0412363238053S14806963EA017810186300608000
B0412413238055S14806929EA018020188201008000
B0412463237999S14806891EA018220190400608000
B0412513237945S14806908EA018490192600608000
B0412563237925S14806960EA018540193800708000
B0413013237946S14806980EA018730195600608000
B0413063237935S14806937EA018980198101108000
B0413113237880S14806912EA019160200100608000
B0413163237822S14806916EA019280201500908000
B0413213237765S14806930EA019310201900508000
B0413263237729S14806979EA019320201900808000
B0413313237745S14807019EA019360202000908000
B0413363237761S14806997EA019650204100708000
B0413413237734S14806959EA019770206400908000
B0413463237677S14806975EA019770206900708000
B0413513237638S14807022EA019900207700508000
B0413563237646S14807063EA019960208301008000
B0414013237670S14807069EA020160209900608000
B0414063237670S14807043EA020290211600808000
B0414113237617S14807016EA020380212800908000
B0414163237576S14807065EA020470213701108000
B0414213237591S14807104EA020560214500708000
B0414263237601S14807089EA020680215700608000
B0414313237568S14807055EA020780216900808000
B0414363237514S14807058EA020850217800708000
B0414413237483S14807117EA020820217700808000
B0414463237484S14807172EA020940218400808000
B0414513237502S14807168EA021090219200608000
B0414563237496S14807131EA021140220200708000
B0415013237464S14807103EA021280221400708000
B0415063237408S14807118EA021340222100808000
B0415113237381S14807178EA021310222100808000
B0415163237401S14807216EA021350222300708000
B0415213237421S14807214EA021480223000508000
B0415263237432S14807194EA021530223700408000
B0415313237412S14807158EA021520224300608000
B0415363237361S14807147EA021560224600708000
B0415413237324S14807207EA021560224701008000
B0415463237337S14807254EA021570224800608000
B0415513237359S14807264EA021590224500508000
B0415563237375S14807255EA021610224800708000
B0416013237389S14807240EA021580224800508000
B0416063237386S14807205EA021480224600608000
B0416113237378S14807175EA021480224100408000
B0416163237368S14807137EA021350223300408000
B0416213237340S14807097EA021350222900708000
B0416263237285S14807092EA021480223200808000
B0416313237251S14807148EA021460223501308000
B0416363237250S14807197EA021450223500408000
B0416413237238S14807257EA021400223000808000
B0416463237195S14807321EA021330222500808000
B0416513237137S14807368EA021260221700508000
B0416563237069S14807393EA021140220600508000
B0417013237002S14807408EA021040219500508000
B0417063236931S14807430EA020970218700508000
B0417113236861S14807433EA020980218500408000
B0417163236798S14807432EA020960218300408000
B0417213236739S14807429EA020900218000308000
B0417263236676S14807426EA020820217300308000
B0417313236618S14807428EA020740216500308000
B0417363236561S14807436EA020550215500508000
B0417413236501S14807436EA020410213900408000
B0417463236435S14807446EA020180211800508000
B0417513236368S14807460EA020090210000708000
B0417563236300S14807470EA019980208400308000
B0418013236230S14807486EA019810206500408000
B0418063236161S14807499EA019720205600408000
B0418113236094S14807506EA019640204600508000
B0418163236030S14807506EA019620204100308000
B0418213235963S14807515EA019510203400308000
B0418263235896S14807524EA019440202800408000
B0418313235830S14807526EA019320201900508000
F04183602050612242529
B0418363235762S14807533EA019210200800507000
B0418413235690S14807549EA019130199801007000
B0418463235625S14807568EA019070198800407000
B0418513235558S14807590EA019010198100507000
B0418563235494S14807609EA018970197600407000
B0419013235432S14807643EA018910197200507000
B0419063235376S14807678EA018900196900407000
B0419113235321S14807717EA018820196500507000
B0419163235268S14807762EA018740195800507000
B0419213235216S14807803EA018630194900607000
B0419263235155S14807840EA018390193300607000
B0419313235101S14807865EA018310191900507000
B0419363235053S14807900EA018130190200507000
B0419413235007S14807937EA018040188600507000
B0419463234963S14807977EA017890186900507000
B0419513234923S14808025EA017720185100507000
B0419563234888S14808063EA017640183800707000
B0420013234857S14808114EA017410182000907000
B0420063234824S14808162EA017320180700707000
B0420113234790S14808212EA017210179400707000
B0420163234755S14808260EA017070178200407000
B0420213234715S14808302EA016940176600707000
B0420263234675S14808349EA016760175000307000
B0420313234631S14808390EA016670173800707000
B0420363234583S14808428EA016540172500307000
B0420413234539S14808465EA016410171000807000
B0420463234496S14808506EA016180169200607000
B0420513234453S14808544EA016020167200707000
B0420563234411S14808585EA015860165500807000
B0421013234385S14808625EA015660163800707000
B0421063234347S14808670EA015560161900607000
B0421113234299S14808713EA015380160400907000
B0421163234252S14808749EA015280159100507000
B0421213234204S14808788EA015170157900507000
B0421263234161S14808830EA015080157000807000
B0421313234131S14808882EA014910155900707000
B0421363234094S14808929EA014830154900707000
B0421413234055S14808979EA014680153500707000
B0421463234019S14809027EA014550151900507000
B0421513233987S14809081EA014350150200407000
B0421563233957S14809136EA014220148700707000
B0422013233926S14809193EA014080147200507000
B0422063233884S14809241EA014020146200707000
B0422113233846S14809287EA013960145600507000
B0422163233817S14809343EA013880145100907000
B0422213233778S14809387EA013980145400607000
B0422263233761S14809424EA014080146201107000
B0422313233783S14809410EA014120147001307000
B0422363233770S14809353EA014190148200707000
B0422413233715S14809311EA014260149100707000
B0422463233645S14809323EA014220149000807000
B0422513233593S14809367EA014190148701007000
B0422563233551S14809414EA014280149200607000
B0423013233522S14809452EA014370150000607000
B0423063233528S14809469EA014400150401307000
B0423113233530S14809424EA014460150801407000
B0423163233477S14809377EA014450151200907000
B0423213233406S14809379EA014480151300507000
B0423263233340S14809395EA014490151800707000
B0423313233291S14809426EA014550152200607000
B0423363233276S14809468EA014560152301007000
B0423413233296S14809460EA014500152101307000
B0423463233297S14809409EA014560152600907000
B0423513233264S14809359EA014650153001007000
B0423563233202S14809343EA014610152900807000
B0424013233146S14809379EA014520152201307000
B0424063233111S14809435EA014510152000907000
B0424113233080S14809484EA014550152100707000
B0424163233048S14809533EA014530152100907000
B0424213233028S14809566EA014670152800807000
B0424263233043S14809554EA014680152901207000
B0424313233024S14809499EA014730153601407000
B0424363232966S14809473EA014730153601107000
B0424413232901S14809474EA014720153500507000
B0424463232842S14809497EA014710153500507000
B0424513232793S14809537EA014670153200507000
B0424563232759S14809577EA014700153500707000
B0425013232763S14809598EA014670153501107000
B0425063232761S14809556EA014680153301307000
B0425113232713S14809520EA014690153100607000
B0425163232650S14809525EA014630152600607000
B0425213232600S14809561EA014540151900607000
B0425263232555S14809602EA014490151500507000
B0425313232515S14809645EA014550151500507000
B0425363232513S14809680EA014620152200807000
B0425413232524S14809655EA014670152701407000
B0425463232480S14809614EA014750153800707000
B0425513232418S14809608EA014730153900607000
B0425563232366S14809643EA014720153900607000
B0426013232321S14809683EA014750154100707000
B0426063232296S14809732EA014780154401107000
B0426113232300S14809756EA014840154701207000
B0426163232314S14809729EA014910155300907000
B0426213232304S14809681EA014920155400907000
B0426263232260S14809640EA014950155700607000
B0426313232198S14809643EA014930155900607000
B0426363232145S14809673EA014930155700607000
B0426413232106S14809718EA014940155901007000
B0426463232092S14809758EA015030156700607000
B0426513232098S14809773EA015080157300807000
B0426563232108S14809745EA015110157600907000
B0427013232086S14809697EA015180158101107000
B0427063232032S14809666EA015200158300707000
B0427113231970S14809669EA015210158700507000
B0427163231911S14809694EA015180159000607000
B0427213231863S14809729EA015330159601007000
B0427263231858S14809756EA015350160001007000
B0427313231862S14809721EA015360160301207000
B0427363231818S14809679EA015370160600707000
B0427413231757S14809687EA015450161000907000
B0427463231718S14809723EA015520162001407000
B0427513231710S14809755EA015560162400507000
B0427563231718S14809747EA015560162300707000
B0428013231705S14809700EA015530162200907000
B0428063231651S14809666EA015540162300707000
B0428113231594S14809685EA015560162400707000
B0428163231551S14809725EA015630163201107000
B0428213231534S14809763EA015630163300607000
B0428263231541S14809767EA015610163000807000
B0428313231534S14809725EA015590162800807000
B0428363231479S14809690EA015560162400907000
B0428413231415S14809705EA015620162700907000
B0428463231370S14809746EA015590162801107000
B0428513231332S14809785EA015590162800907000
B0428563231299S14809828EA015540162500707000
B0429013231278S14809873EA015620162701007000
B0429063231287S14809868EA015580162601307000
B0429113231260S14809821EA015590162701207000
B0429163231190S14809814EA015560162800707000
B0429213231141S14809857EA015570163101107000
B0429263231124S14809896EA015740163901207000
B0429313231135S14809892EA015830164701307000
B0429363231109S14809846EA015800164901507000
B0429413231039S14809849EA015750164801107000
B0429463230989S14809895EA015840165600707000
B0429513230963S14809939EA015970166600907000
B0429563230972S14809948EA016030167101307000
B0430013230952S14809904EA016130167701307000
B0430063230889S14809884EA016260168800607000
B0430113230832S14809915EA016370170101007000
B0430163230815S14809963EA016500171700807000
B0430213230829S14809966EA016620172801307000
B0430263230816S14809923EA016760174301407000
B0430313230748S14809898EA016830175101007000
B0430363230687S14809930EA016960176700907000
B0430413230665S14809980EA017080178201207000
B0430463230679S14809989EA017200179301207000
B0430513230668S14809947EA017330180401307000
B0430563230607S14809917EA017420181401107000
B0431013230540S14809953EA017480182401007000
B0431063230511S14809998EA017640184001507000
B0431113230518S14810018EA017750184901207000
B0431163230511S14809975EA017800185401307000
B0431213230454S14809942EA017920186500907000
B0431263230386S14809961EA018000187400807000
B0431313230349S14810011EA018190189001307000
B0431363230358S14810019EA018290190301407000
B0431413230340S14809975EA018410192301407000
B0431463230274S14809948EA018460192900907000
B0431513230212S14809950EA018690195000607000
B0431563230162S14809982EA018820196500707000
B0432013230149S14810025EA019020198101007000
B0432063230152S14810011EA019150199201007000
B0432113230109S14809965EA019180199701007000
B0432163230046S14809964EA019350200800807000
B0432213229995S14810004EA019460202100607000
B0432263229981S14810047EA019580203600807000
B0432313229993S14810043EA019640204501507000
B0432363229981S14810002EA019760205701307000
B0432413229929S14809963EA019870207000607000
B0432463229866S14809973EA020020208400807000
B0432513229829S14810020EA020140210101107000
B0432563229818S14810059EA020270211500607000
B0433013229829S14810055EA020320212101307000
B0433063229820S14810010EA020400212600807000
B0433113229781S14809966EA020520213500807000
B0433163229715S14809962EA020600214201007000
B0433213229676S14810008EA020680215101207000
B0433263229680S14810024EA020760216001307000
B0433313229666S14809977EA020800216601307000
B0433363229604S14809945EA020900217501407000
B0433413229536S14809960EA021010218400807000
B0433463229501S14810004EA021060219001207000
B0433513229503S14810019EA021100219601407000
B0433563229492S14809975EA021150220101107000
B0434013229438S14809939EA021210220700907000
B0434063229367S14809945EA021220220900707000
B0434113229300S14809967EA021260221100707000
B0434163229233S14809989EA021140220500607000
B0434213229170S14810014EA021020219100607000
B0434263229102S14810034EA020870217700607000
B0434313229043S14810065EA020720216200707000
B0434363228990S14810101EA020600214800507000
B0434413228932S14810124EA020570214200607000
B0434463228870S14810146EA020530213700607000
B0434513228808S14810160EA020460213300507000
B0434563228750S14810175EA020370212800607000
B0435013228696S14810194EA020320212100607000
B0435063228643S14810216EA020240211500407000
B0435113228590S14810232EA020170210400507000
B0435163228537S14810248EA020070209500507000
B0435213228482S14810260EA020020208800507000
B0435263228427S14810267EA019990208300507000
B0435313228369S14810277EA019880207500607000
B0435363228316S14810292EA019820206700607000
B0435413228264S14810311EA019720205900507000
B0435463228215S14810333EA019690205300607000
B0435513228164S14810351EA019610204600407000
B0435563228114S14810369EA019560204100507000
B0436013228061S14810390EA019470203300707000
B0436063228011S14810411EA019470202800607000
B0436113227959S14810437EA019370202000507000
B0436163227906S14810452EA019300201100507000
B0436213227851S14810469EA019150200000507000
B0436263227796S14810488EA019060198900507000
B0436313227742S14810504EA018950197700507000
B0436363227683S14810519EA018810196500407000
B0436413227627S14810534EA018740195600607000
B0436463227568S14810558EA018610194500607000
B0436513227513S14810571EA018560193700507000
B0436563227454S14810586EA018360192700607000
B0437013227400S14810601EA018260191200607000
B0437063227341S14810614EA018060189200507000
B0437113227284S14810618EA017890187200607000
B0437163227227S14810634EA017720185000607000
B0437213227173S14810666EA017540183100807000
B0437263227117S14810688EA017460181800607000
B0437313227063S14810712EA017410180900607000
B0437363227007S14810745EA017260180200807000
B0437413226968S14810779EA017310180000607000
B0437463226963S14810826EA017230179401407000
B0437513226981S14810812EA017160178801207000
B0437563226940S14810779EA017040178101007000
B0438013226880S14810782EA016970177500707000
B0438063226826S14810805EA016940177000707000
B0438113226776S14810834EA016960176900607000
B0438163226728S14810865EA016960176700607000
B0438213226679S14810895EA016910176500507000
B0438263226635S14810934EA016880176200507000
B0438313226584S14810963EA016860176000507000
B0438363226531S14810986EA016830175600507000
B0438413226480S14811010EA016840175300607000
B0438463226427S14811035EA016760174800607000
B0438513226371S14811057EA016620174200607000
B0438563226319S14811082EA016590173600707000
B0439013226266S14811120EA016460172700707000
B0439063226211S14811150EA016420171900607000
B0439113226154S14811184EA016290170700607000
B0439163226100S14811213EA016170169500607000
B0439213226052S14811238EA016050168300607000
B0439263226000S14811268EA015910166700607000
B0439313225947S14811301EA015820165100607000
B0439363225893S14811336EA015620163400607000
B0439413225841S14811360EA015560162400707000
B0439463225789S14811382EA015460161500807000
B0439513225735S14811403EA015360160800507000
B0439563225682S14811434EA015330160200607000
B0440013225635S14811469EA015350160000607000
B0440063225589S14811507EA015280159600607000
B0440113225540S14811541EA015320159400607000
B0440163225497S14811573EA015270159300607000
B0440213225450S14811606EA015300159500707000
B0440263225399S14811636EA015380160000607000
B0440313225350S14811665EA015500161200607000
B0440363225312S14811695EA015610162500607000
B0440413225315S14811738EA015650163301207000
B0440463225337S14811734EA015840164401107000
B0440513225323S14811686EA015980165801307000
B0440563225268S14811679EA016000166600907000
B0441013225220S14811684EA016070167400607000
B0441063225181S14811716EA016030167500907000
B0441113225194S14811760EA015970167301107000
B0441163225224S14811755EA016010167501307000
B0441213225223S14811714EA016090167701407000
B0441263225179S14811690EA016150168300807000
B0441313225140S14811712EA016200168600907000
B0441363225140S14811765EA016150168500907000
B0441413225162S14811795EA016230169000907000
B0441463225183S14811779EA016290169501007000
B0441513225164S14811735EA016330169900807000
B0441563225115S14811717EA016360170400907000
B0442013225059S14811715EA016410170600807000
B0442063225002S14811719EA016380170900807000
B0442113224952S14811737EA016410171200607000
B0442163224900S14811771EA016520172000807000
B0442213224866S14811812EA016610172800707000
B0442263224878S14811840EA016530172601707000
B0442313224881S14811796EA016530172901207000
B0442363224839S14811770EA016610173400707000
B0442413224785S14811783EA016550173300907000
B0442463224741S14811808EA016500172900807000
B0442513224702S14811847EA016410172000707000
B0442563224662S14811888EA016300170900707000
B0443013224619S14811934EA016200169401007000
B0443063224575S14811973EA016140168500907000
B0443113224527S14812008EA016030167500507000
B0443163224487S14812045EA015980166700907000
B0443213224445S14812084EA015920166000807000
B0443263224397S14812117EA015840165200807000
B0443313224350S14812151EA015780164700807000
B0443363224303S14812181EA015680163800407000
B0443413224256S14812215EA015610163100507000
B0443463224209S14812249EA015450161900707000
B0443513224166S14812288EA015340160600607000
B0443563224120S14812319EA015270159700807000
B0444013224071S14812349EA015170158500507000
B0444063224020S14812375EA015110157700507000
B0444113223977S14812404EA015060157000707000
B0444163223932S14812439EA014950155900807000
B0444213223885S14812470EA014840154700607000
B0444263223835S14812498EA014700153300507000
B0444313223782S14812528EA014550152000607000
B0444363223737S14812571EA014400150300507000
B0444413223696S14812613EA014290148900607000
B0444463223647S14812649EA014120147400507000
B0444513223597S14812679EA014010146100507000
B0444563223550S14812716EA013890144800607000
B0445013223505S14812756EA013760143400507000
B0445063223452S14812780EA013630142100607000
B0445113223403S14812811EA013510140700807000
B0445163223361S14812847EA013410139500407000
B0445213223314S14812879EA013260138100807000
B0445263223265S14812907EA013100136600707000
B0445313223220S14812940EA012960135100707000
B0445363223186S14812978EA012760133300907000
B0445413223154S14813019EA012620131700607000
B0445463223117S14813059EA012460129900607000
B0445513223083S14813099EA012270128000707000
B0445563223044S14813141EA012020125600907000
B0446013223004S14813178EA011880123800707000
B0446063222955S14813205EA011710121700807000
B0446113222902S14813228EA011500119700607000
B0446163222851S14813250EA011360118000407000
B0446213222788S14813255EA011260116500707000
B0446263222727S14813267EA011140115600607000
B0446313222663S14813280EA011130115200707000
B0446363222603S14813299EA011140115500707000
B0446413222550S14813323EA011220116200707000
B0446463222525S14813355EA011310117301307000
B0446513222539S14813342EA011340117801007000
B0446563222502S14813295EA011380118401507000
B0447013222449S14813293EA011510119301007000
B0447063222436S14813331EA011620120601307000
B0447113222454S14813325EA011720121701207000
B0447163222426S14813271EA011730122101307000
B0447213222367S14813255EA011830122801107000
B0447263222318S14813267EA012020124400807000
B0447313222309S14813304EA012090125801707000
B0447363222333S14813283EA012280127501507000
B0447413222294S14813227EA012410129101307000
B0447463222240S14813225EA012600131301007000
B0447513222214S14813259EA012710132601507000
B0447563222233S14813277EA012780133501507000
B0448013222238S14813237EA012930134201107000
B0448063222193S14813199EA013080135601207000
B0448113222144S14813215EA013180136801007000
B0448163222132S14813248EA013220137401307000
B0448213222154S14813247EA013270137901307000
B0448263222141S14813202EA013310138401807000
B0448313222081S14813192EA013390139101107000
B0448363222027S14813200EA013520140200807000
B0448413221980S14813221EA013590141300807000
B0448463221979S14813244EA013680142101007000
B0448513221990S14813211EA013790142900807000
B0448563221953S14813160EA013860143801107000
B0449013221895S14813165EA013900144601007000
B0449063221862S14813196EA014050146001207000
B0449113221870S14813219EA014100146901607000
B0449163221884S14813178EA014210148101207000
B0449213221843S14813122EA014260149101207000
B0449263221788S14813105EA014460150200807000
B0449313221746S14813138EA014520151200807000
B0449363221733S14813175EA014590152001207000
B0449413221750S14813184EA014630152201207000
B0449463221743S14813139EA014730152801607000
B0449513221688S14813115EA014860153701107000
B0449563221645S14813147EA014820154101207000
B0450013221623S14813189EA014810154200707000
B0450063221614S14813229EA014850154600907000
B0450113221625S14813248EA015060155801407000
B0450163221630S14813205EA015110156902007000
B0450213221576S14813183EA015240158201207000
B0450263221530S14813197EA015330159301007000
B0450313221496S14813235EA015390160000807000
B0450363221494S14813280EA015430160601507000
B0450413221525S14813277EA015600161601707000
B0450463221499S14813222EA015690162901607000
B0450513221448S14813231EA015870164401407000
B0450563221437S14813279EA015980165801307000
B0451013221458S14813291EA016110167701207000
B0451063221453S14813241EA016150168801307000
B0451113221391S14813231EA016230169501207000
B0451163221356S14813267EA016390170801507000
B0451213221369S14813299EA016500171801607000
B0451263221385S14813266EA016560172801607000
B0451313221353S14813213EA016650173701607000
B0451363221299S14813215EA016750174501007000
B0451413221265S14813255EA016870175601207000
B0451463221260S14813298EA016940176501107000
B0451513221285S14813314EA017040177201107000
B0451563221293S14813275EA017170177901007000
B0452013221245S14813235EA017200178601307000
B0452063221197S14813256EA017320179801207000
B0452113221191S14813302EA017460181301407000
B0452163221215S14813291EA017540182001207000
B0452213221193S14813240EA017670183701507000
B0452263221140S14813237EA017760184801207000
B0452313221100S14813267EA017900185900907000
B0452363221052S14813296EA017860186400707000
B0452413221022S14813341EA018010187600907000
B0452463221036S14813377EA018160189201507000
B0452513221056S14813355EA018290190001007000
B0452563221026S14813309EA018340191001507000
B0453013220977S14813328EA018470192201307000
B0453063220972S14813373EA018620193401207000
B0453113220998S14813360EA018720194601007000
B0453163220988S14813307EA018800195601307000
B0453213220946S14813287EA018920196401107000
B0453263220914S14813331EA018910196701407000
B0453313220929S14813362EA019050198001807000
B0453363220946S14813322EA019100198801507000
B0453413220913S14813274EA019110199101307000
B0453463220860S14813241EA019120199301107000
B0453513220804S14813223EA019210199800807000
B0453563220746S14813211EA019220200100707000
B0454013220688S14813211EA019190200200607000
B0454063220634S14813213EA019210200300707000
B0454113220576S14813217EA019260200700507000
B0454163220519S14813215EA019300200900607000
B0454213220471S14813205EA019410201600907000
B0454263220414S14813192EA019380201800907000
B0454313220350S14813184EA019380201900707000
B0454363220284S14813171EA019630203000807000
B0454413220230S14813189EA019810204601007000
F0454460205061220242529
B0454463220206S14813246EA019710204900908000
B0454513220232S14813253EA019740205601308000
B0454563220222S14813211EA019970207001508000
B0455013220161S14813191EA020100208801208000
B0455063220105S14813192EA020150209900708000
B0455113220076S14813237EA020030209701008000
B0455163220103S14813252EA019990208800708000
B0455213220088S14813200EA019820208101508000
B0455263220031S14813173EA019930207801108000
B0455313219973S14813157EA019950207900808000
B0455363219914S14813143EA020020208300708000
B0455413219858S14813134EA020040208800908000
B0455463219801S14813118EA019920208000808000
B0455513219738S14813111EA019830207200308000
B0455563219675S14813103EA019820206800708000
B0456013219609S14813093EA019840206700708000
B0456063219543S14813080EA019890206900608000
B0456113219475S14813069EA019890207100608000
B0456163219412S14813062EA019860207000708000
B0456213219349S14813060EA019800206700708000
B0456263219284S14813060EA019680205900708000
B0456313219222S14813056EA019630205200508000
B0456363219155S14813055EA019560204300708000
B0456413219089S14813062EA019520203800708000
B0456463219028S14813062EA019550203400808000
B0456513218965S14813053EA019520203100908000
B0456563218907S14813031EA019640203700808000
B0457013218850S14813038EA019750204900808000
B0457063218832S14813090EA019870206201008000
B0457113218850S14813092EA019980207600708000
B0457163218848S14813045EA020090209101008000
B0457213218803S14812999EA020180210800908000
B0457263218741S14812994EA020200211300908000
B0457313218679S14813011EA020250212000608000
B0457363218610S14813008EA020340212500808000
B0457413218534S14813006EA020330212800708000
B0457463218463S14813013EA020330213000708000
B0457513218391S14813025EA020230212500708000
B0457563218322S14813018EA020120210700808000
B0458013218254S14813020EA019920209000708000
B0458063218192S14813023EA019760207000808000
B0458113218124S14813026EA019530204700808000
B0458163218062S14813034EA019420202900708000
B0458213218012S14813047EA019380201500608000
B0458263217947S14813040EA019250200201208000
B0458313217881S14813019EA019260199900908000
B0458363217806S14813005EA019070198700908000
B0458413217734S14812995EA018900197200508000
B0458463217659S14812984EA018670195100808000
B0458513217587S14812978EA018550193400908000
B0458563217519S14812981EA018530192800908000
B0459013217452S14812991EA018490192300508000
B0459063217388S14812993EA018460192100708000
B0459113217323S14812995EA018400191700708000
B0459163217258S14813005EA018300191300608000
B0459213217195S14813012EA018240190700408000
B0459263217132S14813010EA018190190100608000
B0459313217066S14813018EA018040189200708000
B0459363216998S14813023EA017890187600808000
B0459413216935S14813019EA017740186000608000
B0459463216873S14813017EA017590184400508000
B0459513216812S14813002EA017420182500908000
B0459563216750S14812985EA017280180500408000
B0500013216679S14812981EA017190179200608000
B0500063216610S14812970EA017110178300608000
B0500113216541S14812964EA017020177400708000
B0500163216478S14812964EA016960176700708000
B0500213216416S14812979EA016790175700608000
B0500263216356S14813010EA016740175100608000
B0500313216295S14813020EA016820175201208000
B0500363216232S14813012EA016860175800908000
B0500413216168S14813003EA016840176000708000
B0500463216105S14813001EA016920176400808000
B0500513216044S14813000EA016940176700708000
B0500563215981S14813002EA016910176700708000
B0501013215926S14812996EA016930176800608000
B0501063215865S14812996EA016940176700508000
B0501113215795S14813008EA016810176300808000
B0501163215737S14813001EA016830176100708000
B0501213215675S14812997EA016810175900508000
B0501263215610S14812992EA016770175400708000
B0501313215543S14812990EA016670174700408000
B0501363215478S14813002EA016640174300608000
B0501413215415S14813020EA016600174000408000
B0501463215355S14813038EA016600173600508000
B0501513215290S14813046EA016620173600708000
B0501563215221S14813040EA016630173700808000
B0502013215153S14813024EA016660173800708000
B0502063215081S14813012EA016600173501008000
B0502113215016S14813001EA016550172900708000
B0502163214950S14812991EA016410171900408000
B0502213214888S14812981EA016240169900908000
B0502263214825S14812973EA016020167800708000
B0502313214763S14812971EA015880166400508000
B0502363214703S14812962EA015810165100808000
B0502413214644S14812960EA015820164600508000
B0502463214584S14812971EA015890164900708000
B0502513214536S14812995EA015970165800508000
B0502563214534S14813021EA015940166001108000
B0503013214537S14812977EA015910166201508000
B0503063214488S14812936EA015940166601208000
B0503113214425S14812927EA016010167000908000
F05031602051220242529
B0503163214360S14812925EA015930166700907000
F0503210205061220242529
B0503213214296S14812927EA015860166200708000
B0503263214240S14812935EA015840165700708000
B0503313214188S14812945EA015690164701108000
B0503363214167S14812987EA015600162700708000
B0503413214190S14813009EA015450161001208000
B0503463214201S14812987EA015430160600808000
B0503513214158S14812949EA015320160201208000
B0503563214095S14812950EA015140158600908000
B0504013214037S14812940EA015070157200908000
B0504063213973S14812939EA014870155200708000
B0504113213912S14812940EA014680153400608000
B0504163213852S14812939EA014510151600708000
B0504213213790S14812943EA014320149600608000
B0504263213731S14812948EA014200148100608000
B0504313213670S14812961EA014060147000608000
B0504363213609S14812968EA014020146200808000
B0504413213548S14812974EA013950145700608000
B0504463213489S14812982EA013920145200608000
B0504513213436S14813001EA013830144400408000
B0504563213383S14813023EA013760143800408000
B0505013213333S14813044EA013730143300508000
B0505063213277S14813062EA013640142600608000
B0505113213217S14813062EA013570141800708000
B0505163213156S14813047EA013490141200608000
B0505213213100S14813020EA013430140200608000
B0505263213036S14813002EA013240138700608000
B0505313212975S14812984EA013140137200708000
B0505363212915S14812963EA012980135600608000
B0505413212850S14812953EA012830134100508000
B0505463212790S14812941EA012750133000708000
B0505513212725S14812930EA012600131500508000
B0505563212663S14812929EA012520130600608000
B0506013212602S14812927EA012480130000708000
B0506063212544S14812914EA012510129900708000
B0506113212487S14812898EA012490130000708000
B0506163212428S14812886EA012450129900708000
B0506213212365S14812882EA012430129800508000
B0506263212296S14812880EA012380129400508000
B0506313212233S14812874EA012360129300608000
B0506363212164S14812878EA012200128100708000
B0506413212099S14812880EA012080126900608000
B0506463212032S14812884EA011880125000508000
B0506513211969S14812876EA011790123400808000
B0506563211908S14812864EA011650121800808000
B0507013211850S14812860EA011610120700608000
B0507063211784S14812856EA011380119400708000
B0507113211721S14812860EA011200117900608000
B0507163211663S14812859EA011130116500508000
B0507213211604S14812860EA010980114900608000
B0507263211549S14812871EA010880113500508000
B0507313211489S14812883EA010700112100508000
B0507363211430S14812878EA010600110900808000
B0507413211373S14812870EA010550109900608000
B0507463211311S14812864EA010380108500708000
B0507513211252S14812862EA010250107100608000
B0507563211196S14812864EA010140105900708000
B0508013211135S14812871EA009960104400608000
B0508063211078S14812874EA009790102800608000
B0508113211019S14812889EA009560100600708000
B0508163210961S14812900EA009380098500608000
B0508213210904S14812903EA009180096300708000
B0508263210850S14812895EA009020094100708000
B0508313210798S14812889EA008850092300708000
B0508363210744S14812889EA008710090700608000
B0508413210689S14812888EA008620089600608000
B0508463210634S14812891EA008540088800408000
B0508513210581S14812897EA008480088200608000
B0508563210526S14812896EA008400087500608000
B0509013210474S14812891EA008300086800508000
B0509063210421S14812881EA008200086000408000
B0509113210366S14812884EA008060084700608000
B0509163210314S14812896EA007950083500408000
B0509213210261S14812907EA007840082300608000
B0509263210212S14812931EA007730081000408000
B0509313210167S14812961EA007640079900408000
B0509363210125S14812993EA007560078900408000
B0509413210078S14813020EA007450077700508000
B0509463210033S14813039EA007310076400308000
B0509513209986S14813060EA007200075300508000
B0509563209937S14813079EA007120074400408000
B0510013209887S14813099EA007060073800508000
B0510063209845S14813116EA007130073800708000
B0510113209796S14813139EA006950072900608000
B0510163209745S14813150EA006860072200608000
B0510213209696S14813165EA006740071300708000
B0510263209652S14813191EA006610070100808000
B0510313209608S14813216EA006530069100508000
B0510363209560S14813236EA006450067900708000
B0510413209513S14813261EA006290066300408000
B0510463209465S14813289EA006150064700508000
B0510513209418S14813319EA006040063300508000
B0510563209372S14813344EA006060062600808000
B0511013209346S14813374EA006100062700708000
B0511063209363S14813387EA006040062701108000
B0511113209374S14813352EA006070063000708000
B0511163209347S14813311EA006060063000808000
B0511213209292S14813307EA006010062700808000
B0511263209241S14813325EA006020062800708000
B0511313209192S14813346EA006010062700808000
B0511363209142S14813367EA005940062200708000
B0511413209103S14813395EA005910061600508000
B0511463209089S14813434EA005880061000508000
B0511513209102S14813446EA005830060700908000
B0511563209110S14813413EA005830060600608000
B0512013209074S14813369EA005800060600908000
B0512063209019S14813365EA005770060400808000
B0512113208970S14813383EA005760060000808000
B0512163208934S14813420EA005700059300508000
B0512213208905S14813463EA005620058500708000
B0512263208869S14813495EA005540057700608000
B0512313208836S14813523EA005430056600408000
B0512363208842S14813552EA005290055200908000
B0512413208867S14813549EA005190053900708000
B0512463208868S14813510EA005030052201008000
B0512513208819S14813483EA004810050100908000
B0512563208771S14813486EA004710049101008000
B0513013208725S14813498EA004590047800708000
B0513063208681S14813518EA004450046700608000
B0513113208640S14813538EA004330045400708000
B0513163208598S14813558EA004230044400808000
B0513213208556S14813578EA004130043700508000
B0513263208523S14813609EA004020042000608000
B0513313208488S14813637EA003940040800708000
B0513363208449S14813655EA003850039800408000
B0513413208402S14813663EA003740038700608000
B0513463208355S14813676EA003630037600508000
B0513513208313S14813702EA003490036200508000
B0513563208272S14813729EA003380034800408000
B0514013208236S14813757EA003260033500408000
B0514063208207S14813792EA003130032200608000
B0514113208183S14813832EA003010030900508000
B0514163208168S14813876EA002930029800508000
B0514213208180S14813916EA002760028400708000
B0514263208208S14813927EA002660027200508000
B0514313208237S14813934EA002600026500708000
B0514363208267S14813935EA002520025700508000
B0514413208297S14813937EA002460025000608000
B0514463208325S14813940EA002350023900608000
B0514513208354S14813934EA002280023100508000
B0514563208372S14813931EA002280022700908000
B0515013208372S14813932EA002280022800908000
B0515063208371S14813932EA002280022800908000
B0515113208371S14813932EA002280022801108000
B0515163208371S14813932EA002280022800908000
B0515213208371S14813932EA002280022801008000
B0515263208372S14813932EA002280022801208000
B0515313208372S14813932EA002280022801108000
B0515363208371S14813932EA002280022800508000
B0515413208371S14813932EA002280022800908000
B0515463208371S14813932EA002280022800808000
B0515513208371S14813932EA002280022800808000
B0515563208371S14813932EA002280022800808000
GCAC8A2AFE4669612ADBABC474A724A4A14D06F56BB7B8E36318DC5376C6D08A4
